{
  "contractName": "Ownable",
  "abi": [
    {
      "inputs": [],
      "payable": false,
      "stateMutability": "nonpayable",
      "type": "constructor"
    },
    {
      "constant": true,
      "inputs": [],
      "name": "owner",
      "outputs": [
        {
          "internalType": "address",
          "name": "",
          "type": "address"
        }
      ],
      "payable": false,
      "stateMutability": "view",
      "type": "function"
    }
  ],
  "bytecode": "0x608060405234801561001057600080fd5b50336000806101000a81548173ffffffffffffffffffffffffffffffffffffffff021916908373ffffffffffffffffffffffffffffffffffffffff16021790555060cf8061005f6000396000f3fe6080604052348015600f57600080fd5b506004361060285760003560e01c80638da5cb5b14602d575b600080fd5b60336075565b604051808273ffffffffffffffffffffffffffffffffffffffff1673ffffffffffffffffffffffffffffffffffffffff16815260200191505060405180910390f35b6000809054906101000a900473ffffffffffffffffffffffffffffffffffffffff168156fea265627a7a7231582028a688f5b687cc6c5b7c55ed8878d6e36ebada2ba855ac4b97d229e3aca0014064736f6c634300050c0032",
  "source": "pragma solidity 0.5.12;\n\nimport \"@openzeppelin/upgrades/contracts/Initializable.sol\";\n\ncontract Ownable {\n    address public owner;\n\n    modifier onlyOwner(){\n        require(msg.sender == owner,\"error: onlyOwner!\");\n        _; //Continue execution\n    }\n\n    constructor() public {\n        owner = msg.sender;\n    }\n}",
  "sourcePath": "/home/ismael/Documents/Projects/GIT/CryptoKitties-clone/contracts/Ownable.sol",
  "compiler": {
    "name": "solc",
    "version": "0.5.12+commit.7709ece9.Emscripten.clang"
  },
  "schemaVersion": "3.3.2",
  "updatedAt": "2021-01-29T12:13:28.655Z",
  "devdoc": {
    "methods": {}
  },
  "userdoc": {
    "methods": {}
  }
}