{
  "contractName": "Ownable",
  "abi": [
    {
      "constant": true,
      "inputs": [],
      "name": "owner",
      "outputs": [
        {
          "internalType": "address",
          "name": "",
          "type": "address"
        }
      ],
      "payable": false,
      "stateMutability": "view",
      "type": "function"
    },
    {
      "constant": false,
      "inputs": [],
      "name": "initialize",
      "outputs": [],
      "payable": false,
      "stateMutability": "nonpayable",
      "type": "function"
    }
  ],
  "bytecode": "0x608060405234801561001057600080fd5b5061026f806100206000396000f3fe608060405234801561001057600080fd5b50600436106100365760003560e01c80638129fc1c1461003b5780638da5cb5b14610045575b600080fd5b61004361008f565b005b61004d6101cf565b604051808273ffffffffffffffffffffffffffffffffffffffff1673ffffffffffffffffffffffffffffffffffffffff16815260200191505060405180910390f35b600060019054906101000a900460ff16806100ae57506100ad6101f5565b5b806100c557506000809054906101000a900460ff16155b61011a576040517f08c379a000000000000000000000000000000000000000000000000000000000815260040180806020018281038252602e81526020018061020d602e913960400191505060405180910390fd5b60008060019054906101000a900460ff16159050801561016a576001600060016101000a81548160ff02191690831515021790555060016000806101000a81548160ff0219169083151502179055505b33603360006101000a81548173ffffffffffffffffffffffffffffffffffffffff021916908373ffffffffffffffffffffffffffffffffffffffff16021790555080156101cc5760008060016101000a81548160ff0219169083151502179055505b50565b603360009054906101000a900473ffffffffffffffffffffffffffffffffffffffff1681565b6000803090506000813b905060008114925050509056fe436f6e747261637420696e7374616e63652068617320616c7265616479206265656e20696e697469616c697a6564a265627a7a72315820dbe2aa7cc9662dbcb7d02d795f578c6dbd8e964789ee0e60d7bbad7bc5e2a7a364736f6c634300050c0032",
  "source": "pragma solidity 0.5.12;\n\nimport \"@openzeppelin/upgrades/contracts/Initializable.sol\";\n\ncontract Ownable is Initializable{\n    address public owner;\n\n    modifier onlyOwner(){\n        require(msg.sender == owner,\"error: onlyOwner!!!!!!!!!!!!!!!!!!!!!!!!!!!!!\");\n        _; //Continue execution\n    }\n\n    function initialize() public  initializer {\n        owner = msg.sender;\n    }\n}",
  "sourcePath": "/home/ismael/Documents/Projects/GIT/CryptoKitties-clone/contracts/Ownable.sol",
  "compiler": {
    "name": "solc",
    "version": "0.5.12+commit.7709ece9.Emscripten.clang"
  },
  "schemaVersion": "3.3.2",
  "updatedAt": "2020-12-08T07:13:41.274Z",
  "devdoc": {
    "methods": {}
  },
  "userdoc": {
    "methods": {}
  }
}