{
  "contractName": "PandaProxy",
  "abi": [
    {
      "inputs": [
        {
          "internalType": "address",
          "name": "_currentAddress",
          "type": "address"
        }
      ],
      "payable": false,
      "stateMutability": "nonpayable",
      "type": "constructor"
    },
    {
      "payable": true,
      "stateMutability": "payable",
      "type": "fallback"
    },
    {
      "constant": false,
      "inputs": [],
      "name": "initialize",
      "outputs": [],
      "payable": false,
      "stateMutability": "nonpayable",
      "type": "function"
    },
    {
      "constant": true,
      "inputs": [],
      "name": "owner",
      "outputs": [
        {
          "internalType": "address",
          "name": "",
          "type": "address"
        }
      ],
      "payable": false,
      "stateMutability": "view",
      "type": "function"
    },
    {
      "constant": false,
      "inputs": [
        {
          "internalType": "address",
          "name": "_newAddress",
          "type": "address"
        }
      ],
      "name": "upgrade",
      "outputs": [],
      "payable": false,
      "stateMutability": "nonpayable",
      "type": "function"
    }
  ],
  "bytecode": "0x6080604052600a603a60006101000a81548160ff021916908360ff16021790555034801561002c57600080fd5b506040516107f43803806107f48339818101604052602081101561004f57600080fd5b810190808051906020019092919050505080603a60016101000a81548173ffffffffffffffffffffffffffffffffffffffff021916908373ffffffffffffffffffffffffffffffffffffffff1602179055506040518060400160405280600b81526020017f43727970746f50616e6461000000000000000000000000000000000000000000815250603890805190602001906100ec9291906102ae565b506040518060400160405280600281526020017f4350000000000000000000000000000000000000000000000000000000000000815250603990805190602001906101389291906102ae565b5061014b61015160201b6102841760201c565b50610353565b600060019054906101000a900460ff1680610176575061017561029760201b60201c565b5b8061018d57506000809054906101000a900460ff16155b6101e2576040517f08c379a000000000000000000000000000000000000000000000000000000000815260040180806020018281038252602e8152602001806107c6602e913960400191505060405180910390fd5b60008060019054906101000a900460ff161590508015610232576001600060016101000a81548160ff02191690831515021790555060016000806101000a81548160ff0219169083151502179055505b33603360006101000a81548173ffffffffffffffffffffffffffffffffffffffff021916908373ffffffffffffffffffffffffffffffffffffffff16021790555080156102945760008060016101000a81548160ff0219169083151502179055505b50565b6000803090506000813b9050600081149250505090565b828054600181600116156101000203166002900490600052602060002090601f016020900481019282601f106102ef57805160ff191683800117855561031d565b8280016001018555821561031d579182015b8281111561031c578251825591602001919060010190610301565b5b50905061032a919061032e565b5090565b61035091905b8082111561034c576000816000905550600101610334565b5090565b90565b610464806103626000396000f3fe6080604052600436106100345760003560e01c80630900f010146101275780638129fc1c146101785780638da5cb5b1461018f575b6000603a60019054906101000a900473ffffffffffffffffffffffffffffffffffffffff169050600073ffffffffffffffffffffffffffffffffffffffff16603a60019054906101000a900473ffffffffffffffffffffffffffffffffffffffff1673ffffffffffffffffffffffffffffffffffffffff1614156100b757600080fd5b60606000368080601f016020809104026020016040519081016040528093929190818152602001838380828437600081840152601f19601f820116905080830192505050505050509050600080825160208401855af43d604051816000823e8260008114610123578282f35b8282fd5b34801561013357600080fd5b506101766004803603602081101561014a57600080fd5b81019080803573ffffffffffffffffffffffffffffffffffffffff1690602001909291905050506101e6565b005b34801561018457600080fd5b5061018d610284565b005b34801561019b57600080fd5b506101a46103c4565b604051808273ffffffffffffffffffffffffffffffffffffffff1673ffffffffffffffffffffffffffffffffffffffff16815260200191505060405180910390f35b603360009054906101000a900473ffffffffffffffffffffffffffffffffffffffff1673ffffffffffffffffffffffffffffffffffffffff163373ffffffffffffffffffffffffffffffffffffffff161461024057600080fd5b80603a60016101000a81548173ffffffffffffffffffffffffffffffffffffffff021916908373ffffffffffffffffffffffffffffffffffffffff16021790555050565b600060019054906101000a900460ff16806102a357506102a26103ea565b5b806102ba57506000809054906101000a900460ff16155b61030f576040517f08c379a000000000000000000000000000000000000000000000000000000000815260040180806020018281038252602e815260200180610402602e913960400191505060405180910390fd5b60008060019054906101000a900460ff16159050801561035f576001600060016101000a81548160ff02191690831515021790555060016000806101000a81548160ff0219169083151502179055505b33603360006101000a81548173ffffffffffffffffffffffffffffffffffffffff021916908373ffffffffffffffffffffffffffffffffffffffff16021790555080156103c15760008060016101000a81548160ff0219169083151502179055505b50565b603360009054906101000a900473ffffffffffffffffffffffffffffffffffffffff1681565b6000803090506000813b905060008114925050509056fe436f6e747261637420696e7374616e63652068617320616c7265616479206265656e20696e697469616c697a6564a265627a7a7231582014e3fd2f09d81f389e2491b5dcbfc19049d930955225c686cc04566ba96983a764736f6c634300050c0032436f6e747261637420696e7374616e63652068617320616c7265616479206265656e20696e697469616c697a6564",
  "source": "pragma solidity ^0.5.12;\nimport \"./PandaStorage.sol\";\nimport \"./Ownable.sol\";\n\ncontract PandaProxy is Ownable , PandaStorage{\n     \n  address currentAddress;\n\n  constructor(address _currentAddress) public {\n    currentAddress = _currentAddress;\n    _TokenName= \"CryptoPanda\";\n    _TokenSymbol = \"CP\";\n    Ownable.initialize();\n  }\n  function upgrade(address _newAddress) public onlyOwner {\n    currentAddress = _newAddress;\n  }\n\n  //FALLBACK FUNCTION.\n  function () payable external {\n    address implementation = currentAddress;\n    require(currentAddress != address(0));\n    bytes memory data = msg.data;\n\n    //DELEGATECALL EVERY FUNCTION CALL\n    assembly {\n      let result := delegatecall(gas, implementation, add(data, 0x20), mload(data), 0, 0)\n      let size := returndatasize\n      let ptr := mload(0x40)\n      returndatacopy(ptr, 0, size)\n      switch result\n      case 0 {revert(ptr, size)}\n      default {return(ptr, size)}\n    }\n  }\n}",
  "sourcePath": "/home/ismael/Documents/Blockchain Bootcamp/GIT/CryptoKitties-clone/contracts/PandaProxy.sol",
  "compiler": {
    "name": "solc",
    "version": "0.5.12+commit.7709ece9.Emscripten.clang"
  },
  "schemaVersion": "3.2.0",
  "updatedAt": "2020-10-21T11:15:34.111Z",
  "networkType": "ethereum",
  "devdoc": {
    "methods": {}
  },
  "userdoc": {
    "methods": {}
  }
}