{
  "contractName": "PandaMarketPlace",
  "abi": [
    {
      "anonymous": false,
      "inputs": [
        {
          "indexed": true,
          "internalType": "address",
          "name": "owner",
          "type": "address"
        },
        {
          "indexed": true,
          "internalType": "address",
          "name": "approved",
          "type": "address"
        },
        {
          "indexed": true,
          "internalType": "uint256",
          "name": "PandaId",
          "type": "uint256"
        }
      ],
      "name": "Approval",
      "type": "event"
    },
    {
      "anonymous": false,
      "inputs": [
        {
          "indexed": true,
          "internalType": "address",
          "name": "owner",
          "type": "address"
        },
        {
          "indexed": true,
          "internalType": "address",
          "name": "operator",
          "type": "address"
        },
        {
          "indexed": false,
          "internalType": "bool",
          "name": "approved",
          "type": "bool"
        }
      ],
      "name": "ApprovalForAll",
      "type": "event"
    },
    {
      "anonymous": false,
      "inputs": [
        {
          "indexed": false,
          "internalType": "address",
          "name": "_owner",
          "type": "address"
        },
        {
          "indexed": false,
          "internalType": "uint256",
          "name": "PandaId",
          "type": "uint256"
        },
        {
          "indexed": false,
          "internalType": "uint32",
          "name": "mumId",
          "type": "uint32"
        },
        {
          "indexed": false,
          "internalType": "uint32",
          "name": "dadId",
          "type": "uint32"
        },
        {
          "indexed": false,
          "internalType": "uint256",
          "name": "genes",
          "type": "uint256"
        },
        {
          "indexed": false,
          "internalType": "uint16",
          "name": "generation",
          "type": "uint16"
        }
      ],
      "name": "Birth",
      "type": "event"
    },
    {
      "anonymous": false,
      "inputs": [
        {
          "indexed": false,
          "internalType": "string",
          "name": "TxType",
          "type": "string"
        },
        {
          "indexed": false,
          "internalType": "address",
          "name": "owner",
          "type": "address"
        },
        {
          "indexed": false,
          "internalType": "uint256",
          "name": "tokenId",
          "type": "uint256"
        }
      ],
      "name": "MarketTransaction",
      "type": "event"
    },
    {
      "anonymous": false,
      "inputs": [
        {
          "indexed": true,
          "internalType": "address",
          "name": "from",
          "type": "address"
        },
        {
          "indexed": true,
          "internalType": "address",
          "name": "to",
          "type": "address"
        },
        {
          "indexed": true,
          "internalType": "uint256",
          "name": "tokenId",
          "type": "uint256"
        }
      ],
      "name": "Transfer",
      "type": "event"
    },
    {
      "constant": true,
      "inputs": [
        {
          "internalType": "address",
          "name": "PandaOwnerAddress",
          "type": "address"
        }
      ],
      "name": "_pandasOfOwner",
      "outputs": [
        {
          "internalType": "uint256[]",
          "name": "",
          "type": "uint256[]"
        }
      ],
      "payable": false,
      "stateMutability": "view",
      "type": "function"
    },
    {
      "constant": false,
      "inputs": [
        {
          "internalType": "address",
          "name": "_to",
          "type": "address"
        },
        {
          "internalType": "uint256",
          "name": "_tokenId",
          "type": "uint256"
        }
      ],
      "name": "approve",
      "outputs": [],
      "payable": false,
      "stateMutability": "nonpayable",
      "type": "function"
    },
    {
      "constant": true,
      "inputs": [
        {
          "internalType": "address",
          "name": "owner",
          "type": "address"
        }
      ],
      "name": "balanceOf",
      "outputs": [
        {
          "internalType": "uint256",
          "name": "balance",
          "type": "uint256"
        }
      ],
      "payable": false,
      "stateMutability": "view",
      "type": "function"
    },
    {
      "constant": false,
      "inputs": [
        {
          "internalType": "uint32",
          "name": "_dadId",
          "type": "uint32"
        },
        {
          "internalType": "uint32",
          "name": "_mumId",
          "type": "uint32"
        }
      ],
      "name": "breed",
      "outputs": [
        {
          "internalType": "uint256",
          "name": "",
          "type": "uint256"
        }
      ],
      "payable": false,
      "stateMutability": "nonpayable",
      "type": "function"
    },
    {
      "constant": false,
      "inputs": [
        {
          "internalType": "uint256",
          "name": "_genes",
          "type": "uint256"
        }
      ],
      "name": "createPandaGen0",
      "outputs": [
        {
          "internalType": "uint256",
          "name": "",
          "type": "uint256"
        }
      ],
      "payable": false,
      "stateMutability": "nonpayable",
      "type": "function"
    },
    {
      "constant": true,
      "inputs": [
        {
          "internalType": "uint256",
          "name": "_tokenId",
          "type": "uint256"
        }
      ],
      "name": "getApproved",
      "outputs": [
        {
          "internalType": "address",
          "name": "",
          "type": "address"
        }
      ],
      "payable": false,
      "stateMutability": "view",
      "type": "function"
    },
    {
      "constant": true,
      "inputs": [
        {
          "internalType": "uint256",
          "name": "tokenId",
          "type": "uint256"
        }
      ],
      "name": "getPanda",
      "outputs": [
        {
          "internalType": "uint256",
          "name": "genes",
          "type": "uint256"
        },
        {
          "internalType": "uint64",
          "name": "birthTime",
          "type": "uint64"
        },
        {
          "internalType": "uint32",
          "name": "mumId",
          "type": "uint32"
        },
        {
          "internalType": "uint32",
          "name": "dadId",
          "type": "uint32"
        },
        {
          "internalType": "uint16",
          "name": "generation",
          "type": "uint16"
        }
      ],
      "payable": false,
      "stateMutability": "view",
      "type": "function"
    },
    {
      "constant": true,
      "inputs": [
        {
          "internalType": "address",
          "name": "_owner",
          "type": "address"
        },
        {
          "internalType": "address",
          "name": "_operator",
          "type": "address"
        }
      ],
      "name": "isApprovedForAll",
      "outputs": [
        {
          "internalType": "bool",
          "name": "",
          "type": "bool"
        }
      ],
      "payable": false,
      "stateMutability": "view",
      "type": "function"
    },
    {
      "constant": true,
      "inputs": [],
      "name": "name",
      "outputs": [
        {
          "internalType": "string",
          "name": "tokenName",
          "type": "string"
        }
      ],
      "payable": false,
      "stateMutability": "view",
      "type": "function"
    },
    {
      "constant": true,
      "inputs": [],
      "name": "owner",
      "outputs": [
        {
          "internalType": "address",
          "name": "",
          "type": "address"
        }
      ],
      "payable": false,
      "stateMutability": "view",
      "type": "function"
    },
    {
      "constant": true,
      "inputs": [
        {
          "internalType": "uint256",
          "name": "_tokenId",
          "type": "uint256"
        }
      ],
      "name": "ownerOf",
      "outputs": [
        {
          "internalType": "address",
          "name": "owner",
          "type": "address"
        }
      ],
      "payable": false,
      "stateMutability": "view",
      "type": "function"
    },
    {
      "constant": false,
      "inputs": [
        {
          "internalType": "address",
          "name": "_from",
          "type": "address"
        },
        {
          "internalType": "address",
          "name": "_to",
          "type": "address"
        },
        {
          "internalType": "uint256",
          "name": "_tokenId",
          "type": "uint256"
        }
      ],
      "name": "safeTransferFrom",
      "outputs": [],
      "payable": false,
      "stateMutability": "nonpayable",
      "type": "function"
    },
    {
      "constant": false,
      "inputs": [
        {
          "internalType": "address",
          "name": "_from",
          "type": "address"
        },
        {
          "internalType": "address",
          "name": "_to",
          "type": "address"
        },
        {
          "internalType": "uint256",
          "name": "_tokenId",
          "type": "uint256"
        },
        {
          "internalType": "bytes",
          "name": "data",
          "type": "bytes"
        }
      ],
      "name": "safeTransferFrom",
      "outputs": [],
      "payable": false,
      "stateMutability": "nonpayable",
      "type": "function"
    },
    {
      "constant": false,
      "inputs": [
        {
          "internalType": "address",
          "name": "_operator",
          "type": "address"
        },
        {
          "internalType": "bool",
          "name": "_approved",
          "type": "bool"
        }
      ],
      "name": "setApprovalForAll",
      "outputs": [],
      "payable": false,
      "stateMutability": "nonpayable",
      "type": "function"
    },
    {
      "constant": true,
      "inputs": [
        {
          "internalType": "bytes4",
          "name": "interfaceId",
          "type": "bytes4"
        }
      ],
      "name": "supportsInterface",
      "outputs": [
        {
          "internalType": "bool",
          "name": "",
          "type": "bool"
        }
      ],
      "payable": false,
      "stateMutability": "pure",
      "type": "function"
    },
    {
      "constant": true,
      "inputs": [],
      "name": "symbol",
      "outputs": [
        {
          "internalType": "string",
          "name": "tokenSymbol",
          "type": "string"
        }
      ],
      "payable": false,
      "stateMutability": "view",
      "type": "function"
    },
    {
      "constant": true,
      "inputs": [],
      "name": "totalSupply",
      "outputs": [
        {
          "internalType": "uint256",
          "name": "total",
          "type": "uint256"
        }
      ],
      "payable": false,
      "stateMutability": "view",
      "type": "function"
    },
    {
      "constant": false,
      "inputs": [
        {
          "internalType": "address",
          "name": "_to",
          "type": "address"
        },
        {
          "internalType": "uint256",
          "name": "_tokenId",
          "type": "uint256"
        }
      ],
      "name": "transfer",
      "outputs": [],
      "payable": false,
      "stateMutability": "nonpayable",
      "type": "function"
    },
    {
      "constant": false,
      "inputs": [
        {
          "internalType": "address",
          "name": "_from",
          "type": "address"
        },
        {
          "internalType": "address",
          "name": "_to",
          "type": "address"
        },
        {
          "internalType": "uint256",
          "name": "_tokenId",
          "type": "uint256"
        }
      ],
      "name": "transferFrom",
      "outputs": [],
      "payable": false,
      "stateMutability": "nonpayable",
      "type": "function"
    },
    {
      "constant": false,
      "inputs": [
        {
          "internalType": "string",
          "name": "_tName",
          "type": "string"
        },
        {
          "internalType": "string",
          "name": "_tSymbol",
          "type": "string"
        }
      ],
      "name": "initialize",
      "outputs": [],
      "payable": false,
      "stateMutability": "nonpayable",
      "type": "function"
    },
    {
      "constant": false,
      "inputs": [],
      "name": "initialize",
      "outputs": [],
      "payable": false,
      "stateMutability": "nonpayable",
      "type": "function"
    },
    {
      "constant": false,
      "inputs": [
        {
          "internalType": "address",
          "name": "_pandaContractAddress",
          "type": "address"
        }
      ],
      "name": "initialize",
      "outputs": [],
      "payable": false,
      "stateMutability": "nonpayable",
      "type": "function"
    },
    {
      "constant": false,
      "inputs": [
        {
          "internalType": "address",
          "name": "_pandaContractAddress",
          "type": "address"
        }
      ],
      "name": "setPandaContract",
      "outputs": [],
      "payable": false,
      "stateMutability": "nonpayable",
      "type": "function"
    },
    {
      "constant": true,
      "inputs": [
        {
          "internalType": "uint256",
          "name": "_tokenId",
          "type": "uint256"
        }
      ],
      "name": "getOffer",
      "outputs": [
        {
          "internalType": "address",
          "name": "seller",
          "type": "address"
        },
        {
          "internalType": "uint256",
          "name": "price",
          "type": "uint256"
        },
        {
          "internalType": "uint256",
          "name": "index",
          "type": "uint256"
        },
        {
          "internalType": "uint256",
          "name": "tokenId",
          "type": "uint256"
        },
        {
          "internalType": "bool",
          "name": "active",
          "type": "bool"
        }
      ],
      "payable": false,
      "stateMutability": "view",
      "type": "function"
    },
    {
      "constant": true,
      "inputs": [],
      "name": "getAllTokenOnSale",
      "outputs": [
        {
          "internalType": "uint256[]",
          "name": "listOfOffers",
          "type": "uint256[]"
        }
      ],
      "payable": false,
      "stateMutability": "view",
      "type": "function"
    },
    {
      "constant": false,
      "inputs": [
        {
          "internalType": "uint256",
          "name": "_price",
          "type": "uint256"
        },
        {
          "internalType": "uint256",
          "name": "_tokenId",
          "type": "uint256"
        }
      ],
      "name": "setOffer",
      "outputs": [],
      "payable": false,
      "stateMutability": "nonpayable",
      "type": "function"
    },
    {
      "constant": false,
      "inputs": [
        {
          "internalType": "uint256",
          "name": "_tokenId",
          "type": "uint256"
        }
      ],
      "name": "removeOffer",
      "outputs": [],
      "payable": false,
      "stateMutability": "nonpayable",
      "type": "function"
    },
    {
      "constant": false,
      "inputs": [
        {
          "internalType": "uint256",
          "name": "_tokenId",
          "type": "uint256"
        }
      ],
      "name": "buyPanda",
      "outputs": [],
      "payable": true,
      "stateMutability": "payable",
      "type": "function"
    }
  ],
  "bytecode": "0x6080604052600a603c60006101000a81548160ff021916908360ff1602179055506000603e5534801561003157600080fd5b506142db806100416000396000f3fe6080604052600436106101b75760003560e01c806370a08231116100ec578063a9059cbb1161008a578063c4d66de811610064578063c4d66de814610d1b578063d967c62114610d6c578063e897bd9c14610dbb578063e985e9c514610e0c576101b7565b8063a9059cbb14610b80578063a96ea64914610bdb578063b88d4fde14610c09576101b7565b8063941b055b116100c6578063941b055b14610a1357806395a0f9c714610a5857806395d89b4114610a93578063a22cb46514610b23576101b7565b806370a08231146109405780638129fc1c146109a55780638da5cb5b146109bc576101b7565b806323b872dd116101595780634579268a116101335780634579268a1461065f57806349b3709f146106fa5780634cd88b76146107665780636352211e146108c5576101b7565b806323b872dd1461050457806324ab5e081461057f57806342842e0e146105e4576101b7565b8063095ea7b311610195578063095ea7b3146103395780630b8ab884146103945780631327fbe51461043a57806318160ddd146104d9576101b7565b806301ffc9a7146101bc57806306fdde031461022e578063081812fc146102be575b600080fd5b3480156101c857600080fd5b50610214600480360360208110156101df57600080fd5b8101908080357bffffffffffffffffffffffffffffffffffffffffffffffffffffffff19169060200190929190505050610e95565b604051808215151515815260200191505060405180910390f35b34801561023a57600080fd5b50610243610f35565b6040518080602001828103825283818151815260200191508051906020019080838360005b83811015610283578082015181840152602081019050610268565b50505050905090810190601f1680156102b05780820380516001836020036101000a031916815260200191505b509250505060405180910390f35b3480156102ca57600080fd5b506102f7600480360360208110156102e157600080fd5b8101908080359060200190929190505050610fd7565b604051808273ffffffffffffffffffffffffffffffffffffffff1673ffffffffffffffffffffffffffffffffffffffff16815260200191505060405180910390f35b34801561034557600080fd5b506103926004803603604081101561035c57600080fd5b81019080803573ffffffffffffffffffffffffffffffffffffffff1690602001909291908035906020019092919050505061101c565b005b3480156103a057600080fd5b506103e3600480360360208110156103b757600080fd5b81019080803573ffffffffffffffffffffffffffffffffffffffff1690602001909291905050506111f5565b6040518080602001828103825283818151815260200191508051906020019060200280838360005b8381101561042657808201518184015260208101905061040b565b505050509050019250505060405180910390f35b34801561044657600080fd5b506104736004803603602081101561045d57600080fd5b810190808035906020019092919050505061133d565b604051808681526020018567ffffffffffffffff1667ffffffffffffffff1681526020018463ffffffff1663ffffffff1681526020018363ffffffff1663ffffffff1681526020018261ffff1661ffff1681526020019550505050505060405180910390f35b3480156104e557600080fd5b506104ee611455565b6040518082815260200191505060405180910390f35b34801561051057600080fd5b5061057d6004803603606081101561052757600080fd5b81019080803573ffffffffffffffffffffffffffffffffffffffff169060200190929190803573ffffffffffffffffffffffffffffffffffffffff16906020019092919080359060200190929190505050611462565b005b34801561058b57600080fd5b506105ce600480360360408110156105a257600080fd5b81019080803563ffffffff169060200190929190803563ffffffff1690602001909291905050506116cf565b6040518082815260200191505060405180910390f35b3480156105f057600080fd5b5061065d6004803603606081101561060757600080fd5b81019080803573ffffffffffffffffffffffffffffffffffffffff169060200190929190803573ffffffffffffffffffffffffffffffffffffffff169060200190929190803590602001909291905050506117c5565b005b34801561066b57600080fd5b506106986004803603602081101561068257600080fd5b81019080803590602001909291905050506117e5565b604051808673ffffffffffffffffffffffffffffffffffffffff1673ffffffffffffffffffffffffffffffffffffffff168152602001858152602001848152602001838152602001821515151581526020019550505050505060405180910390f35b34801561070657600080fd5b5061070f61196d565b6040518080602001828103825283818151815260200191508051906020019060200280838360005b83811015610752578082015181840152602081019050610737565b505050509050019250505060405180910390f35b34801561077257600080fd5b506108c36004803603604081101561078957600080fd5b81019080803590602001906401000000008111156107a657600080fd5b8201836020820111156107b857600080fd5b803590602001918460018302840111640100000000831117156107da57600080fd5b91908080601f016020809104026020016040519081016040528093929190818152602001838380828437600081840152601f19601f8201169050808301925050505050505091929192908035906020019064010000000081111561083d57600080fd5b82018360208201111561084f57600080fd5b8035906020019184600183028401116401000000008311171561087157600080fd5b91908080601f016020809104026020016040519081016040528093929190818152602001838380828437600081840152601f19601f820116905080830192505050505050509192919290505050611a05565b005b3480156108d157600080fd5b506108fe600480360360208110156108e857600080fd5b8101908080359060200190929190505050611b3c565b604051808273ffffffffffffffffffffffffffffffffffffffff1673ffffffffffffffffffffffffffffffffffffffff16815260200191505060405180910390f35b34801561094c57600080fd5b5061098f6004803603602081101561096357600080fd5b81019080803573ffffffffffffffffffffffffffffffffffffffff169060200190929190505050611b79565b6040518082815260200191505060405180910390f35b3480156109b157600080fd5b506109ba611bc2565b005b3480156109c857600080fd5b506109d1611d82565b604051808273ffffffffffffffffffffffffffffffffffffffff1673ffffffffffffffffffffffffffffffffffffffff16815260200191505060405180910390f35b348015610a1f57600080fd5b50610a5660048036036040811015610a3657600080fd5b810190808035906020019092919080359060200190929190505050611da8565b005b348015610a6457600080fd5b50610a9160048036036020811015610a7b57600080fd5b8101908080359060200190929190505050612469565b005b348015610a9f57600080fd5b50610aa8612659565b6040518080602001828103825283818151815260200191508051906020019080838360005b83811015610ae8578082015181840152602081019050610acd565b50505050905090810190601f168015610b155780820380516001836020036101000a031916815260200191505b509250505060405180910390f35b348015610b2f57600080fd5b50610b7e60048036036040811015610b4657600080fd5b81019080803573ffffffffffffffffffffffffffffffffffffffff1690602001909291908035151590602001909291905050506126fb565b005b348015610b8c57600080fd5b50610bd960048036036040811015610ba357600080fd5b81019080803573ffffffffffffffffffffffffffffffffffffffff169060200190929190803590602001909291905050506128d0565b005b610c0760048036036020811015610bf157600080fd5b81019080803590602001909291905050506129df565b005b348015610c1557600080fd5b50610d1960048036036080811015610c2c57600080fd5b81019080803573ffffffffffffffffffffffffffffffffffffffff169060200190929190803573ffffffffffffffffffffffffffffffffffffffff1690602001909291908035906020019092919080359060200190640100000000811115610c9357600080fd5b820183602082011115610ca557600080fd5b80359060200191846001830284011164010000000083111715610cc757600080fd5b91908080601f016020809104026020016040519081016040528093929190818152602001838380828437600081840152601f19601f820116905080830192505050505050509192919290505050612de4565b005b348015610d2757600080fd5b50610d6a60048036036020811015610d3e57600080fd5b81019080803573ffffffffffffffffffffffffffffffffffffffff169060200190929190505050612e0b565b005b348015610d7857600080fd5b50610da560048036036020811015610d8f57600080fd5b8101908080359060200190929190505050612f76565b6040518082815260200191505060405180910390f35b348015610dc757600080fd5b50610e0a60048036036020811015610dde57600080fd5b81019080803573ffffffffffffffffffffffffffffffffffffffff1690602001909291905050506130b8565b005b348015610e1857600080fd5b50610e7b60048036036040811015610e2f57600080fd5b81019080803573ffffffffffffffffffffffffffffffffffffffff169060200190929190803573ffffffffffffffffffffffffffffffffffffffff169060200190929190505050613156565b604051808215151515815260200191505060405180910390f35b60006380ac58cd60e01b7bffffffffffffffffffffffffffffffffffffffffffffffffffffffff1916827bffffffffffffffffffffffffffffffffffffffffffffffffffffffff19161480610f2e57506301ffc9a760e01b7bffffffffffffffffffffffffffffffffffffffffffffffffffffffff1916827bffffffffffffffffffffffffffffffffffffffffffffffffffffffff1916145b9050919050565b6060603a8054600181600116156101000203166002900480601f016020809104026020016040519081016040528092919081815260200182805460018160011615610100020316600290048015610fcd5780601f10610fa257610100808354040283529160200191610fcd565b820191906000526020600020905b815481529060010190602001808311610fb057829003601f168201915b5050505050905090565b600080610fe2611455565b11610fec57600080fd5b600082101580156110035750611000611455565b82105b61100c57600080fd5b611015826131ea565b9050919050565b600073ffffffffffffffffffffffffffffffffffffffff163373ffffffffffffffffffffffffffffffffffffffff16141561105657600080fd5b3373ffffffffffffffffffffffffffffffffffffffff166037600083815260200190815260200160002060009054906101000a900473ffffffffffffffffffffffffffffffffffffffff1673ffffffffffffffffffffffffffffffffffffffff161480611183575060011515603960006037600085815260200190815260200160002060009054906101000a900473ffffffffffffffffffffffffffffffffffffffff1673ffffffffffffffffffffffffffffffffffffffff1673ffffffffffffffffffffffffffffffffffffffff16815260200190815260200160002060003373ffffffffffffffffffffffffffffffffffffffff1673ffffffffffffffffffffffffffffffffffffffff16815260200190815260200160002060009054906101000a900460ff161515145b61118c57600080fd5b6111968282613227565b808273ffffffffffffffffffffffffffffffffffffffff163373ffffffffffffffffffffffffffffffffffffffff167f8c5be1e5ebec7d5bd14f71427d1e84f3dd0314c0f7b2291e5b200ac8c7c3b92560405160405180910390a45050565b6060600061120283611b79565b9050600081141561124657600060405190808252806020026020018201604052801561123d5781602001602082028038833980820191505090505b50915050611338565b6060816040519080825280602002602001820160405280156112775781602001602082028038833980820191505090505b5090506000611284611455565b905060008090506000600190505b82811161132f578673ffffffffffffffffffffffffffffffffffffffff166037600083815260200190815260200160002060009054906101000a900473ffffffffffffffffffffffffffffffffffffffff1673ffffffffffffffffffffffffffffffffffffffff161415611322578084838151811061130d57fe5b60200260200101818152505081806001019250505b8080600101915050611292565b83955050505050505b919050565b6000806000806000856034805490501161135657600080fd5b6034868154811061136357fe5b90600052602060002090600202016000015494506034868154811061138457fe5b906000526020600020906002020160010160009054906101000a900467ffffffffffffffff169350603486815481106113b957fe5b906000526020600020906002020160010160089054906101000a900463ffffffff169250603486815481106113ea57fe5b9060005260206000209060020201600101600c9054906101000a900463ffffffff1691506034868154811061141b57fe5b906000526020600020906002020160010160109054906101000a900461ffff16905084848484849450945094509450945091939590929450565b6000603480549050905090565b600073ffffffffffffffffffffffffffffffffffffffff168273ffffffffffffffffffffffffffffffffffffffff16141561149c57600080fd5b3373ffffffffffffffffffffffffffffffffffffffff166037600083815260200190815260200160002060009054906101000a900473ffffffffffffffffffffffffffffffffffffffff1673ffffffffffffffffffffffffffffffffffffffff16148061156757503373ffffffffffffffffffffffffffffffffffffffff166038600083815260200190815260200160002060009054906101000a900473ffffffffffffffffffffffffffffffffffffffff1673ffffffffffffffffffffffffffffffffffffffff16145b8061162b5750603960006037600084815260200190815260200160002060009054906101000a900473ffffffffffffffffffffffffffffffffffffffff1673ffffffffffffffffffffffffffffffffffffffff1673ffffffffffffffffffffffffffffffffffffffff16815260200190815260200160002060003373ffffffffffffffffffffffffffffffffffffffff1673ffffffffffffffffffffffffffffffffffffffff16815260200190815260200160002060009054906101000a900460ff165b61163457600080fd5b6037600082815260200190815260200160002060009054906101000a900473ffffffffffffffffffffffffffffffffffffffff1673ffffffffffffffffffffffffffffffffffffffff168373ffffffffffffffffffffffffffffffffffffffff161461169f57600080fd5b600081101580156116b657506116b3611455565b81105b6116bf57600080fd5b6116ca83838361327d565b505050565b60003373ffffffffffffffffffffffffffffffffffffffff16603760008563ffffffff16815260200190815260200160002060009054906101000a900473ffffffffffffffffffffffffffffffffffffffff1673ffffffffffffffffffffffffffffffffffffffff161480156117a957503373ffffffffffffffffffffffffffffffffffffffff16603760008463ffffffff16815260200190815260200160002060009054906101000a900473ffffffffffffffffffffffffffffffffffffffff1673ffffffffffffffffffffffffffffffffffffffff16145b6117b257600080fd5b6117bd3384846134a1565b905092915050565b6117e083838360405180602001604052806000815250612de4565b505050565b600080600080600080603f600088815260200190815260200160002060030154118015611839575060011515603f600088815260200190815260200160002060040160009054906101000a900460ff161515145b6118ab576040517f08c379a000000000000000000000000000000000000000000000000000000000815260040180806020018281038252601f8152602001807f4e6f20616374697665206f6666657220666f722074686520746f6b656e49440081525060200191505060405180910390fd5b603f600083815260200190815260200160002060000160009054906101000a900473ffffffffffffffffffffffffffffffffffffffff169450603f6000838152602001908152602001600020600101549350603f6000838152602001908152602001600020600201549250603f6000838152602001908152602001600020600301549150603f600083815260200190815260200160002060040160009054906101000a900460ff16905084848484849450945094509450945091939590929450565b60606000603d8054905011801561198657506000603e54115b6119f8576040517f08c379a00000000000000000000000000000000000000000000000000000000081526004018080602001828103825260098152602001807f4e6f204f6666657273000000000000000000000000000000000000000000000081525060200191505060405180910390fd5b611a006135c6565b905090565b600060019054906101000a900460ff1680611a245750611a2361367e565b5b80611a3b57506000809054906101000a900460ff16155b611a90576040517f08c379a000000000000000000000000000000000000000000000000000000000815260040180806020018281038252602e815260200180614254602e913960400191505060405180910390fd5b60008060019054906101000a900460ff161590508015611ae0576001600060016101000a81548160ff02191690831515021790555060016000806101000a81548160ff0219169083151502179055505b611ae8613695565b82603a9080519060200190611afe929190614068565b5081603b9080519060200190611b15929190614068565b508015611b375760008060016101000a81548160ff0219169083151502179055505b505050565b60006037600083815260200190815260200160002060009054906101000a900473ffffffffffffffffffffffffffffffffffffffff169050919050565b6000603660008373ffffffffffffffffffffffffffffffffffffffff1673ffffffffffffffffffffffffffffffffffffffff168152602001908152602001600020549050919050565b600060019054906101000a900460ff1680611be15750611be061367e565b5b80611bf857506000809054906101000a900460ff16155b611c4d576040517f08c379a000000000000000000000000000000000000000000000000000000000815260040180806020018281038252602e815260200180614254602e913960400191505060405180910390fd5b60008060019054906101000a900460ff161590508015611c9d576001600060016101000a81548160ff02191690831515021790555060016000806101000a81548160ff0219169083151502179055505b611d116040518060400160405280600b81526020017f43727970746f50616e64610000000000000000000000000000000000000000008152506040518060400160405280600281526020017f4350000000000000000000000000000000000000000000000000000000000000815250611a05565b6000603560006101000a81548160ff021916908360ff160217905550611d5d60008060007fffffffffffffffffffffffffffffffffffffffffffffffffffffffffffffffff60006137d5565b508015611d7f5760008060016101000a81548160ff0219169083151502179055505b50565b603360009054906101000a900473ffffffffffffffffffffffffffffffffffffffff1681565b3373ffffffffffffffffffffffffffffffffffffffff16603c60019054906101000a900473ffffffffffffffffffffffffffffffffffffffff1673ffffffffffffffffffffffffffffffffffffffff16636352211e836040518263ffffffff1660e01b81526004018082815260200191505060206040518083038186803b158015611e3257600080fd5b505afa158015611e46573d6000803e3d6000fd5b505050506040513d6020811015611e5c57600080fd5b810190808051906020019092919050505073ffffffffffffffffffffffffffffffffffffffff1614611ef6576040517f08c379a000000000000000000000000000000000000000000000000000000000815260040180806020018281038252601a8152602001807f4e6f7420746865206f776e6572206f662074686520746f6b656e00000000000081525060200191505060405180910390fd5b60001515603f600083815260200190815260200160002060040160009054906101000a900460ff16151514611f93576040517f08c379a00000000000000000000000000000000000000000000000000000000081526004018080602001828103825260168152602001807f416c726561647920616e206f666665722065786973740000000000000000000081525060200191505060405180910390fd5b603c60019054906101000a900473ffffffffffffffffffffffffffffffffffffffff1673ffffffffffffffffffffffffffffffffffffffff1663e985e9c533306040518363ffffffff1660e01b8152600401808373ffffffffffffffffffffffffffffffffffffffff1673ffffffffffffffffffffffffffffffffffffffff1681526020018273ffffffffffffffffffffffffffffffffffffffff1673ffffffffffffffffffffffffffffffffffffffff1681526020019250505060206040518083038186803b15801561206657600080fd5b505afa15801561207a573d6000803e3d6000fd5b505050506040513d602081101561209057600080fd5b8101908080519060200190929190505050612113576040517f08c379a000000000000000000000000000000000000000000000000000000000815260040180806020018281038252601f8152602001807f4e6f7420616e206f70657261746f7220666f722074686520746f6b656e49640081525060200191505060405180910390fd5b80603f6000838152602001908152602001600020600301541415612209576000603f600083815260200190815260200160002060020154905033603d828154811061215a57fe5b906000526020600020906005020160000160006101000a81548173ffffffffffffffffffffffffffffffffffffffff021916908373ffffffffffffffffffffffffffffffffffffffff16021790555082603d82815481106121b757fe5b9060005260206000209060050201600101819055506001603d82815481106121db57fe5b906000526020600020906005020160040160006101000a81548160ff021916908315150217905550506123af565b6122116140e8565b6040518060a001604052803373ffffffffffffffffffffffffffffffffffffffff1681526020018481526020016001603d8054905003815260200183815260200160011515815250905080603f600084815260200190815260200160002060008201518160000160006101000a81548173ffffffffffffffffffffffffffffffffffffffff021916908373ffffffffffffffffffffffffffffffffffffffff16021790555060208201518160010155604082015181600201556060820151816003015560808201518160040160006101000a81548160ff021916908315150217905550905050603d819080600181540180825580915050906001820390600052602060002090600502016000909192909190915060008201518160000160006101000a81548173ffffffffffffffffffffffffffffffffffffffff021916908373ffffffffffffffffffffffffffffffffffffffff16021790555060208201518160010155604082015181600201556060820151816003015560808201518160040160006101000a81548160ff021916908315150217905550505050505b603e600081548092919060010191905055507fd99e4fad9ad6313b1feb588fa8e605e3a9873172f2024330c35dd2b4041a4386338260405180806020018473ffffffffffffffffffffffffffffffffffffffff1673ffffffffffffffffffffffffffffffffffffffff1681526020018381526020018281038252600c8152602001807f437265617465206f666665720000000000000000000000000000000000000000815250602001935050505060405180910390a15050565b3373ffffffffffffffffffffffffffffffffffffffff16603f600083815260200190815260200160002060000160009054906101000a900473ffffffffffffffffffffffffffffffffffffffff1673ffffffffffffffffffffffffffffffffffffffff1614612523576040517f08c379a000000000000000000000000000000000000000000000000000000000815260040180806020018281038252602d8152602001806141f0602d913960400191505060405180910390fd5b6000603f600083815260200190815260200160002060040160006101000a81548160ff0219169083151502179055506000603d603f6000848152602001908152602001600020600201548154811061257757fe5b906000526020600020906005020160040160006101000a81548160ff021916908315150217905550603e60008154809291906001900391905055507fd99e4fad9ad6313b1feb588fa8e605e3a9873172f2024330c35dd2b4041a4386338260405180806020018473ffffffffffffffffffffffffffffffffffffffff1673ffffffffffffffffffffffffffffffffffffffff1681526020018381526020018281038252600c8152602001807f52656d6f7665206f666665720000000000000000000000000000000000000000815250602001935050505060405180910390a150565b6060603b8054600181600116156101000203166002900480601f0160208091040260200160405190810160405280929190818152602001828054600181600116156101000203166002900480156126f15780601f106126c6576101008083540402835291602001916126f1565b820191906000526020600020905b8154815290600101906020018083116126d457829003601f168201915b5050505050905090565b600073ffffffffffffffffffffffffffffffffffffffff163373ffffffffffffffffffffffffffffffffffffffff16141561273557600080fd5b801515603960003373ffffffffffffffffffffffffffffffffffffffff1673ffffffffffffffffffffffffffffffffffffffff16815260200190815260200160002060008473ffffffffffffffffffffffffffffffffffffffff1673ffffffffffffffffffffffffffffffffffffffff16815260200190815260200160002060009054906101000a900460ff16151514156127cf57600080fd5b80603960003373ffffffffffffffffffffffffffffffffffffffff1673ffffffffffffffffffffffffffffffffffffffff16815260200190815260200160002060008473ffffffffffffffffffffffffffffffffffffffff1673ffffffffffffffffffffffffffffffffffffffff16815260200190815260200160002060006101000a81548160ff0219169083151502179055508173ffffffffffffffffffffffffffffffffffffffff163373ffffffffffffffffffffffffffffffffffffffff167f17307eab39ab6107e8899845ad3d59bd9653f200f220920489ca2b5937696c3183604051808215151515815260200191505060405180910390a35050565b600073ffffffffffffffffffffffffffffffffffffffff168273ffffffffffffffffffffffffffffffffffffffff16141561290a57600080fd5b603360009054906101000a900473ffffffffffffffffffffffffffffffffffffffff1673ffffffffffffffffffffffffffffffffffffffff168273ffffffffffffffffffffffffffffffffffffffff16141561296557600080fd5b3373ffffffffffffffffffffffffffffffffffffffff166037600083815260200190815260200160002060009054906101000a900473ffffffffffffffffffffffffffffffffffffffff1673ffffffffffffffffffffffffffffffffffffffff16146129d057600080fd5b6129db33838361327d565b5050565b6129e76140e8565b603f60008381526020019081526020016000206040518060a00160405290816000820160009054906101000a900473ffffffffffffffffffffffffffffffffffffffff1673ffffffffffffffffffffffffffffffffffffffff1673ffffffffffffffffffffffffffffffffffffffff1681526020016001820154815260200160028201548152602001600382015481526020016004820160009054906101000a900460ff161515151581525050905034603f60008481526020019081526020016000206001015414612b04576040517f08c379a000000000000000000000000000000000000000000000000000000000815260040180806020018281038252603781526020018061421d6037913960400191505060405180910390fd5b60011515603f600084815260200190815260200160002060040160009054906101000a900460ff16151514612b3857600080fd5b6000603f600084815260200190815260200160002060040160006101000a81548160ff0219169083151502179055506000603d603f60008581526020019081526020016000206002015481548110612b8c57fe5b906000526020600020906005020160040160006101000a81548160ff021916908315150217905550600081602001511115612c1157806000015173ffffffffffffffffffffffffffffffffffffffff166108fc82602001519081150290604051600060405180830381858888f19350505050158015612c0f573d6000803e3d6000fd5b505b603c60019054906101000a900473ffffffffffffffffffffffffffffffffffffffff1673ffffffffffffffffffffffffffffffffffffffff166323b872dd603f600085815260200190815260200160002060000160009054906101000a900473ffffffffffffffffffffffffffffffffffffffff1633856040518463ffffffff1660e01b8152600401808473ffffffffffffffffffffffffffffffffffffffff1673ffffffffffffffffffffffffffffffffffffffff1681526020018373ffffffffffffffffffffffffffffffffffffffff1673ffffffffffffffffffffffffffffffffffffffff1681526020018281526020019350505050600060405180830381600087803b158015612d2457600080fd5b505af1158015612d38573d6000803e3d6000fd5b505050507fd99e4fad9ad6313b1feb588fa8e605e3a9873172f2024330c35dd2b4041a4386338360405180806020018473ffffffffffffffffffffffffffffffffffffffff1673ffffffffffffffffffffffffffffffffffffffff168152602001838152602001828103825260038152602001807f4275790000000000000000000000000000000000000000000000000000000000815250602001935050505060405180910390a15050565b612df0338585856139c8565b612df957600080fd5b612e0584848484613c27565b50505050565b603360009054906101000a900473ffffffffffffffffffffffffffffffffffffffff1673ffffffffffffffffffffffffffffffffffffffff163373ffffffffffffffffffffffffffffffffffffffff1614612e6557600080fd5b600060019054906101000a900460ff1680612e845750612e8361367e565b5b80612e9b57506000809054906101000a900460ff16155b612ef0576040517f08c379a000000000000000000000000000000000000000000000000000000000815260040180806020018281038252602e815260200180614254602e913960400191505060405180910390fd5b60008060019054906101000a900460ff161590508015612f40576001600060016101000a81548160ff02191690831515021790555060016000806101000a81548160ff0219169083151502179055505b612f48613695565b612f51826130b8565b8015612f725760008060016101000a81548160ff0219169083151502179055505b5050565b6000603360009054906101000a900473ffffffffffffffffffffffffffffffffffffffff1673ffffffffffffffffffffffffffffffffffffffff163373ffffffffffffffffffffffffffffffffffffffff1614612fd257600080fd5b603c60009054906101000a900460ff1660ff16603560009054906101000a900460ff1660ff161061304e576040517f08c379a00000000000000000000000000000000000000000000000000000000081526004018080602001828103825260258152602001806142826025913960400191505060405180910390fd5b6035600081819054906101000a900460ff168092919060010191906101000a81548160ff021916908360ff160217905550506130b1600080846000603360009054906101000a900473ffffffffffffffffffffffffffffffffffffffff166137d5565b9050919050565b603360009054906101000a900473ffffffffffffffffffffffffffffffffffffffff1673ffffffffffffffffffffffffffffffffffffffff163373ffffffffffffffffffffffffffffffffffffffff161461311257600080fd5b80603c60016101000a81548173ffffffffffffffffffffffffffffffffffffffff021916908373ffffffffffffffffffffffffffffffffffffffff16021790555050565b6000603960008473ffffffffffffffffffffffffffffffffffffffff1673ffffffffffffffffffffffffffffffffffffffff16815260200190815260200160002060008373ffffffffffffffffffffffffffffffffffffffff1673ffffffffffffffffffffffffffffffffffffffff16815260200190815260200160002060009054906101000a900460ff16905092915050565b60006038600083815260200190815260200160002060009054906101000a900473ffffffffffffffffffffffffffffffffffffffff169050919050565b816038600083815260200190815260200160002060006101000a81548173ffffffffffffffffffffffffffffffffffffffff021916908373ffffffffffffffffffffffffffffffffffffffff1602179055505050565b603660008373ffffffffffffffffffffffffffffffffffffffff1673ffffffffffffffffffffffffffffffffffffffff16815260200190815260200160002060008154809291906001019190505550816037600083815260200190815260200160002060006101000a81548173ffffffffffffffffffffffffffffffffffffffff021916908373ffffffffffffffffffffffffffffffffffffffff160217905550600073ffffffffffffffffffffffffffffffffffffffff168373ffffffffffffffffffffffffffffffffffffffff16146133d957603660008473ffffffffffffffffffffffffffffffffffffffff1673ffffffffffffffffffffffffffffffffffffffff16815260200190815260200160002060008154809291906001900391905055506038600082815260200190815260200160002060006101000a81549073ffffffffffffffffffffffffffffffffffffffff02191690555b8173ffffffffffffffffffffffffffffffffffffffff166037600083815260200190815260200160002060009054906101000a900473ffffffffffffffffffffffffffffffffffffffff1673ffffffffffffffffffffffffffffffffffffffff161461344157fe5b808273ffffffffffffffffffffffffffffffffffffffff168473ffffffffffffffffffffffffffffffffffffffff167fddf252ad1be2c89b69c2b068fc378daa952ba7f163c4a11628f55a4df523b3ef60405160405180910390a4505050565b60008060348463ffffffff16815481106134b757fe5b9060005260206000209060020201600001549050600060348463ffffffff16815481106134e057fe5b906000526020600020906002020160000154905060006135008383613c4d565b9050600060348763ffffffff168154811061351757fe5b906000526020600020906002020160010160109054906101000a900461ffff169050600060348763ffffffff168154811061354e57fe5b906000526020600020906002020160010160109054906101000a900461ffff16905060008161ffff168361ffff16141561358d576001830190506135aa565b8161ffff168361ffff1610156135a5578190506135a9565b8290505b5b6135b7888a86848e6137d5565b96505050505050509392505050565b606060008090506000809050600091505b603d80549050821080156135ec5750603e5481105b156136765760011515603d838154811061360257fe5b906000526020600020906005020160040160009054906101000a900460ff161515141561366957603d828154811061363657fe5b90600052602060002090600502016003015483828151811061365457fe5b60200260200101818152505080806001019150505b81806001019250506135d7565b829250505090565b6000803090506000813b9050600081149250505090565b600060019054906101000a900460ff16806136b457506136b361367e565b5b806136cb57506000809054906101000a900460ff16155b613720576040517f08c379a000000000000000000000000000000000000000000000000000000000815260040180806020018281038252602e815260200180614254602e913960400191505060405180910390fd5b60008060019054906101000a900460ff161590508015613770576001600060016101000a81548160ff02191690831515021790555060016000806101000a81548160ff0219169083151502179055505b33603360006101000a81548173ffffffffffffffffffffffffffffffffffffffff021916908373ffffffffffffffffffffffffffffffffffffffff16021790555080156137d25760008060016101000a81548160ff0219169083151502179055505b50565b60006137df61412f565b6040518060a001604052808681526020014267ffffffffffffffff1681526020018863ffffffff1681526020018763ffffffff1681526020018561ffff16815250905060006001603483908060018154018082558091505090600182039060005260206000209060020201600090919290919091506000820151816000015560208201518160010160006101000a81548167ffffffffffffffff021916908367ffffffffffffffff16021790555060408201518160010160086101000a81548163ffffffff021916908363ffffffff160217905550606082015181600101600c6101000a81548163ffffffff021916908363ffffffff16021790555060808201518160010160106101000a81548161ffff021916908361ffff160217905550505003905061390f6000858361327d565b7fe311e436405c2f9357d626ad758a4cf5bcd7b808f30b9cbe08179b038534023c84828a8a8a8a604051808773ffffffffffffffffffffffffffffffffffffffff1673ffffffffffffffffffffffffffffffffffffffff1681526020018681526020018563ffffffff1663ffffffff1681526020018463ffffffff1663ffffffff1681526020018381526020018261ffff1661ffff168152602001965050505050505060405180910390a1809250505095945050505050565b60008073ffffffffffffffffffffffffffffffffffffffff168373ffffffffffffffffffffffffffffffffffffffff161415613a0357600080fd5b6037600083815260200190815260200160002060009054906101000a900473ffffffffffffffffffffffffffffffffffffffff1673ffffffffffffffffffffffffffffffffffffffff168473ffffffffffffffffffffffffffffffffffffffff1614613a6e57600080fd5b60008210158015613a855750613a82611455565b82105b613a8e57600080fd5b8473ffffffffffffffffffffffffffffffffffffffff166037600084815260200190815260200160002060009054906101000a900473ffffffffffffffffffffffffffffffffffffffff1673ffffffffffffffffffffffffffffffffffffffff161480613b5957508473ffffffffffffffffffffffffffffffffffffffff166038600084815260200190815260200160002060009054906101000a900473ffffffffffffffffffffffffffffffffffffffff1673ffffffffffffffffffffffffffffffffffffffff16145b80613c1d5750603960006037600085815260200190815260200160002060009054906101000a900473ffffffffffffffffffffffffffffffffffffffff1673ffffffffffffffffffffffffffffffffffffffff1673ffffffffffffffffffffffffffffffffffffffff16815260200190815260200160002060008673ffffffffffffffffffffffffffffffffffffffff1673ffffffffffffffffffffffffffffffffffffffff16815260200190815260200160002060009054906101000a900460ff165b9050949350505050565b613c3284848461327d565b613c3e84848484613e6b565b613c4757600080fd5b50505050565b6000613c57614178565b600060ff4281613c6357fe5b069050600060084281613c7257fe5b069050600060644281613c8157fe5b069050600060079050600060019050600060038560ff16111580613cb9575060058560ff1610158015613cb8575060068560ff1611155b5b15613cea5760628460ff161115613cd35760629350613ce5565b600a8460ff161015613ce457600a93505b5b613d58565b60048560ff161415613d2257602c8460ff161115613d0b57602c9350613d1d565b600b8460ff161015613d1c57600b93505b5b613d57565b60078560ff161415613d565760458460ff161115613d435760459350613d55565b600b8460ff161015613d5457600b93505b5b5b5b5b600191505b60808211613e1c578460ff168360ff161415613d94578360ff16878460ff1660088110613d8657fe5b602002018181525050613dee565b6000828760ff161614613dc95760648981613dab57fe5b06878460ff1660088110613dbb57fe5b602002018181525050613ded565b60648a81613dd357fe5b06878460ff1660088110613de357fe5b6020020181815250505b5b60648981613df857fe5b04985060648a81613e0557fe5b049950828060019003935050600282029150613d5d565b600091505b6008821015613e5b57868260088110613e3657fe5b60200201518101905060078214613e4e576064810290505b8180600101925050613e21565b8097505050505050505092915050565b6000613e768461404f565b613e835760019050614047565b60008473ffffffffffffffffffffffffffffffffffffffff1663150b7a02338887876040518563ffffffff1660e01b8152600401808573ffffffffffffffffffffffffffffffffffffffff1673ffffffffffffffffffffffffffffffffffffffff1681526020018473ffffffffffffffffffffffffffffffffffffffff1673ffffffffffffffffffffffffffffffffffffffff16815260200183815260200180602001828103825283818151815260200191508051906020019080838360005b83811015613f5e578082015181840152602081019050613f43565b50505050905090810190601f168015613f8b5780820380516001836020036101000a031916815260200191505b5095505050505050602060405180830381600087803b158015613fad57600080fd5b505af1158015613fc1573d6000803e3d6000fd5b505050506040513d6020811015613fd757600080fd5b8101908080519060200190929190505050905060405180806141c1602f9139602f01905060405180910390207bffffffffffffffffffffffffffffffffffffffffffffffffffffffff1916817bffffffffffffffffffffffffffffffffffffffffffffffffffffffff1916149150505b949350505050565b600080823b905060008163ffffffff1611915050919050565b828054600181600116156101000203166002900490600052602060002090601f016020900481019282601f106140a957805160ff19168380011785556140d7565b828001600101855582156140d7579182015b828111156140d65782518255916020019190600101906140bb565b5b5090506140e4919061419b565b5090565b6040518060a00160405280600073ffffffffffffffffffffffffffffffffffffffff1681526020016000815260200160008152602001600081526020016000151581525090565b6040518060a0016040528060008152602001600067ffffffffffffffff168152602001600063ffffffff168152602001600063ffffffff168152602001600061ffff1681525090565b604051806101000160405280600890602082028038833980820191505090505090565b6141bd91905b808211156141b95760008160009055506001016141a1565b5090565b9056fe6f6e455243373231526563656976656428616464726573732c616464726573732c75696e743235362c6279746573294f6e6c792073656c6c6572206f662074686520746f6b656e2063616e2072656d6f766520746865206f666665725472616e73616374696f6e2076616c756520646f6573206e6f74206d6174636820746865207072696365206f662074686520746f6b656e436f6e747261637420696e7374616e63652068617320616c7265616479206265656e20696e697469616c697a656447656e2030204c696d69742072656163686564202831302070616e646173206c696d697429a265627a7a723158200d5f56d07c5e6b7e56d0228dd5d47a1e82afbc379b8c3d4670c822e8c93dc51964736f6c634300050c0032",
  "source": "pragma solidity ^0.5.12;\n\nimport \"./IPandaMarketPlace.sol\";\nimport \"./PandaMarketPlaceStorage.sol\";\n\nimport \"@openzeppelin/upgrades/contracts/Initializable.sol\";\n\ncontract PandaMarketPlace is  Initializable, IPandaMarketPlace , PandaMarketPlaceStorage {\n\n    function initialize(address _pandaContractAddress) public onlyOwner initializer{\n        Ownable.initialize();\n        setPandaContract(_pandaContractAddress);\n    }\n\n    /***************************************************\n    Events\n     **************************************************/\n    event MarketTransaction(string TxType, address owner, uint256 tokenId);\n\n    /**\n    * Set the current PandaContract address and initialize the instance of PandaContract.\n    * Requirement: Only the contract owner can call.\n     */\n    function setPandaContract(address _pandaContractAddress) onlyOwner public {\n        _pandaContract =  PandaContract(_pandaContractAddress) ;\n    }\n\n    /**\n    * Get the details about a offer for _tokenId. Throws an error if there is no active offer for _tokenId.\n     */\n    function getOffer(uint256 _tokenId) external view returns ( address seller, uint256 price, uint256 index, uint256 tokenId, bool active){\n        \n        require (tokenIdToOffer[_tokenId].tokenId > 0 && tokenIdToOffer[_tokenId].active == true,\"No active offer for the tokenID\");\n        \n        seller  = tokenIdToOffer[tokenId].seller;\n        price   = tokenIdToOffer[tokenId].price;\n        index   = tokenIdToOffer[tokenId].index;\n        tokenId = tokenIdToOffer[tokenId].tokenId;\n        active  = tokenIdToOffer[tokenId].active;\n\n        return (seller,price,index,tokenId,active);\n    }\n\n    /**\n    * Get all tokenId's that are currently for sale. Returns an empty error if none exist.\n     */\n    function getAllTokenOnSale() external view  returns(uint256[] memory listOfOffers){\n        require(Offers.length > 0 && _activeOfferCount > 0,\"No Offers\");\n        return _getAllActiveTokens();\n    }\n\n    function _getAllActiveTokens() internal view  returns(uint256[] memory listOfOffers){\n        uint256 i = 0;\n        uint256 index=0;\n        \n        for ( i=0 ; i< Offers.length && index < _activeOfferCount  ; i++){\n            \n            if(Offers[i].active == true){\n                listOfOffers[index]=Offers[i].tokenId;\n                index++;\n            }           \n        }\n\n        return listOfOffers;\n    }\n\n    /**\n    * Creates a new offer for _tokenId for the price _price.\n    * Emits the MarketTransaction event with txType \"Create offer\"\n    * Requirement: Only the owner of _tokenId can create an offer.\n    * Requirement: There can only be one active offer for a token at a time.\n    * Requirement: Marketplace contract (this) needs to be an approved operator when the offer is created.\n     */\n    function setOffer(uint256 _price, uint256 _tokenId) external{\n        require(_pandaContract.ownerOf(_tokenId) == msg.sender,\"Not the owner of the token\");\n        require(tokenIdToOffer[_tokenId].active==false,\"Already an offer exist\");\n        require(_pandaContract.isApprovedForAll(msg.sender,address(this)),\"Not an operator for the tokenId\");\n\n        if(tokenIdToOffer[_tokenId].tokenId==_tokenId){\n            uint256 index = tokenIdToOffer[_tokenId].index;\n\n            Offers[index].seller =  msg.sender;\n            Offers[index].price= _price;\n            Offers[index].active= true;\n        }else{\n             Offer memory newOffer = Offer({\n                seller: msg.sender,\n                price: _price,\n                index: Offers.length-1,\n                tokenId: _tokenId,\n                active: true\n            });\n\n            tokenIdToOffer[_tokenId] = newOffer;\n            Offers.push(newOffer);            \n        }\n\n        _activeOfferCount++;\n\n        emit MarketTransaction(\"Create offer\", msg.sender,  _tokenId);\n    }\n\n    /**\n    * Removes an existing offer.\n    * Emits the MarketTransaction event with txType \"Remove offer\"\n    * Requirement: Only the seller of _tokenId can remove an offer.\n     */\n    function removeOffer(uint256 _tokenId) external{\n        require(tokenIdToOffer[_tokenId].seller == msg.sender,\"Only seller of the token can remove the offer\");\n\n        tokenIdToOffer[_tokenId].active = false;\n        Offers[tokenIdToOffer[_tokenId].index].active =  false;\n        _activeOfferCount--;\n\n        emit MarketTransaction(\"Remove offer\", msg.sender,  _tokenId);\n    }\n\n    /**\n    * Executes the purchase of _tokenId.\n    * Sends the funds to the seller and transfers the token using transferFrom in PandaContract.\n    * Emits the MarketTransaction event with txType \"Buy\".\n    * Requirement: The msg.value needs to equal the price of _tokenId\n    * Requirement: There must be an active offer for _tokenId\n     */\n    function buyPanda(uint256 _tokenId) external payable{\n        Offer memory offer = tokenIdToOffer[_tokenId];\n        require(tokenIdToOffer[_tokenId].price == msg.value,\"Transaction value does not match the price of the token\");\n        require(tokenIdToOffer[_tokenId].active == true);\n\n        // Important: remove offer before paying, to avoid reentry attack\n        tokenIdToOffer[_tokenId].active=false;\n        Offers[tokenIdToOffer[_tokenId].index].active = false;\n\n        //transfer funds to the seller\n        if(offer.price>0){\n            offer.seller.transfer(offer.price);\n        }\n\n        //Transfer ownership of the token\n        _pandaContract.transferFrom(tokenIdToOffer[_tokenId].seller,msg.sender, _tokenId);\n\n\n        emit MarketTransaction(\"Buy\", msg.sender,  _tokenId);\n    }\n}",
  "sourcePath": "/home/ismael/Documents/Projects/GIT/CryptoKitties-clone/contracts/PandaMarketPlace.sol",
  "compiler": {
    "name": "solc",
    "version": "0.5.12+commit.7709ece9.Emscripten.clang"
  },
  "schemaVersion": "3.3.2",
  "updatedAt": "2020-12-01T13:22:21.442Z",
  "networkType": "ethereum",
  "devdoc": {
    "methods": {
      "approve(address,uint256)": {
        "details": "The zero address indicates there is no approved address.  Throws unless `msg.sender` is the current NFT owner, or an authorized  operator of the current owner.",
        "params": {
          "_to": "The new approved NFT controller",
          "_tokenId": "The NFT to approve"
        }
      },
      "balanceOf(address)": {
        "details": "Returns the number of tokens in ``owner``'s account."
      },
      "breed(uint32,uint32)": {
        "details": "Throws unless `msg.sender` is the current owner of both NFT",
        "params": {
          "_dadId": "The Dad NFT Id",
          "_mumId": "The Mum NFT Id"
        }
      },
      "getApproved(uint256)": {
        "details": "Throws if `_tokenId` is not a valid NFT.",
        "params": {
          "_tokenId": "The NFT to find the approved address for"
        },
        "return": "The approved address for this NFT, or the zero address if there is none"
      },
      "isApprovedForAll(address,address)": {
        "params": {
          "_operator": "The address that acts on behalf of the owner",
          "_owner": "The address that owns the NFTs"
        },
        "return": "True if `_operator` is an approved operator for `_owner`, false otherwise"
      },
      "ownerOf(uint256)": {
        "details": "Returns the owner of the `tokenId` token.     * Requirements:     * - `tokenId` must exist."
      },
      "safeTransferFrom(address,address,uint256)": {
        "details": "This works identically to the other function with an extra data parameter,  except this function just sets data to \"\".",
        "params": {
          "_from": "The current owner of the NFT",
          "_to": "The new owner",
          "_tokenId": "The NFT to transfer"
        }
      },
      "safeTransferFrom(address,address,uint256,bytes)": {
        "details": "Throws unless `msg.sender` is the current owner, an authorized  operator, or the approved address for this NFT. Throws if `_from` is  not the current owner. Throws if `_to` is the zero address. Throws if  `_tokenId` is not a valid NFT. When transfer is complete, this function  checks if `_to` is a smart contract (code size > 0). If so, it calls  `onERC721Received` on `_to` and throws if the return value is not  `bytes4(keccak256(\"onERC721Received(address,address,uint256,bytes)\"))`.",
        "params": {
          "_from": "The current owner of the NFT",
          "_to": "The new owner",
          "_tokenId": "The NFT to transfer",
          "data": "Additional data with no specified format, sent in call to `_to`"
        }
      },
      "setApprovalForAll(address,bool)": {
        "details": "Emits the ApprovalForAll event. The contract MUST allow  multiple operators per owner.",
        "params": {
          "_approved": "True if the operator is approved, false to revoke approval",
          "_operator": "Address to add to the set of authorized operators"
        }
      },
      "supportsInterface(bytes4)": {
        "details": "checks if interfaceId supports IERC721 or IERC165"
      },
      "transferFrom(address,address,uint256)": {
        "details": "Throws unless `msg.sender` is the current owner, an authorized  operator, or the approved address for this NFT. Throws if `_from` is  not the current owner. Throws if `_to` is the zero address. Throws if  `_tokenId` is not a valid NFT.",
        "params": {
          "_from": "The current owner of the NFT",
          "_to": "The new owner",
          "_tokenId": "The NFT to transfer"
        }
      }
    }
  },
  "userdoc": {
    "methods": {
      "approve(address,uint256)": {
        "notice": "Change or reaffirm the approved address for an NFT"
      },
      "buyPanda(uint256)": {
        "notice": "Executes the purchase of _tokenId. Sends the funds to the seller and transfers the token using transferFrom in PandaContract. Emits the MarketTransaction event with txType \"Buy\". Requirement: The msg.value needs to equal the price of _tokenId Requirement: There must be an active offer for _tokenId"
      },
      "getAllTokenOnSale()": {
        "notice": "Get all tokenId's that are currently for sale. Returns an empty error if none exist."
      },
      "getApproved(uint256)": {
        "notice": "Get the approved address for a single NFT"
      },
      "getOffer(uint256)": {
        "notice": "Get the details about a offer for _tokenId. Throws an error if there is no active offer for _tokenId."
      },
      "isApprovedForAll(address,address)": {
        "notice": "Query if an address is an authorized operator for another address"
      },
      "removeOffer(uint256)": {
        "notice": "Removes an existing offer. Emits the MarketTransaction event with txType \"Remove offer\" Requirement: Only the seller of _tokenId can remove an offer."
      },
      "safeTransferFrom(address,address,uint256)": {
        "notice": "Transfers the ownership of an NFT from one address to another address"
      },
      "safeTransferFrom(address,address,uint256,bytes)": {
        "notice": "Transfers the ownership of an NFT from one address to another address"
      },
      "setApprovalForAll(address,bool)": {
        "notice": "Enable or disable approval for a third party (\"operator\") to manage  all of `msg.sender`'s assets"
      },
      "setOffer(uint256,uint256)": {
        "notice": "Creates a new offer for _tokenId for the price _price. Emits the MarketTransaction event with txType \"Create offer\" Requirement: Only the owner of _tokenId can create an offer. Requirement: There can only be one active offer for a token at a time. Requirement: Marketplace contract (this) needs to be an approved operator when the offer is created."
      },
      "setPandaContract(address)": {
        "notice": "Set the current PandaContract address and initialize the instance of PandaContract. Requirement: Only the contract owner can call."
      },
      "transferFrom(address,address,uint256)": {
        "notice": "Transfer ownership of an NFT -- THE CALLER IS RESPONSIBLE  TO CONFIRM THAT `_to` IS CAPABLE OF RECEIVING NFTS OR ELSE  THEY MAY BE PERMANENTLY LOST"
      }
    }
  }
}