{
  "contractName": "PandaContract",
  "abi": [
    {
      "anonymous": false,
      "inputs": [
        {
          "indexed": true,
          "internalType": "address",
          "name": "owner",
          "type": "address"
        },
        {
          "indexed": true,
          "internalType": "address",
          "name": "approved",
          "type": "address"
        },
        {
          "indexed": true,
          "internalType": "uint256",
          "name": "PandaId",
          "type": "uint256"
        }
      ],
      "name": "Approval",
      "type": "event"
    },
    {
      "anonymous": false,
      "inputs": [
        {
          "indexed": true,
          "internalType": "address",
          "name": "owner",
          "type": "address"
        },
        {
          "indexed": true,
          "internalType": "address",
          "name": "operator",
          "type": "address"
        },
        {
          "indexed": false,
          "internalType": "bool",
          "name": "approved",
          "type": "bool"
        }
      ],
      "name": "ApprovalForAll",
      "type": "event"
    },
    {
      "anonymous": false,
      "inputs": [
        {
          "indexed": false,
          "internalType": "address",
          "name": "_owner",
          "type": "address"
        },
        {
          "indexed": false,
          "internalType": "uint256",
          "name": "PandaId",
          "type": "uint256"
        },
        {
          "indexed": false,
          "internalType": "uint32",
          "name": "mumId",
          "type": "uint32"
        },
        {
          "indexed": false,
          "internalType": "uint32",
          "name": "dadId",
          "type": "uint32"
        },
        {
          "indexed": false,
          "internalType": "uint256",
          "name": "genes",
          "type": "uint256"
        }
      ],
      "name": "Birth",
      "type": "event"
    },
    {
      "anonymous": false,
      "inputs": [
        {
          "indexed": true,
          "internalType": "address",
          "name": "from",
          "type": "address"
        },
        {
          "indexed": true,
          "internalType": "address",
          "name": "to",
          "type": "address"
        },
        {
          "indexed": true,
          "internalType": "uint256",
          "name": "tokenId",
          "type": "uint256"
        }
      ],
      "name": "Transfer",
      "type": "event"
    },
    {
      "constant": false,
      "inputs": [
        {
          "internalType": "address",
          "name": "_to",
          "type": "address"
        },
        {
          "internalType": "uint256",
          "name": "_tokenId",
          "type": "uint256"
        }
      ],
      "name": "approve",
      "outputs": [],
      "payable": false,
      "stateMutability": "nonpayable",
      "type": "function"
    },
    {
      "constant": true,
      "inputs": [
        {
          "internalType": "address",
          "name": "owner",
          "type": "address"
        }
      ],
      "name": "balanceOf",
      "outputs": [
        {
          "internalType": "uint256",
          "name": "balance",
          "type": "uint256"
        }
      ],
      "payable": false,
      "stateMutability": "view",
      "type": "function"
    },
    {
      "constant": true,
      "inputs": [
        {
          "internalType": "uint256",
          "name": "_tokenId",
          "type": "uint256"
        }
      ],
      "name": "getApproved",
      "outputs": [
        {
          "internalType": "address",
          "name": "",
          "type": "address"
        }
      ],
      "payable": false,
      "stateMutability": "view",
      "type": "function"
    },
    {
      "constant": true,
      "inputs": [
        {
          "internalType": "address",
          "name": "_owner",
          "type": "address"
        },
        {
          "internalType": "address",
          "name": "_operator",
          "type": "address"
        }
      ],
      "name": "isApprovedForAll",
      "outputs": [
        {
          "internalType": "bool",
          "name": "",
          "type": "bool"
        }
      ],
      "payable": false,
      "stateMutability": "view",
      "type": "function"
    },
    {
      "constant": true,
      "inputs": [],
      "name": "name",
      "outputs": [
        {
          "internalType": "string",
          "name": "tokenName",
          "type": "string"
        }
      ],
      "payable": false,
      "stateMutability": "view",
      "type": "function"
    },
    {
      "constant": true,
      "inputs": [],
      "name": "owner",
      "outputs": [
        {
          "internalType": "address",
          "name": "",
          "type": "address"
        }
      ],
      "payable": false,
      "stateMutability": "view",
      "type": "function"
    },
    {
      "constant": true,
      "inputs": [
        {
          "internalType": "uint256",
          "name": "_tokenId",
          "type": "uint256"
        }
      ],
      "name": "ownerOf",
      "outputs": [
        {
          "internalType": "address",
          "name": "owner",
          "type": "address"
        }
      ],
      "payable": false,
      "stateMutability": "view",
      "type": "function"
    },
    {
      "constant": false,
      "inputs": [
        {
          "internalType": "address",
          "name": "_from",
          "type": "address"
        },
        {
          "internalType": "address",
          "name": "_to",
          "type": "address"
        },
        {
          "internalType": "uint256",
          "name": "_tokenId",
          "type": "uint256"
        }
      ],
      "name": "safeTransferFrom",
      "outputs": [],
      "payable": false,
      "stateMutability": "nonpayable",
      "type": "function"
    },
    {
      "constant": false,
      "inputs": [
        {
          "internalType": "address",
          "name": "_from",
          "type": "address"
        },
        {
          "internalType": "address",
          "name": "_to",
          "type": "address"
        },
        {
          "internalType": "uint256",
          "name": "_tokenId",
          "type": "uint256"
        },
        {
          "internalType": "bytes",
          "name": "data",
          "type": "bytes"
        }
      ],
      "name": "safeTransferFrom",
      "outputs": [],
      "payable": false,
      "stateMutability": "nonpayable",
      "type": "function"
    },
    {
      "constant": false,
      "inputs": [
        {
          "internalType": "address",
          "name": "_operator",
          "type": "address"
        },
        {
          "internalType": "bool",
          "name": "_approved",
          "type": "bool"
        }
      ],
      "name": "setApprovalForAll",
      "outputs": [],
      "payable": false,
      "stateMutability": "nonpayable",
      "type": "function"
    },
    {
      "constant": true,
      "inputs": [],
      "name": "symbol",
      "outputs": [
        {
          "internalType": "string",
          "name": "tokenSymbol",
          "type": "string"
        }
      ],
      "payable": false,
      "stateMutability": "view",
      "type": "function"
    },
    {
      "constant": true,
      "inputs": [],
      "name": "totalSupply",
      "outputs": [
        {
          "internalType": "uint256",
          "name": "total",
          "type": "uint256"
        }
      ],
      "payable": false,
      "stateMutability": "view",
      "type": "function"
    },
    {
      "constant": false,
      "inputs": [
        {
          "internalType": "address",
          "name": "_to",
          "type": "address"
        },
        {
          "internalType": "uint256",
          "name": "_tokenId",
          "type": "uint256"
        }
      ],
      "name": "transfer",
      "outputs": [],
      "payable": false,
      "stateMutability": "nonpayable",
      "type": "function"
    },
    {
      "constant": false,
      "inputs": [
        {
          "internalType": "address",
          "name": "_from",
          "type": "address"
        },
        {
          "internalType": "address",
          "name": "_to",
          "type": "address"
        },
        {
          "internalType": "uint256",
          "name": "_tokenId",
          "type": "uint256"
        }
      ],
      "name": "transferFrom",
      "outputs": [],
      "payable": false,
      "stateMutability": "nonpayable",
      "type": "function"
    },
    {
      "constant": false,
      "inputs": [
        {
          "internalType": "string",
          "name": "_tName",
          "type": "string"
        },
        {
          "internalType": "string",
          "name": "_tSymbol",
          "type": "string"
        }
      ],
      "name": "initialize",
      "outputs": [],
      "payable": false,
      "stateMutability": "nonpayable",
      "type": "function"
    },
    {
      "constant": false,
      "inputs": [],
      "name": "initialize",
      "outputs": [],
      "payable": false,
      "stateMutability": "nonpayable",
      "type": "function"
    },
    {
      "constant": false,
      "inputs": [
        {
          "internalType": "uint256",
          "name": "_genes",
          "type": "uint256"
        }
      ],
      "name": "createPandaGen0",
      "outputs": [
        {
          "internalType": "uint256",
          "name": "",
          "type": "uint256"
        }
      ],
      "payable": false,
      "stateMutability": "nonpayable",
      "type": "function"
    },
    {
      "constant": true,
      "inputs": [
        {
          "internalType": "uint256",
          "name": "tokenId",
          "type": "uint256"
        }
      ],
      "name": "getPanda",
      "outputs": [
        {
          "internalType": "uint256",
          "name": "genes",
          "type": "uint256"
        },
        {
          "internalType": "uint64",
          "name": "birthTime",
          "type": "uint64"
        },
        {
          "internalType": "uint32",
          "name": "mumId",
          "type": "uint32"
        },
        {
          "internalType": "uint32",
          "name": "dadId",
          "type": "uint32"
        },
        {
          "internalType": "uint16",
          "name": "generation",
          "type": "uint16"
        }
      ],
      "payable": false,
      "stateMutability": "view",
      "type": "function"
    },
    {
      "constant": true,
      "inputs": [
        {
          "internalType": "address",
          "name": "PandaOwnerAddress",
          "type": "address"
        }
      ],
      "name": "_pandasOfOwner",
      "outputs": [
        {
          "internalType": "uint256[]",
          "name": "",
          "type": "uint256[]"
        }
      ],
      "payable": false,
      "stateMutability": "view",
      "type": "function"
    }
  ],
  "bytecode": "0x6080604052600a603c60006101000a81548160ff021916908360ff16021790555034801561002c57600080fd5b506126a18061003c6000396000f3fe608060405234801561001057600080fd5b50600436106101215760003560e01c80636352211e116100ad578063a22cb46511610071578063a22cb46514610779578063a9059cbb146107c9578063b88d4fde14610817578063d967c6211461091c578063e985e9c51461095e57610121565b80636352211e146105dc57806370a082311461064a5780638129fc1c146106a25780638da5cb5b146106ac57806395d89b41146106f657610121565b80631327fbe5116100f45780631327fbe5146102fe57806318160ddd1461039057806323b872dd146103ae57806342842e0e1461041c5780634cd88b761461048a57610121565b806306fdde0314610126578063081812fc146101a9578063095ea7b3146102175780630b8ab88414610265575b600080fd5b61012e6109da565b6040518080602001828103825283818151815260200191508051906020019080838360005b8381101561016e578082015181840152602081019050610153565b50505050905090810190601f16801561019b5780820380516001836020036101000a031916815260200191505b509250505060405180910390f35b6101d5600480360360208110156101bf57600080fd5b8101908080359060200190929190505050610a7c565b604051808273ffffffffffffffffffffffffffffffffffffffff1673ffffffffffffffffffffffffffffffffffffffff16815260200191505060405180910390f35b6102636004803603604081101561022d57600080fd5b81019080803573ffffffffffffffffffffffffffffffffffffffff16906020019092919080359060200190929190505050610ac1565b005b6102a76004803603602081101561027b57600080fd5b81019080803573ffffffffffffffffffffffffffffffffffffffff169060200190929190505050610c9a565b6040518080602001828103825283818151815260200191508051906020019060200280838360005b838110156102ea5780820151818401526020810190506102cf565b505050509050019250505060405180910390f35b61032a6004803603602081101561031457600080fd5b8101908080359060200190929190505050610de2565b604051808681526020018567ffffffffffffffff1667ffffffffffffffff1681526020018463ffffffff1663ffffffff1681526020018363ffffffff1663ffffffff1681526020018261ffff1661ffff1681526020019550505050505060405180910390f35b610398610efa565b6040518082815260200191505060405180910390f35b61041a600480360360608110156103c457600080fd5b81019080803573ffffffffffffffffffffffffffffffffffffffff169060200190929190803573ffffffffffffffffffffffffffffffffffffffff16906020019092919080359060200190929190505050610f07565b005b6104886004803603606081101561043257600080fd5b81019080803573ffffffffffffffffffffffffffffffffffffffff169060200190929190803573ffffffffffffffffffffffffffffffffffffffff16906020019092919080359060200190929190505050611174565b005b6105da600480360360408110156104a057600080fd5b81019080803590602001906401000000008111156104bd57600080fd5b8201836020820111156104cf57600080fd5b803590602001918460018302840111640100000000831117156104f157600080fd5b91908080601f016020809104026020016040519081016040528093929190818152602001838380828437600081840152601f19601f8201169050808301925050505050505091929192908035906020019064010000000081111561055457600080fd5b82018360208201111561056657600080fd5b8035906020019184600183028401116401000000008311171561058857600080fd5b91908080601f016020809104026020016040519081016040528093929190818152602001838380828437600081840152601f19601f820116905080830192505050505050509192919290505050611194565b005b610608600480360360208110156105f257600080fd5b81019080803590602001909291905050506112cb565b604051808273ffffffffffffffffffffffffffffffffffffffff1673ffffffffffffffffffffffffffffffffffffffff16815260200191505060405180910390f35b61068c6004803603602081101561066057600080fd5b81019080803573ffffffffffffffffffffffffffffffffffffffff169060200190929190505050611308565b6040518082815260200191505060405180910390f35b6106aa611351565b005b6106b46114e0565b604051808273ffffffffffffffffffffffffffffffffffffffff1673ffffffffffffffffffffffffffffffffffffffff16815260200191505060405180910390f35b6106fe611506565b6040518080602001828103825283818151815260200191508051906020019080838360005b8381101561073e578082015181840152602081019050610723565b50505050905090810190601f16801561076b5780820380516001836020036101000a031916815260200191505b509250505060405180910390f35b6107c76004803603604081101561078f57600080fd5b81019080803573ffffffffffffffffffffffffffffffffffffffff1690602001909291908035151590602001909291905050506115a8565b005b610815600480360360408110156107df57600080fd5b81019080803573ffffffffffffffffffffffffffffffffffffffff1690602001909291908035906020019092919050505061177d565b005b61091a6004803603608081101561082d57600080fd5b81019080803573ffffffffffffffffffffffffffffffffffffffff169060200190929190803573ffffffffffffffffffffffffffffffffffffffff169060200190929190803590602001909291908035906020019064010000000081111561089457600080fd5b8201836020820111156108a657600080fd5b803590602001918460018302840111640100000000831117156108c857600080fd5b91908080601f016020809104026020016040519081016040528093929190818152602001838380828437600081840152601f19601f82011690508083019250505050505050919291929050505061188c565b005b6109486004803603602081101561093257600080fd5b81019080803590602001909291905050506118b3565b6040518082815260200191505060405180910390f35b6109c06004803603604081101561097457600080fd5b81019080803573ffffffffffffffffffffffffffffffffffffffff169060200190929190803573ffffffffffffffffffffffffffffffffffffffff1690602001909291905050506119f5565b604051808215151515815260200191505060405180910390f35b6060603a8054600181600116156101000203166002900480601f016020809104026020016040519081016040528092919081815260200182805460018160011615610100020316600290048015610a725780601f10610a4757610100808354040283529160200191610a72565b820191906000526020600020905b815481529060010190602001808311610a5557829003601f168201915b5050505050905090565b600080610a87610efa565b11610a9157600080fd5b60008210158015610aa85750610aa5610efa565b82105b610ab157600080fd5b610aba82611a89565b9050919050565b600073ffffffffffffffffffffffffffffffffffffffff163373ffffffffffffffffffffffffffffffffffffffff161415610afb57600080fd5b3373ffffffffffffffffffffffffffffffffffffffff166037600083815260200190815260200160002060009054906101000a900473ffffffffffffffffffffffffffffffffffffffff1673ffffffffffffffffffffffffffffffffffffffff161480610c28575060011515603960006037600085815260200190815260200160002060009054906101000a900473ffffffffffffffffffffffffffffffffffffffff1673ffffffffffffffffffffffffffffffffffffffff1673ffffffffffffffffffffffffffffffffffffffff16815260200190815260200160002060003373ffffffffffffffffffffffffffffffffffffffff1673ffffffffffffffffffffffffffffffffffffffff16815260200190815260200160002060009054906101000a900460ff161515145b610c3157600080fd5b610c3b8282611ac6565b808273ffffffffffffffffffffffffffffffffffffffff163373ffffffffffffffffffffffffffffffffffffffff167f8c5be1e5ebec7d5bd14f71427d1e84f3dd0314c0f7b2291e5b200ac8c7c3b92560405160405180910390a45050565b60606000610ca783611308565b90506000811415610ceb576000604051908082528060200260200182016040528015610ce25781602001602082028038833980820191505090505b50915050610ddd565b606081604051908082528060200260200182016040528015610d1c5781602001602082028038833980820191505090505b5090506000610d29610efa565b905060008090506000600190505b828111610dd4578673ffffffffffffffffffffffffffffffffffffffff166037600083815260200190815260200160002060009054906101000a900473ffffffffffffffffffffffffffffffffffffffff1673ffffffffffffffffffffffffffffffffffffffff161415610dc75780848381518110610db257fe5b60200260200101818152505081806001019250505b8080600101915050610d37565b83955050505050505b919050565b60008060008060008560348054905011610dfb57600080fd5b60348681548110610e0857fe5b906000526020600020906002020160000154945060348681548110610e2957fe5b906000526020600020906002020160010160009054906101000a900467ffffffffffffffff16935060348681548110610e5e57fe5b906000526020600020906002020160010160089054906101000a900463ffffffff16925060348681548110610e8f57fe5b9060005260206000209060020201600101600c9054906101000a900463ffffffff16915060348681548110610ec057fe5b906000526020600020906002020160010160109054906101000a900461ffff16905084848484849450945094509450945091939590929450565b6000603480549050905090565b600073ffffffffffffffffffffffffffffffffffffffff168273ffffffffffffffffffffffffffffffffffffffff161415610f4157600080fd5b3373ffffffffffffffffffffffffffffffffffffffff166037600083815260200190815260200160002060009054906101000a900473ffffffffffffffffffffffffffffffffffffffff1673ffffffffffffffffffffffffffffffffffffffff16148061100c57503373ffffffffffffffffffffffffffffffffffffffff166038600083815260200190815260200160002060009054906101000a900473ffffffffffffffffffffffffffffffffffffffff1673ffffffffffffffffffffffffffffffffffffffff16145b806110d05750603960006037600084815260200190815260200160002060009054906101000a900473ffffffffffffffffffffffffffffffffffffffff1673ffffffffffffffffffffffffffffffffffffffff1673ffffffffffffffffffffffffffffffffffffffff16815260200190815260200160002060003373ffffffffffffffffffffffffffffffffffffffff1673ffffffffffffffffffffffffffffffffffffffff16815260200190815260200160002060009054906101000a900460ff165b6110d957600080fd5b6037600082815260200190815260200160002060009054906101000a900473ffffffffffffffffffffffffffffffffffffffff1673ffffffffffffffffffffffffffffffffffffffff168373ffffffffffffffffffffffffffffffffffffffff161461114457600080fd5b6000811015801561115b5750611158610efa565b81105b61116457600080fd5b61116f838383611b1c565b505050565b61118f8383836040518060200160405280600081525061188c565b505050565b600060019054906101000a900460ff16806111b357506111b2611d40565b5b806111ca57506000809054906101000a900460ff16155b61121f576040517f08c379a000000000000000000000000000000000000000000000000000000000815260040180806020018281038252602e81526020018061261a602e913960400191505060405180910390fd5b60008060019054906101000a900460ff16159050801561126f576001600060016101000a81548160ff02191690831515021790555060016000806101000a81548160ff0219169083151502179055505b611277611d57565b82603a908051906020019061128d9291906124fc565b5081603b90805190602001906112a49291906124fc565b5080156112c65760008060016101000a81548160ff0219169083151502179055505b505050565b60006037600083815260200190815260200160002060009054906101000a900473ffffffffffffffffffffffffffffffffffffffff169050919050565b6000603660008373ffffffffffffffffffffffffffffffffffffffff1673ffffffffffffffffffffffffffffffffffffffff168152602001908152602001600020549050919050565b600060019054906101000a900460ff1680611370575061136f611d40565b5b8061138757506000809054906101000a900460ff16155b6113dc576040517f08c379a000000000000000000000000000000000000000000000000000000000815260040180806020018281038252602e81526020018061261a602e913960400191505060405180910390fd5b60008060019054906101000a900460ff16159050801561142c576001600060016101000a81548160ff02191690831515021790555060016000806101000a81548160ff0219169083151502179055505b6114a06040518060400160405280600b81526020017f43727970746f50616e64610000000000000000000000000000000000000000008152506040518060400160405280600281526020017f4350000000000000000000000000000000000000000000000000000000000000815250611194565b6000603560006101000a81548160ff021916908360ff16021790555080156114dd5760008060016101000a81548160ff0219169083151502179055505b50565b603360009054906101000a900473ffffffffffffffffffffffffffffffffffffffff1681565b6060603b8054600181600116156101000203166002900480601f01602080910402602001604051908101604052809291908181526020018280546001816001161561010002031660029004801561159e5780601f106115735761010080835404028352916020019161159e565b820191906000526020600020905b81548152906001019060200180831161158157829003601f168201915b5050505050905090565b600073ffffffffffffffffffffffffffffffffffffffff163373ffffffffffffffffffffffffffffffffffffffff1614156115e257600080fd5b801515603960003373ffffffffffffffffffffffffffffffffffffffff1673ffffffffffffffffffffffffffffffffffffffff16815260200190815260200160002060008473ffffffffffffffffffffffffffffffffffffffff1673ffffffffffffffffffffffffffffffffffffffff16815260200190815260200160002060009054906101000a900460ff161515141561167c57600080fd5b80603960003373ffffffffffffffffffffffffffffffffffffffff1673ffffffffffffffffffffffffffffffffffffffff16815260200190815260200160002060008473ffffffffffffffffffffffffffffffffffffffff1673ffffffffffffffffffffffffffffffffffffffff16815260200190815260200160002060006101000a81548160ff0219169083151502179055508173ffffffffffffffffffffffffffffffffffffffff163373ffffffffffffffffffffffffffffffffffffffff167f17307eab39ab6107e8899845ad3d59bd9653f200f220920489ca2b5937696c3183604051808215151515815260200191505060405180910390a35050565b600073ffffffffffffffffffffffffffffffffffffffff168273ffffffffffffffffffffffffffffffffffffffff1614156117b757600080fd5b603360009054906101000a900473ffffffffffffffffffffffffffffffffffffffff1673ffffffffffffffffffffffffffffffffffffffff168273ffffffffffffffffffffffffffffffffffffffff16141561181257600080fd5b3373ffffffffffffffffffffffffffffffffffffffff166037600083815260200190815260200160002060009054906101000a900473ffffffffffffffffffffffffffffffffffffffff1673ffffffffffffffffffffffffffffffffffffffff161461187d57600080fd5b611888338383611b1c565b5050565b61189833858585611e97565b6118a157600080fd5b6118ad848484846120f6565b50505050565b6000603360009054906101000a900473ffffffffffffffffffffffffffffffffffffffff1673ffffffffffffffffffffffffffffffffffffffff163373ffffffffffffffffffffffffffffffffffffffff161461190f57600080fd5b603c60009054906101000a900460ff1660ff16603560009054906101000a900460ff1660ff161061198b576040517f08c379a00000000000000000000000000000000000000000000000000000000081526004018080602001828103825260258152602001806126486025913960400191505060405180910390fd5b6035600081819054906101000a900460ff168092919060010191906101000a81548160ff021916908360ff160217905550506119ee600080846000603360009054906101000a900473ffffffffffffffffffffffffffffffffffffffff1661211c565b9050919050565b6000603960008473ffffffffffffffffffffffffffffffffffffffff1673ffffffffffffffffffffffffffffffffffffffff16815260200190815260200160002060008373ffffffffffffffffffffffffffffffffffffffff1673ffffffffffffffffffffffffffffffffffffffff16815260200190815260200160002060009054906101000a900460ff16905092915050565b60006038600083815260200190815260200160002060009054906101000a900473ffffffffffffffffffffffffffffffffffffffff169050919050565b816038600083815260200190815260200160002060006101000a81548173ffffffffffffffffffffffffffffffffffffffff021916908373ffffffffffffffffffffffffffffffffffffffff1602179055505050565b603660008373ffffffffffffffffffffffffffffffffffffffff1673ffffffffffffffffffffffffffffffffffffffff16815260200190815260200160002060008154809291906001019190505550816037600083815260200190815260200160002060006101000a81548173ffffffffffffffffffffffffffffffffffffffff021916908373ffffffffffffffffffffffffffffffffffffffff160217905550600073ffffffffffffffffffffffffffffffffffffffff168373ffffffffffffffffffffffffffffffffffffffff1614611c7857603660008473ffffffffffffffffffffffffffffffffffffffff1673ffffffffffffffffffffffffffffffffffffffff16815260200190815260200160002060008154809291906001900391905055506038600082815260200190815260200160002060006101000a81549073ffffffffffffffffffffffffffffffffffffffff02191690555b8173ffffffffffffffffffffffffffffffffffffffff166037600083815260200190815260200160002060009054906101000a900473ffffffffffffffffffffffffffffffffffffffff1673ffffffffffffffffffffffffffffffffffffffff1614611ce057fe5b808273ffffffffffffffffffffffffffffffffffffffff168473ffffffffffffffffffffffffffffffffffffffff167fddf252ad1be2c89b69c2b068fc378daa952ba7f163c4a11628f55a4df523b3ef60405160405180910390a4505050565b6000803090506000813b9050600081149250505090565b600060019054906101000a900460ff1680611d765750611d75611d40565b5b80611d8d57506000809054906101000a900460ff16155b611de2576040517f08c379a000000000000000000000000000000000000000000000000000000000815260040180806020018281038252602e81526020018061261a602e913960400191505060405180910390fd5b60008060019054906101000a900460ff161590508015611e32576001600060016101000a81548160ff02191690831515021790555060016000806101000a81548160ff0219169083151502179055505b33603360006101000a81548173ffffffffffffffffffffffffffffffffffffffff021916908373ffffffffffffffffffffffffffffffffffffffff1602179055508015611e945760008060016101000a81548160ff0219169083151502179055505b50565b60008073ffffffffffffffffffffffffffffffffffffffff168373ffffffffffffffffffffffffffffffffffffffff161415611ed257600080fd5b6037600083815260200190815260200160002060009054906101000a900473ffffffffffffffffffffffffffffffffffffffff1673ffffffffffffffffffffffffffffffffffffffff168473ffffffffffffffffffffffffffffffffffffffff1614611f3d57600080fd5b60008210158015611f545750611f51610efa565b82105b611f5d57600080fd5b8473ffffffffffffffffffffffffffffffffffffffff166037600084815260200190815260200160002060009054906101000a900473ffffffffffffffffffffffffffffffffffffffff1673ffffffffffffffffffffffffffffffffffffffff16148061202857508473ffffffffffffffffffffffffffffffffffffffff166038600084815260200190815260200160002060009054906101000a900473ffffffffffffffffffffffffffffffffffffffff1673ffffffffffffffffffffffffffffffffffffffff16145b806120ec5750603960006037600085815260200190815260200160002060009054906101000a900473ffffffffffffffffffffffffffffffffffffffff1673ffffffffffffffffffffffffffffffffffffffff1673ffffffffffffffffffffffffffffffffffffffff16815260200190815260200160002060008673ffffffffffffffffffffffffffffffffffffffff1673ffffffffffffffffffffffffffffffffffffffff16815260200190815260200160002060009054906101000a900460ff165b9050949350505050565b612101848484611b1c565b61210d848484846122ff565b61211657600080fd5b50505050565b600061212661257c565b6040518060a001604052808681526020014267ffffffffffffffff1681526020018863ffffffff1681526020018763ffffffff1681526020018561ffff16815250905060006001603483908060018154018082558091505090600182039060005260206000209060020201600090919290919091506000820151816000015560208201518160010160006101000a81548167ffffffffffffffff021916908367ffffffffffffffff16021790555060408201518160010160086101000a81548163ffffffff021916908363ffffffff160217905550606082015181600101600c6101000a81548163ffffffff021916908363ffffffff16021790555060808201518160010160106101000a81548161ffff021916908361ffff160217905550505003905061225660008583611b1c565b7fc1ea72b53c1f5c7777dc94a0f85ac93e5011bc83100167e5a57960135334534f84828a8a8a604051808673ffffffffffffffffffffffffffffffffffffffff1673ffffffffffffffffffffffffffffffffffffffff1681526020018581526020018463ffffffff1663ffffffff1681526020018363ffffffff1663ffffffff1681526020018281526020019550505050505060405180910390a1809250505095945050505050565b600061230a846124e3565b61231757600190506124db565b60008473ffffffffffffffffffffffffffffffffffffffff1663150b7a02338887876040518563ffffffff1660e01b8152600401808573ffffffffffffffffffffffffffffffffffffffff1673ffffffffffffffffffffffffffffffffffffffff1681526020018473ffffffffffffffffffffffffffffffffffffffff1673ffffffffffffffffffffffffffffffffffffffff16815260200183815260200180602001828103825283818151815260200191508051906020019080838360005b838110156123f25780820151818401526020810190506123d7565b50505050905090810190601f16801561241f5780820380516001836020036101000a031916815260200191505b5095505050505050602060405180830381600087803b15801561244157600080fd5b505af1158015612455573d6000803e3d6000fd5b505050506040513d602081101561246b57600080fd5b8101908080519060200190929190505050905060405180806125eb602f9139602f01905060405180910390207bffffffffffffffffffffffffffffffffffffffffffffffffffffffff1916817bffffffffffffffffffffffffffffffffffffffffffffffffffffffff1916149150505b949350505050565b600080823b905060008163ffffffff1611915050919050565b828054600181600116156101000203166002900490600052602060002090601f016020900481019282601f1061253d57805160ff191683800117855561256b565b8280016001018555821561256b579182015b8281111561256a57825182559160200191906001019061254f565b5b50905061257891906125c5565b5090565b6040518060a0016040528060008152602001600067ffffffffffffffff168152602001600063ffffffff168152602001600063ffffffff168152602001600061ffff1681525090565b6125e791905b808211156125e35760008160009055506001016125cb565b5090565b9056fe6f6e455243373231526563656976656428616464726573732c616464726573732c75696e743235362c627974657329436f6e747261637420696e7374616e63652068617320616c7265616479206265656e20696e697469616c697a656447656e2030204c696d69742072656163686564202831302070616e646173206c696d697429a265627a7a723158207b2530795cfdf48da026321e1359ee432afd993f7c53d98364308d9c6dff339b64736f6c634300050c0032",
  "source": "pragma solidity ^0.5.12;\n\nimport \"./PandaToken.sol\";\n\nimport \"@openzeppelin/upgrades/contracts/Initializable.sol\";\n\ncontract PandaContract is Initializable , PandaToken {\n\n    event Approval(address indexed owner, address indexed approved, uint256 indexed PandaId);\n    event Birth(address _owner,uint256 PandaId, uint32 mumId, uint32 dadId, uint256 genes); \n\n\n    function initialize() public initializer{\n        PandaToken.initialize(\"CryptoPanda\",\"CP\");\n        gen0Counter= 0;\n    }\n\n    function createPandaGen0(uint256 _genes) public onlyOwner returns (uint256) {\n        require( gen0Counter < CREATION_GEN_LIMIT,\"Gen 0 Limit reached (10 pandas limit)\");\n        gen0Counter++;\n        return _CreatePanda(0,0,_genes,0,owner);\n    }\n\n    function _CreatePanda(uint32 _mumId,uint32 _dadId,uint256 _genes,uint16 _generation,address _owner) private returns (uint256){\n        Panda memory _panda = Panda({\n            genes: _genes,\n            birthTime:uint64(now),\n            mumId:uint32(_mumId),\n            dadId:uint32(_dadId),\n            generation:uint16(_generation)\n        });\n\n        uint256 newPandaId = _pandas.push(_panda)-1;\n\n        _transfer(address(0), _owner, newPandaId);\n\n        emit Birth(_owner, newPandaId, _mumId, _dadId, _genes);\n\n        return newPandaId;\n    }\n\n    function getPanda(uint256 tokenId) public view returns(uint256 genes,uint64 birthTime,uint32 mumId,uint32 dadId,uint16 generation) \n    {\n        require(_pandas.length > tokenId);\n\n        genes       =_pandas[tokenId].genes;\n        birthTime   =_pandas[tokenId].birthTime;\n        mumId       =_pandas[tokenId].mumId;\n        dadId       =_pandas[tokenId].dadId;\n        generation  =_pandas[tokenId].generation;\n\n        return (genes,birthTime,mumId,dadId,generation);\n    }\n\n    function _pandasOfOwner (address PandaOwnerAddress) public view returns (uint256[] memory ){\n        uint256 numberOfPandasOwned = balanceOf(PandaOwnerAddress);\n\n        if( numberOfPandasOwned == 0){\n            return new uint256[](0);\n        }else{\n            uint256[] memory result =  new uint256[](numberOfPandasOwned);\n            uint256 totalPandas = totalSupply();\n            uint256 resultIndex = 0;\n\n            uint256 pandaId;\n            for(pandaId=1; pandaId<= totalPandas; pandaId++){  \n                if(_PandaOwner[pandaId]==PandaOwnerAddress){\n                    result[resultIndex] = pandaId;\n                    resultIndex++;\n                }\n            }\n            return result;\n        }\n    }\n}\n\n",
  "sourcePath": "/home/ismael/Documents/Blockchain Bootcamp/GIT/CryptoKitties-clone/contracts/PandaContract.sol",
  "compiler": {
    "name": "solc",
    "version": "0.5.12+commit.7709ece9.Emscripten.clang"
  },
  "schemaVersion": "3.2.0",
  "updatedAt": "2020-11-04T13:47:51.818Z",
  "networkType": "ethereum",
  "devdoc": {
    "methods": {
      "approve(address,uint256)": {
        "details": "The zero address indicates there is no approved address.  Throws unless `msg.sender` is the current NFT owner, or an authorized  operator of the current owner.",
        "params": {
          "_to": "The new approved NFT controller",
          "_tokenId": "The NFT to approve"
        }
      },
      "balanceOf(address)": {
        "details": "Returns the number of tokens in ``owner``'s account."
      },
      "getApproved(uint256)": {
        "details": "Throws if `_tokenId` is not a valid NFT.",
        "params": {
          "_tokenId": "The NFT to find the approved address for"
        },
        "return": "The approved address for this NFT, or the zero address if there is none"
      },
      "isApprovedForAll(address,address)": {
        "params": {
          "_operator": "The address that acts on behalf of the owner",
          "_owner": "The address that owns the NFTs"
        },
        "return": "True if `_operator` is an approved operator for `_owner`, false otherwise"
      },
      "ownerOf(uint256)": {
        "details": "Returns the owner of the `tokenId` token.     * Requirements:     * - `tokenId` must exist."
      },
      "safeTransferFrom(address,address,uint256)": {
        "details": "This works identically to the other function with an extra data parameter,  except this function just sets data to \"\".",
        "params": {
          "_from": "The current owner of the NFT",
          "_to": "The new owner",
          "_tokenId": "The NFT to transfer"
        }
      },
      "safeTransferFrom(address,address,uint256,bytes)": {
        "details": "Throws unless `msg.sender` is the current owner, an authorized  operator, or the approved address for this NFT. Throws if `_from` is  not the current owner. Throws if `_to` is the zero address. Throws if  `_tokenId` is not a valid NFT. When transfer is complete, this function  checks if `_to` is a smart contract (code size > 0). If so, it calls  `onERC721Received` on `_to` and throws if the return value is not  `bytes4(keccak256(\"onERC721Received(address,address,uint256,bytes)\"))`.",
        "params": {
          "_from": "The current owner of the NFT",
          "_to": "The new owner",
          "_tokenId": "The NFT to transfer",
          "data": "Additional data with no specified format, sent in call to `_to`"
        }
      },
      "setApprovalForAll(address,bool)": {
        "details": "Emits the ApprovalForAll event. The contract MUST allow  multiple operators per owner.",
        "params": {
          "_approved": "True if the operator is approved, false to revoke approval",
          "_operator": "Address to add to the set of authorized operators"
        }
      },
      "transferFrom(address,address,uint256)": {
        "details": "Throws unless `msg.sender` is the current owner, an authorized  operator, or the approved address for this NFT. Throws if `_from` is  not the current owner. Throws if `_to` is the zero address. Throws if  `_tokenId` is not a valid NFT.",
        "params": {
          "_from": "The current owner of the NFT",
          "_to": "The new owner",
          "_tokenId": "The NFT to transfer"
        }
      }
    }
  },
  "userdoc": {
    "methods": {
      "approve(address,uint256)": {
        "notice": "Change or reaffirm the approved address for an NFT"
      },
      "getApproved(uint256)": {
        "notice": "Get the approved address for a single NFT"
      },
      "isApprovedForAll(address,address)": {
        "notice": "Query if an address is an authorized operator for another address"
      },
      "safeTransferFrom(address,address,uint256)": {
        "notice": "Transfers the ownership of an NFT from one address to another address"
      },
      "safeTransferFrom(address,address,uint256,bytes)": {
        "notice": "Transfers the ownership of an NFT from one address to another address"
      },
      "setApprovalForAll(address,bool)": {
        "notice": "Enable or disable approval for a third party (\"operator\") to manage  all of `msg.sender`'s assets"
      },
      "transferFrom(address,address,uint256)": {
        "notice": "Transfer ownership of an NFT -- THE CALLER IS RESPONSIBLE  TO CONFIRM THAT `_to` IS CAPABLE OF RECEIVING NFTS OR ELSE  THEY MAY BE PERMANENTLY LOST"
      }
    }
  }
}