{
  "contractName": "PandaMarketPlaceStorage",
  "abi": [
    {
      "constant": true,
      "inputs": [],
      "name": "_activeOfferCount",
      "outputs": [
        {
          "internalType": "uint256",
          "name": "",
          "type": "uint256"
        }
      ],
      "payable": false,
      "stateMutability": "view",
      "type": "function"
    }
  ],
  "bytecode": "0x60806040526000600255348015601457600080fd5b506084806100236000396000f3fe6080604052348015600f57600080fd5b506004361060285760003560e01c80630bc1331514602d575b600080fd5b60336049565b6040518082815260200191505060405180910390f35b6002548156fea265627a7a723158200080538f50ca399e63ea5fb581d0434b6bd77ab626e566a5550792e0568190f664736f6c634300050c0032",
  "source": "pragma solidity ^0.5.12;\n\nimport \"./Ownable.sol\";\nimport \"./PandaContract.sol\";\n\ncontract PandaMarketPlaceStorage {\n    PandaContract internal _pandaContract;\n\n    struct Offer{\n        address payable seller;\n        uint256 price;\n        uint256 index;\n        uint256 tokenId;\n        bool active;\n    }\n\n    Offer[] internal Offers;\n\n    uint256 public _activeOfferCount = 0;\n\n    mapping(uint256 => Offer) internal tokenIdToOffer;\n}",
  "sourcePath": "/home/ismael/Documents/Projects/GIT/CryptoKitties-clone/contracts/PandaMarketPlaceStorage.sol",
  "compiler": {
    "name": "solc",
    "version": "0.5.12+commit.7709ece9.Emscripten.clang"
  },
  "schemaVersion": "3.3.2",
  "updatedAt": "2020-12-17T11:24:20.535Z",
  "devdoc": {
    "methods": {}
  },
  "userdoc": {
    "methods": {}
  }
}