{
  "contractName": "PandaMarketPlaceProxy",
  "abi": [
    {
      "inputs": [
        {
          "internalType": "address",
          "name": "_currentAddress",
          "type": "address"
        }
      ],
      "payable": false,
      "stateMutability": "nonpayable",
      "type": "constructor"
    },
    {
      "payable": true,
      "stateMutability": "payable",
      "type": "fallback"
    },
    {
      "constant": true,
      "inputs": [],
      "name": "owner",
      "outputs": [
        {
          "internalType": "address",
          "name": "",
          "type": "address"
        }
      ],
      "payable": false,
      "stateMutability": "view",
      "type": "function"
    },
    {
      "constant": false,
      "inputs": [
        {
          "internalType": "address",
          "name": "_newAddress",
          "type": "address"
        }
      ],
      "name": "upgrade",
      "outputs": [],
      "payable": false,
      "stateMutability": "nonpayable",
      "type": "function"
    }
  ],
  "bytecode": "0x6080604052600060035534801561001557600080fd5b5060405161040e38038061040e8339818101604052602081101561003857600080fd5b8101908080519060200190929190505050336000806101000a81548173ffffffffffffffffffffffffffffffffffffffff021916908373ffffffffffffffffffffffffffffffffffffffff16021790555080600560006101000a81548173ffffffffffffffffffffffffffffffffffffffff021916908373ffffffffffffffffffffffffffffffffffffffff16021790555050610334806100da6000396000f3fe6080604052600436106100295760003560e01c80630900f0101461011c5780638da5cb5b1461016d575b6000600560009054906101000a900473ffffffffffffffffffffffffffffffffffffffff169050600073ffffffffffffffffffffffffffffffffffffffff16600560009054906101000a900473ffffffffffffffffffffffffffffffffffffffff1673ffffffffffffffffffffffffffffffffffffffff1614156100ac57600080fd5b60606000368080601f016020809104026020016040519081016040528093929190818152602001838380828437600081840152601f19601f820116905080830192505050505050509050600080825160208401855af43d604051816000823e8260008114610118578282f35b8282fd5b34801561012857600080fd5b5061016b6004803603602081101561013f57600080fd5b81019080803573ffffffffffffffffffffffffffffffffffffffff1690602001909291905050506101c4565b005b34801561017957600080fd5b506101826102ad565b604051808273ffffffffffffffffffffffffffffffffffffffff1673ffffffffffffffffffffffffffffffffffffffff16815260200191505060405180910390f35b6000809054906101000a900473ffffffffffffffffffffffffffffffffffffffff1673ffffffffffffffffffffffffffffffffffffffff163373ffffffffffffffffffffffffffffffffffffffff1614610269576040517f08c379a000000000000000000000000000000000000000000000000000000000815260040180806020018281038252602d8152602001806102d3602d913960400191505060405180910390fd5b80600560006101000a81548173ffffffffffffffffffffffffffffffffffffffff021916908373ffffffffffffffffffffffffffffffffffffffff16021790555050565b6000809054906101000a900473ffffffffffffffffffffffffffffffffffffffff168156fe6572726f723a206f6e6c794f776e65722121212121212121212121212121212121212121212121212121212121a265627a7a723158207fdbea7f7567802a0717f93570febbba61a6608498984a5d8352689b4947fb6664736f6c634300050c0032",
  "source": "pragma solidity ^0.5.12;\nimport \"./PandaMarketPlaceStorage.sol\";\n\ncontract PandaMarketPlaceProxy is Ownable,PandaMarketPlaceStorage{\n\n  address currentAddress;\n\n  constructor(address _currentAddress) public {\n    currentAddress = _currentAddress;\n    //Ownable.initialize();\n     //owner = msg.sender; // This is a HACK!! \n  }\n  function upgrade(address _newAddress) public onlyOwner {\n    currentAddress = _newAddress;\n  }\n\n  //FALLBACK FUNCTION.\n  function () payable external {\n    address implementation = currentAddress;\n    require(currentAddress != address(0));\n    bytes memory data = msg.data;\n\n    //DELEGATECALL EVERY FUNCTION CALL\n    assembly {\n      let result := delegatecall(gas, implementation, add(data, 0x20), mload(data), 0, 0)\n      let size := returndatasize\n      let ptr := mload(0x40)\n      returndatacopy(ptr, 0, size)\n      switch result\n      case 0 {revert(ptr, size)}\n      default {return(ptr, size)}\n    }\n  }\n}",
  "sourcePath": "/home/ismael/Documents/Projects/GIT/CryptoKitties-clone/contracts/PandaMarketPlaceProxy.sol",
  "compiler": {
    "name": "solc",
    "version": "0.5.12+commit.7709ece9.Emscripten.clang"
  },
  "schemaVersion": "3.3.2",
  "updatedAt": "2020-12-09T12:10:15.054Z",
  "networkType": "ethereum",
  "devdoc": {
    "methods": {}
  },
  "userdoc": {
    "methods": {}
  }
}