{
  "contractName": "PandaContract",
  "abi": [
    {
      "inputs": [],
      "payable": false,
      "stateMutability": "nonpayable",
      "type": "constructor"
    },
    {
      "anonymous": false,
      "inputs": [
        {
          "indexed": true,
          "internalType": "address",
          "name": "owner",
          "type": "address"
        },
        {
          "indexed": true,
          "internalType": "address",
          "name": "approved",
          "type": "address"
        },
        {
          "indexed": true,
          "internalType": "uint256",
          "name": "tokenId",
          "type": "uint256"
        }
      ],
      "name": "Approval",
      "type": "event"
    },
    {
      "anonymous": false,
      "inputs": [
        {
          "indexed": false,
          "internalType": "address",
          "name": "_owner",
          "type": "address"
        },
        {
          "indexed": false,
          "internalType": "uint256",
          "name": "PandaId",
          "type": "uint256"
        },
        {
          "indexed": false,
          "internalType": "uint256",
          "name": "mumId",
          "type": "uint256"
        },
        {
          "indexed": false,
          "internalType": "uint256",
          "name": "dadId",
          "type": "uint256"
        },
        {
          "indexed": false,
          "internalType": "uint256",
          "name": "genes",
          "type": "uint256"
        }
      ],
      "name": "Birth",
      "type": "event"
    },
    {
      "anonymous": false,
      "inputs": [
        {
          "indexed": true,
          "internalType": "address",
          "name": "from",
          "type": "address"
        },
        {
          "indexed": true,
          "internalType": "address",
          "name": "to",
          "type": "address"
        },
        {
          "indexed": true,
          "internalType": "uint256",
          "name": "tokenId",
          "type": "uint256"
        }
      ],
      "name": "Transfer",
      "type": "event"
    },
    {
      "constant": true,
      "inputs": [
        {
          "internalType": "address",
          "name": "owner",
          "type": "address"
        }
      ],
      "name": "balanceOf",
      "outputs": [
        {
          "internalType": "uint256",
          "name": "balance",
          "type": "uint256"
        }
      ],
      "payable": false,
      "stateMutability": "view",
      "type": "function"
    },
    {
      "constant": true,
      "inputs": [],
      "name": "name",
      "outputs": [
        {
          "internalType": "string",
          "name": "tokenName",
          "type": "string"
        }
      ],
      "payable": false,
      "stateMutability": "view",
      "type": "function"
    },
    {
      "constant": true,
      "inputs": [],
      "name": "owner",
      "outputs": [
        {
          "internalType": "address",
          "name": "",
          "type": "address"
        }
      ],
      "payable": false,
      "stateMutability": "view",
      "type": "function"
    },
    {
      "constant": true,
      "inputs": [
        {
          "internalType": "uint256",
          "name": "_tokenId",
          "type": "uint256"
        }
      ],
      "name": "ownerOf",
      "outputs": [
        {
          "internalType": "address",
          "name": "owner",
          "type": "address"
        }
      ],
      "payable": false,
      "stateMutability": "view",
      "type": "function"
    },
    {
      "constant": true,
      "inputs": [],
      "name": "symbol",
      "outputs": [
        {
          "internalType": "string",
          "name": "tokenSymbol",
          "type": "string"
        }
      ],
      "payable": false,
      "stateMutability": "view",
      "type": "function"
    },
    {
      "constant": true,
      "inputs": [],
      "name": "totalSupply",
      "outputs": [
        {
          "internalType": "uint256",
          "name": "total",
          "type": "uint256"
        }
      ],
      "payable": false,
      "stateMutability": "view",
      "type": "function"
    },
    {
      "constant": false,
      "inputs": [
        {
          "internalType": "address",
          "name": "_to",
          "type": "address"
        },
        {
          "internalType": "uint256",
          "name": "_tokenId",
          "type": "uint256"
        }
      ],
      "name": "transfer",
      "outputs": [],
      "payable": false,
      "stateMutability": "nonpayable",
      "type": "function"
    },
    {
      "constant": false,
      "inputs": [
        {
          "internalType": "uint256",
          "name": "_genes",
          "type": "uint256"
        }
      ],
      "name": "createPandaGen0",
      "outputs": [
        {
          "internalType": "uint256",
          "name": "",
          "type": "uint256"
        }
      ],
      "payable": false,
      "stateMutability": "nonpayable",
      "type": "function"
    },
    {
      "constant": true,
      "inputs": [
        {
          "internalType": "uint256",
          "name": "tokenId",
          "type": "uint256"
        }
      ],
      "name": "getPanda",
      "outputs": [
        {
          "internalType": "uint256",
          "name": "genes",
          "type": "uint256"
        },
        {
          "internalType": "uint64",
          "name": "birthTime",
          "type": "uint64"
        },
        {
          "internalType": "uint32",
          "name": "mumId",
          "type": "uint32"
        },
        {
          "internalType": "uint32",
          "name": "dadId",
          "type": "uint32"
        },
        {
          "internalType": "uint16",
          "name": "generation",
          "type": "uint16"
        }
      ],
      "payable": false,
      "stateMutability": "view",
      "type": "function"
    },
    {
      "constant": true,
      "inputs": [
        {
          "internalType": "address",
          "name": "PandaOwnerAddress",
          "type": "address"
        }
      ],
      "name": "_pandasOfOwner",
      "outputs": [
        {
          "internalType": "uint256[]",
          "name": "",
          "type": "uint256[]"
        }
      ],
      "payable": false,
      "stateMutability": "view",
      "type": "function"
    }
  ],
  "bytecode": "0x60806040526064603a60006101000a81548160ff021916908360ff1602179055503480156200002d57600080fd5b5033603360006101000a81548173ffffffffffffffffffffffffffffffffffffffff021916908373ffffffffffffffffffffffffffffffffffffffff1602179055506040518060400160405280600b81526020017f43727970746f50616e646100000000000000000000000000000000000000000081525060389080519060200190620000bc9291906200012d565b506040518060400160405280600281526020017f4350000000000000000000000000000000000000000000000000000000000000815250603990805190602001906200010a9291906200012d565b506000603560006101000a81548160ff021916908360ff160217905550620001dc565b828054600181600116156101000203166002900490600052602060002090601f016020900481019282601f106200017057805160ff1916838001178555620001a1565b82800160010185558215620001a1579182015b82811115620001a057825182559160200191906001019062000183565b5b509050620001b09190620001b4565b5090565b620001d991905b80821115620001d5576000816000905550600101620001bb565b5090565b90565b610fa980620001ec6000396000f3fe608060405234801561001057600080fd5b506004361061009e5760003560e01c806370a082311161006657806370a08231146102dd5780638da5cb5b1461033557806395d89b411461037f578063a9059cbb14610402578063d967c621146104505761009e565b806306fdde03146100a35780630b8ab884146101265780631327fbe5146101bf57806318160ddd146102515780636352211e1461026f575b600080fd5b6100ab610492565b6040518080602001828103825283818151815260200191508051906020019080838360005b838110156100eb5780820151818401526020810190506100d0565b50505050905090810190601f1680156101185780820380516001836020036101000a031916815260200191505b509250505060405180910390f35b6101686004803603602081101561013c57600080fd5b81019080803573ffffffffffffffffffffffffffffffffffffffff169060200190929190505050610534565b6040518080602001828103825283818151815260200191508051906020019060200280838360005b838110156101ab578082015181840152602081019050610190565b505050509050019250505060405180910390f35b6101eb600480360360208110156101d557600080fd5b810190808035906020019092919050505061067c565b604051808681526020018567ffffffffffffffff1667ffffffffffffffff1681526020018463ffffffff1663ffffffff1681526020018363ffffffff1663ffffffff1681526020018261ffff1661ffff1681526020019550505050505060405180910390f35b610259610794565b6040518082815260200191505060405180910390f35b61029b6004803603602081101561028557600080fd5b81019080803590602001909291905050506107a1565b604051808273ffffffffffffffffffffffffffffffffffffffff1673ffffffffffffffffffffffffffffffffffffffff16815260200191505060405180910390f35b61031f600480360360208110156102f357600080fd5b81019080803573ffffffffffffffffffffffffffffffffffffffff1690602001909291905050506107de565b6040518082815260200191505060405180910390f35b61033d610827565b604051808273ffffffffffffffffffffffffffffffffffffffff1673ffffffffffffffffffffffffffffffffffffffff16815260200191505060405180910390f35b61038761084d565b6040518080602001828103825283818151815260200191508051906020019080838360005b838110156103c75780820151818401526020810190506103ac565b50505050905090810190601f1680156103f45780820380516001836020036101000a031916815260200191505b509250505060405180910390f35b61044e6004803603604081101561041857600080fd5b81019080803573ffffffffffffffffffffffffffffffffffffffff169060200190929190803590602001909291905050506108ef565b005b61047c6004803603602081101561046657600080fd5b81019080803590602001909291905050506109fe565b6040518082815260200191505060405180910390f35b606060388054600181600116156101000203166002900480601f01602080910402602001604051908101604052809291908181526020018280546001816001161561010002031660029004801561052a5780601f106104ff5761010080835404028352916020019161052a565b820191906000526020600020905b81548152906001019060200180831161050d57829003601f168201915b5050505050905090565b60606000610541836107de565b9050600081141561058557600060405190808252806020026020018201604052801561057c5781602001602082028038833980820191505090505b50915050610677565b6060816040519080825280602002602001820160405280156105b65781602001602082028038833980820191505090505b50905060006105c3610794565b905060008090506000600190505b82811161066e578673ffffffffffffffffffffffffffffffffffffffff166037600083815260200190815260200160002060009054906101000a900473ffffffffffffffffffffffffffffffffffffffff1673ffffffffffffffffffffffffffffffffffffffff161415610661578084838151811061064c57fe5b60200260200101818152505081806001019250505b80806001019150506105d1565b83955050505050505b919050565b6000806000806000856034805490501161069557600080fd5b603486815481106106a257fe5b9060005260206000209060020201600001549450603486815481106106c357fe5b906000526020600020906002020160010160009054906101000a900467ffffffffffffffff169350603486815481106106f857fe5b906000526020600020906002020160010160089054906101000a900463ffffffff1692506034868154811061072957fe5b9060005260206000209060020201600101600c9054906101000a900463ffffffff1691506034868154811061075a57fe5b906000526020600020906002020160010160109054906101000a900461ffff16905084848484849450945094509450945091939590929450565b6000603480549050905090565b60006037600083815260200190815260200160002060009054906101000a900473ffffffffffffffffffffffffffffffffffffffff169050919050565b6000603660008373ffffffffffffffffffffffffffffffffffffffff1673ffffffffffffffffffffffffffffffffffffffff168152602001908152602001600020549050919050565b603360009054906101000a900473ffffffffffffffffffffffffffffffffffffffff1681565b606060398054600181600116156101000203166002900480601f0160208091040260200160405190810160405280929190818152602001828054600181600116156101000203166002900480156108e55780601f106108ba576101008083540402835291602001916108e5565b820191906000526020600020905b8154815290600101906020018083116108c857829003601f168201915b5050505050905090565b600073ffffffffffffffffffffffffffffffffffffffff168273ffffffffffffffffffffffffffffffffffffffff16141561092957600080fd5b603360009054906101000a900473ffffffffffffffffffffffffffffffffffffffff1673ffffffffffffffffffffffffffffffffffffffff168273ffffffffffffffffffffffffffffffffffffffff16141561098457600080fd5b3373ffffffffffffffffffffffffffffffffffffffff166037600083815260200190815260200160002060009054906101000a900473ffffffffffffffffffffffffffffffffffffffff1673ffffffffffffffffffffffffffffffffffffffff16146109ef57600080fd5b6109fa338383610b40565b5050565b6000603360009054906101000a900473ffffffffffffffffffffffffffffffffffffffff1673ffffffffffffffffffffffffffffffffffffffff163373ffffffffffffffffffffffffffffffffffffffff1614610a5a57600080fd5b603a60009054906101000a900460ff1660ff16603560009054906101000a900460ff1660ff1610610ad6576040517f08c379a0000000000000000000000000000000000000000000000000000000008152600401808060200182810382526026815260200180610f4f6026913960400191505060405180910390fd5b6035600081819054906101000a900460ff168092919060010191906101000a81548160ff021916908360ff16021790555050610b39600080846000603360009054906101000a900473ffffffffffffffffffffffffffffffffffffffff16610d2e565b9050919050565b603660008373ffffffffffffffffffffffffffffffffffffffff1673ffffffffffffffffffffffffffffffffffffffff16815260200190815260200160002060008154809291906001019190505550816037600083815260200190815260200160002060006101000a81548173ffffffffffffffffffffffffffffffffffffffff021916908373ffffffffffffffffffffffffffffffffffffffff160217905550600073ffffffffffffffffffffffffffffffffffffffff168373ffffffffffffffffffffffffffffffffffffffff1614610c6657603660008473ffffffffffffffffffffffffffffffffffffffff1673ffffffffffffffffffffffffffffffffffffffff16815260200190815260200160002060008154809291906001900391905055505b8173ffffffffffffffffffffffffffffffffffffffff166037600083815260200190815260200160002060009054906101000a900473ffffffffffffffffffffffffffffffffffffffff1673ffffffffffffffffffffffffffffffffffffffff1614610cce57fe5b808273ffffffffffffffffffffffffffffffffffffffff168473ffffffffffffffffffffffffffffffffffffffff167fddf252ad1be2c89b69c2b068fc378daa952ba7f163c4a11628f55a4df523b3ef60405160405180910390a4505050565b6000610d38610f05565b6040518060a001604052808681526020014267ffffffffffffffff1681526020018863ffffffff1681526020018763ffffffff1681526020018561ffff16815250905060006001603483908060018154018082558091505090600182039060005260206000209060020201600090919290919091506000820151816000015560208201518160010160006101000a81548167ffffffffffffffff021916908367ffffffffffffffff16021790555060408201518160010160086101000a81548163ffffffff021916908363ffffffff160217905550606082015181600101600c6101000a81548163ffffffff021916908363ffffffff16021790555060808201518160010160106101000a81548161ffff021916908361ffff1602179055505050039050610e6860008583610b40565b7f0a5311bd2a6608f08a180df2ee7c5946819a649b204b554bb8e39825b2c50ad584828a8a8a604051808673ffffffffffffffffffffffffffffffffffffffff1673ffffffffffffffffffffffffffffffffffffffff1681526020018581526020018463ffffffff1681526020018363ffffffff1681526020018281526020019550505050505060405180910390a1809250505095945050505050565b6040518060a0016040528060008152602001600067ffffffffffffffff168152602001600063ffffffff168152602001600063ffffffff168152602001600061ffff168152509056fe47656e2030204c696d6974207265616368656420283130205f70616e646173206c696d697429a265627a7a72315820e9d8f70ceb3c99f20728e1863392b00dcfe8731499fe7b92141b55e8de7b457164736f6c634300050c0032",
  "source": "pragma solidity ^0.5.12;\n\nimport \"./PandaToken.sol\";\n\nimport \"@openzeppelin/upgrades/contracts/Initializable.sol\";\n\ncontract PandaContract is Initializable , PandaToken {\n\n    event Approval(address indexed owner, address indexed approved, uint256 indexed tokenId);\n    event Birth(address _owner,uint256 PandaId, uint256 mumId, uint256 dadId, uint256 genes); \n\n\n    \n\n    constructor() public  {\n        // PandaToken.initialize(\"CryptoPanda\",\"CP\");\n        gen0Counter= 0;\n    }\n\n    \n\n    function createPandaGen0(uint256 _genes) public onlyOwner returns (uint256) {\n        require( gen0Counter < CREATION_GEN_LIMIT,\"Gen 0 Limit reached (10 _pandas limit)\");\n        gen0Counter++;\n        return _CreatePanda(0,0,_genes,0,owner);\n    }\n\n    function _CreatePanda(uint32 _mumId,uint32 _dadId,uint256 _genes,uint16 _generation,address _owner) private returns (uint256){\n        Panda memory _panda = Panda({\n            genes: _genes,\n            birthTime:uint64(now),\n            mumId:uint32(_mumId),\n            dadId:uint32(_dadId),\n            generation:uint16(_generation)\n        });\n\n        uint256 newPandaId = _pandas.push(_panda)-1;\n\n        _transfer(address(0), _owner, newPandaId);\n\n        emit Birth(_owner, newPandaId, _mumId, _dadId, _genes);\n\n        return newPandaId;\n    }\n\n    function getPanda(uint256 tokenId) public view returns(uint256 genes,uint64 birthTime,uint32 mumId,uint32 dadId,uint16 generation) \n    {\n        require(_pandas.length > tokenId);\n\n        genes       =_pandas[tokenId].genes;\n        birthTime   =_pandas[tokenId].birthTime;\n        mumId       =_pandas[tokenId].mumId;\n        dadId       =_pandas[tokenId].dadId;\n        generation  =_pandas[tokenId].generation;\n\n        return (genes,birthTime,mumId,dadId,generation);\n    }\n\n    function _pandasOfOwner (address PandaOwnerAddress) public view returns (uint256[] memory ){\n        uint256 numberOfPandasOwned = balanceOf(PandaOwnerAddress);\n\n        if( numberOfPandasOwned == 0){\n            return new uint256[](0);\n        }else{\n            uint256[] memory result =  new uint256[](numberOfPandasOwned);\n            uint256 totalPandas = totalSupply();\n            uint256 resultIndex = 0;\n\n            uint256 pandaId;\n            for(pandaId=1; pandaId<= totalPandas; pandaId++){  \n                if(_PandaOwner[pandaId]==PandaOwnerAddress){\n                    result[resultIndex] = pandaId;\n                    resultIndex++;\n                }\n            }\n            return result;\n        }\n    }\n}\n\n",
  "sourcePath": "/home/ismael/Documents/Blockchain Bootcamp/GIT/CryptoKitties-clone/contracts/PandaContract.sol",
  "compiler": {
    "name": "solc",
    "version": "0.5.12+commit.7709ece9.Emscripten.clang"
  },
  "schemaVersion": "3.2.0",
  "updatedAt": "2020-10-19T13:05:53.537Z",
  "networkType": "ethereum",
  "devdoc": {
    "methods": {
      "balanceOf(address)": {
        "details": "Returns the number of tokens in ``owner``'s account."
      },
      "ownerOf(uint256)": {
        "details": "Returns the owner of the `tokenId` token.     * Requirements:     * - `tokenId` must exist."
      }
    }
  },
  "userdoc": {
    "methods": {}
  }
}