{
  "contractName": "PandaContract",
  "abi": [
    {
      "anonymous": false,
      "inputs": [
        {
          "indexed": true,
          "internalType": "address",
          "name": "owner",
          "type": "address"
        },
        {
          "indexed": true,
          "internalType": "address",
          "name": "approved",
          "type": "address"
        },
        {
          "indexed": true,
          "internalType": "uint256",
          "name": "tokenId",
          "type": "uint256"
        }
      ],
      "name": "Approval",
      "type": "event"
    },
    {
      "anonymous": false,
      "inputs": [
        {
          "indexed": false,
          "internalType": "address",
          "name": "_owner",
          "type": "address"
        },
        {
          "indexed": false,
          "internalType": "uint256",
          "name": "PandaId",
          "type": "uint256"
        },
        {
          "indexed": false,
          "internalType": "uint256",
          "name": "mumId",
          "type": "uint256"
        },
        {
          "indexed": false,
          "internalType": "uint256",
          "name": "dadId",
          "type": "uint256"
        },
        {
          "indexed": false,
          "internalType": "uint256",
          "name": "genes",
          "type": "uint256"
        }
      ],
      "name": "Birth",
      "type": "event"
    },
    {
      "anonymous": false,
      "inputs": [
        {
          "indexed": true,
          "internalType": "address",
          "name": "from",
          "type": "address"
        },
        {
          "indexed": true,
          "internalType": "address",
          "name": "to",
          "type": "address"
        },
        {
          "indexed": true,
          "internalType": "uint256",
          "name": "tokenId",
          "type": "uint256"
        }
      ],
      "name": "Transfer",
      "type": "event"
    },
    {
      "constant": true,
      "inputs": [],
      "name": "CREATION_GEN_LIMIT",
      "outputs": [
        {
          "internalType": "uint8",
          "name": "",
          "type": "uint8"
        }
      ],
      "payable": false,
      "stateMutability": "view",
      "type": "function"
    },
    {
      "constant": true,
      "inputs": [
        {
          "internalType": "address",
          "name": "owner",
          "type": "address"
        }
      ],
      "name": "balanceOf",
      "outputs": [
        {
          "internalType": "uint256",
          "name": "balance",
          "type": "uint256"
        }
      ],
      "payable": false,
      "stateMutability": "view",
      "type": "function"
    },
    {
      "constant": true,
      "inputs": [],
      "name": "name",
      "outputs": [
        {
          "internalType": "string",
          "name": "tokenName",
          "type": "string"
        }
      ],
      "payable": false,
      "stateMutability": "view",
      "type": "function"
    },
    {
      "constant": true,
      "inputs": [],
      "name": "owner",
      "outputs": [
        {
          "internalType": "address",
          "name": "",
          "type": "address"
        }
      ],
      "payable": false,
      "stateMutability": "view",
      "type": "function"
    },
    {
      "constant": true,
      "inputs": [
        {
          "internalType": "uint256",
          "name": "_tokenId",
          "type": "uint256"
        }
      ],
      "name": "ownerOf",
      "outputs": [
        {
          "internalType": "address",
          "name": "owner",
          "type": "address"
        }
      ],
      "payable": false,
      "stateMutability": "view",
      "type": "function"
    },
    {
      "constant": true,
      "inputs": [],
      "name": "symbol",
      "outputs": [
        {
          "internalType": "string",
          "name": "tokenSymbol",
          "type": "string"
        }
      ],
      "payable": false,
      "stateMutability": "view",
      "type": "function"
    },
    {
      "constant": true,
      "inputs": [],
      "name": "totalSupply",
      "outputs": [
        {
          "internalType": "uint256",
          "name": "total",
          "type": "uint256"
        }
      ],
      "payable": false,
      "stateMutability": "view",
      "type": "function"
    },
    {
      "constant": false,
      "inputs": [
        {
          "internalType": "address",
          "name": "_to",
          "type": "address"
        },
        {
          "internalType": "uint256",
          "name": "_tokenId",
          "type": "uint256"
        }
      ],
      "name": "transfer",
      "outputs": [],
      "payable": false,
      "stateMutability": "nonpayable",
      "type": "function"
    },
    {
      "constant": false,
      "inputs": [
        {
          "internalType": "uint256",
          "name": "_genes",
          "type": "uint256"
        }
      ],
      "name": "createPandaGen0",
      "outputs": [
        {
          "internalType": "uint256",
          "name": "",
          "type": "uint256"
        }
      ],
      "payable": false,
      "stateMutability": "nonpayable",
      "type": "function"
    },
    {
      "constant": true,
      "inputs": [
        {
          "internalType": "uint256",
          "name": "tokenId",
          "type": "uint256"
        }
      ],
      "name": "getPanda",
      "outputs": [
        {
          "internalType": "uint256",
          "name": "genes",
          "type": "uint256"
        },
        {
          "internalType": "uint64",
          "name": "birthTime",
          "type": "uint64"
        },
        {
          "internalType": "uint32",
          "name": "mumId",
          "type": "uint32"
        },
        {
          "internalType": "uint32",
          "name": "dadId",
          "type": "uint32"
        },
        {
          "internalType": "uint16",
          "name": "generation",
          "type": "uint16"
        }
      ],
      "payable": false,
      "stateMutability": "view",
      "type": "function"
    }
  ],
  "bytecode": "0x60806040526000600660006101000a81548160ff021916908360ff160217905550336000806101000a81548173ffffffffffffffffffffffffffffffffffffffff021916908373ffffffffffffffffffffffffffffffffffffffff1602179055506040518060400160405280600b81526020017f43727970746f50616e6461000000000000000000000000000000000000000000815250600490805190602001906100ab9291906100fd565b506040518060400160405280600281526020017f4350000000000000000000000000000000000000000000000000000000000000815250600590805190602001906100f79291906100fd565b506101a2565b828054600181600116156101000203166002900490600052602060002090601f016020900481019282601f1061013e57805160ff191683800117855561016c565b8280016001018555821561016c579182015b8281111561016b578251825591602001919060010190610150565b5b509050610179919061017d565b5090565b61019f91905b8082111561019b576000816000905550600101610183565b5090565b90565b610dd1806101b16000396000f3fe608060405234801561001057600080fd5b506004361061009e5760003560e01c80638da5cb5b116100665780638da5cb5b1461029c57806395d89b41146102e6578063a9059cbb14610369578063aefbc31f146103b7578063d967c621146103db5761009e565b806306fdde03146100a35780631327fbe51461012657806318160ddd146101b85780636352211e146101d657806370a0823114610244575b600080fd5b6100ab61041d565b6040518080602001828103825283818151815260200191508051906020019080838360005b838110156100eb5780820151818401526020810190506100d0565b50505050905090810190601f1680156101185780820380516001836020036101000a031916815260200191505b509250505060405180910390f35b6101526004803603602081101561013c57600080fd5b81019080803590602001909291905050506104bf565b604051808681526020018567ffffffffffffffff1667ffffffffffffffff1681526020018463ffffffff1663ffffffff1681526020018363ffffffff1663ffffffff1681526020018261ffff1661ffff1681526020019550505050505060405180910390f35b6101c06105d7565b6040518082815260200191505060405180910390f35b610202600480360360208110156101ec57600080fd5b81019080803590602001909291905050506105e4565b604051808273ffffffffffffffffffffffffffffffffffffffff1673ffffffffffffffffffffffffffffffffffffffff16815260200191505060405180910390f35b6102866004803603602081101561025a57600080fd5b81019080803573ffffffffffffffffffffffffffffffffffffffff169060200190929190505050610621565b6040518082815260200191505060405180910390f35b6102a461066a565b604051808273ffffffffffffffffffffffffffffffffffffffff1673ffffffffffffffffffffffffffffffffffffffff16815260200191505060405180910390f35b6102ee61068f565b6040518080602001828103825283818151815260200191508051906020019080838360005b8381101561032e578082015181840152602081019050610313565b50505050905090810190601f16801561035b5780820380516001836020036101000a031916815260200191505b509250505060405180910390f35b6103b56004803603604081101561037f57600080fd5b81019080803573ffffffffffffffffffffffffffffffffffffffff16906020019092919080359060200190929190505050610731565b005b6103bf61083f565b604051808260ff1660ff16815260200191505060405180910390f35b610407600480360360208110156103f157600080fd5b8101908080359060200190929190505050610844565b6040518082815260200191505060405180910390f35b606060048054600181600116156101000203166002900480601f0160208091040260200160405190810160405280929190818152602001828054600181600116156101000203166002900480156104b55780601f1061048a576101008083540402835291602001916104b5565b820191906000526020600020905b81548152906001019060200180831161049857829003601f168201915b5050505050905090565b600080600080600085600180549050116104d857600080fd5b600186815481106104e557fe5b90600052602060002090600202016000015494506001868154811061050657fe5b906000526020600020906002020160010160009054906101000a900467ffffffffffffffff1693506001868154811061053b57fe5b906000526020600020906002020160010160089054906101000a900463ffffffff1692506001868154811061056c57fe5b9060005260206000209060020201600101600c9054906101000a900463ffffffff1691506001868154811061059d57fe5b906000526020600020906002020160010160109054906101000a900461ffff16905084848484849450945094509450945091939590929450565b6000600180549050905090565b60006003600083815260200190815260200160002060009054906101000a900473ffffffffffffffffffffffffffffffffffffffff169050919050565b6000600260008373ffffffffffffffffffffffffffffffffffffffff1673ffffffffffffffffffffffffffffffffffffffff168152602001908152602001600020549050919050565b6000809054906101000a900473ffffffffffffffffffffffffffffffffffffffff1681565b606060058054600181600116156101000203166002900480601f0160208091040260200160405190810160405280929190818152602001828054600181600116156101000203166002900480156107275780601f106106fc57610100808354040283529160200191610727565b820191906000526020600020905b81548152906001019060200180831161070a57829003601f168201915b5050505050905090565b600073ffffffffffffffffffffffffffffffffffffffff168273ffffffffffffffffffffffffffffffffffffffff16141561076b57600080fd5b6000809054906101000a900473ffffffffffffffffffffffffffffffffffffffff1673ffffffffffffffffffffffffffffffffffffffff168273ffffffffffffffffffffffffffffffffffffffff1614156107c557600080fd5b3373ffffffffffffffffffffffffffffffffffffffff166003600083815260200190815260200160002060009054906101000a900473ffffffffffffffffffffffffffffffffffffffff1673ffffffffffffffffffffffffffffffffffffffff161461083057600080fd5b61083b338383610976565b5050565b606481565b60008060009054906101000a900473ffffffffffffffffffffffffffffffffffffffff1673ffffffffffffffffffffffffffffffffffffffff163373ffffffffffffffffffffffffffffffffffffffff161461089f57600080fd5b606460ff16600660009054906101000a900460ff1660ff161061090d576040517f08c379a0000000000000000000000000000000000000000000000000000000008152600401808060200182810382526025815260200180610d786025913960400191505060405180910390fd5b6006600081819054906101000a900460ff168092919060010191906101000a81548160ff021916908360ff1602179055505061096f6000808460008060009054906101000a900473ffffffffffffffffffffffffffffffffffffffff16610b64565b9050919050565b600260008373ffffffffffffffffffffffffffffffffffffffff1673ffffffffffffffffffffffffffffffffffffffff16815260200190815260200160002060008154809291906001019190505550816003600083815260200190815260200160002060006101000a81548173ffffffffffffffffffffffffffffffffffffffff021916908373ffffffffffffffffffffffffffffffffffffffff160217905550600073ffffffffffffffffffffffffffffffffffffffff168373ffffffffffffffffffffffffffffffffffffffff1614610a9c57600260008473ffffffffffffffffffffffffffffffffffffffff1673ffffffffffffffffffffffffffffffffffffffff16815260200190815260200160002060008154809291906001900391905055505b8173ffffffffffffffffffffffffffffffffffffffff166003600083815260200190815260200160002060009054906101000a900473ffffffffffffffffffffffffffffffffffffffff1673ffffffffffffffffffffffffffffffffffffffff1614610b0457fe5b808273ffffffffffffffffffffffffffffffffffffffff168473ffffffffffffffffffffffffffffffffffffffff167fddf252ad1be2c89b69c2b068fc378daa952ba7f163c4a11628f55a4df523b3ef60405160405180910390a4505050565b6000610b6e610d2e565b6040518060a001604052808681526020014267ffffffffffffffff1681526020018863ffffffff1681526020018763ffffffff1681526020018561ffff168152509050600060018083908060018154018082558091505090600182039060005260206000209060020201600090919290919091506000820151816000015560208201518160010160006101000a81548167ffffffffffffffff021916908367ffffffffffffffff16021790555060408201518160010160086101000a81548163ffffffff021916908363ffffffff160217905550606082015181600101600c6101000a81548163ffffffff021916908363ffffffff16021790555060808201518160010160106101000a81548161ffff021916908361ffff1602179055505050039050610c9d60008583610976565b7f0a5311bd2a6608f08a180df2ee7c5946819a649b204b554bb8e39825b2c50ad584828a8a8a604051808673ffffffffffffffffffffffffffffffffffffffff1673ffffffffffffffffffffffffffffffffffffffff1681526020018581526020018481526020018381526020018281526020019550505050505060405180910390a1809250505095945050505050565b6040518060a0016040528060008152602001600067ffffffffffffffff168152602001600063ffffffff168152602001600063ffffffff168152602001600061ffff168152509056fe47656e2030204c696d69742072656163686564202831302070616e646173206c696d697429a265627a7a72315820637b8c1555985a1689e482089fc746ca40f8bdc9d9fb64668f77b4cc334a4bf964736f6c634300050c0032",
  "source": "pragma solidity ^0.5.12;\n\nimport \"./PandaToken.sol\";\n\n//import './Safemath.sol';\n\ncontract PandaContract is PandaToken{\n\n    //using SafeMath for uint256;\n\n    uint8 public constant CREATION_GEN_LIMIT = 100 ;\n\n    event Approval(address indexed owner, address indexed approved, uint256 indexed tokenId);\n    event Birth(address _owner,uint256 PandaId, uint256 mumId, uint256 dadId, uint256 genes); \n\n\n    uint8 gen0Counter= 0;\n\n    function createPandaGen0(uint256 _genes) public onlyOwner returns (uint256) {\n        require( gen0Counter < CREATION_GEN_LIMIT,\"Gen 0 Limit reached (10 pandas limit)\");\n        gen0Counter++;\n        return _CreatePanda(0,0,_genes,0,owner);\n    }\n\n    function _CreatePanda(uint256 _mumId,uint256 _dadId,uint256 _genes,uint256 _generation,address _owner) private returns (uint256){\n        Panda memory _panda = Panda({\n            genes: _genes,\n            birthTime:uint64(now),\n            mumId:uint32(_mumId),\n            dadId:uint32(_dadId),\n            generation:uint16(_generation)\n        });\n\n        uint256 newPandaId = pandas.push(_panda)-1;\n\n        _transfer(address(0), _owner, newPandaId);\n\n        emit Birth(_owner, newPandaId, _mumId, _dadId, _genes);\n\n        return newPandaId;\n    }\n\n    function getPanda(uint256 tokenId) public view returns(uint256 genes,uint64 birthTime,uint32 mumId,uint32 dadId,uint16 generation) \n    {\n        require(pandas.length > tokenId);\n\n        genes       =pandas[tokenId].genes;\n        birthTime   =pandas[tokenId].birthTime;\n        mumId       =pandas[tokenId].mumId;\n        dadId       =pandas[tokenId].dadId;\n        generation  =pandas[tokenId].generation;\n\n        return (genes,birthTime,mumId,dadId,generation);\n    }\n\n      // function getPandaArray (address PandaOwnerAddress) public view returns (uint256[] memory ){\n    //     uint256[] memory _pandaArray;\n    //     uint256 numberOfPandasOwned = _OwnerAnimalCount[PandaOwnerAddress];\n    //     uint256 pandasFoundCount=0;\n\n    //     for(uint256 i=0; i< pandas.length || pandasFoundCount == numberOfPandasOwned; i++){\n    //       if(_PandaOwner[i]==msg.sender){\n    //         _pandaArray[pandasFoundCount]=i;\n    //         pandasFoundCount++;\n    //       }\n    //     }\n\n    //     return _pandaArray;\n    // }\n}\n\n",
  "sourcePath": "/home/ismael/Documents/Blockchain Bootcamp/GIT/CryptoKitties-clone/contracts/PandaContract.sol",
  "compiler": {
    "name": "solc",
    "version": "0.5.12+commit.7709ece9.Emscripten.clang"
  },
  "schemaVersion": "3.2.0",
  "updatedAt": "2020-10-10T12:17:28.243Z",
  "devdoc": {
    "methods": {
      "balanceOf(address)": {
        "details": "Returns the number of tokens in ``owner``'s account."
      },
      "ownerOf(uint256)": {
        "details": "Returns the owner of the `tokenId` token.     * Requirements:     * - `tokenId` must exist."
      }
    }
  },
  "userdoc": {
    "methods": {}
  }
}