{
  "contractName": "PandaMarketPlace",
  "abi": [
    {
      "anonymous": false,
      "inputs": [
        {
          "indexed": false,
          "internalType": "string",
          "name": "TxType",
          "type": "string"
        },
        {
          "indexed": false,
          "internalType": "address",
          "name": "owner",
          "type": "address"
        },
        {
          "indexed": false,
          "internalType": "uint256",
          "name": "tokenId",
          "type": "uint256"
        }
      ],
      "name": "MarketTransaction",
      "type": "event"
    },
    {
      "constant": true,
      "inputs": [],
      "name": "owner",
      "outputs": [
        {
          "internalType": "address",
          "name": "",
          "type": "address"
        }
      ],
      "payable": false,
      "stateMutability": "view",
      "type": "function"
    },
    {
      "constant": false,
      "inputs": [
        {
          "internalType": "address",
          "name": "_pandaContractAddress",
          "type": "address"
        }
      ],
      "name": "initialize",
      "outputs": [],
      "payable": false,
      "stateMutability": "nonpayable",
      "type": "function"
    },
    {
      "constant": false,
      "inputs": [
        {
          "internalType": "address",
          "name": "_pandaContractAddress",
          "type": "address"
        }
      ],
      "name": "setPandaContract",
      "outputs": [],
      "payable": false,
      "stateMutability": "nonpayable",
      "type": "function"
    },
    {
      "constant": true,
      "inputs": [
        {
          "internalType": "uint256",
          "name": "_tokenId",
          "type": "uint256"
        }
      ],
      "name": "getOffer",
      "outputs": [
        {
          "internalType": "address",
          "name": "seller",
          "type": "address"
        },
        {
          "internalType": "uint256",
          "name": "price",
          "type": "uint256"
        },
        {
          "internalType": "uint256",
          "name": "index",
          "type": "uint256"
        },
        {
          "internalType": "uint256",
          "name": "tokenId",
          "type": "uint256"
        },
        {
          "internalType": "bool",
          "name": "active",
          "type": "bool"
        }
      ],
      "payable": false,
      "stateMutability": "view",
      "type": "function"
    },
    {
      "constant": true,
      "inputs": [],
      "name": "getAllTokenOnSale",
      "outputs": [
        {
          "internalType": "uint256[]",
          "name": "listOfOffers",
          "type": "uint256[]"
        }
      ],
      "payable": false,
      "stateMutability": "view",
      "type": "function"
    },
    {
      "constant": false,
      "inputs": [
        {
          "internalType": "uint256",
          "name": "_price",
          "type": "uint256"
        },
        {
          "internalType": "uint256",
          "name": "_tokenId",
          "type": "uint256"
        }
      ],
      "name": "setOffer",
      "outputs": [],
      "payable": false,
      "stateMutability": "nonpayable",
      "type": "function"
    },
    {
      "constant": false,
      "inputs": [
        {
          "internalType": "uint256",
          "name": "_tokenId",
          "type": "uint256"
        }
      ],
      "name": "removeOffer",
      "outputs": [],
      "payable": false,
      "stateMutability": "nonpayable",
      "type": "function"
    },
    {
      "constant": false,
      "inputs": [
        {
          "internalType": "uint256",
          "name": "_tokenId",
          "type": "uint256"
        }
      ],
      "name": "buyPanda",
      "outputs": [],
      "payable": true,
      "stateMutability": "payable",
      "type": "function"
    },
    {
      "constant": true,
      "inputs": [],
      "name": "getActiveOfferCount",
      "outputs": [
        {
          "internalType": "uint256",
          "name": "activeOfferCount",
          "type": "uint256"
        }
      ],
      "payable": false,
      "stateMutability": "view",
      "type": "function"
    }
  ],
  "bytecode": "0x6080604052600060365533603360006101000a81548173ffffffffffffffffffffffffffffffffffffffff021916908373ffffffffffffffffffffffffffffffffffffffff160217905550611558806100596000396000f3fe6080604052600436106100865760003560e01c806395a0f9c71161005957806395a0f9c71461022e578063a96ea64914610269578063c4d66de814610297578063e897bd9c146102e8578063eb32a6751461033957610086565b80634579268a1461008b57806349b3709f146101265780638da5cb5b14610192578063941b055b146101e9575b600080fd5b34801561009757600080fd5b506100c4600480360360208110156100ae57600080fd5b8101908080359060200190929190505050610364565b604051808673ffffffffffffffffffffffffffffffffffffffff1673ffffffffffffffffffffffffffffffffffffffff168152602001858152602001848152602001838152602001821515151581526020019550505050505060405180910390f35b34801561013257600080fd5b5061013b61042e565b6040518080602001828103825283818151815260200191508051906020019060200280838360005b8381101561017e578082015181840152602081019050610163565b505050509050019250505060405180910390f35b34801561019e57600080fd5b506101a76104c6565b604051808273ffffffffffffffffffffffffffffffffffffffff1673ffffffffffffffffffffffffffffffffffffffff16815260200191505060405180910390f35b3480156101f557600080fd5b5061022c6004803603604081101561020c57600080fd5b8101908080359060200190929190803590602001909291905050506104ec565b005b34801561023a57600080fd5b506102676004803603602081101561025157600080fd5b8101908080359060200190929190505050610c49565b005b6102956004803603602081101561027f57600080fd5b8101908080359060200190929190505050610e39565b005b3480156102a357600080fd5b506102e6600480360360208110156102ba57600080fd5b81019080803573ffffffffffffffffffffffffffffffffffffffff1690602001909291905050506111ed565b005b3480156102f457600080fd5b506103376004803603602081101561030b57600080fd5b81019080803573ffffffffffffffffffffffffffffffffffffffff1690602001909291905050506112f6565b005b34801561034557600080fd5b5061034e61133a565b6040518082815260200191505060405180910390f35b60008060008060006037600087815260200190815260200160002060000160009054906101000a900473ffffffffffffffffffffffffffffffffffffffff1694506037600087815260200190815260200160002060010154935060376000878152602001908152602001600020600201549250603760008781526020019081526020016000206003015491506037600087815260200190815260200160002060040160009054906101000a900460ff16905084848484849450945094509450945091939590929450565b6060600060358054905011801561044757506000603654115b6104b9576040517f08c379a00000000000000000000000000000000000000000000000000000000081526004018080602001828103825260098152602001807f4e6f204f6666657273000000000000000000000000000000000000000000000081525060200191505060405180910390fd5b6104c1611344565b905090565b603360009054906101000a900473ffffffffffffffffffffffffffffffffffffffff1681565b3373ffffffffffffffffffffffffffffffffffffffff16603460009054906101000a900473ffffffffffffffffffffffffffffffffffffffff1673ffffffffffffffffffffffffffffffffffffffff16636352211e836040518263ffffffff1660e01b81526004018082815260200191505060206040518083038186803b15801561057657600080fd5b505afa15801561058a573d6000803e3d6000fd5b505050506040513d60208110156105a057600080fd5b810190808051906020019092919050505073ffffffffffffffffffffffffffffffffffffffff161461063a576040517f08c379a000000000000000000000000000000000000000000000000000000000815260040180806020018281038252601a8152602001807f4e6f7420746865206f776e6572206f662074686520746f6b656e00000000000081525060200191505060405180910390fd5b600015156037600083815260200190815260200160002060040160009054906101000a900460ff161515146106d7576040517f08c379a00000000000000000000000000000000000000000000000000000000081526004018080602001828103825260168152602001807f416c726561647920616e206f666665722065786973740000000000000000000081525060200191505060405180910390fd5b603460009054906101000a900473ffffffffffffffffffffffffffffffffffffffff1673ffffffffffffffffffffffffffffffffffffffff1663e985e9c533306040518363ffffffff1660e01b8152600401808373ffffffffffffffffffffffffffffffffffffffff1673ffffffffffffffffffffffffffffffffffffffff1681526020018273ffffffffffffffffffffffffffffffffffffffff1673ffffffffffffffffffffffffffffffffffffffff1681526020019250505060206040518083038186803b1580156107aa57600080fd5b505afa1580156107be573d6000803e3d6000fd5b505050506040513d60208110156107d457600080fd5b8101908080519060200190929190505050610857576040517f08c379a000000000000000000000000000000000000000000000000000000000815260040180806020018281038252601f8152602001807f4e6f7420616e206f70657261746f7220666f722074686520746f6b656e49640081525060200191505060405180910390fd5b80603760008381526020019081526020016000206003015414156109ec57600060376000838152602001908152602001600020600201549050336035828154811061089e57fe5b906000526020600020906005020160000160006101000a81548173ffffffffffffffffffffffffffffffffffffffff021916908373ffffffffffffffffffffffffffffffffffffffff16021790555082603582815481106108fb57fe5b90600052602060002090600502016001018190555060016035828154811061091f57fe5b906000526020600020906005020160040160006101000a81548160ff021916908315150217905550336037600084815260200190815260200160002060000160006101000a81548173ffffffffffffffffffffffffffffffffffffffff021916908373ffffffffffffffffffffffffffffffffffffffff16021790555082603760008481526020019081526020016000206001018190555060016037600084815260200190815260200160002060040160006101000a81548160ff02191690831515021790555050610b8f565b6109f461144a565b6040518060a001604052803373ffffffffffffffffffffffffffffffffffffffff1681526020018481526020016035805490508152602001838152602001600115158152509050806037600084815260200190815260200160002060008201518160000160006101000a81548173ffffffffffffffffffffffffffffffffffffffff021916908373ffffffffffffffffffffffffffffffffffffffff16021790555060208201518160010155604082015181600201556060820151816003015560808201518160040160006101000a81548160ff0219169083151502179055509050506035819080600181540180825580915050906001820390600052602060002090600502016000909192909190915060008201518160000160006101000a81548173ffffffffffffffffffffffffffffffffffffffff021916908373ffffffffffffffffffffffffffffffffffffffff16021790555060208201518160010155604082015181600201556060820151816003015560808201518160040160006101000a81548160ff021916908315150217905550505050505b6036600081548092919060010191905055507fd99e4fad9ad6313b1feb588fa8e605e3a9873172f2024330c35dd2b4041a4386338260405180806020018473ffffffffffffffffffffffffffffffffffffffff1673ffffffffffffffffffffffffffffffffffffffff1681526020018381526020018281038252600c8152602001807f437265617465206f666665720000000000000000000000000000000000000000815250602001935050505060405180910390a15050565b3373ffffffffffffffffffffffffffffffffffffffff166037600083815260200190815260200160002060000160009054906101000a900473ffffffffffffffffffffffffffffffffffffffff1673ffffffffffffffffffffffffffffffffffffffff1614610d03576040517f08c379a000000000000000000000000000000000000000000000000000000000815260040180806020018281038252602d815260200180611492602d913960400191505060405180910390fd5b60006037600083815260200190815260200160002060040160006101000a81548160ff02191690831515021790555060006035603760008481526020019081526020016000206002015481548110610d5757fe5b906000526020600020906005020160040160006101000a81548160ff021916908315150217905550603660008154809291906001900391905055507fd99e4fad9ad6313b1feb588fa8e605e3a9873172f2024330c35dd2b4041a4386338260405180806020018473ffffffffffffffffffffffffffffffffffffffff1673ffffffffffffffffffffffffffffffffffffffff1681526020018381526020018281038252600c8152602001807f52656d6f7665206f666665720000000000000000000000000000000000000000815250602001935050505060405180910390a150565b610e4161144a565b603760008381526020019081526020016000206040518060a00160405290816000820160009054906101000a900473ffffffffffffffffffffffffffffffffffffffff1673ffffffffffffffffffffffffffffffffffffffff1673ffffffffffffffffffffffffffffffffffffffff1681526020016001820154815260200160028201548152602001600382015481526020016004820160009054906101000a900460ff161515151581525050905034603760008481526020019081526020016000206001015414610f5e576040517f08c379a00000000000000000000000000000000000000000000000000000000081526004018080602001828103825260378152602001806114bf6037913960400191505060405180910390fd5b600115158160800151151514610f7357600080fd5b60006037600084815260200190815260200160002060040160006101000a81548160ff02191690831515021790555060006035603760008581526020019081526020016000206002015481548110610fc757fe5b906000526020600020906005020160040160006101000a81548160ff02191690831515021790555060008160200151111561104c57806000015173ffffffffffffffffffffffffffffffffffffffff166108fc82602001519081150290604051600060405180830381858888f1935050505015801561104a573d6000803e3d6000fd5b505b603460009054906101000a900473ffffffffffffffffffffffffffffffffffffffff1673ffffffffffffffffffffffffffffffffffffffff166342842e0e826000015133856040518463ffffffff1660e01b8152600401808473ffffffffffffffffffffffffffffffffffffffff1673ffffffffffffffffffffffffffffffffffffffff1681526020018373ffffffffffffffffffffffffffffffffffffffff1673ffffffffffffffffffffffffffffffffffffffff1681526020018281526020019350505050600060405180830381600087803b15801561112d57600080fd5b505af1158015611141573d6000803e3d6000fd5b505050507fd99e4fad9ad6313b1feb588fa8e605e3a9873172f2024330c35dd2b4041a4386338360405180806020018473ffffffffffffffffffffffffffffffffffffffff1673ffffffffffffffffffffffffffffffffffffffff168152602001838152602001828103825260038152602001807f4275790000000000000000000000000000000000000000000000000000000000815250602001935050505060405180910390a15050565b600060019054906101000a900460ff168061120c575061120b611433565b5b8061122357506000809054906101000a900460ff16155b611278576040517f08c379a000000000000000000000000000000000000000000000000000000000815260040180806020018281038252602e8152602001806114f6602e913960400191505060405180910390fd5b60008060019054906101000a900460ff1615905080156112c8576001600060016101000a81548160ff02191690831515021790555060016000806101000a81548160ff0219169083151502179055505b6112d1826112f6565b80156112f25760008060016101000a81548160ff0219169083151502179055505b5050565b80603460006101000a81548173ffffffffffffffffffffffffffffffffffffffff021916908373ffffffffffffffffffffffffffffffffffffffff16021790555050565b6000603654905090565b60606000809050600080905060606036546040519080825280602002602001820160405280156113835781602001602082028038833980820191505090505b509050600092505b603580549050831080156113a0575060365482105b1561142a5760011515603584815481106113b657fe5b906000526020600020906005020160040160009054906101000a900460ff161515141561141d57603583815481106113ea57fe5b90600052602060002090600502016003015481838151811061140857fe5b60200260200101818152505081806001019250505b828060010193505061138b565b80935050505090565b6000803090506000813b9050600081149250505090565b6040518060a00160405280600073ffffffffffffffffffffffffffffffffffffffff168152602001600081526020016000815260200160008152602001600015158152509056fe4f6e6c792073656c6c6572206f662074686520746f6b656e2063616e2072656d6f766520746865206f666665725472616e73616374696f6e2076616c756520646f6573206e6f74206d6174636820746865207072696365206f662074686520746f6b656e436f6e747261637420696e7374616e63652068617320616c7265616479206265656e20696e697469616c697a6564a265627a7a72315820177c74d8bc152bd0e19ab2d6199512f0510ad5d43077919784d4564598631e3464736f6c634300050c0032",
  "source": "pragma solidity ^0.5.12;\n\nimport \"./IPandaMarketPlace.sol\";\nimport \"./PandaMarketPlaceStorage.sol\";\n\ncontract PandaMarketPlace is Initializable,IPandaMarketPlace, Ownable,PandaMarketPlaceStorage {\n   \n\n    function initialize(address _pandaContractAddress) public  initializer{\n        setPandaContract(_pandaContractAddress);        \n    }\n\n    /***************************************************\n    Events\n     **************************************************/\n    event MarketTransaction(string TxType, address owner, uint256 tokenId);\n\n    /**\n    * Set the current PandaContract address and initialize the instance of PandaContract.\n    * Requirement: Only the contract owner can call.\n     */\n    function setPandaContract(address _pandaContractAddress)  public  {\n        _pandaContract =  PandaContract(_pandaContractAddress) ;\n    }\n\n    /**\n    * Get the details about a offer for _tokenId. Throws an error if there is no active offer for _tokenId.\n     */\n    function getOffer(uint256 _tokenId) external view returns ( address seller, uint256 price, uint256 index, uint256 tokenId, bool active){\n        \n        seller  = tokenIdToOffer[_tokenId].seller;\n        price   = tokenIdToOffer[_tokenId].price;\n        index   = tokenIdToOffer[_tokenId].index;\n        tokenId = tokenIdToOffer[_tokenId].tokenId;\n        active  = tokenIdToOffer[_tokenId].active;\n\n        return (seller,price,index,tokenId,active);\n    }\n\n    /**\n    * Get all tokenId's that are currently for sale. Returns an empty error if none exist.\n     */\n    function getAllTokenOnSale() external view  returns(uint256[] memory listOfOffers){\n        require(Offers.length > 0 && _activeOfferCount > 0,\"No Offers\");\n        return _getAllActiveTokens();\n    }\n\n    function _getAllActiveTokens() internal view  returns(uint256[] memory listOfOffers){\n        uint256 i = 0;\n        uint256 index=0;\n        \n        uint256[] memory result = new uint256[](_activeOfferCount);\n        \n        for ( i=0 ; i< Offers.length && index < _activeOfferCount  ; i++){\n            \n            if(Offers[i].active == true){\n                result[index]=Offers[i].tokenId;\n                index++;\n            }           \n        }\n\n        return result;\n    }\n\n    /**\n    * Creates a new offer for _tokenId for the price _price.\n    * Emits the MarketTransaction event with txType \"Create offer\"\n    * Requirement: Only the owner of _tokenId can create an offer.\n    * Requirement: There can only be one active offer for a token at a time.\n    * Requirement: Marketplace contract (this) needs to be an approved operator when the offer is created.\n     */\n    function setOffer(uint256 _price, uint256 _tokenId) external{\n        require(_pandaContract.ownerOf(_tokenId) == msg.sender,\"Not the owner of the token\");\n        require(tokenIdToOffer[_tokenId].active==false,\"Already an offer exist\");\n        require(_pandaContract.isApprovedForAll(msg.sender,address(this)),\"Not an operator for the tokenId\");\n\n        if(tokenIdToOffer[_tokenId].tokenId==_tokenId){\n            uint256 index = tokenIdToOffer[_tokenId].index;\n\n            Offers[index].seller =  msg.sender;\n            Offers[index].price= _price;\n            Offers[index].active= true;\n\n            tokenIdToOffer[_tokenId].seller = msg.sender;\n            tokenIdToOffer[_tokenId].price = _price;\n            tokenIdToOffer[_tokenId].active = true;\n\n        }else{\n             Offer memory newOffer = Offer({\n                seller: msg.sender,\n                price: _price,\n                index: Offers.length,\n                tokenId: _tokenId,\n                active: true\n            });\n\n            tokenIdToOffer[_tokenId] = newOffer;\n            Offers.push(newOffer);            \n        }\n\n        _activeOfferCount++;\n\n        emit MarketTransaction(\"Create offer\", msg.sender,  _tokenId);\n    }\n\n    /**\n    * Removes an existing offer.\n    * Emits the MarketTransaction event with txType \"Remove offer\"\n    * Requirement: Only the seller of _tokenId can remove an offer.\n     */\n    function removeOffer(uint256 _tokenId) external{\n        require(tokenIdToOffer[_tokenId].seller == msg.sender,\"Only seller of the token can remove the offer\");\n\n        tokenIdToOffer[_tokenId].active = false;\n        Offers[tokenIdToOffer[_tokenId].index].active =  false;\n        _activeOfferCount--;\n\n        emit MarketTransaction(\"Remove offer\", msg.sender,  _tokenId);\n    }\n\n    /**\n    * Executes the purchase of _tokenId.\n    * Sends the funds to the seller and transfers the token using transferFrom in PandaContract.\n    * Emits the MarketTransaction event with txType \"Buy\".\n    * Requirement: The msg.value needs to equal the price of _tokenId\n    * Requirement: There must be an active offer for _tokenId\n     */\n    function buyPanda(uint256 _tokenId) external payable{\n        Offer memory offer = tokenIdToOffer[_tokenId];\n        require(tokenIdToOffer[_tokenId].price == msg.value,\"Transaction value does not match the price of the token\");\n        require(offer.active == true);\n\n        // Important: remove offer before paying, to avoid reentry attack\n        tokenIdToOffer[_tokenId].active=false;\n        Offers[tokenIdToOffer[_tokenId].index].active = false;\n\n        //transfer funds to the seller\n        if(offer.price>0){\n            offer.seller.transfer(offer.price);\n        }\n\n        //Transfer ownership of the token\n        _pandaContract.safeTransferFrom(offer.seller,msg.sender, _tokenId);\n\n        emit MarketTransaction(\"Buy\", msg.sender,  _tokenId);\n    }\n\n    /**\n    * Get the count of active offers\n     */\n    function getActiveOfferCount() external view returns (uint256 activeOfferCount){\n        return _activeOfferCount;\n    }\n\n}",
  "sourcePath": "/home/ismael/Documents/Projects/GIT/CryptoKitties-clone/contracts/PandaMarketPlace.sol",
  "compiler": {
    "name": "solc",
    "version": "0.5.12+commit.7709ece9.Emscripten.clang"
  },
  "schemaVersion": "3.3.2",
  "updatedAt": "2021-01-29T12:13:34.063Z",
  "networkType": "ethereum",
  "devdoc": {
    "methods": {}
  },
  "userdoc": {
    "methods": {
      "buyPanda(uint256)": {
        "notice": "Executes the purchase of _tokenId. Sends the funds to the seller and transfers the token using transferFrom in PandaContract. Emits the MarketTransaction event with txType \"Buy\". Requirement: The msg.value needs to equal the price of _tokenId Requirement: There must be an active offer for _tokenId"
      },
      "getActiveOfferCount()": {
        "notice": "Get the count of active offers"
      },
      "getAllTokenOnSale()": {
        "notice": "Get all tokenId's that are currently for sale. Returns an empty error if none exist."
      },
      "getOffer(uint256)": {
        "notice": "Get the details about a offer for _tokenId. Throws an error if there is no active offer for _tokenId."
      },
      "removeOffer(uint256)": {
        "notice": "Removes an existing offer. Emits the MarketTransaction event with txType \"Remove offer\" Requirement: Only the seller of _tokenId can remove an offer."
      },
      "setOffer(uint256,uint256)": {
        "notice": "Creates a new offer for _tokenId for the price _price. Emits the MarketTransaction event with txType \"Create offer\" Requirement: Only the owner of _tokenId can create an offer. Requirement: There can only be one active offer for a token at a time. Requirement: Marketplace contract (this) needs to be an approved operator when the offer is created."
      },
      "setPandaContract(address)": {
        "notice": "Set the current PandaContract address and initialize the instance of PandaContract. Requirement: Only the contract owner can call."
      }
    }
  }
}