{
  "contractName": "PandaMarketPlace",
  "abi": [
    {
      "anonymous": false,
      "inputs": [
        {
          "indexed": true,
          "internalType": "address",
          "name": "owner",
          "type": "address"
        },
        {
          "indexed": true,
          "internalType": "address",
          "name": "approved",
          "type": "address"
        },
        {
          "indexed": true,
          "internalType": "uint256",
          "name": "PandaId",
          "type": "uint256"
        }
      ],
      "name": "Approval",
      "type": "event"
    },
    {
      "anonymous": false,
      "inputs": [
        {
          "indexed": true,
          "internalType": "address",
          "name": "owner",
          "type": "address"
        },
        {
          "indexed": true,
          "internalType": "address",
          "name": "operator",
          "type": "address"
        },
        {
          "indexed": false,
          "internalType": "bool",
          "name": "approved",
          "type": "bool"
        }
      ],
      "name": "ApprovalForAll",
      "type": "event"
    },
    {
      "anonymous": false,
      "inputs": [
        {
          "indexed": false,
          "internalType": "address",
          "name": "_owner",
          "type": "address"
        },
        {
          "indexed": false,
          "internalType": "uint256",
          "name": "PandaId",
          "type": "uint256"
        },
        {
          "indexed": false,
          "internalType": "uint32",
          "name": "mumId",
          "type": "uint32"
        },
        {
          "indexed": false,
          "internalType": "uint32",
          "name": "dadId",
          "type": "uint32"
        },
        {
          "indexed": false,
          "internalType": "uint256",
          "name": "genes",
          "type": "uint256"
        },
        {
          "indexed": false,
          "internalType": "uint16",
          "name": "generation",
          "type": "uint16"
        }
      ],
      "name": "Birth",
      "type": "event"
    },
    {
      "anonymous": false,
      "inputs": [
        {
          "indexed": false,
          "internalType": "string",
          "name": "TxType",
          "type": "string"
        },
        {
          "indexed": false,
          "internalType": "address",
          "name": "owner",
          "type": "address"
        },
        {
          "indexed": false,
          "internalType": "uint256",
          "name": "tokenId",
          "type": "uint256"
        }
      ],
      "name": "MarketTransaction",
      "type": "event"
    },
    {
      "anonymous": false,
      "inputs": [
        {
          "indexed": true,
          "internalType": "address",
          "name": "from",
          "type": "address"
        },
        {
          "indexed": true,
          "internalType": "address",
          "name": "to",
          "type": "address"
        },
        {
          "indexed": true,
          "internalType": "uint256",
          "name": "tokenId",
          "type": "uint256"
        }
      ],
      "name": "Transfer",
      "type": "event"
    },
    {
      "constant": true,
      "inputs": [
        {
          "internalType": "address",
          "name": "PandaOwnerAddress",
          "type": "address"
        }
      ],
      "name": "_pandasOfOwner",
      "outputs": [
        {
          "internalType": "uint256[]",
          "name": "",
          "type": "uint256[]"
        }
      ],
      "payable": false,
      "stateMutability": "view",
      "type": "function"
    },
    {
      "constant": false,
      "inputs": [
        {
          "internalType": "address",
          "name": "_to",
          "type": "address"
        },
        {
          "internalType": "uint256",
          "name": "_tokenId",
          "type": "uint256"
        }
      ],
      "name": "approve",
      "outputs": [],
      "payable": false,
      "stateMutability": "nonpayable",
      "type": "function"
    },
    {
      "constant": true,
      "inputs": [
        {
          "internalType": "address",
          "name": "owner",
          "type": "address"
        }
      ],
      "name": "balanceOf",
      "outputs": [
        {
          "internalType": "uint256",
          "name": "balance",
          "type": "uint256"
        }
      ],
      "payable": false,
      "stateMutability": "view",
      "type": "function"
    },
    {
      "constant": false,
      "inputs": [
        {
          "internalType": "uint32",
          "name": "_dadId",
          "type": "uint32"
        },
        {
          "internalType": "uint32",
          "name": "_mumId",
          "type": "uint32"
        }
      ],
      "name": "breed",
      "outputs": [
        {
          "internalType": "uint256",
          "name": "",
          "type": "uint256"
        }
      ],
      "payable": false,
      "stateMutability": "nonpayable",
      "type": "function"
    },
    {
      "constant": false,
      "inputs": [
        {
          "internalType": "uint256",
          "name": "_genes",
          "type": "uint256"
        }
      ],
      "name": "createPandaGen0",
      "outputs": [
        {
          "internalType": "uint256",
          "name": "",
          "type": "uint256"
        }
      ],
      "payable": false,
      "stateMutability": "nonpayable",
      "type": "function"
    },
    {
      "constant": true,
      "inputs": [
        {
          "internalType": "uint256",
          "name": "_tokenId",
          "type": "uint256"
        }
      ],
      "name": "getApproved",
      "outputs": [
        {
          "internalType": "address",
          "name": "",
          "type": "address"
        }
      ],
      "payable": false,
      "stateMutability": "view",
      "type": "function"
    },
    {
      "constant": true,
      "inputs": [
        {
          "internalType": "uint256",
          "name": "tokenId",
          "type": "uint256"
        }
      ],
      "name": "getPanda",
      "outputs": [
        {
          "internalType": "uint256",
          "name": "genes",
          "type": "uint256"
        },
        {
          "internalType": "uint64",
          "name": "birthTime",
          "type": "uint64"
        },
        {
          "internalType": "uint32",
          "name": "mumId",
          "type": "uint32"
        },
        {
          "internalType": "uint32",
          "name": "dadId",
          "type": "uint32"
        },
        {
          "internalType": "uint16",
          "name": "generation",
          "type": "uint16"
        }
      ],
      "payable": false,
      "stateMutability": "view",
      "type": "function"
    },
    {
      "constant": true,
      "inputs": [
        {
          "internalType": "address",
          "name": "_owner",
          "type": "address"
        },
        {
          "internalType": "address",
          "name": "_operator",
          "type": "address"
        }
      ],
      "name": "isApprovedForAll",
      "outputs": [
        {
          "internalType": "bool",
          "name": "",
          "type": "bool"
        }
      ],
      "payable": false,
      "stateMutability": "view",
      "type": "function"
    },
    {
      "constant": true,
      "inputs": [],
      "name": "name",
      "outputs": [
        {
          "internalType": "string",
          "name": "tokenName",
          "type": "string"
        }
      ],
      "payable": false,
      "stateMutability": "view",
      "type": "function"
    },
    {
      "constant": true,
      "inputs": [],
      "name": "owner",
      "outputs": [
        {
          "internalType": "address",
          "name": "",
          "type": "address"
        }
      ],
      "payable": false,
      "stateMutability": "view",
      "type": "function"
    },
    {
      "constant": true,
      "inputs": [
        {
          "internalType": "uint256",
          "name": "_tokenId",
          "type": "uint256"
        }
      ],
      "name": "ownerOf",
      "outputs": [
        {
          "internalType": "address",
          "name": "owner",
          "type": "address"
        }
      ],
      "payable": false,
      "stateMutability": "view",
      "type": "function"
    },
    {
      "constant": false,
      "inputs": [
        {
          "internalType": "address",
          "name": "_from",
          "type": "address"
        },
        {
          "internalType": "address",
          "name": "_to",
          "type": "address"
        },
        {
          "internalType": "uint256",
          "name": "_tokenId",
          "type": "uint256"
        }
      ],
      "name": "safeTransferFrom",
      "outputs": [],
      "payable": false,
      "stateMutability": "nonpayable",
      "type": "function"
    },
    {
      "constant": false,
      "inputs": [
        {
          "internalType": "address",
          "name": "_from",
          "type": "address"
        },
        {
          "internalType": "address",
          "name": "_to",
          "type": "address"
        },
        {
          "internalType": "uint256",
          "name": "_tokenId",
          "type": "uint256"
        },
        {
          "internalType": "bytes",
          "name": "data",
          "type": "bytes"
        }
      ],
      "name": "safeTransferFrom",
      "outputs": [],
      "payable": false,
      "stateMutability": "nonpayable",
      "type": "function"
    },
    {
      "constant": false,
      "inputs": [
        {
          "internalType": "address",
          "name": "_operator",
          "type": "address"
        },
        {
          "internalType": "bool",
          "name": "_approved",
          "type": "bool"
        }
      ],
      "name": "setApprovalForAll",
      "outputs": [],
      "payable": false,
      "stateMutability": "nonpayable",
      "type": "function"
    },
    {
      "constant": true,
      "inputs": [
        {
          "internalType": "bytes4",
          "name": "interfaceId",
          "type": "bytes4"
        }
      ],
      "name": "supportsInterface",
      "outputs": [
        {
          "internalType": "bool",
          "name": "",
          "type": "bool"
        }
      ],
      "payable": false,
      "stateMutability": "pure",
      "type": "function"
    },
    {
      "constant": true,
      "inputs": [],
      "name": "symbol",
      "outputs": [
        {
          "internalType": "string",
          "name": "tokenSymbol",
          "type": "string"
        }
      ],
      "payable": false,
      "stateMutability": "view",
      "type": "function"
    },
    {
      "constant": true,
      "inputs": [],
      "name": "totalSupply",
      "outputs": [
        {
          "internalType": "uint256",
          "name": "total",
          "type": "uint256"
        }
      ],
      "payable": false,
      "stateMutability": "view",
      "type": "function"
    },
    {
      "constant": false,
      "inputs": [
        {
          "internalType": "address",
          "name": "_to",
          "type": "address"
        },
        {
          "internalType": "uint256",
          "name": "_tokenId",
          "type": "uint256"
        }
      ],
      "name": "transfer",
      "outputs": [],
      "payable": false,
      "stateMutability": "nonpayable",
      "type": "function"
    },
    {
      "constant": false,
      "inputs": [
        {
          "internalType": "address",
          "name": "_from",
          "type": "address"
        },
        {
          "internalType": "address",
          "name": "_to",
          "type": "address"
        },
        {
          "internalType": "uint256",
          "name": "_tokenId",
          "type": "uint256"
        }
      ],
      "name": "transferFrom",
      "outputs": [],
      "payable": false,
      "stateMutability": "nonpayable",
      "type": "function"
    },
    {
      "constant": false,
      "inputs": [
        {
          "internalType": "string",
          "name": "_tName",
          "type": "string"
        },
        {
          "internalType": "string",
          "name": "_tSymbol",
          "type": "string"
        }
      ],
      "name": "initialize",
      "outputs": [],
      "payable": false,
      "stateMutability": "nonpayable",
      "type": "function"
    },
    {
      "constant": false,
      "inputs": [],
      "name": "initialize",
      "outputs": [],
      "payable": false,
      "stateMutability": "nonpayable",
      "type": "function"
    },
    {
      "constant": false,
      "inputs": [
        {
          "internalType": "address",
          "name": "_pandaContractAddress",
          "type": "address"
        }
      ],
      "name": "setPandaContract",
      "outputs": [],
      "payable": false,
      "stateMutability": "nonpayable",
      "type": "function"
    },
    {
      "constant": true,
      "inputs": [
        {
          "internalType": "uint256",
          "name": "_tokenId",
          "type": "uint256"
        }
      ],
      "name": "getOffer",
      "outputs": [
        {
          "internalType": "address",
          "name": "seller",
          "type": "address"
        },
        {
          "internalType": "uint256",
          "name": "price",
          "type": "uint256"
        },
        {
          "internalType": "uint256",
          "name": "index",
          "type": "uint256"
        },
        {
          "internalType": "uint256",
          "name": "tokenId",
          "type": "uint256"
        },
        {
          "internalType": "bool",
          "name": "active",
          "type": "bool"
        }
      ],
      "payable": false,
      "stateMutability": "view",
      "type": "function"
    },
    {
      "constant": true,
      "inputs": [],
      "name": "getAllTokenOnSale",
      "outputs": [
        {
          "internalType": "uint256[]",
          "name": "listOfOffers",
          "type": "uint256[]"
        }
      ],
      "payable": false,
      "stateMutability": "view",
      "type": "function"
    },
    {
      "constant": false,
      "inputs": [
        {
          "internalType": "uint256",
          "name": "_price",
          "type": "uint256"
        },
        {
          "internalType": "uint256",
          "name": "_tokenId",
          "type": "uint256"
        }
      ],
      "name": "setOffer",
      "outputs": [],
      "payable": false,
      "stateMutability": "nonpayable",
      "type": "function"
    },
    {
      "constant": false,
      "inputs": [
        {
          "internalType": "uint256",
          "name": "_tokenId",
          "type": "uint256"
        }
      ],
      "name": "removeOffer",
      "outputs": [],
      "payable": false,
      "stateMutability": "nonpayable",
      "type": "function"
    },
    {
      "constant": false,
      "inputs": [
        {
          "internalType": "uint256",
          "name": "_tokenId",
          "type": "uint256"
        }
      ],
      "name": "buyPanda",
      "outputs": [],
      "payable": true,
      "stateMutability": "payable",
      "type": "function"
    }
  ],
  "bytecode": "0x6080604052600a603c60006101000a81548160ff021916908360ff1602179055506000603e5534801561003157600080fd5b506140a5806100416000396000f3fe60806040526004361061019c5760003560e01c80636352211e116100ec578063a22cb4651161008a578063b88d4fde11610064578063b88d4fde14610bee578063d967c62114610d00578063e897bd9c14610d4f578063e985e9c514610da05761019c565b8063a22cb46514610b08578063a9059cbb14610b65578063a96ea64914610bc05761019c565b80638da5cb5b116100c65780638da5cb5b146109a1578063941b055b146109f857806395a0f9c714610a3d57806395d89b4114610a785761019c565b80636352211e146108aa57806370a08231146109255780638129fc1c1461098a5761019c565b806318160ddd1161015957806342842e0e1161013357806342842e0e146105c95780634579268a1461064457806349b3709f146106df5780634cd88b761461074b5761019c565b806318160ddd146104be57806323b872dd146104e957806324ab5e08146105645761019c565b806301ffc9a7146101a157806306fdde0314610213578063081812fc146102a3578063095ea7b31461031e5780630b8ab884146103795780631327fbe51461041f575b600080fd5b3480156101ad57600080fd5b506101f9600480360360208110156101c457600080fd5b8101908080357bffffffffffffffffffffffffffffffffffffffffffffffffffffffff19169060200190929190505050610e29565b604051808215151515815260200191505060405180910390f35b34801561021f57600080fd5b50610228610ec9565b6040518080602001828103825283818151815260200191508051906020019080838360005b8381101561026857808201518184015260208101905061024d565b50505050905090810190601f1680156102955780820380516001836020036101000a031916815260200191505b509250505060405180910390f35b3480156102af57600080fd5b506102dc600480360360208110156102c657600080fd5b8101908080359060200190929190505050610f6b565b604051808273ffffffffffffffffffffffffffffffffffffffff1673ffffffffffffffffffffffffffffffffffffffff16815260200191505060405180910390f35b34801561032a57600080fd5b506103776004803603604081101561034157600080fd5b81019080803573ffffffffffffffffffffffffffffffffffffffff16906020019092919080359060200190929190505050610fb0565b005b34801561038557600080fd5b506103c86004803603602081101561039c57600080fd5b81019080803573ffffffffffffffffffffffffffffffffffffffff169060200190929190505050611189565b6040518080602001828103825283818151815260200191508051906020019060200280838360005b8381101561040b5780820151818401526020810190506103f0565b505050509050019250505060405180910390f35b34801561042b57600080fd5b506104586004803603602081101561044257600080fd5b81019080803590602001909291905050506112d1565b604051808681526020018567ffffffffffffffff1667ffffffffffffffff1681526020018463ffffffff1663ffffffff1681526020018363ffffffff1663ffffffff1681526020018261ffff1661ffff1681526020019550505050505060405180910390f35b3480156104ca57600080fd5b506104d36113e9565b6040518082815260200191505060405180910390f35b3480156104f557600080fd5b506105626004803603606081101561050c57600080fd5b81019080803573ffffffffffffffffffffffffffffffffffffffff169060200190929190803573ffffffffffffffffffffffffffffffffffffffff169060200190929190803590602001909291905050506113f6565b005b34801561057057600080fd5b506105b36004803603604081101561058757600080fd5b81019080803563ffffffff169060200190929190803563ffffffff169060200190929190505050611663565b6040518082815260200191505060405180910390f35b3480156105d557600080fd5b50610642600480360360608110156105ec57600080fd5b81019080803573ffffffffffffffffffffffffffffffffffffffff169060200190929190803573ffffffffffffffffffffffffffffffffffffffff16906020019092919080359060200190929190505050611759565b005b34801561065057600080fd5b5061067d6004803603602081101561066757600080fd5b8101908080359060200190929190505050611779565b604051808673ffffffffffffffffffffffffffffffffffffffff1673ffffffffffffffffffffffffffffffffffffffff168152602001858152602001848152602001838152602001821515151581526020019550505050505060405180910390f35b3480156106eb57600080fd5b506106f4611901565b6040518080602001828103825283818151815260200191508051906020019060200280838360005b8381101561073757808201518184015260208101905061071c565b505050509050019250505060405180910390f35b34801561075757600080fd5b506108a86004803603604081101561076e57600080fd5b810190808035906020019064010000000081111561078b57600080fd5b82018360208201111561079d57600080fd5b803590602001918460018302840111640100000000831117156107bf57600080fd5b91908080601f016020809104026020016040519081016040528093929190818152602001838380828437600081840152601f19601f8201169050808301925050505050505091929192908035906020019064010000000081111561082257600080fd5b82018360208201111561083457600080fd5b8035906020019184600183028401116401000000008311171561085657600080fd5b91908080601f016020809104026020016040519081016040528093929190818152602001838380828437600081840152601f19601f820116905080830192505050505050509192919290505050611999565b005b3480156108b657600080fd5b506108e3600480360360208110156108cd57600080fd5b8101908080359060200190929190505050611ad0565b604051808273ffffffffffffffffffffffffffffffffffffffff1673ffffffffffffffffffffffffffffffffffffffff16815260200191505060405180910390f35b34801561093157600080fd5b506109746004803603602081101561094857600080fd5b81019080803573ffffffffffffffffffffffffffffffffffffffff169060200190929190505050611b0d565b6040518082815260200191505060405180910390f35b34801561099657600080fd5b5061099f611b56565b005b3480156109ad57600080fd5b506109b6611cb7565b604051808273ffffffffffffffffffffffffffffffffffffffff1673ffffffffffffffffffffffffffffffffffffffff16815260200191505060405180910390f35b348015610a0457600080fd5b50610a3b60048036036040811015610a1b57600080fd5b810190808035906020019092919080359060200190929190505050611cdd565b005b348015610a4957600080fd5b50610a7660048036036020811015610a6057600080fd5b810190808035906020019092919050505061239e565b005b348015610a8457600080fd5b50610a8d61258e565b6040518080602001828103825283818151815260200191508051906020019080838360005b83811015610acd578082015181840152602081019050610ab2565b50505050905090810190601f168015610afa5780820380516001836020036101000a031916815260200191505b509250505060405180910390f35b348015610b1457600080fd5b50610b6360048036036040811015610b2b57600080fd5b81019080803573ffffffffffffffffffffffffffffffffffffffff169060200190929190803515159060200190929190505050612630565b005b348015610b7157600080fd5b50610bbe60048036036040811015610b8857600080fd5b81019080803573ffffffffffffffffffffffffffffffffffffffff16906020019092919080359060200190929190505050612805565b005b610bec60048036036020811015610bd657600080fd5b8101908080359060200190929190505050612914565b005b348015610bfa57600080fd5b50610cfe60048036036080811015610c1157600080fd5b81019080803573ffffffffffffffffffffffffffffffffffffffff169060200190929190803573ffffffffffffffffffffffffffffffffffffffff1690602001909291908035906020019092919080359060200190640100000000811115610c7857600080fd5b820183602082011115610c8a57600080fd5b80359060200191846001830284011164010000000083111715610cac57600080fd5b91908080601f016020809104026020016040519081016040528093929190818152602001838380828437600081840152601f19601f820116905080830192505050505050509192919290505050612d19565b005b348015610d0c57600080fd5b50610d3960048036036020811015610d2357600080fd5b8101908080359060200190929190505050612d40565b6040518082815260200191505060405180910390f35b348015610d5b57600080fd5b50610d9e60048036036020811015610d7257600080fd5b81019080803573ffffffffffffffffffffffffffffffffffffffff169060200190929190505050612e82565b005b348015610dac57600080fd5b50610e0f60048036036040811015610dc357600080fd5b81019080803573ffffffffffffffffffffffffffffffffffffffff169060200190929190803573ffffffffffffffffffffffffffffffffffffffff169060200190929190505050612f20565b604051808215151515815260200191505060405180910390f35b60006380ac58cd60e01b7bffffffffffffffffffffffffffffffffffffffffffffffffffffffff1916827bffffffffffffffffffffffffffffffffffffffffffffffffffffffff19161480610ec257506301ffc9a760e01b7bffffffffffffffffffffffffffffffffffffffffffffffffffffffff1916827bffffffffffffffffffffffffffffffffffffffffffffffffffffffff1916145b9050919050565b6060603a8054600181600116156101000203166002900480601f016020809104026020016040519081016040528092919081815260200182805460018160011615610100020316600290048015610f615780601f10610f3657610100808354040283529160200191610f61565b820191906000526020600020905b815481529060010190602001808311610f4457829003601f168201915b5050505050905090565b600080610f766113e9565b11610f8057600080fd5b60008210158015610f975750610f946113e9565b82105b610fa057600080fd5b610fa982612fb4565b9050919050565b600073ffffffffffffffffffffffffffffffffffffffff163373ffffffffffffffffffffffffffffffffffffffff161415610fea57600080fd5b3373ffffffffffffffffffffffffffffffffffffffff166037600083815260200190815260200160002060009054906101000a900473ffffffffffffffffffffffffffffffffffffffff1673ffffffffffffffffffffffffffffffffffffffff161480611117575060011515603960006037600085815260200190815260200160002060009054906101000a900473ffffffffffffffffffffffffffffffffffffffff1673ffffffffffffffffffffffffffffffffffffffff1673ffffffffffffffffffffffffffffffffffffffff16815260200190815260200160002060003373ffffffffffffffffffffffffffffffffffffffff1673ffffffffffffffffffffffffffffffffffffffff16815260200190815260200160002060009054906101000a900460ff161515145b61112057600080fd5b61112a8282612ff1565b808273ffffffffffffffffffffffffffffffffffffffff163373ffffffffffffffffffffffffffffffffffffffff167f8c5be1e5ebec7d5bd14f71427d1e84f3dd0314c0f7b2291e5b200ac8c7c3b92560405160405180910390a45050565b6060600061119683611b0d565b905060008114156111da5760006040519080825280602002602001820160405280156111d15781602001602082028038833980820191505090505b509150506112cc565b60608160405190808252806020026020018201604052801561120b5781602001602082028038833980820191505090505b50905060006112186113e9565b905060008090506000600190505b8281116112c3578673ffffffffffffffffffffffffffffffffffffffff166037600083815260200190815260200160002060009054906101000a900473ffffffffffffffffffffffffffffffffffffffff1673ffffffffffffffffffffffffffffffffffffffff1614156112b657808483815181106112a157fe5b60200260200101818152505081806001019250505b8080600101915050611226565b83955050505050505b919050565b600080600080600085603480549050116112ea57600080fd5b603486815481106112f757fe5b90600052602060002090600202016000015494506034868154811061131857fe5b906000526020600020906002020160010160009054906101000a900467ffffffffffffffff1693506034868154811061134d57fe5b906000526020600020906002020160010160089054906101000a900463ffffffff1692506034868154811061137e57fe5b9060005260206000209060020201600101600c9054906101000a900463ffffffff169150603486815481106113af57fe5b906000526020600020906002020160010160109054906101000a900461ffff16905084848484849450945094509450945091939590929450565b6000603480549050905090565b600073ffffffffffffffffffffffffffffffffffffffff168273ffffffffffffffffffffffffffffffffffffffff16141561143057600080fd5b3373ffffffffffffffffffffffffffffffffffffffff166037600083815260200190815260200160002060009054906101000a900473ffffffffffffffffffffffffffffffffffffffff1673ffffffffffffffffffffffffffffffffffffffff1614806114fb57503373ffffffffffffffffffffffffffffffffffffffff166038600083815260200190815260200160002060009054906101000a900473ffffffffffffffffffffffffffffffffffffffff1673ffffffffffffffffffffffffffffffffffffffff16145b806115bf5750603960006037600084815260200190815260200160002060009054906101000a900473ffffffffffffffffffffffffffffffffffffffff1673ffffffffffffffffffffffffffffffffffffffff1673ffffffffffffffffffffffffffffffffffffffff16815260200190815260200160002060003373ffffffffffffffffffffffffffffffffffffffff1673ffffffffffffffffffffffffffffffffffffffff16815260200190815260200160002060009054906101000a900460ff165b6115c857600080fd5b6037600082815260200190815260200160002060009054906101000a900473ffffffffffffffffffffffffffffffffffffffff1673ffffffffffffffffffffffffffffffffffffffff168373ffffffffffffffffffffffffffffffffffffffff161461163357600080fd5b6000811015801561164a57506116476113e9565b81105b61165357600080fd5b61165e838383613047565b505050565b60003373ffffffffffffffffffffffffffffffffffffffff16603760008563ffffffff16815260200190815260200160002060009054906101000a900473ffffffffffffffffffffffffffffffffffffffff1673ffffffffffffffffffffffffffffffffffffffff1614801561173d57503373ffffffffffffffffffffffffffffffffffffffff16603760008463ffffffff16815260200190815260200160002060009054906101000a900473ffffffffffffffffffffffffffffffffffffffff1673ffffffffffffffffffffffffffffffffffffffff16145b61174657600080fd5b61175133848461326b565b905092915050565b61177483838360405180602001604052806000815250612d19565b505050565b600080600080600080603f6000888152602001908152602001600020600301541180156117cd575060011515603f600088815260200190815260200160002060040160009054906101000a900460ff161515145b61183f576040517f08c379a000000000000000000000000000000000000000000000000000000000815260040180806020018281038252601f8152602001807f4e6f20616374697665206f6666657220666f722074686520746f6b656e49440081525060200191505060405180910390fd5b603f600083815260200190815260200160002060000160009054906101000a900473ffffffffffffffffffffffffffffffffffffffff169450603f6000838152602001908152602001600020600101549350603f6000838152602001908152602001600020600201549250603f6000838152602001908152602001600020600301549150603f600083815260200190815260200160002060040160009054906101000a900460ff16905084848484849450945094509450945091939590929450565b60606000603d8054905011801561191a57506000603e54115b61198c576040517f08c379a00000000000000000000000000000000000000000000000000000000081526004018080602001828103825260098152602001807f4e6f204f6666657273000000000000000000000000000000000000000000000081525060200191505060405180910390fd5b611994613390565b905090565b600060019054906101000a900460ff16806119b857506119b7613448565b5b806119cf57506000809054906101000a900460ff16155b611a24576040517f08c379a000000000000000000000000000000000000000000000000000000000815260040180806020018281038252602e81526020018061401e602e913960400191505060405180910390fd5b60008060019054906101000a900460ff161590508015611a74576001600060016101000a81548160ff02191690831515021790555060016000806101000a81548160ff0219169083151502179055505b611a7c61345f565b82603a9080519060200190611a92929190613e32565b5081603b9080519060200190611aa9929190613e32565b508015611acb5760008060016101000a81548160ff0219169083151502179055505b505050565b60006037600083815260200190815260200160002060009054906101000a900473ffffffffffffffffffffffffffffffffffffffff169050919050565b6000603660008373ffffffffffffffffffffffffffffffffffffffff1673ffffffffffffffffffffffffffffffffffffffff168152602001908152602001600020549050919050565b603360009054906101000a900473ffffffffffffffffffffffffffffffffffffffff1673ffffffffffffffffffffffffffffffffffffffff163373ffffffffffffffffffffffffffffffffffffffff1614611bb057600080fd5b600060019054906101000a900460ff1680611bcf5750611bce613448565b5b80611be657506000809054906101000a900460ff16155b611c3b576040517f08c379a000000000000000000000000000000000000000000000000000000000815260040180806020018281038252602e81526020018061401e602e913960400191505060405180910390fd5b60008060019054906101000a900460ff161590508015611c8b576001600060016101000a81548160ff02191690831515021790555060016000806101000a81548160ff0219169083151502179055505b611c9361345f565b8015611cb45760008060016101000a81548160ff0219169083151502179055505b50565b603360009054906101000a900473ffffffffffffffffffffffffffffffffffffffff1681565b3373ffffffffffffffffffffffffffffffffffffffff16603c60019054906101000a900473ffffffffffffffffffffffffffffffffffffffff1673ffffffffffffffffffffffffffffffffffffffff16636352211e836040518263ffffffff1660e01b81526004018082815260200191505060206040518083038186803b158015611d6757600080fd5b505afa158015611d7b573d6000803e3d6000fd5b505050506040513d6020811015611d9157600080fd5b810190808051906020019092919050505073ffffffffffffffffffffffffffffffffffffffff1614611e2b576040517f08c379a000000000000000000000000000000000000000000000000000000000815260040180806020018281038252601a8152602001807f4e6f7420746865206f776e6572206f662074686520746f6b656e00000000000081525060200191505060405180910390fd5b60001515603f600083815260200190815260200160002060040160009054906101000a900460ff16151514611ec8576040517f08c379a00000000000000000000000000000000000000000000000000000000081526004018080602001828103825260168152602001807f416c726561647920616e206f666665722065786973740000000000000000000081525060200191505060405180910390fd5b603c60019054906101000a900473ffffffffffffffffffffffffffffffffffffffff1673ffffffffffffffffffffffffffffffffffffffff1663e985e9c533306040518363ffffffff1660e01b8152600401808373ffffffffffffffffffffffffffffffffffffffff1673ffffffffffffffffffffffffffffffffffffffff1681526020018273ffffffffffffffffffffffffffffffffffffffff1673ffffffffffffffffffffffffffffffffffffffff1681526020019250505060206040518083038186803b158015611f9b57600080fd5b505afa158015611faf573d6000803e3d6000fd5b505050506040513d6020811015611fc557600080fd5b8101908080519060200190929190505050612048576040517f08c379a000000000000000000000000000000000000000000000000000000000815260040180806020018281038252601f8152602001807f4e6f7420616e206f70657261746f7220666f722074686520746f6b656e49640081525060200191505060405180910390fd5b80603f600083815260200190815260200160002060030154141561213e576000603f600083815260200190815260200160002060020154905033603d828154811061208f57fe5b906000526020600020906005020160000160006101000a81548173ffffffffffffffffffffffffffffffffffffffff021916908373ffffffffffffffffffffffffffffffffffffffff16021790555082603d82815481106120ec57fe5b9060005260206000209060050201600101819055506001603d828154811061211057fe5b906000526020600020906005020160040160006101000a81548160ff021916908315150217905550506122e4565b612146613eb2565b6040518060a001604052803373ffffffffffffffffffffffffffffffffffffffff1681526020018481526020016001603d8054905003815260200183815260200160011515815250905080603f600084815260200190815260200160002060008201518160000160006101000a81548173ffffffffffffffffffffffffffffffffffffffff021916908373ffffffffffffffffffffffffffffffffffffffff16021790555060208201518160010155604082015181600201556060820151816003015560808201518160040160006101000a81548160ff021916908315150217905550905050603d819080600181540180825580915050906001820390600052602060002090600502016000909192909190915060008201518160000160006101000a81548173ffffffffffffffffffffffffffffffffffffffff021916908373ffffffffffffffffffffffffffffffffffffffff16021790555060208201518160010155604082015181600201556060820151816003015560808201518160040160006101000a81548160ff021916908315150217905550505050505b603e600081548092919060010191905055507fd99e4fad9ad6313b1feb588fa8e605e3a9873172f2024330c35dd2b4041a4386338260405180806020018473ffffffffffffffffffffffffffffffffffffffff1673ffffffffffffffffffffffffffffffffffffffff1681526020018381526020018281038252600c8152602001807f437265617465206f666665720000000000000000000000000000000000000000815250602001935050505060405180910390a15050565b3373ffffffffffffffffffffffffffffffffffffffff16603f600083815260200190815260200160002060000160009054906101000a900473ffffffffffffffffffffffffffffffffffffffff1673ffffffffffffffffffffffffffffffffffffffff1614612458576040517f08c379a000000000000000000000000000000000000000000000000000000000815260040180806020018281038252602d815260200180613fba602d913960400191505060405180910390fd5b6000603f600083815260200190815260200160002060040160006101000a81548160ff0219169083151502179055506000603d603f600084815260200190815260200160002060020154815481106124ac57fe5b906000526020600020906005020160040160006101000a81548160ff021916908315150217905550603e60008154809291906001900391905055507fd99e4fad9ad6313b1feb588fa8e605e3a9873172f2024330c35dd2b4041a4386338260405180806020018473ffffffffffffffffffffffffffffffffffffffff1673ffffffffffffffffffffffffffffffffffffffff1681526020018381526020018281038252600c8152602001807f52656d6f7665206f666665720000000000000000000000000000000000000000815250602001935050505060405180910390a150565b6060603b8054600181600116156101000203166002900480601f0160208091040260200160405190810160405280929190818152602001828054600181600116156101000203166002900480156126265780601f106125fb57610100808354040283529160200191612626565b820191906000526020600020905b81548152906001019060200180831161260957829003601f168201915b5050505050905090565b600073ffffffffffffffffffffffffffffffffffffffff163373ffffffffffffffffffffffffffffffffffffffff16141561266a57600080fd5b801515603960003373ffffffffffffffffffffffffffffffffffffffff1673ffffffffffffffffffffffffffffffffffffffff16815260200190815260200160002060008473ffffffffffffffffffffffffffffffffffffffff1673ffffffffffffffffffffffffffffffffffffffff16815260200190815260200160002060009054906101000a900460ff161515141561270457600080fd5b80603960003373ffffffffffffffffffffffffffffffffffffffff1673ffffffffffffffffffffffffffffffffffffffff16815260200190815260200160002060008473ffffffffffffffffffffffffffffffffffffffff1673ffffffffffffffffffffffffffffffffffffffff16815260200190815260200160002060006101000a81548160ff0219169083151502179055508173ffffffffffffffffffffffffffffffffffffffff163373ffffffffffffffffffffffffffffffffffffffff167f17307eab39ab6107e8899845ad3d59bd9653f200f220920489ca2b5937696c3183604051808215151515815260200191505060405180910390a35050565b600073ffffffffffffffffffffffffffffffffffffffff168273ffffffffffffffffffffffffffffffffffffffff16141561283f57600080fd5b603360009054906101000a900473ffffffffffffffffffffffffffffffffffffffff1673ffffffffffffffffffffffffffffffffffffffff168273ffffffffffffffffffffffffffffffffffffffff16141561289a57600080fd5b3373ffffffffffffffffffffffffffffffffffffffff166037600083815260200190815260200160002060009054906101000a900473ffffffffffffffffffffffffffffffffffffffff1673ffffffffffffffffffffffffffffffffffffffff161461290557600080fd5b612910338383613047565b5050565b61291c613eb2565b603f60008381526020019081526020016000206040518060a00160405290816000820160009054906101000a900473ffffffffffffffffffffffffffffffffffffffff1673ffffffffffffffffffffffffffffffffffffffff1673ffffffffffffffffffffffffffffffffffffffff1681526020016001820154815260200160028201548152602001600382015481526020016004820160009054906101000a900460ff161515151581525050905034603f60008481526020019081526020016000206001015414612a39576040517f08c379a0000000000000000000000000000000000000000000000000000000008152600401808060200182810382526037815260200180613fe76037913960400191505060405180910390fd5b60011515603f600084815260200190815260200160002060040160009054906101000a900460ff16151514612a6d57600080fd5b6000603f600084815260200190815260200160002060040160006101000a81548160ff0219169083151502179055506000603d603f60008581526020019081526020016000206002015481548110612ac157fe5b906000526020600020906005020160040160006101000a81548160ff021916908315150217905550600081602001511115612b4657806000015173ffffffffffffffffffffffffffffffffffffffff166108fc82602001519081150290604051600060405180830381858888f19350505050158015612b44573d6000803e3d6000fd5b505b603c60019054906101000a900473ffffffffffffffffffffffffffffffffffffffff1673ffffffffffffffffffffffffffffffffffffffff166342842e0e603f600085815260200190815260200160002060000160009054906101000a900473ffffffffffffffffffffffffffffffffffffffff1633856040518463ffffffff1660e01b8152600401808473ffffffffffffffffffffffffffffffffffffffff1673ffffffffffffffffffffffffffffffffffffffff1681526020018373ffffffffffffffffffffffffffffffffffffffff1673ffffffffffffffffffffffffffffffffffffffff1681526020018281526020019350505050600060405180830381600087803b158015612c5957600080fd5b505af1158015612c6d573d6000803e3d6000fd5b505050507fd99e4fad9ad6313b1feb588fa8e605e3a9873172f2024330c35dd2b4041a4386338360405180806020018473ffffffffffffffffffffffffffffffffffffffff1673ffffffffffffffffffffffffffffffffffffffff168152602001838152602001828103825260038152602001807f4275790000000000000000000000000000000000000000000000000000000000815250602001935050505060405180910390a15050565b612d253385858561359f565b612d2e57600080fd5b612d3a848484846137fe565b50505050565b6000603360009054906101000a900473ffffffffffffffffffffffffffffffffffffffff1673ffffffffffffffffffffffffffffffffffffffff163373ffffffffffffffffffffffffffffffffffffffff1614612d9c57600080fd5b603c60009054906101000a900460ff1660ff16603560009054906101000a900460ff1660ff1610612e18576040517f08c379a000000000000000000000000000000000000000000000000000000000815260040180806020018281038252602581526020018061404c6025913960400191505060405180910390fd5b6035600081819054906101000a900460ff168092919060010191906101000a81548160ff021916908360ff16021790555050612e7b600080846000603360009054906101000a900473ffffffffffffffffffffffffffffffffffffffff16613824565b9050919050565b603360009054906101000a900473ffffffffffffffffffffffffffffffffffffffff1673ffffffffffffffffffffffffffffffffffffffff163373ffffffffffffffffffffffffffffffffffffffff1614612edc57600080fd5b80603c60016101000a81548173ffffffffffffffffffffffffffffffffffffffff021916908373ffffffffffffffffffffffffffffffffffffffff16021790555050565b6000603960008473ffffffffffffffffffffffffffffffffffffffff1673ffffffffffffffffffffffffffffffffffffffff16815260200190815260200160002060008373ffffffffffffffffffffffffffffffffffffffff1673ffffffffffffffffffffffffffffffffffffffff16815260200190815260200160002060009054906101000a900460ff16905092915050565b60006038600083815260200190815260200160002060009054906101000a900473ffffffffffffffffffffffffffffffffffffffff169050919050565b816038600083815260200190815260200160002060006101000a81548173ffffffffffffffffffffffffffffffffffffffff021916908373ffffffffffffffffffffffffffffffffffffffff1602179055505050565b603660008373ffffffffffffffffffffffffffffffffffffffff1673ffffffffffffffffffffffffffffffffffffffff16815260200190815260200160002060008154809291906001019190505550816037600083815260200190815260200160002060006101000a81548173ffffffffffffffffffffffffffffffffffffffff021916908373ffffffffffffffffffffffffffffffffffffffff160217905550600073ffffffffffffffffffffffffffffffffffffffff168373ffffffffffffffffffffffffffffffffffffffff16146131a357603660008473ffffffffffffffffffffffffffffffffffffffff1673ffffffffffffffffffffffffffffffffffffffff16815260200190815260200160002060008154809291906001900391905055506038600082815260200190815260200160002060006101000a81549073ffffffffffffffffffffffffffffffffffffffff02191690555b8173ffffffffffffffffffffffffffffffffffffffff166037600083815260200190815260200160002060009054906101000a900473ffffffffffffffffffffffffffffffffffffffff1673ffffffffffffffffffffffffffffffffffffffff161461320b57fe5b808273ffffffffffffffffffffffffffffffffffffffff168473ffffffffffffffffffffffffffffffffffffffff167fddf252ad1be2c89b69c2b068fc378daa952ba7f163c4a11628f55a4df523b3ef60405160405180910390a4505050565b60008060348463ffffffff168154811061328157fe5b9060005260206000209060020201600001549050600060348463ffffffff16815481106132aa57fe5b906000526020600020906002020160000154905060006132ca8383613a17565b9050600060348763ffffffff16815481106132e157fe5b906000526020600020906002020160010160109054906101000a900461ffff169050600060348763ffffffff168154811061331857fe5b906000526020600020906002020160010160109054906101000a900461ffff16905060008161ffff168361ffff16141561335757600183019050613374565b8161ffff168361ffff16101561336f57819050613373565b8290505b5b613381888a86848e613824565b96505050505050509392505050565b606060008090506000809050600091505b603d80549050821080156133b65750603e5481105b156134405760011515603d83815481106133cc57fe5b906000526020600020906005020160040160009054906101000a900460ff161515141561343357603d828154811061340057fe5b90600052602060002090600502016003015483828151811061341e57fe5b60200260200101818152505080806001019150505b81806001019250506133a1565b829250505090565b6000803090506000813b9050600081149250505090565b600060019054906101000a900460ff168061347e575061347d613448565b5b8061349557506000809054906101000a900460ff16155b6134ea576040517f08c379a000000000000000000000000000000000000000000000000000000000815260040180806020018281038252602e81526020018061401e602e913960400191505060405180910390fd5b60008060019054906101000a900460ff16159050801561353a576001600060016101000a81548160ff02191690831515021790555060016000806101000a81548160ff0219169083151502179055505b33603360006101000a81548173ffffffffffffffffffffffffffffffffffffffff021916908373ffffffffffffffffffffffffffffffffffffffff160217905550801561359c5760008060016101000a81548160ff0219169083151502179055505b50565b60008073ffffffffffffffffffffffffffffffffffffffff168373ffffffffffffffffffffffffffffffffffffffff1614156135da57600080fd5b6037600083815260200190815260200160002060009054906101000a900473ffffffffffffffffffffffffffffffffffffffff1673ffffffffffffffffffffffffffffffffffffffff168473ffffffffffffffffffffffffffffffffffffffff161461364557600080fd5b6000821015801561365c57506136596113e9565b82105b61366557600080fd5b8473ffffffffffffffffffffffffffffffffffffffff166037600084815260200190815260200160002060009054906101000a900473ffffffffffffffffffffffffffffffffffffffff1673ffffffffffffffffffffffffffffffffffffffff16148061373057508473ffffffffffffffffffffffffffffffffffffffff166038600084815260200190815260200160002060009054906101000a900473ffffffffffffffffffffffffffffffffffffffff1673ffffffffffffffffffffffffffffffffffffffff16145b806137f45750603960006037600085815260200190815260200160002060009054906101000a900473ffffffffffffffffffffffffffffffffffffffff1673ffffffffffffffffffffffffffffffffffffffff1673ffffffffffffffffffffffffffffffffffffffff16815260200190815260200160002060008673ffffffffffffffffffffffffffffffffffffffff1673ffffffffffffffffffffffffffffffffffffffff16815260200190815260200160002060009054906101000a900460ff165b9050949350505050565b613809848484613047565b61381584848484613c35565b61381e57600080fd5b50505050565b600061382e613ef9565b6040518060a001604052808681526020014267ffffffffffffffff1681526020018863ffffffff1681526020018763ffffffff1681526020018561ffff16815250905060006001603483908060018154018082558091505090600182039060005260206000209060020201600090919290919091506000820151816000015560208201518160010160006101000a81548167ffffffffffffffff021916908367ffffffffffffffff16021790555060408201518160010160086101000a81548163ffffffff021916908363ffffffff160217905550606082015181600101600c6101000a81548163ffffffff021916908363ffffffff16021790555060808201518160010160106101000a81548161ffff021916908361ffff160217905550505003905061395e60008583613047565b7fe311e436405c2f9357d626ad758a4cf5bcd7b808f30b9cbe08179b038534023c84828a8a8a8a604051808773ffffffffffffffffffffffffffffffffffffffff1673ffffffffffffffffffffffffffffffffffffffff1681526020018681526020018563ffffffff1663ffffffff1681526020018463ffffffff1663ffffffff1681526020018381526020018261ffff1661ffff168152602001965050505050505060405180910390a1809250505095945050505050565b6000613a21613f42565b600060ff4281613a2d57fe5b069050600060084281613a3c57fe5b069050600060644281613a4b57fe5b069050600060079050600060019050600060038560ff16111580613a83575060058560ff1610158015613a82575060068560ff1611155b5b15613ab45760628460ff161115613a9d5760629350613aaf565b600a8460ff161015613aae57600a93505b5b613b22565b60048560ff161415613aec57602c8460ff161115613ad557602c9350613ae7565b600b8460ff161015613ae657600b93505b5b613b21565b60078560ff161415613b205760458460ff161115613b0d5760459350613b1f565b600b8460ff161015613b1e57600b93505b5b5b5b5b600191505b60808211613be6578460ff168360ff161415613b5e578360ff16878460ff1660088110613b5057fe5b602002018181525050613bb8565b6000828760ff161614613b935760648981613b7557fe5b06878460ff1660088110613b8557fe5b602002018181525050613bb7565b60648a81613b9d57fe5b06878460ff1660088110613bad57fe5b6020020181815250505b5b60648981613bc257fe5b04985060648a81613bcf57fe5b049950828060019003935050600282029150613b27565b600091505b6008821015613c2557868260088110613c0057fe5b60200201518101905060078214613c18576064810290505b8180600101925050613beb565b8097505050505050505092915050565b6000613c4084613e19565b613c4d5760019050613e11565b60008473ffffffffffffffffffffffffffffffffffffffff1663150b7a02338887876040518563ffffffff1660e01b8152600401808573ffffffffffffffffffffffffffffffffffffffff1673ffffffffffffffffffffffffffffffffffffffff1681526020018473ffffffffffffffffffffffffffffffffffffffff1673ffffffffffffffffffffffffffffffffffffffff16815260200183815260200180602001828103825283818151815260200191508051906020019080838360005b83811015613d28578082015181840152602081019050613d0d565b50505050905090810190601f168015613d555780820380516001836020036101000a031916815260200191505b5095505050505050602060405180830381600087803b158015613d7757600080fd5b505af1158015613d8b573d6000803e3d6000fd5b505050506040513d6020811015613da157600080fd5b810190808051906020019092919050505090506040518080613f8b602f9139602f01905060405180910390207bffffffffffffffffffffffffffffffffffffffffffffffffffffffff1916817bffffffffffffffffffffffffffffffffffffffffffffffffffffffff1916149150505b949350505050565b600080823b905060008163ffffffff1611915050919050565b828054600181600116156101000203166002900490600052602060002090601f016020900481019282601f10613e7357805160ff1916838001178555613ea1565b82800160010185558215613ea1579182015b82811115613ea0578251825591602001919060010190613e85565b5b509050613eae9190613f65565b5090565b6040518060a00160405280600073ffffffffffffffffffffffffffffffffffffffff1681526020016000815260200160008152602001600081526020016000151581525090565b6040518060a0016040528060008152602001600067ffffffffffffffff168152602001600063ffffffff168152602001600063ffffffff168152602001600061ffff1681525090565b604051806101000160405280600890602082028038833980820191505090505090565b613f8791905b80821115613f83576000816000905550600101613f6b565b5090565b9056fe6f6e455243373231526563656976656428616464726573732c616464726573732c75696e743235362c6279746573294f6e6c792073656c6c6572206f662074686520746f6b656e2063616e2072656d6f766520746865206f666665725472616e73616374696f6e2076616c756520646f6573206e6f74206d6174636820746865207072696365206f662074686520746f6b656e436f6e747261637420696e7374616e63652068617320616c7265616479206265656e20696e697469616c697a656447656e2030204c696d69742072656163686564202831302070616e646173206c696d697429a265627a7a72315820ee6043571b73a6c7b627a18646dd69f0b9b1f5b0ecc6edd7f946522da750b7e364736f6c634300050c0032",
  "source": "pragma solidity ^0.5.12;\n\nimport \"./IPandaMarketPlace.sol\";\nimport \"./PandaMarketPlaceStorage.sol\";\n\nimport \"@openzeppelin/upgrades/contracts/Initializable.sol\";\n\ncontract PandaMarketPlace is  Initializable, IPandaMarketPlace , PandaMarketPlaceStorage {\n\n    function initialize() public onlyOwner initializer{\n        Ownable.initialize();\n        //setPandaContract(_pandaContractAddress);        \n    }\n\n    /***************************************************\n    Events\n     **************************************************/\n    event MarketTransaction(string TxType, address owner, uint256 tokenId);\n\n    /**\n    * Set the current PandaContract address and initialize the instance of PandaContract.\n    * Requirement: Only the contract owner can call.\n     */\n    function setPandaContract(address _pandaContractAddress) onlyOwner public {\n        _pandaContract =  PandaContract(_pandaContractAddress) ;\n    }\n\n    /**\n    * Get the details about a offer for _tokenId. Throws an error if there is no active offer for _tokenId.\n     */\n    function getOffer(uint256 _tokenId) external view returns ( address seller, uint256 price, uint256 index, uint256 tokenId, bool active){\n        \n        require (tokenIdToOffer[_tokenId].tokenId > 0 && tokenIdToOffer[_tokenId].active == true,\"No active offer for the tokenID\");\n        \n        seller  = tokenIdToOffer[tokenId].seller;\n        price   = tokenIdToOffer[tokenId].price;\n        index   = tokenIdToOffer[tokenId].index;\n        tokenId = tokenIdToOffer[tokenId].tokenId;\n        active  = tokenIdToOffer[tokenId].active;\n\n        return (seller,price,index,tokenId,active);\n    }\n\n    /**\n    * Get all tokenId's that are currently for sale. Returns an empty error if none exist.\n     */\n    function getAllTokenOnSale() external view  returns(uint256[] memory listOfOffers){\n        require(Offers.length > 0 && _activeOfferCount > 0,\"No Offers\");\n        return _getAllActiveTokens();\n    }\n\n    function _getAllActiveTokens() internal view  returns(uint256[] memory listOfOffers){\n        uint256 i = 0;\n        uint256 index=0;\n        \n        for ( i=0 ; i< Offers.length && index < _activeOfferCount  ; i++){\n            \n            if(Offers[i].active == true){\n                listOfOffers[index]=Offers[i].tokenId;\n                index++;\n            }           \n        }\n\n        return listOfOffers;\n    }\n\n    /**\n    * Creates a new offer for _tokenId for the price _price.\n    * Emits the MarketTransaction event with txType \"Create offer\"\n    * Requirement: Only the owner of _tokenId can create an offer.\n    * Requirement: There can only be one active offer for a token at a time.\n    * Requirement: Marketplace contract (this) needs to be an approved operator when the offer is created.\n     */\n    function setOffer(uint256 _price, uint256 _tokenId) external{\n        require(_pandaContract.ownerOf(_tokenId) == msg.sender,\"Not the owner of the token\");\n        require(tokenIdToOffer[_tokenId].active==false,\"Already an offer exist\");\n        require(_pandaContract.isApprovedForAll(msg.sender,address(this)),\"Not an operator for the tokenId\");\n\n        if(tokenIdToOffer[_tokenId].tokenId==_tokenId){\n            uint256 index = tokenIdToOffer[_tokenId].index;\n\n            Offers[index].seller =  msg.sender;\n            Offers[index].price= _price;\n            Offers[index].active= true;\n        }else{\n             Offer memory newOffer = Offer({\n                seller: msg.sender,\n                price: _price,\n                index: Offers.length-1,\n                tokenId: _tokenId,\n                active: true\n            });\n\n            tokenIdToOffer[_tokenId] = newOffer;\n            Offers.push(newOffer);            \n        }\n\n        _activeOfferCount++;\n\n        emit MarketTransaction(\"Create offer\", msg.sender,  _tokenId);\n    }\n\n    /**\n    * Removes an existing offer.\n    * Emits the MarketTransaction event with txType \"Remove offer\"\n    * Requirement: Only the seller of _tokenId can remove an offer.\n     */\n    function removeOffer(uint256 _tokenId) external{\n        require(tokenIdToOffer[_tokenId].seller == msg.sender,\"Only seller of the token can remove the offer\");\n\n        tokenIdToOffer[_tokenId].active = false;\n        Offers[tokenIdToOffer[_tokenId].index].active =  false;\n        _activeOfferCount--;\n\n        emit MarketTransaction(\"Remove offer\", msg.sender,  _tokenId);\n    }\n\n    /**\n    * Executes the purchase of _tokenId.\n    * Sends the funds to the seller and transfers the token using transferFrom in PandaContract.\n    * Emits the MarketTransaction event with txType \"Buy\".\n    * Requirement: The msg.value needs to equal the price of _tokenId\n    * Requirement: There must be an active offer for _tokenId\n     */\n    function buyPanda(uint256 _tokenId) external payable{\n        Offer memory offer = tokenIdToOffer[_tokenId];\n        require(tokenIdToOffer[_tokenId].price == msg.value,\"Transaction value does not match the price of the token\");\n        require(tokenIdToOffer[_tokenId].active == true);\n\n        // Important: remove offer before paying, to avoid reentry attack\n        tokenIdToOffer[_tokenId].active=false;\n        Offers[tokenIdToOffer[_tokenId].index].active = false;\n\n        //transfer funds to the seller\n        if(offer.price>0){\n            offer.seller.transfer(offer.price);\n        }\n\n        //Transfer ownership of the token\n        _pandaContract.safeTransferFrom(tokenIdToOffer[_tokenId].seller,msg.sender, _tokenId);\n\n\n        emit MarketTransaction(\"Buy\", msg.sender,  _tokenId);\n    }\n}",
  "sourcePath": "/home/ismael/Documents/Projects/GIT/CryptoKitties-clone/contracts/PandaMarketPlace.sol",
  "compiler": {
    "name": "solc",
    "version": "0.5.12+commit.7709ece9.Emscripten.clang"
  },
  "schemaVersion": "3.3.2",
  "updatedAt": "2020-12-07T13:06:47.585Z",
  "devdoc": {
    "methods": {
      "approve(address,uint256)": {
        "details": "The zero address indicates there is no approved address.  Throws unless `msg.sender` is the current NFT owner, or an authorized  operator of the current owner.",
        "params": {
          "_to": "The new approved NFT controller",
          "_tokenId": "The NFT to approve"
        }
      },
      "balanceOf(address)": {
        "details": "Returns the number of tokens in ``owner``'s account."
      },
      "breed(uint32,uint32)": {
        "details": "Throws unless `msg.sender` is the current owner of both NFT",
        "params": {
          "_dadId": "The Dad NFT Id",
          "_mumId": "The Mum NFT Id"
        }
      },
      "getApproved(uint256)": {
        "details": "Throws if `_tokenId` is not a valid NFT.",
        "params": {
          "_tokenId": "The NFT to find the approved address for"
        },
        "return": "The approved address for this NFT, or the zero address if there is none"
      },
      "isApprovedForAll(address,address)": {
        "params": {
          "_operator": "The address that acts on behalf of the owner",
          "_owner": "The address that owns the NFTs"
        },
        "return": "True if `_operator` is an approved operator for `_owner`, false otherwise"
      },
      "ownerOf(uint256)": {
        "details": "Returns the owner of the `tokenId` token.     * Requirements:     * - `tokenId` must exist."
      },
      "safeTransferFrom(address,address,uint256)": {
        "details": "This works identically to the other function with an extra data parameter,  except this function just sets data to \"\".",
        "params": {
          "_from": "The current owner of the NFT",
          "_to": "The new owner",
          "_tokenId": "The NFT to transfer"
        }
      },
      "safeTransferFrom(address,address,uint256,bytes)": {
        "details": "Throws unless `msg.sender` is the current owner, an authorized  operator, or the approved address for this NFT. Throws if `_from` is  not the current owner. Throws if `_to` is the zero address. Throws if  `_tokenId` is not a valid NFT. When transfer is complete, this function  checks if `_to` is a smart contract (code size > 0). If so, it calls  `onERC721Received` on `_to` and throws if the return value is not  `bytes4(keccak256(\"onERC721Received(address,address,uint256,bytes)\"))`.",
        "params": {
          "_from": "The current owner of the NFT",
          "_to": "The new owner",
          "_tokenId": "The NFT to transfer",
          "data": "Additional data with no specified format, sent in call to `_to`"
        }
      },
      "setApprovalForAll(address,bool)": {
        "details": "Emits the ApprovalForAll event. The contract MUST allow  multiple operators per owner.",
        "params": {
          "_approved": "True if the operator is approved, false to revoke approval",
          "_operator": "Address to add to the set of authorized operators"
        }
      },
      "supportsInterface(bytes4)": {
        "details": "checks if interfaceId supports IERC721 or IERC165"
      },
      "transferFrom(address,address,uint256)": {
        "details": "Throws unless `msg.sender` is the current owner, an authorized  operator, or the approved address for this NFT. Throws if `_from` is  not the current owner. Throws if `_to` is the zero address. Throws if  `_tokenId` is not a valid NFT.",
        "params": {
          "_from": "The current owner of the NFT",
          "_to": "The new owner",
          "_tokenId": "The NFT to transfer"
        }
      }
    }
  },
  "userdoc": {
    "methods": {
      "approve(address,uint256)": {
        "notice": "Change or reaffirm the approved address for an NFT"
      },
      "buyPanda(uint256)": {
        "notice": "Executes the purchase of _tokenId. Sends the funds to the seller and transfers the token using transferFrom in PandaContract. Emits the MarketTransaction event with txType \"Buy\". Requirement: The msg.value needs to equal the price of _tokenId Requirement: There must be an active offer for _tokenId"
      },
      "getAllTokenOnSale()": {
        "notice": "Get all tokenId's that are currently for sale. Returns an empty error if none exist."
      },
      "getApproved(uint256)": {
        "notice": "Get the approved address for a single NFT"
      },
      "getOffer(uint256)": {
        "notice": "Get the details about a offer for _tokenId. Throws an error if there is no active offer for _tokenId."
      },
      "isApprovedForAll(address,address)": {
        "notice": "Query if an address is an authorized operator for another address"
      },
      "removeOffer(uint256)": {
        "notice": "Removes an existing offer. Emits the MarketTransaction event with txType \"Remove offer\" Requirement: Only the seller of _tokenId can remove an offer."
      },
      "safeTransferFrom(address,address,uint256)": {
        "notice": "Transfers the ownership of an NFT from one address to another address"
      },
      "safeTransferFrom(address,address,uint256,bytes)": {
        "notice": "Transfers the ownership of an NFT from one address to another address"
      },
      "setApprovalForAll(address,bool)": {
        "notice": "Enable or disable approval for a third party (\"operator\") to manage  all of `msg.sender`'s assets"
      },
      "setOffer(uint256,uint256)": {
        "notice": "Creates a new offer for _tokenId for the price _price. Emits the MarketTransaction event with txType \"Create offer\" Requirement: Only the owner of _tokenId can create an offer. Requirement: There can only be one active offer for a token at a time. Requirement: Marketplace contract (this) needs to be an approved operator when the offer is created."
      },
      "setPandaContract(address)": {
        "notice": "Set the current PandaContract address and initialize the instance of PandaContract. Requirement: Only the contract owner can call."
      },
      "transferFrom(address,address,uint256)": {
        "notice": "Transfer ownership of an NFT -- THE CALLER IS RESPONSIBLE  TO CONFIRM THAT `_to` IS CAPABLE OF RECEIVING NFTS OR ELSE  THEY MAY BE PERMANENTLY LOST"
      }
    }
  }
}