{
  "contractName": "PandaToken",
  "abi": [
    {
      "anonymous": false,
      "inputs": [
        {
          "indexed": true,
          "internalType": "address",
          "name": "owner",
          "type": "address"
        },
        {
          "indexed": true,
          "internalType": "address",
          "name": "approved",
          "type": "address"
        },
        {
          "indexed": true,
          "internalType": "uint256",
          "name": "tokenId",
          "type": "uint256"
        }
      ],
      "name": "Approval",
      "type": "event"
    },
    {
      "anonymous": false,
      "inputs": [
        {
          "indexed": true,
          "internalType": "address",
          "name": "from",
          "type": "address"
        },
        {
          "indexed": true,
          "internalType": "address",
          "name": "to",
          "type": "address"
        },
        {
          "indexed": true,
          "internalType": "uint256",
          "name": "tokenId",
          "type": "uint256"
        }
      ],
      "name": "Transfer",
      "type": "event"
    },
    {
      "constant": true,
      "inputs": [],
      "name": "owner",
      "outputs": [
        {
          "internalType": "address",
          "name": "",
          "type": "address"
        }
      ],
      "payable": false,
      "stateMutability": "view",
      "type": "function"
    },
    {
      "constant": false,
      "inputs": [
        {
          "internalType": "string",
          "name": "_tName",
          "type": "string"
        },
        {
          "internalType": "string",
          "name": "_tSymbol",
          "type": "string"
        }
      ],
      "name": "initialize",
      "outputs": [],
      "payable": false,
      "stateMutability": "nonpayable",
      "type": "function"
    },
    {
      "constant": false,
      "inputs": [],
      "name": "initialize",
      "outputs": [],
      "payable": false,
      "stateMutability": "nonpayable",
      "type": "function"
    },
    {
      "constant": true,
      "inputs": [
        {
          "internalType": "address",
          "name": "owner",
          "type": "address"
        }
      ],
      "name": "balanceOf",
      "outputs": [
        {
          "internalType": "uint256",
          "name": "balance",
          "type": "uint256"
        }
      ],
      "payable": false,
      "stateMutability": "view",
      "type": "function"
    },
    {
      "constant": true,
      "inputs": [],
      "name": "totalSupply",
      "outputs": [
        {
          "internalType": "uint256",
          "name": "total",
          "type": "uint256"
        }
      ],
      "payable": false,
      "stateMutability": "view",
      "type": "function"
    },
    {
      "constant": true,
      "inputs": [],
      "name": "name",
      "outputs": [
        {
          "internalType": "string",
          "name": "tokenName",
          "type": "string"
        }
      ],
      "payable": false,
      "stateMutability": "view",
      "type": "function"
    },
    {
      "constant": true,
      "inputs": [],
      "name": "symbol",
      "outputs": [
        {
          "internalType": "string",
          "name": "tokenSymbol",
          "type": "string"
        }
      ],
      "payable": false,
      "stateMutability": "view",
      "type": "function"
    },
    {
      "constant": true,
      "inputs": [
        {
          "internalType": "uint256",
          "name": "_tokenId",
          "type": "uint256"
        }
      ],
      "name": "ownerOf",
      "outputs": [
        {
          "internalType": "address",
          "name": "owner",
          "type": "address"
        }
      ],
      "payable": false,
      "stateMutability": "view",
      "type": "function"
    },
    {
      "constant": false,
      "inputs": [
        {
          "internalType": "address",
          "name": "_to",
          "type": "address"
        },
        {
          "internalType": "uint256",
          "name": "_tokenId",
          "type": "uint256"
        }
      ],
      "name": "transfer",
      "outputs": [],
      "payable": false,
      "stateMutability": "nonpayable",
      "type": "function"
    }
  ],
  "bytecode": "0x6080604052600a603a60006101000a81548160ff021916908360ff16021790555034801561002c57600080fd5b50610d068061003c6000396000f3fe608060405234801561001057600080fd5b50600436106100935760003560e01c806370a082311161006657806370a08231146102f95780638129fc1c146103515780638da5cb5b1461035b57806395d89b41146103a5578063a9059cbb1461042857610093565b806306fdde031461009857806318160ddd1461011b5780634cd88b76146101395780636352211e1461028b575b600080fd5b6100a0610476565b6040518080602001828103825283818151815260200191508051906020019080838360005b838110156100e05780820151818401526020810190506100c5565b50505050905090810190601f16801561010d5780820380516001836020036101000a031916815260200191505b509250505060405180910390f35b610123610518565b6040518082815260200191505060405180910390f35b6102896004803603604081101561014f57600080fd5b810190808035906020019064010000000081111561016c57600080fd5b82018360208201111561017e57600080fd5b803590602001918460018302840111640100000000831117156101a057600080fd5b91908080601f016020809104026020016040519081016040528093929190818152602001838380828437600081840152601f19601f8201169050808301925050505050505091929192908035906020019064010000000081111561020357600080fd5b82018360208201111561021557600080fd5b8035906020019184600183028401116401000000008311171561023757600080fd5b91908080601f016020809104026020016040519081016040528093929190818152602001838380828437600081840152601f19601f820116905080830192505050505050509192919290505050610525565b005b6102b7600480360360208110156102a157600080fd5b810190808035906020019092919050505061065c565b604051808273ffffffffffffffffffffffffffffffffffffffff1673ffffffffffffffffffffffffffffffffffffffff16815260200191505060405180910390f35b61033b6004803603602081101561030f57600080fd5b81019080803573ffffffffffffffffffffffffffffffffffffffff169060200190929190505050610699565b6040518082815260200191505060405180910390f35b6103596106e2565b005b610363610822565b604051808273ffffffffffffffffffffffffffffffffffffffff1673ffffffffffffffffffffffffffffffffffffffff16815260200191505060405180910390f35b6103ad610848565b6040518080602001828103825283818151815260200191508051906020019080838360005b838110156103ed5780820151818401526020810190506103d2565b50505050905090810190601f16801561041a5780820380516001836020036101000a031916815260200191505b509250505060405180910390f35b6104746004803603604081101561043e57600080fd5b81019080803573ffffffffffffffffffffffffffffffffffffffff169060200190929190803590602001909291905050506108ea565b005b606060388054600181600116156101000203166002900480601f01602080910402602001604051908101604052809291908181526020018280546001816001161561010002031660029004801561050e5780601f106104e35761010080835404028352916020019161050e565b820191906000526020600020905b8154815290600101906020018083116104f157829003601f168201915b5050505050905090565b6000603480549050905090565b600060019054906101000a900460ff168061054457506105436109f9565b5b8061055b57506000809054906101000a900460ff16155b6105b0576040517f08c379a000000000000000000000000000000000000000000000000000000000815260040180806020018281038252602e815260200180610ca4602e913960400191505060405180910390fd5b60008060019054906101000a900460ff161590508015610600576001600060016101000a81548160ff02191690831515021790555060016000806101000a81548160ff0219169083151502179055505b6106086106e2565b826038908051906020019061061e929190610bfe565b508160399080519060200190610635929190610bfe565b5080156106575760008060016101000a81548160ff0219169083151502179055505b505050565b60006037600083815260200190815260200160002060009054906101000a900473ffffffffffffffffffffffffffffffffffffffff169050919050565b6000603660008373ffffffffffffffffffffffffffffffffffffffff1673ffffffffffffffffffffffffffffffffffffffff168152602001908152602001600020549050919050565b600060019054906101000a900460ff168061070157506107006109f9565b5b8061071857506000809054906101000a900460ff16155b61076d576040517f08c379a000000000000000000000000000000000000000000000000000000000815260040180806020018281038252602e815260200180610ca4602e913960400191505060405180910390fd5b60008060019054906101000a900460ff1615905080156107bd576001600060016101000a81548160ff02191690831515021790555060016000806101000a81548160ff0219169083151502179055505b33603360006101000a81548173ffffffffffffffffffffffffffffffffffffffff021916908373ffffffffffffffffffffffffffffffffffffffff160217905550801561081f5760008060016101000a81548160ff0219169083151502179055505b50565b603360009054906101000a900473ffffffffffffffffffffffffffffffffffffffff1681565b606060398054600181600116156101000203166002900480601f0160208091040260200160405190810160405280929190818152602001828054600181600116156101000203166002900480156108e05780601f106108b5576101008083540402835291602001916108e0565b820191906000526020600020905b8154815290600101906020018083116108c357829003601f168201915b5050505050905090565b600073ffffffffffffffffffffffffffffffffffffffff168273ffffffffffffffffffffffffffffffffffffffff16141561092457600080fd5b603360009054906101000a900473ffffffffffffffffffffffffffffffffffffffff1673ffffffffffffffffffffffffffffffffffffffff168273ffffffffffffffffffffffffffffffffffffffff16141561097f57600080fd5b3373ffffffffffffffffffffffffffffffffffffffff166037600083815260200190815260200160002060009054906101000a900473ffffffffffffffffffffffffffffffffffffffff1673ffffffffffffffffffffffffffffffffffffffff16146109ea57600080fd5b6109f5338383610a10565b5050565b6000803090506000813b9050600081149250505090565b603660008373ffffffffffffffffffffffffffffffffffffffff1673ffffffffffffffffffffffffffffffffffffffff16815260200190815260200160002060008154809291906001019190505550816037600083815260200190815260200160002060006101000a81548173ffffffffffffffffffffffffffffffffffffffff021916908373ffffffffffffffffffffffffffffffffffffffff160217905550600073ffffffffffffffffffffffffffffffffffffffff168373ffffffffffffffffffffffffffffffffffffffff1614610b3657603660008473ffffffffffffffffffffffffffffffffffffffff1673ffffffffffffffffffffffffffffffffffffffff16815260200190815260200160002060008154809291906001900391905055505b8173ffffffffffffffffffffffffffffffffffffffff166037600083815260200190815260200160002060009054906101000a900473ffffffffffffffffffffffffffffffffffffffff1673ffffffffffffffffffffffffffffffffffffffff1614610b9e57fe5b808273ffffffffffffffffffffffffffffffffffffffff168473ffffffffffffffffffffffffffffffffffffffff167fddf252ad1be2c89b69c2b068fc378daa952ba7f163c4a11628f55a4df523b3ef60405160405180910390a4505050565b828054600181600116156101000203166002900490600052602060002090601f016020900481019282601f10610c3f57805160ff1916838001178555610c6d565b82800160010185558215610c6d579182015b82811115610c6c578251825591602001919060010190610c51565b5b509050610c7a9190610c7e565b5090565b610ca091905b80821115610c9c576000816000905550600101610c84565b5090565b9056fe436f6e747261637420696e7374616e63652068617320616c7265616479206265656e20696e697469616c697a6564a265627a7a72315820f48142e03588ca5603e7967d8b365e1a1d4a1c27fa1dea25d6673775e86918e964736f6c634300050c0032",
  "source": "pragma solidity ^0.5.12;\n\nimport \"./Ownable.sol\";\nimport \"./IERC721.sol\";\nimport \"./PandaStorage.sol\";\n\nimport \"@openzeppelin/upgrades/contracts/Initializable.sol\";\n\ncontract PandaToken is Initializable, IERC721, Ownable, PandaStorage{\n\n    function initialize(string memory _tName, string memory _tSymbol) public initializer{\n        Ownable.initialize();\n        _TokenName= _tName;\n        _TokenSymbol = _tSymbol;\n    }\n\n    /**\n     * @dev Emitted when `tokenId` token is transfered from `from` to `to`.\n     */\n    event Transfer(address indexed from, address indexed to, uint256 indexed tokenId);\n\n   /**\n     * @dev Returns the number of tokens in ``owner``'s account.\n     */\n    function balanceOf(address owner) public view returns (uint256 balance){\n        return _OwnerAnimalCount[owner];\n    }\n\n    /*\n     * @dev Returns the total number of tokens in circulation.\n     */\n    function totalSupply() public view returns (uint256 total){\n        return _pandas.length;\n    }\n\n    /*\n     * @dev Returns the name of the token.\n     */\n    function name() external view returns (string memory tokenName){\n        return _TokenName;\n    }\n\n    /*\n     * @dev Returns the symbol of the token.\n     */\n    function symbol() external view returns (string memory tokenSymbol){\n        return _TokenSymbol;\n    }\n\n    /**\n     * @dev Returns the owner of the `tokenId` token.\n     *\n     * Requirements:\n     *\n     * - `tokenId` must exist.\n     */\n    function ownerOf(uint256 _tokenId) external view returns (address owner){\n        return _PandaOwner[_tokenId];\n    }\n\n\n     /* @dev Transfers `tokenId` token from `msg.sender` to `to`.   */\n    function transfer(address _to, uint256 _tokenId) external{\n        require( _to != address(0));\n        require( _to != owner);\n        require(_PandaOwner[_tokenId] == msg.sender);\n\n        _transfer(msg.sender,_to,_tokenId);\n    }\n\n    function _transfer(address _from,address _to, uint256 _tokenId) internal {\n        _OwnerAnimalCount[_to]++;\n        _PandaOwner[_tokenId]=_to;\n\n        if(_from != address(0) ){\n            _OwnerAnimalCount[_from]--;\n        }\n\n        assert(_PandaOwner[_tokenId]==_to);\n\n        emit Transfer(_from, _to,  _tokenId);\n    }\n}",
  "sourcePath": "/home/ismael/Documents/Blockchain Bootcamp/GIT/CryptoKitties-clone/contracts/PandaToken.sol",
  "compiler": {
    "name": "solc",
    "version": "0.5.12+commit.7709ece9.Emscripten.clang"
  },
  "schemaVersion": "3.2.0",
  "updatedAt": "2020-11-02T12:04:50.242Z",
  "devdoc": {
    "methods": {
      "balanceOf(address)": {
        "details": "Returns the number of tokens in ``owner``'s account."
      },
      "ownerOf(uint256)": {
        "details": "Returns the owner of the `tokenId` token.     * Requirements:     * - `tokenId` must exist."
      }
    }
  },
  "userdoc": {
    "methods": {}
  }
}