{
  "contractName": "PandaToken",
  "abi": [
    {
      "anonymous": false,
      "inputs": [
        {
          "indexed": true,
          "internalType": "address",
          "name": "owner",
          "type": "address"
        },
        {
          "indexed": true,
          "internalType": "address",
          "name": "approved",
          "type": "address"
        },
        {
          "indexed": true,
          "internalType": "uint256",
          "name": "tokenId",
          "type": "uint256"
        }
      ],
      "name": "Approval",
      "type": "event"
    },
    {
      "anonymous": false,
      "inputs": [
        {
          "indexed": true,
          "internalType": "address",
          "name": "owner",
          "type": "address"
        },
        {
          "indexed": true,
          "internalType": "address",
          "name": "operator",
          "type": "address"
        },
        {
          "indexed": false,
          "internalType": "bool",
          "name": "approved",
          "type": "bool"
        }
      ],
      "name": "ApprovalForAll",
      "type": "event"
    },
    {
      "anonymous": false,
      "inputs": [
        {
          "indexed": true,
          "internalType": "address",
          "name": "from",
          "type": "address"
        },
        {
          "indexed": true,
          "internalType": "address",
          "name": "to",
          "type": "address"
        },
        {
          "indexed": true,
          "internalType": "uint256",
          "name": "tokenId",
          "type": "uint256"
        }
      ],
      "name": "Transfer",
      "type": "event"
    },
    {
      "constant": true,
      "inputs": [],
      "name": "owner",
      "outputs": [
        {
          "internalType": "address",
          "name": "",
          "type": "address"
        }
      ],
      "payable": false,
      "stateMutability": "view",
      "type": "function"
    },
    {
      "constant": false,
      "inputs": [
        {
          "internalType": "string",
          "name": "_tName",
          "type": "string"
        },
        {
          "internalType": "string",
          "name": "_tSymbol",
          "type": "string"
        }
      ],
      "name": "initialize",
      "outputs": [],
      "payable": false,
      "stateMutability": "nonpayable",
      "type": "function"
    },
    {
      "constant": true,
      "inputs": [
        {
          "internalType": "address",
          "name": "owner",
          "type": "address"
        }
      ],
      "name": "balanceOf",
      "outputs": [
        {
          "internalType": "uint256",
          "name": "balance",
          "type": "uint256"
        }
      ],
      "payable": false,
      "stateMutability": "view",
      "type": "function"
    },
    {
      "constant": true,
      "inputs": [],
      "name": "totalSupply",
      "outputs": [
        {
          "internalType": "uint256",
          "name": "total",
          "type": "uint256"
        }
      ],
      "payable": false,
      "stateMutability": "view",
      "type": "function"
    },
    {
      "constant": true,
      "inputs": [],
      "name": "name",
      "outputs": [
        {
          "internalType": "string",
          "name": "tokenName",
          "type": "string"
        }
      ],
      "payable": false,
      "stateMutability": "view",
      "type": "function"
    },
    {
      "constant": true,
      "inputs": [],
      "name": "symbol",
      "outputs": [
        {
          "internalType": "string",
          "name": "tokenSymbol",
          "type": "string"
        }
      ],
      "payable": false,
      "stateMutability": "view",
      "type": "function"
    },
    {
      "constant": true,
      "inputs": [
        {
          "internalType": "uint256",
          "name": "_tokenId",
          "type": "uint256"
        }
      ],
      "name": "ownerOf",
      "outputs": [
        {
          "internalType": "address",
          "name": "owner",
          "type": "address"
        }
      ],
      "payable": false,
      "stateMutability": "view",
      "type": "function"
    },
    {
      "constant": false,
      "inputs": [
        {
          "internalType": "address",
          "name": "_to",
          "type": "address"
        },
        {
          "internalType": "uint256",
          "name": "_tokenId",
          "type": "uint256"
        }
      ],
      "name": "transfer",
      "outputs": [],
      "payable": false,
      "stateMutability": "nonpayable",
      "type": "function"
    },
    {
      "constant": false,
      "inputs": [
        {
          "internalType": "address",
          "name": "_to",
          "type": "address"
        },
        {
          "internalType": "uint256",
          "name": "_tokenId",
          "type": "uint256"
        }
      ],
      "name": "approve",
      "outputs": [],
      "payable": false,
      "stateMutability": "nonpayable",
      "type": "function"
    },
    {
      "constant": true,
      "inputs": [
        {
          "internalType": "uint256",
          "name": "_tokenId",
          "type": "uint256"
        }
      ],
      "name": "getApproved",
      "outputs": [
        {
          "internalType": "address",
          "name": "",
          "type": "address"
        }
      ],
      "payable": false,
      "stateMutability": "view",
      "type": "function"
    },
    {
      "constant": true,
      "inputs": [
        {
          "internalType": "address",
          "name": "_owner",
          "type": "address"
        },
        {
          "internalType": "address",
          "name": "_operator",
          "type": "address"
        }
      ],
      "name": "isApprovedForAll",
      "outputs": [
        {
          "internalType": "bool",
          "name": "",
          "type": "bool"
        }
      ],
      "payable": false,
      "stateMutability": "view",
      "type": "function"
    },
    {
      "constant": false,
      "inputs": [
        {
          "internalType": "address",
          "name": "_operator",
          "type": "address"
        },
        {
          "internalType": "bool",
          "name": "_approved",
          "type": "bool"
        }
      ],
      "name": "setApprovalForAll",
      "outputs": [],
      "payable": false,
      "stateMutability": "nonpayable",
      "type": "function"
    },
    {
      "constant": false,
      "inputs": [
        {
          "internalType": "address",
          "name": "_from",
          "type": "address"
        },
        {
          "internalType": "address",
          "name": "_to",
          "type": "address"
        },
        {
          "internalType": "uint256",
          "name": "_tokenId",
          "type": "uint256"
        }
      ],
      "name": "transferFrom",
      "outputs": [],
      "payable": false,
      "stateMutability": "nonpayable",
      "type": "function"
    },
    {
      "constant": false,
      "inputs": [
        {
          "internalType": "address",
          "name": "_from",
          "type": "address"
        },
        {
          "internalType": "address",
          "name": "_to",
          "type": "address"
        },
        {
          "internalType": "uint256",
          "name": "_tokenId",
          "type": "uint256"
        }
      ],
      "name": "safeTransferFrom",
      "outputs": [],
      "payable": false,
      "stateMutability": "nonpayable",
      "type": "function"
    },
    {
      "constant": false,
      "inputs": [
        {
          "internalType": "address",
          "name": "_from",
          "type": "address"
        },
        {
          "internalType": "address",
          "name": "_to",
          "type": "address"
        },
        {
          "internalType": "uint256",
          "name": "_tokenId",
          "type": "uint256"
        },
        {
          "internalType": "bytes",
          "name": "data",
          "type": "bytes"
        }
      ],
      "name": "safeTransferFrom",
      "outputs": [],
      "payable": false,
      "stateMutability": "nonpayable",
      "type": "function"
    },
    {
      "constant": true,
      "inputs": [
        {
          "internalType": "bytes4",
          "name": "interfaceId",
          "type": "bytes4"
        }
      ],
      "name": "supportsInterface",
      "outputs": [
        {
          "internalType": "bool",
          "name": "",
          "type": "bool"
        }
      ],
      "payable": false,
      "stateMutability": "pure",
      "type": "function"
    }
  ],
  "bytecode": "0x6080604052600a600960006101000a81548160ff021916908360ff160217905550336000806101000a81548173ffffffffffffffffffffffffffffffffffffffff021916908373ffffffffffffffffffffffffffffffffffffffff160217905550611d468061006f6000396000f3fe608060405234801561001057600080fd5b50600436106101005760003560e01c80636352211e11610097578063a22cb46511610066578063a22cb46514610688578063a9059cbb146106d8578063b88d4fde14610726578063e985e9c51461082b57610100565b80636352211e146104f557806370a08231146105635780638da5cb5b146105bb57806395d89b411461060557610100565b806318160ddd116100d357806318160ddd146102a957806323b872dd146102c757806342842e0e146103355780634cd88b76146103a357610100565b806301ffc9a71461010557806306fdde031461016a578063081812fc146101ed578063095ea7b31461025b575b600080fd5b6101506004803603602081101561011b57600080fd5b8101908080357bffffffffffffffffffffffffffffffffffffffffffffffffffffffff191690602001909291905050506108a7565b604051808215151515815260200191505060405180910390f35b610172610947565b6040518080602001828103825283818151815260200191508051906020019080838360005b838110156101b2578082015181840152602081019050610197565b50505050905090810190601f1680156101df5780820380516001836020036101000a031916815260200191505b509250505060405180910390f35b6102196004803603602081101561020357600080fd5b81019080803590602001909291905050506109e9565b604051808273ffffffffffffffffffffffffffffffffffffffff1673ffffffffffffffffffffffffffffffffffffffff16815260200191505060405180910390f35b6102a76004803603604081101561027157600080fd5b81019080803573ffffffffffffffffffffffffffffffffffffffff16906020019092919080359060200190929190505050610a2e565b005b6102b1610c07565b6040518082815260200191505060405180910390f35b610333600480360360608110156102dd57600080fd5b81019080803573ffffffffffffffffffffffffffffffffffffffff169060200190929190803573ffffffffffffffffffffffffffffffffffffffff16906020019092919080359060200190929190505050610c14565b005b6103a16004803603606081101561034b57600080fd5b81019080803573ffffffffffffffffffffffffffffffffffffffff169060200190929190803573ffffffffffffffffffffffffffffffffffffffff16906020019092919080359060200190929190505050610e81565b005b6104f3600480360360408110156103b957600080fd5b81019080803590602001906401000000008111156103d657600080fd5b8201836020820111156103e857600080fd5b8035906020019184600183028401116401000000008311171561040a57600080fd5b91908080601f016020809104026020016040519081016040528093929190818152602001838380828437600081840152601f19601f8201169050808301925050505050505091929192908035906020019064010000000081111561046d57600080fd5b82018360208201111561047f57600080fd5b803590602001918460018302840111640100000000831117156104a157600080fd5b91908080601f016020809104026020016040519081016040528093929190818152602001838380828437600081840152601f19601f820116905080830192505050505050509192919290505050610ea1565b005b6105216004803603602081101561050b57600080fd5b8101908080359060200190929190505050610fd4565b604051808273ffffffffffffffffffffffffffffffffffffffff1673ffffffffffffffffffffffffffffffffffffffff16815260200191505060405180910390f35b6105a56004803603602081101561057957600080fd5b81019080803573ffffffffffffffffffffffffffffffffffffffff169060200190929190505050611011565b6040518082815260200191505060405180910390f35b6105c361105a565b604051808273ffffffffffffffffffffffffffffffffffffffff1673ffffffffffffffffffffffffffffffffffffffff16815260200191505060405180910390f35b61060d61107f565b6040518080602001828103825283818151815260200191508051906020019080838360005b8381101561064d578082015181840152602081019050610632565b50505050905090810190601f16801561067a5780820380516001836020036101000a031916815260200191505b509250505060405180910390f35b6106d66004803603604081101561069e57600080fd5b81019080803573ffffffffffffffffffffffffffffffffffffffff169060200190929190803515159060200190929190505050611121565b005b610724600480360360408110156106ee57600080fd5b81019080803573ffffffffffffffffffffffffffffffffffffffff169060200190929190803590602001909291905050506112f6565b005b6108296004803603608081101561073c57600080fd5b81019080803573ffffffffffffffffffffffffffffffffffffffff169060200190929190803573ffffffffffffffffffffffffffffffffffffffff16906020019092919080359060200190929190803590602001906401000000008111156107a357600080fd5b8201836020820111156107b557600080fd5b803590602001918460018302840111640100000000831117156107d757600080fd5b91908080601f016020809104026020016040519081016040528093929190818152602001838380828437600081840152601f19601f820116905080830192505050505050509192919290505050611404565b005b61088d6004803603604081101561084157600080fd5b81019080803573ffffffffffffffffffffffffffffffffffffffff169060200190929190803573ffffffffffffffffffffffffffffffffffffffff16906020019092919050505061142b565b604051808215151515815260200191505060405180910390f35b60006380ac58cd60e01b7bffffffffffffffffffffffffffffffffffffffffffffffffffffffff1916827bffffffffffffffffffffffffffffffffffffffffffffffffffffffff1916148061094057506301ffc9a760e01b7bffffffffffffffffffffffffffffffffffffffffffffffffffffffff1916827bffffffffffffffffffffffffffffffffffffffffffffffffffffffff1916145b9050919050565b606060078054600181600116156101000203166002900480601f0160208091040260200160405190810160405280929190818152602001828054600181600116156101000203166002900480156109df5780601f106109b4576101008083540402835291602001916109df565b820191906000526020600020905b8154815290600101906020018083116109c257829003601f168201915b5050505050905090565b6000806109f4610c07565b116109fe57600080fd5b60008210158015610a155750610a12610c07565b82105b610a1e57600080fd5b610a27826114bf565b9050919050565b600073ffffffffffffffffffffffffffffffffffffffff163373ffffffffffffffffffffffffffffffffffffffff161415610a6857600080fd5b3373ffffffffffffffffffffffffffffffffffffffff166004600083815260200190815260200160002060009054906101000a900473ffffffffffffffffffffffffffffffffffffffff1673ffffffffffffffffffffffffffffffffffffffff161480610b95575060011515600660006004600085815260200190815260200160002060009054906101000a900473ffffffffffffffffffffffffffffffffffffffff1673ffffffffffffffffffffffffffffffffffffffff1673ffffffffffffffffffffffffffffffffffffffff16815260200190815260200160002060003373ffffffffffffffffffffffffffffffffffffffff1673ffffffffffffffffffffffffffffffffffffffff16815260200190815260200160002060009054906101000a900460ff161515145b610b9e57600080fd5b610ba882826114fc565b808273ffffffffffffffffffffffffffffffffffffffff163373ffffffffffffffffffffffffffffffffffffffff167f8c5be1e5ebec7d5bd14f71427d1e84f3dd0314c0f7b2291e5b200ac8c7c3b92560405160405180910390a45050565b6000600180549050905090565b600073ffffffffffffffffffffffffffffffffffffffff168273ffffffffffffffffffffffffffffffffffffffff161415610c4e57600080fd5b3373ffffffffffffffffffffffffffffffffffffffff166004600083815260200190815260200160002060009054906101000a900473ffffffffffffffffffffffffffffffffffffffff1673ffffffffffffffffffffffffffffffffffffffff161480610d1957503373ffffffffffffffffffffffffffffffffffffffff166005600083815260200190815260200160002060009054906101000a900473ffffffffffffffffffffffffffffffffffffffff1673ffffffffffffffffffffffffffffffffffffffff16145b80610ddd5750600660006004600084815260200190815260200160002060009054906101000a900473ffffffffffffffffffffffffffffffffffffffff1673ffffffffffffffffffffffffffffffffffffffff1673ffffffffffffffffffffffffffffffffffffffff16815260200190815260200160002060003373ffffffffffffffffffffffffffffffffffffffff1673ffffffffffffffffffffffffffffffffffffffff16815260200190815260200160002060009054906101000a900460ff165b610de657600080fd5b6004600082815260200190815260200160002060009054906101000a900473ffffffffffffffffffffffffffffffffffffffff1673ffffffffffffffffffffffffffffffffffffffff168373ffffffffffffffffffffffffffffffffffffffff1614610e5157600080fd5b60008110158015610e685750610e65610c07565b81105b610e7157600080fd5b610e7c838383611552565b505050565b610e9c83838360405180602001604052806000815250611404565b505050565b600960029054906101000a900460ff1680610ec05750610ebf611776565b5b80610ed85750600960019054906101000a900460ff16155b610f2d576040517f08c379a000000000000000000000000000000000000000000000000000000000815260040180806020018281038252602e815260200180611ce4602e913960400191505060405180910390fd5b6000600960029054906101000a900460ff161590508015610f7f576001600960026101000a81548160ff0219169083151502179055506001600960016101000a81548160ff0219169083151502179055505b8260079080519060200190610f95929190611c0f565b508160089080519060200190610fac929190611c0f565b508015610fcf576000600960026101000a81548160ff0219169083151502179055505b505050565b60006004600083815260200190815260200160002060009054906101000a900473ffffffffffffffffffffffffffffffffffffffff169050919050565b6000600360008373ffffffffffffffffffffffffffffffffffffffff1673ffffffffffffffffffffffffffffffffffffffff168152602001908152602001600020549050919050565b6000809054906101000a900473ffffffffffffffffffffffffffffffffffffffff1681565b606060088054600181600116156101000203166002900480601f0160208091040260200160405190810160405280929190818152602001828054600181600116156101000203166002900480156111175780601f106110ec57610100808354040283529160200191611117565b820191906000526020600020905b8154815290600101906020018083116110fa57829003601f168201915b5050505050905090565b600073ffffffffffffffffffffffffffffffffffffffff163373ffffffffffffffffffffffffffffffffffffffff16141561115b57600080fd5b801515600660003373ffffffffffffffffffffffffffffffffffffffff1673ffffffffffffffffffffffffffffffffffffffff16815260200190815260200160002060008473ffffffffffffffffffffffffffffffffffffffff1673ffffffffffffffffffffffffffffffffffffffff16815260200190815260200160002060009054906101000a900460ff16151514156111f557600080fd5b80600660003373ffffffffffffffffffffffffffffffffffffffff1673ffffffffffffffffffffffffffffffffffffffff16815260200190815260200160002060008473ffffffffffffffffffffffffffffffffffffffff1673ffffffffffffffffffffffffffffffffffffffff16815260200190815260200160002060006101000a81548160ff0219169083151502179055508173ffffffffffffffffffffffffffffffffffffffff163373ffffffffffffffffffffffffffffffffffffffff167f17307eab39ab6107e8899845ad3d59bd9653f200f220920489ca2b5937696c3183604051808215151515815260200191505060405180910390a35050565b600073ffffffffffffffffffffffffffffffffffffffff168273ffffffffffffffffffffffffffffffffffffffff16141561133057600080fd5b6000809054906101000a900473ffffffffffffffffffffffffffffffffffffffff1673ffffffffffffffffffffffffffffffffffffffff168273ffffffffffffffffffffffffffffffffffffffff16141561138a57600080fd5b3373ffffffffffffffffffffffffffffffffffffffff166004600083815260200190815260200160002060009054906101000a900473ffffffffffffffffffffffffffffffffffffffff1673ffffffffffffffffffffffffffffffffffffffff16146113f557600080fd5b611400338383611552565b5050565b6114103385858561178d565b61141957600080fd5b611425848484846119ec565b50505050565b6000600660008473ffffffffffffffffffffffffffffffffffffffff1673ffffffffffffffffffffffffffffffffffffffff16815260200190815260200160002060008373ffffffffffffffffffffffffffffffffffffffff1673ffffffffffffffffffffffffffffffffffffffff16815260200190815260200160002060009054906101000a900460ff16905092915050565b60006005600083815260200190815260200160002060009054906101000a900473ffffffffffffffffffffffffffffffffffffffff169050919050565b816005600083815260200190815260200160002060006101000a81548173ffffffffffffffffffffffffffffffffffffffff021916908373ffffffffffffffffffffffffffffffffffffffff1602179055505050565b600360008373ffffffffffffffffffffffffffffffffffffffff1673ffffffffffffffffffffffffffffffffffffffff16815260200190815260200160002060008154809291906001019190505550816004600083815260200190815260200160002060006101000a81548173ffffffffffffffffffffffffffffffffffffffff021916908373ffffffffffffffffffffffffffffffffffffffff160217905550600073ffffffffffffffffffffffffffffffffffffffff168373ffffffffffffffffffffffffffffffffffffffff16146116ae57600360008473ffffffffffffffffffffffffffffffffffffffff1673ffffffffffffffffffffffffffffffffffffffff16815260200190815260200160002060008154809291906001900391905055506005600082815260200190815260200160002060006101000a81549073ffffffffffffffffffffffffffffffffffffffff02191690555b8173ffffffffffffffffffffffffffffffffffffffff166004600083815260200190815260200160002060009054906101000a900473ffffffffffffffffffffffffffffffffffffffff1673ffffffffffffffffffffffffffffffffffffffff161461171657fe5b808273ffffffffffffffffffffffffffffffffffffffff168473ffffffffffffffffffffffffffffffffffffffff167fddf252ad1be2c89b69c2b068fc378daa952ba7f163c4a11628f55a4df523b3ef60405160405180910390a4505050565b6000803090506000813b9050600081149250505090565b60008073ffffffffffffffffffffffffffffffffffffffff168373ffffffffffffffffffffffffffffffffffffffff1614156117c857600080fd5b6004600083815260200190815260200160002060009054906101000a900473ffffffffffffffffffffffffffffffffffffffff1673ffffffffffffffffffffffffffffffffffffffff168473ffffffffffffffffffffffffffffffffffffffff161461183357600080fd5b6000821015801561184a5750611847610c07565b82105b61185357600080fd5b8473ffffffffffffffffffffffffffffffffffffffff166004600084815260200190815260200160002060009054906101000a900473ffffffffffffffffffffffffffffffffffffffff1673ffffffffffffffffffffffffffffffffffffffff16148061191e57508473ffffffffffffffffffffffffffffffffffffffff166005600084815260200190815260200160002060009054906101000a900473ffffffffffffffffffffffffffffffffffffffff1673ffffffffffffffffffffffffffffffffffffffff16145b806119e25750600660006004600085815260200190815260200160002060009054906101000a900473ffffffffffffffffffffffffffffffffffffffff1673ffffffffffffffffffffffffffffffffffffffff1673ffffffffffffffffffffffffffffffffffffffff16815260200190815260200160002060008673ffffffffffffffffffffffffffffffffffffffff1673ffffffffffffffffffffffffffffffffffffffff16815260200190815260200160002060009054906101000a900460ff165b9050949350505050565b6119f7848484611552565b611a0384848484611a12565b611a0c57600080fd5b50505050565b6000611a1d84611bf6565b611a2a5760019050611bee565b60008473ffffffffffffffffffffffffffffffffffffffff1663150b7a02338887876040518563ffffffff1660e01b8152600401808573ffffffffffffffffffffffffffffffffffffffff1673ffffffffffffffffffffffffffffffffffffffff1681526020018473ffffffffffffffffffffffffffffffffffffffff1673ffffffffffffffffffffffffffffffffffffffff16815260200183815260200180602001828103825283818151815260200191508051906020019080838360005b83811015611b05578082015181840152602081019050611aea565b50505050905090810190601f168015611b325780820380516001836020036101000a031916815260200191505b5095505050505050602060405180830381600087803b158015611b5457600080fd5b505af1158015611b68573d6000803e3d6000fd5b505050506040513d6020811015611b7e57600080fd5b810190808051906020019092919050505090506040518080611cb5602f9139602f01905060405180910390207bffffffffffffffffffffffffffffffffffffffffffffffffffffffff1916817bffffffffffffffffffffffffffffffffffffffffffffffffffffffff1916149150505b949350505050565b600080823b905060008163ffffffff1611915050919050565b828054600181600116156101000203166002900490600052602060002090601f016020900481019282601f10611c5057805160ff1916838001178555611c7e565b82800160010185558215611c7e579182015b82811115611c7d578251825591602001919060010190611c62565b5b509050611c8b9190611c8f565b5090565b611cb191905b80821115611cad576000816000905550600101611c95565b5090565b9056fe6f6e455243373231526563656976656428616464726573732c616464726573732c75696e743235362c627974657329436f6e747261637420696e7374616e63652068617320616c7265616479206265656e20696e697469616c697a6564a265627a7a72315820deea6e60592cc811f8156df93ac194518d5027296733efc31ea8872cb5422c3564736f6c634300050c0032",
  "source": "pragma solidity ^0.5.12;\n\nimport \"./IERC721.sol\";\nimport \"./IRC721Receiver.sol\";\nimport \"./PandaStorage.sol\";\n\n\ncontract PandaToken is IERC721, Ownable, PandaStorage, Initializable{\n\n    function initialize(string memory _tName, string memory _tSymbol) public initializer{\n        //Ownable.initialize();\n        _TokenName= _tName;\n        _TokenSymbol = _tSymbol;\n    }\n\n    /**\n     * @dev Emitted when `tokenId` token is transfered from `from` to `to`.\n     */\n    event Transfer(address indexed from, address indexed to, uint256 indexed tokenId);\n\n    /**\n     * @dev Emitted when `owner` enables `approved` to manage the `tokenId` token.\n     */\n    event Approval(address indexed owner, address indexed approved, uint256 indexed tokenId);\n\n    /**\n     * @dev Emitted when `owner` enables or disables (`approved`) `operator` to manage all of its assets.\n     */\n    event ApprovalForAll(address indexed owner, address indexed operator, bool approved);\n\n   /**\n     * @dev Returns the number of tokens in ``owner``'s account.\n     */\n    function balanceOf(address owner) public view returns (uint256 balance){\n        return _OwnerAnimalCount[owner];\n    }\n\n    /*\n     * @dev Returns the total number of tokens in circulation.\n     */\n    function totalSupply() public view returns (uint256 total){\n        return _pandas.length;\n    }\n\n    /*\n     * @dev Returns the name of the token.\n     */\n    function name() external view returns (string memory tokenName){\n        return _TokenName;\n    }\n\n    /*\n     * @dev Returns the symbol of the token.\n     */\n    function symbol() external view returns (string memory tokenSymbol){\n        return _TokenSymbol;\n    }\n\n    /**\n     * @dev Returns the owner of the `tokenId` token.\n     *\n     * Requirements:\n     *\n     * - `tokenId` must exist.\n     */\n    function ownerOf(uint256 _tokenId) external view returns (address owner){\n        return _PandaOwner[_tokenId];\n    }\n\n\n    /* @dev Transfers `tokenId` token from `msg.sender` to `to`.\n     *\n     *\n     * Requirements:\n     *\n     * - `to` cannot be the zero address.\n     * - `to` can not be the contract address.\n     * - `tokenId` token must be owned by `msg.sender`.\n     *\n     * Emits a {Transfer} event.\n     */\n    function transfer(address _to, uint256 _tokenId) external{\n        require( _to != address(0));\n        require( _to != owner);\n        require(_PandaOwner[_tokenId] == msg.sender);\n\n        _transfer(msg.sender,_to,_tokenId);\n    }\n\n    function _transfer(address _from,address _to, uint256 _tokenId) internal {\n        _OwnerAnimalCount[_to]++;\n        _PandaOwner[_tokenId]=_to;\n\n        if(_from != address(0) ){\n            _OwnerAnimalCount[_from]--;\n            delete _PandaIndexToApproved[_tokenId];\n        }\n\n        assert(_PandaOwner[_tokenId]==_to);\n\n        emit Transfer(_from, _to,  _tokenId);\n    }\n\n    /// @notice Change or reaffirm the approved address for an NFT\n    /// @dev The zero address indicates there is no approved address.\n    ///  Throws unless `msg.sender` is the current NFT owner, or an authorized\n    ///  operator of the current owner.\n    /// @param _to The new approved NFT controller\n    /// @param _tokenId The NFT to approve\n    function approve(address _to, uint256 _tokenId) external{\n        require( msg.sender != address(0));\n        require(_PandaOwner[_tokenId] == msg.sender || _operatorApproval[ _PandaOwner[_tokenId] ][msg.sender] == true);\n\n        _approve(_to,_tokenId);\n\n        emit Approval(msg.sender, _to,_tokenId);\n    }\n\n    function _approve(address _to, uint256 _tokenId) internal{\n        _PandaIndexToApproved[_tokenId] = _to;\n    }\n\n    /// @notice Get the approved address for a single NFT\n    /// @dev Throws if `_tokenId` is not a valid NFT.\n    /// @param _tokenId The NFT to find the approved address for\n    /// @return The approved address for this NFT, or the zero address if there is none\n    function getApproved(uint256 _tokenId) external view returns (address){\n        require(totalSupply()>0);\n        require(_tokenId>=0 && _tokenId < totalSupply());\n        \n        return _getApproved(_tokenId);\n    }\n\n    function _getApproved(uint256 _tokenId) internal view returns (address){\n        return _PandaIndexToApproved[_tokenId];\n    }\n\n    /// @notice Query if an address is an authorized operator for another address\n    /// @param _owner The address that owns the NFTs\n    /// @param _operator The address that acts on behalf of the owner\n    /// @return True if `_operator` is an approved operator for `_owner`, false otherwise\n    function isApprovedForAll(address _owner, address _operator) external view returns (bool){\n        return _operatorApproval[_owner][_operator];\n    }\n\n    /// @notice Enable or disable approval for a third party (\"operator\") to manage\n    ///  all of `msg.sender`'s assets\n    /// @dev Emits the ApprovalForAll event. The contract MUST allow\n    ///  multiple operators per owner.\n    /// @param _operator Address to add to the set of authorized operators\n    /// @param _approved True if the operator is approved, false to revoke approval\n    function setApprovalForAll(address _operator, bool _approved) external{\n        require( msg.sender != address(0));\n        require(_operatorApproval[msg.sender][_operator] != _approved);\n\n        _operatorApproval[msg.sender][_operator] = _approved;\n\n        emit ApprovalForAll(msg.sender, _operator, _approved);\n    }    \n\n    /// @notice Transfer ownership of an NFT -- THE CALLER IS RESPONSIBLE\n    ///  TO CONFIRM THAT `_to` IS CAPABLE OF RECEIVING NFTS OR ELSE\n    ///  THEY MAY BE PERMANENTLY LOST\n    /// @dev Throws unless `msg.sender` is the current owner, an authorized\n    ///  operator, or the approved address for this NFT. Throws if `_from` is\n    ///  not the current owner. Throws if `_to` is the zero address. Throws if\n    ///  `_tokenId` is not a valid NFT.\n    /// @param _from The current owner of the NFT\n    /// @param _to The new owner\n    /// @param _tokenId The NFT to transfer\n    function transferFrom(address _from, address _to, uint256 _tokenId) external{\n        require(_to != address(0));\n        require(_PandaOwner[_tokenId] == msg.sender ||\n                 _PandaIndexToApproved[_tokenId] == msg.sender ||\n                 _operatorApproval[_PandaOwner[_tokenId]][msg.sender]\n                 );\n        require(_from == _PandaOwner[_tokenId]);        \n        require(_tokenId>=0 && _tokenId < totalSupply());\n\n        _transfer(_from, _to, _tokenId);\n    }\n    \n    /// @notice Transfers the ownership of an NFT from one address to another address\n    /// @dev Throws unless `msg.sender` is the current owner, an authorized\n    ///  operator, or the approved address for this NFT. Throws if `_from` is\n    ///  not the current owner. Throws if `_to` is the zero address. Throws if\n    ///  `_tokenId` is not a valid NFT. When transfer is complete, this function\n    ///  checks if `_to` is a smart contract (code size > 0). If so, it calls\n    ///  `onERC721Received` on `_to` and throws if the return value is not\n    ///  `bytes4(keccak256(\"onERC721Received(address,address,uint256,bytes)\"))`.\n    /// @param _from The current owner of the NFT\n    /// @param _to The new owner\n    /// @param _tokenId The NFT to transfer\n    /// @param data Additional data with no specified format, sent in call to `_to`\n    function safeTransferFrom(address _from, address _to, uint256 _tokenId, bytes memory data) public{\n        require(_isApprovedOrOwner(msg.sender,_from,_to, _tokenId));\n\n        _safeTransfer(_from, _to, _tokenId, data);\n    }\n\n    /// @notice Transfers the ownership of an NFT from one address to another address\n    /// @dev This works identically to the other function with an extra data parameter,\n    ///  except this function just sets data to \"\".\n    /// @param _from The current owner of the NFT\n    /// @param _to The new owner\n    /// @param _tokenId The NFT to transfer\n    function safeTransferFrom(address _from, address _to, uint256 _tokenId) external{\n        safeTransferFrom(_from, _to, _tokenId, \"\");\n    }\n\n    function _safeTransfer(address _from, address _to, uint256 _tokenId, bytes memory _data) internal{\n        _transfer(_from, _to, _tokenId);\n        require(_checkERC721Suppport(_from,_to,_tokenId, _data));\n    }\n\n    function _checkERC721Suppport(address _from, address _to, uint256 _tokenId, bytes memory _data) internal returns (bool){\n        if(!_isContract(_to)){\n            return true;\n        }\n\n        bytes4 returnData= IRC721Receiver(_to).onERC721Received(msg.sender,_from,_tokenId,_data);\n    \n       return  returnData == MAGIC_ERC721_RECEIVER;\n    }\n\n    function _isContract(address _to) view internal returns (bool){\n        uint32 size;\n        assembly{\n            size := extcodesize(_to)\n        }\n\n        return (size>0);\n    }\n\n    function _isApprovedOrOwner(address _spender,  address _from, address _to,uint256 _tokenId) view internal returns(bool){\n        require(_to != address(0)); //_to address is not the zero address\n        require(_from == _PandaOwner[_tokenId]); //_from address is the token owner       \n        require(_tokenId>=0 && _tokenId < totalSupply()); //token must exist\n\n        //_spender is the owner or _spender is approved or the operator  \n        return (_PandaOwner[_tokenId] == _spender ||\n                 _PandaIndexToApproved[_tokenId] == _spender ||\n                 _operatorApproval[_PandaOwner[_tokenId]][_spender]\n                 );\n    }\n\n     /**\n    @dev checks if interfaceId supports IERC721 or IERC165\n    */\n    function supportsInterface(bytes4 interfaceId) external pure returns (bool)\n    {\n        return (interfaceId == _INTERFACE_ID_ERC721 || interfaceId == _INTERFACE_ID_ERC165);\n    }\n\n}",
  "sourcePath": "/home/ismael/Documents/Projects/GIT/CryptoKitties-clone/contracts/PandaToken.sol",
  "compiler": {
    "name": "solc",
    "version": "0.5.12+commit.7709ece9.Emscripten.clang"
  },
  "schemaVersion": "3.3.2",
  "updatedAt": "2020-12-09T12:10:10.545Z",
  "devdoc": {
    "methods": {
      "approve(address,uint256)": {
        "details": "The zero address indicates there is no approved address.  Throws unless `msg.sender` is the current NFT owner, or an authorized  operator of the current owner.",
        "params": {
          "_to": "The new approved NFT controller",
          "_tokenId": "The NFT to approve"
        }
      },
      "balanceOf(address)": {
        "details": "Returns the number of tokens in ``owner``'s account."
      },
      "getApproved(uint256)": {
        "details": "Throws if `_tokenId` is not a valid NFT.",
        "params": {
          "_tokenId": "The NFT to find the approved address for"
        },
        "return": "The approved address for this NFT, or the zero address if there is none"
      },
      "isApprovedForAll(address,address)": {
        "params": {
          "_operator": "The address that acts on behalf of the owner",
          "_owner": "The address that owns the NFTs"
        },
        "return": "True if `_operator` is an approved operator for `_owner`, false otherwise"
      },
      "ownerOf(uint256)": {
        "details": "Returns the owner of the `tokenId` token.     * Requirements:     * - `tokenId` must exist."
      },
      "safeTransferFrom(address,address,uint256)": {
        "details": "This works identically to the other function with an extra data parameter,  except this function just sets data to \"\".",
        "params": {
          "_from": "The current owner of the NFT",
          "_to": "The new owner",
          "_tokenId": "The NFT to transfer"
        }
      },
      "safeTransferFrom(address,address,uint256,bytes)": {
        "details": "Throws unless `msg.sender` is the current owner, an authorized  operator, or the approved address for this NFT. Throws if `_from` is  not the current owner. Throws if `_to` is the zero address. Throws if  `_tokenId` is not a valid NFT. When transfer is complete, this function  checks if `_to` is a smart contract (code size > 0). If so, it calls  `onERC721Received` on `_to` and throws if the return value is not  `bytes4(keccak256(\"onERC721Received(address,address,uint256,bytes)\"))`.",
        "params": {
          "_from": "The current owner of the NFT",
          "_to": "The new owner",
          "_tokenId": "The NFT to transfer",
          "data": "Additional data with no specified format, sent in call to `_to`"
        }
      },
      "setApprovalForAll(address,bool)": {
        "details": "Emits the ApprovalForAll event. The contract MUST allow  multiple operators per owner.",
        "params": {
          "_approved": "True if the operator is approved, false to revoke approval",
          "_operator": "Address to add to the set of authorized operators"
        }
      },
      "supportsInterface(bytes4)": {
        "details": "checks if interfaceId supports IERC721 or IERC165"
      },
      "transferFrom(address,address,uint256)": {
        "details": "Throws unless `msg.sender` is the current owner, an authorized  operator, or the approved address for this NFT. Throws if `_from` is  not the current owner. Throws if `_to` is the zero address. Throws if  `_tokenId` is not a valid NFT.",
        "params": {
          "_from": "The current owner of the NFT",
          "_to": "The new owner",
          "_tokenId": "The NFT to transfer"
        }
      }
    }
  },
  "userdoc": {
    "methods": {
      "approve(address,uint256)": {
        "notice": "Change or reaffirm the approved address for an NFT"
      },
      "getApproved(uint256)": {
        "notice": "Get the approved address for a single NFT"
      },
      "isApprovedForAll(address,address)": {
        "notice": "Query if an address is an authorized operator for another address"
      },
      "safeTransferFrom(address,address,uint256)": {
        "notice": "Transfers the ownership of an NFT from one address to another address"
      },
      "safeTransferFrom(address,address,uint256,bytes)": {
        "notice": "Transfers the ownership of an NFT from one address to another address"
      },
      "setApprovalForAll(address,bool)": {
        "notice": "Enable or disable approval for a third party (\"operator\") to manage  all of `msg.sender`'s assets"
      },
      "transferFrom(address,address,uint256)": {
        "notice": "Transfer ownership of an NFT -- THE CALLER IS RESPONSIBLE  TO CONFIRM THAT `_to` IS CAPABLE OF RECEIVING NFTS OR ELSE  THEY MAY BE PERMANENTLY LOST"
      }
    }
  }
}