{
  "contractName": "PandaProxy",
  "abi": [
    {
      "inputs": [
        {
          "internalType": "address",
          "name": "_currentAddress",
          "type": "address"
        }
      ],
      "payable": false,
      "stateMutability": "nonpayable",
      "type": "constructor"
    },
    {
      "payable": true,
      "stateMutability": "payable",
      "type": "fallback"
    },
    {
      "constant": true,
      "inputs": [],
      "name": "owner",
      "outputs": [
        {
          "internalType": "address",
          "name": "",
          "type": "address"
        }
      ],
      "payable": false,
      "stateMutability": "view",
      "type": "function"
    },
    {
      "constant": false,
      "inputs": [
        {
          "internalType": "address",
          "name": "_newAddress",
          "type": "address"
        }
      ],
      "name": "upgrade",
      "outputs": [],
      "payable": false,
      "stateMutability": "nonpayable",
      "type": "function"
    }
  ],
  "bytecode": "0x60806040526064603a60006101000a81548160ff021916908360ff16021790555034801561002c57600080fd5b506040516104f13803806104f18339818101604052602081101561004f57600080fd5b810190808051906020019092919050505033603360006101000a81548173ffffffffffffffffffffffffffffffffffffffff021916908373ffffffffffffffffffffffffffffffffffffffff16021790555080603a60016101000a81548173ffffffffffffffffffffffffffffffffffffffff021916908373ffffffffffffffffffffffffffffffffffffffff1602179055506040518060400160405280601081526020017f50726f787943727970746f50616e6461000000000000000000000000000000008152506038908051906020019061012d929190610180565b506040518060400160405280600281526020017f435000000000000000000000000000000000000000000000000000000000000081525060399080519060200190610179929190610180565b5050610225565b828054600181600116156101000203166002900490600052602060002090601f016020900481019282601f106101c157805160ff19168380011785556101ef565b828001600101855582156101ef579182015b828111156101ee5782518255916020019190600101906101d3565b5b5090506101fc9190610200565b5090565b61022291905b8082111561021e576000816000905550600101610206565b5090565b90565b6102bd806102346000396000f3fe6080604052600436106100295760003560e01c80630900f0101461011c5780638da5cb5b1461016d575b6000603a60019054906101000a900473ffffffffffffffffffffffffffffffffffffffff169050600073ffffffffffffffffffffffffffffffffffffffff16603a60019054906101000a900473ffffffffffffffffffffffffffffffffffffffff1673ffffffffffffffffffffffffffffffffffffffff1614156100ac57600080fd5b60606000368080601f016020809104026020016040519081016040528093929190818152602001838380828437600081840152601f19601f820116905080830192505050505050509050600080825160208401855af43d604051816000823e8260008114610118578282f35b8282fd5b34801561012857600080fd5b5061016b6004803603602081101561013f57600080fd5b81019080803573ffffffffffffffffffffffffffffffffffffffff1690602001909291905050506101c4565b005b34801561017957600080fd5b50610182610262565b604051808273ffffffffffffffffffffffffffffffffffffffff1673ffffffffffffffffffffffffffffffffffffffff16815260200191505060405180910390f35b603360009054906101000a900473ffffffffffffffffffffffffffffffffffffffff1673ffffffffffffffffffffffffffffffffffffffff163373ffffffffffffffffffffffffffffffffffffffff161461021e57600080fd5b80603a60016101000a81548173ffffffffffffffffffffffffffffffffffffffff021916908373ffffffffffffffffffffffffffffffffffffffff16021790555050565b603360009054906101000a900473ffffffffffffffffffffffffffffffffffffffff168156fea265627a7a72315820de1d32e3eaa81b9c5c3da63b6502b0d5c5c9072c7df34d583c1d59b7c5f3069e64736f6c634300050c0032",
  "source": "pragma solidity ^0.5.12;\nimport \"./PandaStorage.sol\";\nimport \"./Ownable.sol\";\n\ncontract PandaProxy is Ownable , PandaStorage{\n     \n    // struct Panda{\n    //     uint256 genes;\n    //     uint64 birthTime;\n    //     uint32 mumId;\n    //     uint32 dadId;\n    //     uint16 generation;\n    // }\n\n    // Panda[] internal _pandas;\n\n    // //private variables\n    // mapping (address => uint256) internal _OwnerAnimalCount;\n    // mapping(uint256 => address) internal _PandaOwner;\n    // string  internal _TokenName;\n    // string internal _TokenSymbol;\n\n    // uint8 internal constant CREATION_GEN_LIMIT =100; \n     \n     \n    address currentAddress;\n\n  constructor(address _currentAddress) public {\n    currentAddress = _currentAddress;\n     _TokenName= \"ProxyCryptoPanda\";\n     _TokenSymbol = \"CP\";\n    // Ownable.initialize();\n  }\n  function upgrade(address _newAddress) public onlyOwner {\n    currentAddress = _newAddress;\n  }\n\n  //FALLBACK FUNCTION.\n  function () payable external {\n    address implementation = currentAddress;\n    require(currentAddress != address(0));\n    bytes memory data = msg.data;\n\n    //DELEGATECALL EVERY FUNCTION CALL\n    assembly {\n      let result := delegatecall(gas, implementation, add(data, 0x20), mload(data), 0, 0)\n      let size := returndatasize\n      let ptr := mload(0x40)\n      returndatacopy(ptr, 0, size)\n      switch result\n      case 0 {revert(ptr, size)}\n      default {return(ptr, size)}\n    }\n  }\n}",
  "sourcePath": "/home/ismael/Documents/Blockchain Bootcamp/GIT/CryptoKitties-clone/contracts/PandaProxy.sol",
  "compiler": {
    "name": "solc",
    "version": "0.5.12+commit.7709ece9.Emscripten.clang"
  },
  "schemaVersion": "3.2.0",
  "updatedAt": "2020-10-19T13:05:53.541Z",
  "networkType": "ethereum",
  "devdoc": {
    "methods": {}
  },
  "userdoc": {
    "methods": {}
  }
}