{
  "contractName": "PandaMarketPlace",
  "abi": [
    {
      "anonymous": false,
      "inputs": [
        {
          "indexed": false,
          "internalType": "string",
          "name": "TxType",
          "type": "string"
        },
        {
          "indexed": false,
          "internalType": "address",
          "name": "owner",
          "type": "address"
        },
        {
          "indexed": false,
          "internalType": "uint256",
          "name": "tokenId",
          "type": "uint256"
        }
      ],
      "name": "MarketTransaction",
      "type": "event"
    },
    {
      "constant": true,
      "inputs": [],
      "name": "owner",
      "outputs": [
        {
          "internalType": "address",
          "name": "",
          "type": "address"
        }
      ],
      "payable": false,
      "stateMutability": "view",
      "type": "function"
    },
    {
      "constant": false,
      "inputs": [
        {
          "internalType": "address",
          "name": "_pandaContractAddress",
          "type": "address"
        }
      ],
      "name": "initialize",
      "outputs": [],
      "payable": false,
      "stateMutability": "nonpayable",
      "type": "function"
    },
    {
      "constant": false,
      "inputs": [
        {
          "internalType": "address",
          "name": "_pandaContractAddress",
          "type": "address"
        }
      ],
      "name": "setPandaContract",
      "outputs": [],
      "payable": false,
      "stateMutability": "nonpayable",
      "type": "function"
    },
    {
      "constant": true,
      "inputs": [
        {
          "internalType": "uint256",
          "name": "_tokenId",
          "type": "uint256"
        }
      ],
      "name": "getOffer",
      "outputs": [
        {
          "internalType": "address",
          "name": "seller",
          "type": "address"
        },
        {
          "internalType": "uint256",
          "name": "price",
          "type": "uint256"
        },
        {
          "internalType": "uint256",
          "name": "index",
          "type": "uint256"
        },
        {
          "internalType": "uint256",
          "name": "tokenId",
          "type": "uint256"
        },
        {
          "internalType": "bool",
          "name": "active",
          "type": "bool"
        }
      ],
      "payable": false,
      "stateMutability": "view",
      "type": "function"
    },
    {
      "constant": true,
      "inputs": [],
      "name": "getAllTokenOnSale",
      "outputs": [
        {
          "internalType": "uint256[]",
          "name": "listOfOffers",
          "type": "uint256[]"
        }
      ],
      "payable": false,
      "stateMutability": "view",
      "type": "function"
    },
    {
      "constant": false,
      "inputs": [
        {
          "internalType": "uint256",
          "name": "_price",
          "type": "uint256"
        },
        {
          "internalType": "uint256",
          "name": "_tokenId",
          "type": "uint256"
        }
      ],
      "name": "setOffer",
      "outputs": [],
      "payable": false,
      "stateMutability": "nonpayable",
      "type": "function"
    },
    {
      "constant": false,
      "inputs": [
        {
          "internalType": "uint256",
          "name": "_tokenId",
          "type": "uint256"
        }
      ],
      "name": "removeOffer",
      "outputs": [],
      "payable": false,
      "stateMutability": "nonpayable",
      "type": "function"
    },
    {
      "constant": false,
      "inputs": [
        {
          "internalType": "uint256",
          "name": "_tokenId",
          "type": "uint256"
        }
      ],
      "name": "buyPanda",
      "outputs": [],
      "payable": true,
      "stateMutability": "payable",
      "type": "function"
    },
    {
      "constant": true,
      "inputs": [],
      "name": "getActiveOfferCount",
      "outputs": [
        {
          "internalType": "uint256",
          "name": "activeOfferCount",
          "type": "uint256"
        }
      ],
      "payable": false,
      "stateMutability": "view",
      "type": "function"
    }
  ],
  "bytecode": "0x6080604052600060365533603360006101000a81548173ffffffffffffffffffffffffffffffffffffffff021916908373ffffffffffffffffffffffffffffffffffffffff1602179055506115d1806100596000396000f3fe6080604052600436106100865760003560e01c806395a0f9c71161005957806395a0f9c71461022e578063a96ea64914610269578063c4d66de814610297578063e897bd9c146102e8578063eb32a6751461033957610086565b80634579268a1461008b57806349b3709f146101265780638da5cb5b14610192578063941b055b146101e9575b600080fd5b34801561009757600080fd5b506100c4600480360360208110156100ae57600080fd5b8101908080359060200190929190505050610364565b604051808673ffffffffffffffffffffffffffffffffffffffff1673ffffffffffffffffffffffffffffffffffffffff168152602001858152602001848152602001838152602001821515151581526020019550505050505060405180910390f35b34801561013257600080fd5b5061013b6104ec565b6040518080602001828103825283818151815260200191508051906020019060200280838360005b8381101561017e578082015181840152602081019050610163565b505050509050019250505060405180910390f35b34801561019e57600080fd5b506101a7610584565b604051808273ffffffffffffffffffffffffffffffffffffffff1673ffffffffffffffffffffffffffffffffffffffff16815260200191505060405180910390f35b3480156101f557600080fd5b5061022c6004803603604081101561020c57600080fd5b8101908080359060200190929190803590602001909291905050506105aa565b005b34801561023a57600080fd5b506102676004803603602081101561025157600080fd5b8101908080359060200190929190505050610c68565b005b6102956004803603602081101561027f57600080fd5b8101908080359060200190929190505050610e58565b005b3480156102a357600080fd5b506102e6600480360360208110156102ba57600080fd5b81019080803573ffffffffffffffffffffffffffffffffffffffff16906020019092919050505061125d565b005b3480156102f457600080fd5b506103376004803603602081101561030b57600080fd5b81019080803573ffffffffffffffffffffffffffffffffffffffff169060200190929190505050611366565b005b34801561034557600080fd5b5061034e6113aa565b6040518082815260200191505060405180910390f35b60008060008060008060376000888152602001908152602001600020600301541180156103b85750600115156037600088815260200190815260200160002060040160009054906101000a900460ff161515145b61042a576040517f08c379a000000000000000000000000000000000000000000000000000000000815260040180806020018281038252601f8152602001807f4e6f20616374697665206f6666657220666f722074686520746f6b656e49440081525060200191505060405180910390fd5b6037600087815260200190815260200160002060000160009054906101000a900473ffffffffffffffffffffffffffffffffffffffff1694506037600087815260200190815260200160002060010154935060376000878152602001908152602001600020600201549250603760008781526020019081526020016000206003015491506037600087815260200190815260200160002060040160009054906101000a900460ff16905084848484849450945094509450945091939590929450565b6060600060358054905011801561050557506000603654115b610577576040517f08c379a00000000000000000000000000000000000000000000000000000000081526004018080602001828103825260098152602001807f4e6f204f6666657273000000000000000000000000000000000000000000000081525060200191505060405180910390fd5b61057f6113b4565b905090565b603360009054906101000a900473ffffffffffffffffffffffffffffffffffffffff1681565b3373ffffffffffffffffffffffffffffffffffffffff16603460009054906101000a900473ffffffffffffffffffffffffffffffffffffffff1673ffffffffffffffffffffffffffffffffffffffff16636352211e836040518263ffffffff1660e01b81526004018082815260200191505060206040518083038186803b15801561063457600080fd5b505afa158015610648573d6000803e3d6000fd5b505050506040513d602081101561065e57600080fd5b810190808051906020019092919050505073ffffffffffffffffffffffffffffffffffffffff16146106f8576040517f08c379a000000000000000000000000000000000000000000000000000000000815260040180806020018281038252601a8152602001807f4e6f7420746865206f776e6572206f662074686520746f6b656e00000000000081525060200191505060405180910390fd5b600015156037600083815260200190815260200160002060040160009054906101000a900460ff16151514610795576040517f08c379a00000000000000000000000000000000000000000000000000000000081526004018080602001828103825260168152602001807f416c726561647920616e206f666665722065786973740000000000000000000081525060200191505060405180910390fd5b603460009054906101000a900473ffffffffffffffffffffffffffffffffffffffff1673ffffffffffffffffffffffffffffffffffffffff1663e985e9c533306040518363ffffffff1660e01b8152600401808373ffffffffffffffffffffffffffffffffffffffff1673ffffffffffffffffffffffffffffffffffffffff1681526020018273ffffffffffffffffffffffffffffffffffffffff1673ffffffffffffffffffffffffffffffffffffffff1681526020019250505060206040518083038186803b15801561086857600080fd5b505afa15801561087c573d6000803e3d6000fd5b505050506040513d602081101561089257600080fd5b8101908080519060200190929190505050610915576040517f08c379a000000000000000000000000000000000000000000000000000000000815260040180806020018281038252601f8152602001807f4e6f7420616e206f70657261746f7220666f722074686520746f6b656e49640081525060200191505060405180910390fd5b8060376000838152602001908152602001600020600301541415610a0b57600060376000838152602001908152602001600020600201549050336035828154811061095c57fe5b906000526020600020906005020160000160006101000a81548173ffffffffffffffffffffffffffffffffffffffff021916908373ffffffffffffffffffffffffffffffffffffffff16021790555082603582815481106109b957fe5b9060005260206000209060050201600101819055506001603582815481106109dd57fe5b906000526020600020906005020160040160006101000a81548160ff02191690831515021790555050610bae565b610a136114c3565b6040518060a001604052803373ffffffffffffffffffffffffffffffffffffffff1681526020018481526020016035805490508152602001838152602001600115158152509050806037600084815260200190815260200160002060008201518160000160006101000a81548173ffffffffffffffffffffffffffffffffffffffff021916908373ffffffffffffffffffffffffffffffffffffffff16021790555060208201518160010155604082015181600201556060820151816003015560808201518160040160006101000a81548160ff0219169083151502179055509050506035819080600181540180825580915050906001820390600052602060002090600502016000909192909190915060008201518160000160006101000a81548173ffffffffffffffffffffffffffffffffffffffff021916908373ffffffffffffffffffffffffffffffffffffffff16021790555060208201518160010155604082015181600201556060820151816003015560808201518160040160006101000a81548160ff021916908315150217905550505050505b6036600081548092919060010191905055507fd99e4fad9ad6313b1feb588fa8e605e3a9873172f2024330c35dd2b4041a4386338260405180806020018473ffffffffffffffffffffffffffffffffffffffff1673ffffffffffffffffffffffffffffffffffffffff1681526020018381526020018281038252600c8152602001807f437265617465206f666665720000000000000000000000000000000000000000815250602001935050505060405180910390a15050565b3373ffffffffffffffffffffffffffffffffffffffff166037600083815260200190815260200160002060000160009054906101000a900473ffffffffffffffffffffffffffffffffffffffff1673ffffffffffffffffffffffffffffffffffffffff1614610d22576040517f08c379a000000000000000000000000000000000000000000000000000000000815260040180806020018281038252602d81526020018061150b602d913960400191505060405180910390fd5b60006037600083815260200190815260200160002060040160006101000a81548160ff02191690831515021790555060006035603760008481526020019081526020016000206002015481548110610d7657fe5b906000526020600020906005020160040160006101000a81548160ff021916908315150217905550603660008154809291906001900391905055507fd99e4fad9ad6313b1feb588fa8e605e3a9873172f2024330c35dd2b4041a4386338260405180806020018473ffffffffffffffffffffffffffffffffffffffff1673ffffffffffffffffffffffffffffffffffffffff1681526020018381526020018281038252600c8152602001807f52656d6f7665206f666665720000000000000000000000000000000000000000815250602001935050505060405180910390a150565b610e606114c3565b603760008381526020019081526020016000206040518060a00160405290816000820160009054906101000a900473ffffffffffffffffffffffffffffffffffffffff1673ffffffffffffffffffffffffffffffffffffffff1673ffffffffffffffffffffffffffffffffffffffff1681526020016001820154815260200160028201548152602001600382015481526020016004820160009054906101000a900460ff161515151581525050905034603760008481526020019081526020016000206001015414610f7d576040517f08c379a00000000000000000000000000000000000000000000000000000000081526004018080602001828103825260378152602001806115386037913960400191505060405180910390fd5b600115156037600084815260200190815260200160002060040160009054906101000a900460ff16151514610fb157600080fd5b60006037600084815260200190815260200160002060040160006101000a81548160ff0219169083151502179055506000603560376000858152602001908152602001600020600201548154811061100557fe5b906000526020600020906005020160040160006101000a81548160ff02191690831515021790555060008160200151111561108a57806000015173ffffffffffffffffffffffffffffffffffffffff166108fc82602001519081150290604051600060405180830381858888f19350505050158015611088573d6000803e3d6000fd5b505b603460009054906101000a900473ffffffffffffffffffffffffffffffffffffffff1673ffffffffffffffffffffffffffffffffffffffff166342842e0e6037600085815260200190815260200160002060000160009054906101000a900473ffffffffffffffffffffffffffffffffffffffff1633856040518463ffffffff1660e01b8152600401808473ffffffffffffffffffffffffffffffffffffffff1673ffffffffffffffffffffffffffffffffffffffff1681526020018373ffffffffffffffffffffffffffffffffffffffff1673ffffffffffffffffffffffffffffffffffffffff1681526020018281526020019350505050600060405180830381600087803b15801561119d57600080fd5b505af11580156111b1573d6000803e3d6000fd5b505050507fd99e4fad9ad6313b1feb588fa8e605e3a9873172f2024330c35dd2b4041a4386338360405180806020018473ffffffffffffffffffffffffffffffffffffffff1673ffffffffffffffffffffffffffffffffffffffff168152602001838152602001828103825260038152602001807f4275790000000000000000000000000000000000000000000000000000000000815250602001935050505060405180910390a15050565b600060019054906101000a900460ff168061127c575061127b6114ac565b5b8061129357506000809054906101000a900460ff16155b6112e8576040517f08c379a000000000000000000000000000000000000000000000000000000000815260040180806020018281038252602e81526020018061156f602e913960400191505060405180910390fd5b60008060019054906101000a900460ff161590508015611338576001600060016101000a81548160ff02191690831515021790555060016000806101000a81548160ff0219169083151502179055505b61134182611366565b80156113625760008060016101000a81548160ff0219169083151502179055505b5050565b80603460006101000a81548173ffffffffffffffffffffffffffffffffffffffff021916908373ffffffffffffffffffffffffffffffffffffffff16021790555050565b6000603654905090565b606060008090506000809050600060358054905090506060816040519080825280602002602001820160405280156113fb5781602001602082028038833980820191505090505b509050600093505b60358054905084108015611418575060365483105b156114a257600115156035858154811061142e57fe5b906000526020600020906005020160040160009054906101000a900460ff1615151415611495576035848154811061146257fe5b90600052602060002090600502016003015481848151811061148057fe5b60200260200101818152505082806001019350505b8380600101945050611403565b8094505050505090565b6000803090506000813b9050600081149250505090565b6040518060a00160405280600073ffffffffffffffffffffffffffffffffffffffff168152602001600081526020016000815260200160008152602001600015158152509056fe4f6e6c792073656c6c6572206f662074686520746f6b656e2063616e2072656d6f766520746865206f666665725472616e73616374696f6e2076616c756520646f6573206e6f74206d6174636820746865207072696365206f662074686520746f6b656e436f6e747261637420696e7374616e63652068617320616c7265616479206265656e20696e697469616c697a6564a265627a7a723158207fc195749d6b520af80244fd64f6b8a7483340e0160b5d3736dda3f5a5c2c4e264736f6c634300050c0032",
  "source": "pragma solidity ^0.5.12;\n\nimport \"./IPandaMarketPlace.sol\";\nimport \"./PandaMarketPlaceStorage.sol\";\n\ncontract PandaMarketPlace is Initializable,IPandaMarketPlace, Ownable,PandaMarketPlaceStorage {\n   \n\n    function initialize(address _pandaContractAddress) public  initializer{\n        setPandaContract(_pandaContractAddress);        \n    }\n\n    /***************************************************\n    Events\n     **************************************************/\n    event MarketTransaction(string TxType, address owner, uint256 tokenId);\n\n    /**\n    * Set the current PandaContract address and initialize the instance of PandaContract.\n    * Requirement: Only the contract owner can call.\n     */\n    function setPandaContract(address _pandaContractAddress)  public  {\n        _pandaContract =  PandaContract(_pandaContractAddress) ;\n    }\n\n    /**\n    * Get the details about a offer for _tokenId. Throws an error if there is no active offer for _tokenId.\n     */\n    function getOffer(uint256 _tokenId) external view returns ( address seller, uint256 price, uint256 index, uint256 tokenId, bool active){\n        \n        require (tokenIdToOffer[_tokenId].tokenId > 0 && tokenIdToOffer[_tokenId].active == true,\"No active offer for the tokenID\");\n        \n        seller  = tokenIdToOffer[_tokenId].seller;\n        price   = tokenIdToOffer[_tokenId].price;\n        index   = tokenIdToOffer[_tokenId].index;\n        tokenId = tokenIdToOffer[_tokenId].tokenId;\n        active  = tokenIdToOffer[_tokenId].active;\n\n        return (seller,price,index,tokenId,active);\n    }\n\n    /**\n    * Get all tokenId's that are currently for sale. Returns an empty error if none exist.\n     */\n    function getAllTokenOnSale() external view  returns(uint256[] memory listOfOffers){\n        require(Offers.length > 0 && _activeOfferCount > 0,\"No Offers\");\n        return _getAllActiveTokens();\n    }\n\n    function _getAllActiveTokens() internal view  returns(uint256[] memory listOfOffers){\n        uint256 i = 0;\n        uint256 index=0;\n        \n        uint256 totalOffers = Offers.length;\n        uint256[] memory result = new uint256[](totalOffers);\n        \n        for ( i=0 ; i< Offers.length && index < _activeOfferCount  ; i++){\n            \n            if(Offers[i].active == true){\n                result[index]=Offers[i].tokenId;\n                index++;\n            }           \n        }\n\n        return result;\n    }\n\n    /**\n    * Creates a new offer for _tokenId for the price _price.\n    * Emits the MarketTransaction event with txType \"Create offer\"\n    * Requirement: Only the owner of _tokenId can create an offer.\n    * Requirement: There can only be one active offer for a token at a time.\n    * Requirement: Marketplace contract (this) needs to be an approved operator when the offer is created.\n     */\n    function setOffer(uint256 _price, uint256 _tokenId) external{\n        require(_pandaContract.ownerOf(_tokenId) == msg.sender,\"Not the owner of the token\");\n        require(tokenIdToOffer[_tokenId].active==false,\"Already an offer exist\");\n        require(_pandaContract.isApprovedForAll(msg.sender,address(this)),\"Not an operator for the tokenId\");\n\n        if(tokenIdToOffer[_tokenId].tokenId==_tokenId){\n            uint256 index = tokenIdToOffer[_tokenId].index;\n\n            Offers[index].seller =  msg.sender;\n            Offers[index].price= _price;\n            Offers[index].active= true;\n        }else{\n             Offer memory newOffer = Offer({\n                seller: msg.sender,\n                price: _price,\n                index: Offers.length,\n                tokenId: _tokenId,\n                active: true\n            });\n\n            tokenIdToOffer[_tokenId] = newOffer;\n            Offers.push(newOffer);            \n        }\n\n        _activeOfferCount++;\n\n        emit MarketTransaction(\"Create offer\", msg.sender,  _tokenId);\n    }\n\n    /**\n    * Removes an existing offer.\n    * Emits the MarketTransaction event with txType \"Remove offer\"\n    * Requirement: Only the seller of _tokenId can remove an offer.\n     */\n    function removeOffer(uint256 _tokenId) external{\n        require(tokenIdToOffer[_tokenId].seller == msg.sender,\"Only seller of the token can remove the offer\");\n\n        tokenIdToOffer[_tokenId].active = false;\n        Offers[tokenIdToOffer[_tokenId].index].active =  false;\n        _activeOfferCount--;\n\n        emit MarketTransaction(\"Remove offer\", msg.sender,  _tokenId);\n    }\n\n    /**\n    * Executes the purchase of _tokenId.\n    * Sends the funds to the seller and transfers the token using transferFrom in PandaContract.\n    * Emits the MarketTransaction event with txType \"Buy\".\n    * Requirement: The msg.value needs to equal the price of _tokenId\n    * Requirement: There must be an active offer for _tokenId\n     */\n    function buyPanda(uint256 _tokenId) external payable{\n        Offer memory offer = tokenIdToOffer[_tokenId];\n        require(tokenIdToOffer[_tokenId].price == msg.value,\"Transaction value does not match the price of the token\");\n        require(tokenIdToOffer[_tokenId].active == true);\n\n        // Important: remove offer before paying, to avoid reentry attack\n        tokenIdToOffer[_tokenId].active=false;\n        Offers[tokenIdToOffer[_tokenId].index].active = false;\n\n        //transfer funds to the seller\n        if(offer.price>0){\n            offer.seller.transfer(offer.price);\n        }\n\n        //Transfer ownership of the token\n        _pandaContract.safeTransferFrom(tokenIdToOffer[_tokenId].seller,msg.sender, _tokenId);\n\n\n        emit MarketTransaction(\"Buy\", msg.sender,  _tokenId);\n    }\n\n    /**\n    * Get the count of active offers\n     */\n    function getActiveOfferCount() external view returns (uint256 activeOfferCount){\n        return _activeOfferCount;\n    }\n\n}",
  "sourcePath": "/home/ismael/Documents/Projects/GIT/CryptoKitties-clone/contracts/PandaMarketPlace.sol",
  "compiler": {
    "name": "solc",
    "version": "0.5.12+commit.7709ece9.Emscripten.clang"
  },
  "schemaVersion": "3.3.2",
  "updatedAt": "2020-12-22T10:27:04.750Z",
  "networkType": "ethereum",
  "devdoc": {
    "methods": {}
  },
  "userdoc": {
    "methods": {
      "buyPanda(uint256)": {
        "notice": "Executes the purchase of _tokenId. Sends the funds to the seller and transfers the token using transferFrom in PandaContract. Emits the MarketTransaction event with txType \"Buy\". Requirement: The msg.value needs to equal the price of _tokenId Requirement: There must be an active offer for _tokenId"
      },
      "getActiveOfferCount()": {
        "notice": "Get the count of active offers"
      },
      "getAllTokenOnSale()": {
        "notice": "Get all tokenId's that are currently for sale. Returns an empty error if none exist."
      },
      "getOffer(uint256)": {
        "notice": "Get the details about a offer for _tokenId. Throws an error if there is no active offer for _tokenId."
      },
      "removeOffer(uint256)": {
        "notice": "Removes an existing offer. Emits the MarketTransaction event with txType \"Remove offer\" Requirement: Only the seller of _tokenId can remove an offer."
      },
      "setOffer(uint256,uint256)": {
        "notice": "Creates a new offer for _tokenId for the price _price. Emits the MarketTransaction event with txType \"Create offer\" Requirement: Only the owner of _tokenId can create an offer. Requirement: There can only be one active offer for a token at a time. Requirement: Marketplace contract (this) needs to be an approved operator when the offer is created."
      },
      "setPandaContract(address)": {
        "notice": "Set the current PandaContract address and initialize the instance of PandaContract. Requirement: Only the contract owner can call."
      }
    }
  }
}