{
  "contractName": "PandaContract",
  "abi": [
    {
      "anonymous": false,
      "inputs": [
        {
          "indexed": true,
          "internalType": "address",
          "name": "owner",
          "type": "address"
        },
        {
          "indexed": true,
          "internalType": "address",
          "name": "approved",
          "type": "address"
        },
        {
          "indexed": true,
          "internalType": "uint256",
          "name": "PandaId",
          "type": "uint256"
        }
      ],
      "name": "Approval",
      "type": "event"
    },
    {
      "anonymous": false,
      "inputs": [
        {
          "indexed": true,
          "internalType": "address",
          "name": "owner",
          "type": "address"
        },
        {
          "indexed": true,
          "internalType": "address",
          "name": "operator",
          "type": "address"
        },
        {
          "indexed": false,
          "internalType": "bool",
          "name": "approved",
          "type": "bool"
        }
      ],
      "name": "ApprovalForAll",
      "type": "event"
    },
    {
      "anonymous": false,
      "inputs": [
        {
          "indexed": false,
          "internalType": "address",
          "name": "_owner",
          "type": "address"
        },
        {
          "indexed": false,
          "internalType": "uint256",
          "name": "PandaId",
          "type": "uint256"
        },
        {
          "indexed": false,
          "internalType": "uint32",
          "name": "mumId",
          "type": "uint32"
        },
        {
          "indexed": false,
          "internalType": "uint32",
          "name": "dadId",
          "type": "uint32"
        },
        {
          "indexed": false,
          "internalType": "uint256",
          "name": "genes",
          "type": "uint256"
        },
        {
          "indexed": false,
          "internalType": "uint16",
          "name": "generation",
          "type": "uint16"
        }
      ],
      "name": "Birth",
      "type": "event"
    },
    {
      "anonymous": false,
      "inputs": [
        {
          "indexed": true,
          "internalType": "address",
          "name": "from",
          "type": "address"
        },
        {
          "indexed": true,
          "internalType": "address",
          "name": "to",
          "type": "address"
        },
        {
          "indexed": true,
          "internalType": "uint256",
          "name": "tokenId",
          "type": "uint256"
        }
      ],
      "name": "Transfer",
      "type": "event"
    },
    {
      "constant": false,
      "inputs": [
        {
          "internalType": "address",
          "name": "_to",
          "type": "address"
        },
        {
          "internalType": "uint256",
          "name": "_tokenId",
          "type": "uint256"
        }
      ],
      "name": "approve",
      "outputs": [],
      "payable": false,
      "stateMutability": "nonpayable",
      "type": "function"
    },
    {
      "constant": true,
      "inputs": [
        {
          "internalType": "address",
          "name": "owner",
          "type": "address"
        }
      ],
      "name": "balanceOf",
      "outputs": [
        {
          "internalType": "uint256",
          "name": "balance",
          "type": "uint256"
        }
      ],
      "payable": false,
      "stateMutability": "view",
      "type": "function"
    },
    {
      "constant": true,
      "inputs": [],
      "name": "contractOwner",
      "outputs": [
        {
          "internalType": "address",
          "name": "_owner",
          "type": "address"
        }
      ],
      "payable": false,
      "stateMutability": "view",
      "type": "function"
    },
    {
      "constant": true,
      "inputs": [
        {
          "internalType": "uint256",
          "name": "_tokenId",
          "type": "uint256"
        }
      ],
      "name": "getApproved",
      "outputs": [
        {
          "internalType": "address",
          "name": "",
          "type": "address"
        }
      ],
      "payable": false,
      "stateMutability": "view",
      "type": "function"
    },
    {
      "constant": true,
      "inputs": [
        {
          "internalType": "address",
          "name": "_owner",
          "type": "address"
        },
        {
          "internalType": "address",
          "name": "_operator",
          "type": "address"
        }
      ],
      "name": "isApprovedForAll",
      "outputs": [
        {
          "internalType": "bool",
          "name": "",
          "type": "bool"
        }
      ],
      "payable": false,
      "stateMutability": "view",
      "type": "function"
    },
    {
      "constant": true,
      "inputs": [],
      "name": "name",
      "outputs": [
        {
          "internalType": "string",
          "name": "tokenName",
          "type": "string"
        }
      ],
      "payable": false,
      "stateMutability": "view",
      "type": "function"
    },
    {
      "constant": true,
      "inputs": [],
      "name": "owner",
      "outputs": [
        {
          "internalType": "address",
          "name": "",
          "type": "address"
        }
      ],
      "payable": false,
      "stateMutability": "view",
      "type": "function"
    },
    {
      "constant": true,
      "inputs": [
        {
          "internalType": "uint256",
          "name": "_tokenId",
          "type": "uint256"
        }
      ],
      "name": "ownerOf",
      "outputs": [
        {
          "internalType": "address",
          "name": "owner",
          "type": "address"
        }
      ],
      "payable": false,
      "stateMutability": "view",
      "type": "function"
    },
    {
      "constant": false,
      "inputs": [
        {
          "internalType": "address",
          "name": "_from",
          "type": "address"
        },
        {
          "internalType": "address",
          "name": "_to",
          "type": "address"
        },
        {
          "internalType": "uint256",
          "name": "_tokenId",
          "type": "uint256"
        }
      ],
      "name": "safeTransferFrom",
      "outputs": [],
      "payable": false,
      "stateMutability": "nonpayable",
      "type": "function"
    },
    {
      "constant": false,
      "inputs": [
        {
          "internalType": "address",
          "name": "_from",
          "type": "address"
        },
        {
          "internalType": "address",
          "name": "_to",
          "type": "address"
        },
        {
          "internalType": "uint256",
          "name": "_tokenId",
          "type": "uint256"
        },
        {
          "internalType": "bytes",
          "name": "data",
          "type": "bytes"
        }
      ],
      "name": "safeTransferFrom",
      "outputs": [],
      "payable": false,
      "stateMutability": "nonpayable",
      "type": "function"
    },
    {
      "constant": false,
      "inputs": [
        {
          "internalType": "address",
          "name": "_operator",
          "type": "address"
        },
        {
          "internalType": "bool",
          "name": "_approved",
          "type": "bool"
        }
      ],
      "name": "setApprovalForAll",
      "outputs": [],
      "payable": false,
      "stateMutability": "nonpayable",
      "type": "function"
    },
    {
      "constant": true,
      "inputs": [
        {
          "internalType": "bytes4",
          "name": "interfaceId",
          "type": "bytes4"
        }
      ],
      "name": "supportsInterface",
      "outputs": [
        {
          "internalType": "bool",
          "name": "",
          "type": "bool"
        }
      ],
      "payable": false,
      "stateMutability": "pure",
      "type": "function"
    },
    {
      "constant": true,
      "inputs": [],
      "name": "symbol",
      "outputs": [
        {
          "internalType": "string",
          "name": "tokenSymbol",
          "type": "string"
        }
      ],
      "payable": false,
      "stateMutability": "view",
      "type": "function"
    },
    {
      "constant": true,
      "inputs": [],
      "name": "totalSupply",
      "outputs": [
        {
          "internalType": "uint256",
          "name": "total",
          "type": "uint256"
        }
      ],
      "payable": false,
      "stateMutability": "view",
      "type": "function"
    },
    {
      "constant": false,
      "inputs": [
        {
          "internalType": "address",
          "name": "_to",
          "type": "address"
        },
        {
          "internalType": "uint256",
          "name": "_tokenId",
          "type": "uint256"
        }
      ],
      "name": "transfer",
      "outputs": [],
      "payable": false,
      "stateMutability": "nonpayable",
      "type": "function"
    },
    {
      "constant": false,
      "inputs": [
        {
          "internalType": "address",
          "name": "_from",
          "type": "address"
        },
        {
          "internalType": "address",
          "name": "_to",
          "type": "address"
        },
        {
          "internalType": "uint256",
          "name": "_tokenId",
          "type": "uint256"
        }
      ],
      "name": "transferFrom",
      "outputs": [],
      "payable": false,
      "stateMutability": "nonpayable",
      "type": "function"
    },
    {
      "constant": false,
      "inputs": [
        {
          "internalType": "string",
          "name": "_tName",
          "type": "string"
        },
        {
          "internalType": "string",
          "name": "_tSymbol",
          "type": "string"
        }
      ],
      "name": "initialize",
      "outputs": [],
      "payable": false,
      "stateMutability": "nonpayable",
      "type": "function"
    },
    {
      "constant": false,
      "inputs": [],
      "name": "initialize",
      "outputs": [],
      "payable": false,
      "stateMutability": "nonpayable",
      "type": "function"
    },
    {
      "constant": false,
      "inputs": [
        {
          "internalType": "uint256",
          "name": "_genes",
          "type": "uint256"
        }
      ],
      "name": "createPandaGen0",
      "outputs": [
        {
          "internalType": "uint256",
          "name": "",
          "type": "uint256"
        }
      ],
      "payable": false,
      "stateMutability": "nonpayable",
      "type": "function"
    },
    {
      "constant": true,
      "inputs": [
        {
          "internalType": "uint256",
          "name": "tokenId",
          "type": "uint256"
        }
      ],
      "name": "getPanda",
      "outputs": [
        {
          "internalType": "uint256",
          "name": "genes",
          "type": "uint256"
        },
        {
          "internalType": "uint64",
          "name": "birthTime",
          "type": "uint64"
        },
        {
          "internalType": "uint32",
          "name": "mumId",
          "type": "uint32"
        },
        {
          "internalType": "uint32",
          "name": "dadId",
          "type": "uint32"
        },
        {
          "internalType": "uint16",
          "name": "generation",
          "type": "uint16"
        }
      ],
      "payable": false,
      "stateMutability": "view",
      "type": "function"
    },
    {
      "constant": true,
      "inputs": [
        {
          "internalType": "address",
          "name": "PandaOwnerAddress",
          "type": "address"
        }
      ],
      "name": "_pandasOfOwner",
      "outputs": [
        {
          "internalType": "uint256[]",
          "name": "",
          "type": "uint256[]"
        }
      ],
      "payable": false,
      "stateMutability": "view",
      "type": "function"
    },
    {
      "constant": false,
      "inputs": [
        {
          "internalType": "uint32",
          "name": "_dadId",
          "type": "uint32"
        },
        {
          "internalType": "uint32",
          "name": "_mumId",
          "type": "uint32"
        }
      ],
      "name": "breed",
      "outputs": [
        {
          "internalType": "uint256",
          "name": "",
          "type": "uint256"
        }
      ],
      "payable": false,
      "stateMutability": "nonpayable",
      "type": "function"
    }
  ],
  "bytecode": "0x6080604052600a600960006101000a81548160ff021916908360ff160217905550336000806101000a81548173ffffffffffffffffffffffffffffffffffffffff021916908373ffffffffffffffffffffffffffffffffffffffff160217905550612f818061006f6000396000f3fe608060405234801561001057600080fd5b50600436106101425760003560e01c80636352211e116100b8578063a22cb4651161007c578063a22cb46514610857578063a9059cbb146108a7578063b88d4fde146108f5578063ce606ee0146109fa578063d967c62114610a44578063e985e9c514610a8657610142565b80636352211e146106ba57806370a08231146107285780638129fc1c146107805780638da5cb5b1461078a57806395d89b41146107d457610142565b80631327fbe51161010a5780631327fbe51461038457806318160ddd1461041657806323b872dd1461043457806324ab5e08146104a257806342842e0e146104fa5780634cd88b761461056857610142565b806301ffc9a71461014757806306fdde03146101ac578063081812fc1461022f578063095ea7b31461029d5780630b8ab884146102eb575b600080fd5b6101926004803603602081101561015d57600080fd5b8101908080357bffffffffffffffffffffffffffffffffffffffffffffffffffffffff19169060200190929190505050610b02565b604051808215151515815260200191505060405180910390f35b6101b4610ba2565b6040518080602001828103825283818151815260200191508051906020019080838360005b838110156101f45780820151818401526020810190506101d9565b50505050905090810190601f1680156102215780820380516001836020036101000a031916815260200191505b509250505060405180910390f35b61025b6004803603602081101561024557600080fd5b8101908080359060200190929190505050610c44565b604051808273ffffffffffffffffffffffffffffffffffffffff1673ffffffffffffffffffffffffffffffffffffffff16815260200191505060405180910390f35b6102e9600480360360408110156102b357600080fd5b81019080803573ffffffffffffffffffffffffffffffffffffffff16906020019092919080359060200190929190505050610c89565b005b61032d6004803603602081101561030157600080fd5b81019080803573ffffffffffffffffffffffffffffffffffffffff169060200190929190505050610e62565b6040518080602001828103825283818151815260200191508051906020019060200280838360005b83811015610370578082015181840152602081019050610355565b505050509050019250505060405180910390f35b6103b06004803603602081101561039a57600080fd5b8101908080359060200190929190505050610faa565b604051808681526020018567ffffffffffffffff1667ffffffffffffffff1681526020018463ffffffff1663ffffffff1681526020018363ffffffff1663ffffffff1681526020018261ffff1661ffff1681526020019550505050505060405180910390f35b61041e6110c2565b6040518082815260200191505060405180910390f35b6104a06004803603606081101561044a57600080fd5b81019080803573ffffffffffffffffffffffffffffffffffffffff169060200190929190803573ffffffffffffffffffffffffffffffffffffffff169060200190929190803590602001909291905050506110cf565b005b6104e4600480360360408110156104b857600080fd5b81019080803563ffffffff169060200190929190803563ffffffff16906020019092919050505061133c565b6040518082815260200191505060405180910390f35b6105666004803603606081101561051057600080fd5b81019080803573ffffffffffffffffffffffffffffffffffffffff169060200190929190803573ffffffffffffffffffffffffffffffffffffffff16906020019092919080359060200190929190505050611432565b005b6106b86004803603604081101561057e57600080fd5b810190808035906020019064010000000081111561059b57600080fd5b8201836020820111156105ad57600080fd5b803590602001918460018302840111640100000000831117156105cf57600080fd5b91908080601f016020809104026020016040519081016040528093929190818152602001838380828437600081840152601f19601f8201169050808301925050505050505091929192908035906020019064010000000081111561063257600080fd5b82018360208201111561064457600080fd5b8035906020019184600183028401116401000000008311171561066657600080fd5b91908080601f016020809104026020016040519081016040528093929190818152602001838380828437600081840152601f19601f820116905080830192505050505050509192919290505050611452565b005b6106e6600480360360208110156106d057600080fd5b8101908080359060200190929190505050611585565b604051808273ffffffffffffffffffffffffffffffffffffffff1673ffffffffffffffffffffffffffffffffffffffff16815260200191505060405180910390f35b61076a6004803603602081101561073e57600080fd5b81019080803573ffffffffffffffffffffffffffffffffffffffff1690602001909291905050506115c2565b6040518082815260200191505060405180910390f35b61078861160b565b005b6107926117b5565b604051808273ffffffffffffffffffffffffffffffffffffffff1673ffffffffffffffffffffffffffffffffffffffff16815260200191505060405180910390f35b6107dc6117da565b6040518080602001828103825283818151815260200191508051906020019080838360005b8381101561081c578082015181840152602081019050610801565b50505050905090810190601f1680156108495780820380516001836020036101000a031916815260200191505b509250505060405180910390f35b6108a56004803603604081101561086d57600080fd5b81019080803573ffffffffffffffffffffffffffffffffffffffff16906020019092919080351515906020019092919050505061187c565b005b6108f3600480360360408110156108bd57600080fd5b81019080803573ffffffffffffffffffffffffffffffffffffffff16906020019092919080359060200190929190505050611b06565b005b6109f86004803603608081101561090b57600080fd5b81019080803573ffffffffffffffffffffffffffffffffffffffff169060200190929190803573ffffffffffffffffffffffffffffffffffffffff169060200190929190803590602001909291908035906020019064010000000081111561097257600080fd5b82018360208201111561098457600080fd5b803590602001918460018302840111640100000000831117156109a657600080fd5b91908080601f016020809104026020016040519081016040528093929190818152602001838380828437600081840152601f19601f820116905080830192505050505050509192919290505050611c14565b005b610a02611c87565b604051808273ffffffffffffffffffffffffffffffffffffffff1673ffffffffffffffffffffffffffffffffffffffff16815260200191505060405180910390f35b610a7060048036036020811015610a5a57600080fd5b8101908080359060200190929190505050611cb0565b6040518082815260200191505060405180910390f35b610ae860048036036040811015610a9c57600080fd5b81019080803573ffffffffffffffffffffffffffffffffffffffff169060200190929190803573ffffffffffffffffffffffffffffffffffffffff169060200190929190505050611e59565b604051808215151515815260200191505060405180910390f35b60006380ac58cd60e01b7bffffffffffffffffffffffffffffffffffffffffffffffffffffffff1916827bffffffffffffffffffffffffffffffffffffffffffffffffffffffff19161480610b9b57506301ffc9a760e01b7bffffffffffffffffffffffffffffffffffffffffffffffffffffffff1916827bffffffffffffffffffffffffffffffffffffffffffffffffffffffff1916145b9050919050565b606060078054600181600116156101000203166002900480601f016020809104026020016040519081016040528092919081815260200182805460018160011615610100020316600290048015610c3a5780601f10610c0f57610100808354040283529160200191610c3a565b820191906000526020600020905b815481529060010190602001808311610c1d57829003601f168201915b5050505050905090565b600080610c4f6110c2565b11610c5957600080fd5b60008210158015610c705750610c6d6110c2565b82105b610c7957600080fd5b610c8282611eed565b9050919050565b600073ffffffffffffffffffffffffffffffffffffffff163373ffffffffffffffffffffffffffffffffffffffff161415610cc357600080fd5b3373ffffffffffffffffffffffffffffffffffffffff166004600083815260200190815260200160002060009054906101000a900473ffffffffffffffffffffffffffffffffffffffff1673ffffffffffffffffffffffffffffffffffffffff161480610df0575060011515600660006004600085815260200190815260200160002060009054906101000a900473ffffffffffffffffffffffffffffffffffffffff1673ffffffffffffffffffffffffffffffffffffffff1673ffffffffffffffffffffffffffffffffffffffff16815260200190815260200160002060003373ffffffffffffffffffffffffffffffffffffffff1673ffffffffffffffffffffffffffffffffffffffff16815260200190815260200160002060009054906101000a900460ff161515145b610df957600080fd5b610e038282611f2a565b808273ffffffffffffffffffffffffffffffffffffffff163373ffffffffffffffffffffffffffffffffffffffff167f8c5be1e5ebec7d5bd14f71427d1e84f3dd0314c0f7b2291e5b200ac8c7c3b92560405160405180910390a45050565b60606000610e6f836115c2565b90506000811415610eb3576000604051908082528060200260200182016040528015610eaa5781602001602082028038833980820191505090505b50915050610fa5565b606081604051908082528060200260200182016040528015610ee45781602001602082028038833980820191505090505b5090506000610ef16110c2565b905060008090506000600190505b828111610f9c578673ffffffffffffffffffffffffffffffffffffffff166004600083815260200190815260200160002060009054906101000a900473ffffffffffffffffffffffffffffffffffffffff1673ffffffffffffffffffffffffffffffffffffffff161415610f8f5780848381518110610f7a57fe5b60200260200101818152505081806001019250505b8080600101915050610eff565b83955050505050505b919050565b60008060008060008560018054905011610fc357600080fd5b60018681548110610fd057fe5b906000526020600020906002020160000154945060018681548110610ff157fe5b906000526020600020906002020160010160009054906101000a900467ffffffffffffffff1693506001868154811061102657fe5b906000526020600020906002020160010160089054906101000a900463ffffffff1692506001868154811061105757fe5b9060005260206000209060020201600101600c9054906101000a900463ffffffff1691506001868154811061108857fe5b906000526020600020906002020160010160109054906101000a900461ffff16905084848484849450945094509450945091939590929450565b6000600180549050905090565b600073ffffffffffffffffffffffffffffffffffffffff168273ffffffffffffffffffffffffffffffffffffffff16141561110957600080fd5b3373ffffffffffffffffffffffffffffffffffffffff166004600083815260200190815260200160002060009054906101000a900473ffffffffffffffffffffffffffffffffffffffff1673ffffffffffffffffffffffffffffffffffffffff1614806111d457503373ffffffffffffffffffffffffffffffffffffffff166005600083815260200190815260200160002060009054906101000a900473ffffffffffffffffffffffffffffffffffffffff1673ffffffffffffffffffffffffffffffffffffffff16145b806112985750600660006004600084815260200190815260200160002060009054906101000a900473ffffffffffffffffffffffffffffffffffffffff1673ffffffffffffffffffffffffffffffffffffffff1673ffffffffffffffffffffffffffffffffffffffff16815260200190815260200160002060003373ffffffffffffffffffffffffffffffffffffffff1673ffffffffffffffffffffffffffffffffffffffff16815260200190815260200160002060009054906101000a900460ff165b6112a157600080fd5b6004600082815260200190815260200160002060009054906101000a900473ffffffffffffffffffffffffffffffffffffffff1673ffffffffffffffffffffffffffffffffffffffff168373ffffffffffffffffffffffffffffffffffffffff161461130c57600080fd5b6000811015801561132357506113206110c2565b81105b61132c57600080fd5b611337838383611f80565b505050565b60003373ffffffffffffffffffffffffffffffffffffffff16600460008563ffffffff16815260200190815260200160002060009054906101000a900473ffffffffffffffffffffffffffffffffffffffff1673ffffffffffffffffffffffffffffffffffffffff1614801561141657503373ffffffffffffffffffffffffffffffffffffffff16600460008463ffffffff16815260200190815260200160002060009054906101000a900473ffffffffffffffffffffffffffffffffffffffff1673ffffffffffffffffffffffffffffffffffffffff16145b61141f57600080fd5b61142a3384846121a4565b905092915050565b61144d83838360405180602001604052806000815250611c14565b505050565b600960029054906101000a900460ff168061147157506114706122c9565b5b806114895750600960019054906101000a900460ff16155b6114de576040517f08c379a000000000000000000000000000000000000000000000000000000000815260040180806020018281038252602e815260200180612e8f602e913960400191505060405180910390fd5b6000600960029054906101000a900460ff161590508015611530576001600960026101000a81548160ff0219169083151502179055506001600960016101000a81548160ff0219169083151502179055505b8260079080519060200190611546929190612ca2565b50816008908051906020019061155d929190612ca2565b508015611580576000600960026101000a81548160ff0219169083151502179055505b505050565b60006004600083815260200190815260200160002060009054906101000a900473ffffffffffffffffffffffffffffffffffffffff169050919050565b6000600360008373ffffffffffffffffffffffffffffffffffffffff1673ffffffffffffffffffffffffffffffffffffffff168152602001908152602001600020549050919050565b600960029054906101000a900460ff168061162a57506116296122c9565b5b806116425750600960019054906101000a900460ff16155b611697576040517f08c379a000000000000000000000000000000000000000000000000000000000815260040180806020018281038252602e815260200180612e8f602e913960400191505060405180910390fd5b6000600960029054906101000a900460ff1615905080156116e9576001600960026101000a81548160ff0219169083151502179055506001600960016101000a81548160ff0219169083151502179055505b61175d6040518060400160405280600b81526020017f43727970746f50616e64610000000000000000000000000000000000000000008152506040518060400160405280600281526020017f4350000000000000000000000000000000000000000000000000000000000000815250611452565b6000600260006101000a81548160ff021916908360ff16021790555061178f6000806619ca43fb1302e16000306122e0565b5080156117b2576000600960026101000a81548160ff0219169083151502179055505b50565b6000809054906101000a900473ffffffffffffffffffffffffffffffffffffffff1681565b606060088054600181600116156101000203166002900480601f0160208091040260200160405190810160405280929190818152602001828054600181600116156101000203166002900480156118725780601f1061184757610100808354040283529160200191611872565b820191906000526020600020905b81548152906001019060200180831161185557829003601f168201915b5050505050905090565b600073ffffffffffffffffffffffffffffffffffffffff163373ffffffffffffffffffffffffffffffffffffffff16141561191f576040517f08c379a000000000000000000000000000000000000000000000000000000000815260040180806020018281038252601a8152602001807f4552524f523a206974206973207468652030206164647265737300000000000081525060200191505060405180910390fd5b801515600660003373ffffffffffffffffffffffffffffffffffffffff1673ffffffffffffffffffffffffffffffffffffffff16815260200190815260200160002060008473ffffffffffffffffffffffffffffffffffffffff1673ffffffffffffffffffffffffffffffffffffffff16815260200190815260200160002060009054906101000a900460ff1615151415611a05576040517f08c379a000000000000000000000000000000000000000000000000000000000815260040180806020018281038252602e815260200180612de3602e913960400191505060405180910390fd5b80600660003373ffffffffffffffffffffffffffffffffffffffff1673ffffffffffffffffffffffffffffffffffffffff16815260200190815260200160002060008473ffffffffffffffffffffffffffffffffffffffff1673ffffffffffffffffffffffffffffffffffffffff16815260200190815260200160002060006101000a81548160ff0219169083151502179055508173ffffffffffffffffffffffffffffffffffffffff163373ffffffffffffffffffffffffffffffffffffffff167f17307eab39ab6107e8899845ad3d59bd9653f200f220920489ca2b5937696c3183604051808215151515815260200191505060405180910390a35050565b600073ffffffffffffffffffffffffffffffffffffffff168273ffffffffffffffffffffffffffffffffffffffff161415611b4057600080fd5b6000809054906101000a900473ffffffffffffffffffffffffffffffffffffffff1673ffffffffffffffffffffffffffffffffffffffff168273ffffffffffffffffffffffffffffffffffffffff161415611b9a57600080fd5b3373ffffffffffffffffffffffffffffffffffffffff166004600083815260200190815260200160002060009054906101000a900473ffffffffffffffffffffffffffffffffffffffff1673ffffffffffffffffffffffffffffffffffffffff1614611c0557600080fd5b611c10338383611f80565b5050565b611c20338585856124d2565b611c75576040517f08c379a0000000000000000000000000000000000000000000000000000000008152600401808060200182810382526025815260200180612e3f6025913960400191505060405180910390fd5b611c8184848484612815565b50505050565b60008060009054906101000a900473ffffffffffffffffffffffffffffffffffffffff16905090565b60008060009054906101000a900473ffffffffffffffffffffffffffffffffffffffff1673ffffffffffffffffffffffffffffffffffffffff163373ffffffffffffffffffffffffffffffffffffffff1614611d74576040517f08c379a00000000000000000000000000000000000000000000000000000000081526004018080602001828103825260118152602001807f6572726f723a206f6e6c794f776e65722100000000000000000000000000000081525060200191505060405180910390fd5b600960009054906101000a900460ff1660ff16600260009054906101000a900460ff1660ff1610611df0576040517f08c379a0000000000000000000000000000000000000000000000000000000008152600401808060200182810382526025815260200180612ef46025913960400191505060405180910390fd5b6002600081819054906101000a900460ff168092919060010191906101000a81548160ff021916908360ff16021790555050611e526000808460008060009054906101000a900473ffffffffffffffffffffffffffffffffffffffff166122e0565b9050919050565b6000600660008473ffffffffffffffffffffffffffffffffffffffff1673ffffffffffffffffffffffffffffffffffffffff16815260200190815260200160002060008373ffffffffffffffffffffffffffffffffffffffff1673ffffffffffffffffffffffffffffffffffffffff16815260200190815260200160002060009054906101000a900460ff16905092915050565b60006005600083815260200190815260200160002060009054906101000a900473ffffffffffffffffffffffffffffffffffffffff169050919050565b816005600083815260200190815260200160002060006101000a81548173ffffffffffffffffffffffffffffffffffffffff021916908373ffffffffffffffffffffffffffffffffffffffff1602179055505050565b600360008373ffffffffffffffffffffffffffffffffffffffff1673ffffffffffffffffffffffffffffffffffffffff16815260200190815260200160002060008154809291906001019190505550816004600083815260200190815260200160002060006101000a81548173ffffffffffffffffffffffffffffffffffffffff021916908373ffffffffffffffffffffffffffffffffffffffff160217905550600073ffffffffffffffffffffffffffffffffffffffff168373ffffffffffffffffffffffffffffffffffffffff16146120dc57600360008473ffffffffffffffffffffffffffffffffffffffff1673ffffffffffffffffffffffffffffffffffffffff16815260200190815260200160002060008154809291906001900391905055506005600082815260200190815260200160002060006101000a81549073ffffffffffffffffffffffffffffffffffffffff02191690555b8173ffffffffffffffffffffffffffffffffffffffff166004600083815260200190815260200160002060009054906101000a900473ffffffffffffffffffffffffffffffffffffffff1673ffffffffffffffffffffffffffffffffffffffff161461214457fe5b808273ffffffffffffffffffffffffffffffffffffffff168473ffffffffffffffffffffffffffffffffffffffff167fddf252ad1be2c89b69c2b068fc378daa952ba7f163c4a11628f55a4df523b3ef60405160405180910390a4505050565b60008060018463ffffffff16815481106121ba57fe5b9060005260206000209060020201600001549050600060018463ffffffff16815481106121e357fe5b906000526020600020906002020160000154905060006122038383612887565b9050600060018763ffffffff168154811061221a57fe5b906000526020600020906002020160010160109054906101000a900461ffff169050600060018763ffffffff168154811061225157fe5b906000526020600020906002020160010160109054906101000a900461ffff16905060008161ffff168361ffff161415612290576001830190506122ad565b8161ffff168361ffff1610156122a8578190506122ac565b8290505b5b6122ba888a86848e6122e0565b96505050505050509392505050565b6000803090506000813b9050600081149250505090565b60006122ea612d22565b6040518060a001604052808681526020014267ffffffffffffffff1681526020018863ffffffff1681526020018763ffffffff1681526020018561ffff168152509050600060018083908060018154018082558091505090600182039060005260206000209060020201600090919290919091506000820151816000015560208201518160010160006101000a81548167ffffffffffffffff021916908367ffffffffffffffff16021790555060408201518160010160086101000a81548163ffffffff021916908363ffffffff160217905550606082015181600101600c6101000a81548163ffffffff021916908363ffffffff16021790555060808201518160010160106101000a81548161ffff021916908361ffff160217905550505003905061241960008583611f80565b7fe311e436405c2f9357d626ad758a4cf5bcd7b808f30b9cbe08179b038534023c84828a8a8a8a604051808773ffffffffffffffffffffffffffffffffffffffff1673ffffffffffffffffffffffffffffffffffffffff1681526020018681526020018563ffffffff1663ffffffff1681526020018463ffffffff1663ffffffff1681526020018381526020018261ffff1661ffff168152602001965050505050505060405180910390a1809250505095945050505050565b60008073ffffffffffffffffffffffffffffffffffffffff168373ffffffffffffffffffffffffffffffffffffffff161415612559576040517f08c379a0000000000000000000000000000000000000000000000000000000008152600401808060200182810382526034815260200180612f196034913960400191505060405180910390fd5b6004600083815260200190815260200160002060009054906101000a900473ffffffffffffffffffffffffffffffffffffffff1673ffffffffffffffffffffffffffffffffffffffff168473ffffffffffffffffffffffffffffffffffffffff1614612610576040517f08c379a000000000000000000000000000000000000000000000000000000000815260040180806020018281038252602e815260200180612e11602e913960400191505060405180910390fd5b60008211801561262757506126236110c2565b8211155b61267c576040517f08c379a0000000000000000000000000000000000000000000000000000000008152600401808060200182810382526037815260200180612ebd6037913960400191505060405180910390fd5b8473ffffffffffffffffffffffffffffffffffffffff166004600084815260200190815260200160002060009054906101000a900473ffffffffffffffffffffffffffffffffffffffff1673ffffffffffffffffffffffffffffffffffffffff16148061274757508473ffffffffffffffffffffffffffffffffffffffff166005600084815260200190815260200160002060009054906101000a900473ffffffffffffffffffffffffffffffffffffffff1673ffffffffffffffffffffffffffffffffffffffff16145b8061280b5750600660006004600085815260200190815260200160002060009054906101000a900473ffffffffffffffffffffffffffffffffffffffff1673ffffffffffffffffffffffffffffffffffffffff1673ffffffffffffffffffffffffffffffffffffffff16815260200190815260200160002060008673ffffffffffffffffffffffffffffffffffffffff1673ffffffffffffffffffffffffffffffffffffffff16815260200190815260200160002060009054906101000a900460ff165b9050949350505050565b61282184848484612aa5565b612876576040517f08c379a000000000000000000000000000000000000000000000000000000000815260040180806020018281038252602b815260200180612e64602b913960400191505060405180910390fd5b612881848484611f80565b50505050565b6000612891612d6b565b600060ff428161289d57fe5b0690506000600842816128ac57fe5b0690506000606442816128bb57fe5b069050600060079050600060019050600060038560ff161115806128f3575060058560ff16101580156128f2575060068560ff1611155b5b156129245760628460ff16111561290d576062935061291f565b600a8460ff16101561291e57600a93505b5b612992565b60048560ff16141561295c57602c8460ff16111561294557602c9350612957565b600b8460ff16101561295657600b93505b5b612991565b60078560ff1614156129905760458460ff16111561297d576045935061298f565b600b8460ff16101561298e57600b93505b5b5b5b5b600191505b60808211612a56578460ff168360ff1614156129ce578360ff16878460ff16600881106129c057fe5b602002018181525050612a28565b6000828760ff161614612a0357606489816129e557fe5b06878460ff16600881106129f557fe5b602002018181525050612a27565b60648a81612a0d57fe5b06878460ff1660088110612a1d57fe5b6020020181815250505b5b60648981612a3257fe5b04985060648a81612a3f57fe5b049950828060019003935050600282029150612997565b600091505b6008821015612a9557868260088110612a7057fe5b60200201518101905060078214612a88576064810290505b8180600101925050612a5b565b8097505050505050505092915050565b6000612ab084612c89565b612abd5760019050612c81565b60008473ffffffffffffffffffffffffffffffffffffffff1663150b7a02338887876040518563ffffffff1660e01b8152600401808573ffffffffffffffffffffffffffffffffffffffff1673ffffffffffffffffffffffffffffffffffffffff1681526020018473ffffffffffffffffffffffffffffffffffffffff1673ffffffffffffffffffffffffffffffffffffffff16815260200183815260200180602001828103825283818151815260200191508051906020019080838360005b83811015612b98578082015181840152602081019050612b7d565b50505050905090810190601f168015612bc55780820380516001836020036101000a031916815260200191505b5095505050505050602060405180830381600087803b158015612be757600080fd5b505af1158015612bfb573d6000803e3d6000fd5b505050506040513d6020811015612c1157600080fd5b810190808051906020019092919050505090506040518080612db4602f9139602f01905060405180910390207bffffffffffffffffffffffffffffffffffffffffffffffffffffffff1916817bffffffffffffffffffffffffffffffffffffffffffffffffffffffff1916149150505b949350505050565b600080823b905060008163ffffffff1611915050919050565b828054600181600116156101000203166002900490600052602060002090601f016020900481019282601f10612ce357805160ff1916838001178555612d11565b82800160010185558215612d11579182015b82811115612d10578251825591602001919060010190612cf5565b5b509050612d1e9190612d8e565b5090565b6040518060a0016040528060008152602001600067ffffffffffffffff168152602001600063ffffffff168152602001600063ffffffff168152602001600061ffff1681525090565b604051806101000160405280600890602082028038833980820191505090505090565b612db091905b80821115612dac576000816000905550600101612d94565b5090565b9056fe6f6e455243373231526563656976656428616464726573732c616464726573732c75696e743235362c6279746573294552524f523a204f70657261746f7220666c6167206973207468652073616d652061732073656e742076616c75655f6973417070726f7665644f724f776e65723a204e6f7420746865206f776e6572206f662074686520546f6b656e736166655472616e7366657246726f6d3a204572726f722c206e6f7420617070726f766564436865636b455243373231537570706f7274206572726f7220696e205f736166655472616e736665722121436f6e747261637420696e7374616e63652068617320616c7265616479206265656e20696e697469616c697a65645f6973417070726f7665644f724f776e65723a20546f6b656e49642069732067726561746572207468616e20746f74616c537570706c7947656e2030204c696d69742072656163686564202831302070616e646173206c696d6974295f6973417070726f7665644f724f776e65723a20416464726573732030206973206e6f7420612076616c69642061646472657373a265627a7a72315820dea5385788180c7aad42ca682983ef53c55fe3d1d9220b5111663d907d168fc264736f6c634300050c0032",
  "source": "pragma solidity ^0.5.12;\n\nimport \"./PandaToken.sol\";\n\ncontract PandaContract is Initializable , PandaToken {\n\n    event Approval(address indexed owner, address indexed approved, uint256 indexed PandaId);\n    event Birth(address _owner,uint256 PandaId, uint32 mumId, uint32 dadId, uint256 genes,uint16 generation); \n\n\n    function initialize() public initializer{\n        PandaToken.initialize(\"CryptoPanda\",\"CP\");\n        gen0Counter= 0;\n        //Creating first panda not owned by anyone, so that ,\n        //first valid Panda tokenId 1 will match position 1 in the PandaArray\n        _CreatePanda(0,0,7259267741713121,0,address(this)); \n    }\n\n    function createPandaGen0(uint256 _genes) public onlyOwner returns (uint256) {\n        require( gen0Counter < CREATION_GEN_LIMIT,\"Gen 0 Limit reached (10 pandas limit)\");\n        gen0Counter++;\n        return _CreatePanda(0,0,_genes,0,owner);\n    }\n\n    function _CreatePanda(uint32 _mumId,uint32 _dadId,uint256 _genes,uint16 _generation,address _owner) private returns (uint256){\n        Panda memory _panda = Panda({\n            genes: _genes,\n            birthTime:uint64(now),\n            mumId:uint32(_mumId),\n            dadId:uint32(_dadId),\n            generation:uint16(_generation)\n        });\n\n        uint256 newPandaId = _pandas.push(_panda)-1;\n\n        _transfer(address(0), _owner, newPandaId);\n\n        emit Birth(_owner, newPandaId, _mumId, _dadId, _genes,_generation);\n\n        return newPandaId;\n    }\n\n    function getPanda(uint256 tokenId) public view returns(uint256 genes,uint64 birthTime,uint32 mumId,uint32 dadId,uint16 generation) \n    {\n        require(_pandas.length > tokenId);\n\n        genes       =_pandas[tokenId].genes;\n        birthTime   =_pandas[tokenId].birthTime;\n        mumId       =_pandas[tokenId].mumId;\n        dadId       =_pandas[tokenId].dadId;\n        generation  =_pandas[tokenId].generation;\n\n        return (genes,birthTime,mumId,dadId,generation);\n    }\n\n    function _pandasOfOwner (address PandaOwnerAddress) public view returns (uint256[] memory ){\n        uint256 numberOfPandasOwned = balanceOf(PandaOwnerAddress);\n\n        if( numberOfPandasOwned == 0){\n            return new uint256[](0);\n        }else{\n            uint256[] memory result =  new uint256[](numberOfPandasOwned);\n            uint256 totalPandas = totalSupply();\n            uint256 resultIndex = 0;\n\n            uint256 pandaId;\n            for(pandaId=1; pandaId<= totalPandas; pandaId++){  \n                if(_PandaOwner[pandaId]==PandaOwnerAddress){\n                    result[resultIndex] = pandaId;\n                    resultIndex++;\n                }\n            }\n            return result;\n        }\n    }\n\n    \n    /// @dev Throws unless `msg.sender` is the current owner of both NFT\n    /// @param _dadId The Dad NFT Id\n    /// @param _mumId The Mum NFT Id\n    function breed(uint32 _dadId, uint32 _mumId) external returns (uint256){\n        //Require that msg.sender owns both NFT\n        require(_PandaOwner[_dadId] == msg.sender && _PandaOwner[_mumId] == msg.sender);\n\n        return _breed(msg.sender, _dadId, _mumId);\n      \n    }\n\n    function _breed(address _owner, uint32 _dadId, uint32 _mumId) internal returns (uint256){\n\n        uint256 dadGenes = _pandas[_dadId].genes;\n        uint256 mumGenes = _pandas[_mumId].genes;\n        uint256 newGenes =  _mixDna_Advanced(dadGenes, mumGenes);\n\n        //calculate generation\n        uint16 DadGeneration =  _pandas[_dadId].generation;\n        uint16 MumGeneration =  _pandas[_mumId].generation; \n        uint16 NewGeneration;\n\n        if (DadGeneration==MumGeneration){\n            NewGeneration = DadGeneration+1;\n        }else if(DadGeneration<MumGeneration){\n            NewGeneration = MumGeneration;\n        }else{\n            NewGeneration = DadGeneration;\n        }\n\n        return _CreatePanda(_mumId, _dadId, newGenes, NewGeneration,_owner);        \n    }\n\n    function _mixDna(uint256 _dadDna, uint256 _mumDna) internal pure returns (uint256){\n        uint256 firsthalf = _dadDna /100000000;\n        uint256 secondhalf = _mumDna % 100000000;\n\n        return ((firsthalf *100000000 ) + secondhalf);\n    }\n\n    function _mixDna_Advanced(uint256 _dadDna, uint256 _mumDna) internal view returns (uint256){\n        uint256 [8] memory geneArray;\n        uint8 random = uint8 (now % 255);\n        uint8 randomGenePosition = uint8 (now % 8);\n        uint8 randomGene = uint8( now % 100);\n        uint8 index =7;\n        uint256 i = 1;\n        uint256 newGene;\n\n        if(randomGenePosition<=3 || (randomGenePosition>=5 && randomGenePosition <=6)){\n            if(randomGene > 98){\n                randomGene=98;\n            }else if(randomGene<10){\n                randomGene = 10;\n            }\n        }else if(randomGenePosition==4){\n            if(randomGene > 44){\n                randomGene=44;\n            }else if(randomGene<11){\n                randomGene = 11;\n            }\n        }\n        else if(randomGenePosition==7){\n            if(randomGene > 69){\n                randomGene=69;\n            }else if(randomGene<11){\n                randomGene = 11;\n            }\n        }\n\n        for (i=1 ; i<=128 ; i=i*2){\n            if(index==randomGenePosition){\n                geneArray[index]= randomGene;\n            }else if(random & i != 0 ){\n                geneArray[index]  = _mumDna %  100;\n            }else{\n                geneArray[index]  = _dadDna %  100;\n            }\n\n            _mumDna = _mumDna/100;\n            _dadDna = _dadDna/100;\n\n            index--;\n        }\n\n        for ( i=0 ; i<8;i++){\n            newGene =newGene +geneArray[i];\n            if(i != 7){\n                newGene = newGene * 100;\n            }            \n        }\n\n        return newGene;\n    }    \n}\n\n",
  "sourcePath": "/home/ismael/Documents/Projects/GIT/CryptoKitties-clone/contracts/PandaContract.sol",
  "compiler": {
    "name": "solc",
    "version": "0.5.12+commit.7709ece9.Emscripten.clang"
  },
  "schemaVersion": "3.3.2",
  "updatedAt": "2021-01-27T11:19:23.272Z",
  "networkType": "ethereum",
  "devdoc": {
    "methods": {
      "approve(address,uint256)": {
        "details": "The zero address indicates there is no approved address.  Throws unless `msg.sender` is the current NFT owner, or an authorized  operator of the current owner.",
        "params": {
          "_to": "The new approved NFT controller",
          "_tokenId": "The NFT to approve"
        }
      },
      "balanceOf(address)": {
        "details": "Returns the number of tokens in ``owner``'s account."
      },
      "breed(uint32,uint32)": {
        "details": "Throws unless `msg.sender` is the current owner of both NFT",
        "params": {
          "_dadId": "The Dad NFT Id",
          "_mumId": "The Mum NFT Id"
        }
      },
      "getApproved(uint256)": {
        "details": "Throws if `_tokenId` is not a valid NFT.",
        "params": {
          "_tokenId": "The NFT to find the approved address for"
        },
        "return": "The approved address for this NFT, or the zero address if there is none"
      },
      "isApprovedForAll(address,address)": {
        "params": {
          "_operator": "The address that acts on behalf of the owner",
          "_owner": "The address that owns the NFTs"
        },
        "return": "True if `_operator` is an approved operator for `_owner`, false otherwise"
      },
      "ownerOf(uint256)": {
        "details": "Returns the owner of the `tokenId` token.     * Requirements:     * - `tokenId` must exist."
      },
      "safeTransferFrom(address,address,uint256)": {
        "details": "This works identically to the other function with an extra data parameter,  except this function just sets data to \"\".",
        "params": {
          "_from": "The current owner of the NFT",
          "_to": "The new owner",
          "_tokenId": "The NFT to transfer"
        }
      },
      "safeTransferFrom(address,address,uint256,bytes)": {
        "details": "Throws unless `msg.sender` is the current owner, an authorized  operator, or the approved address for this NFT. Throws if `_from` is  not the current owner. Throws if `_to` is the zero address. Throws if  `_tokenId` is not a valid NFT. When transfer is complete, this function  checks if `_to` is a smart contract (code size > 0). If so, it calls  `onERC721Received` on `_to` and throws if the return value is not  `bytes4(keccak256(\"onERC721Received(address,address,uint256,bytes)\"))`.",
        "params": {
          "_from": "The current owner of the NFT",
          "_to": "The new owner",
          "_tokenId": "The NFT to transfer",
          "data": "Additional data with no specified format, sent in call to `_to`"
        }
      },
      "setApprovalForAll(address,bool)": {
        "details": "Emits the ApprovalForAll event. The contract MUST allow  multiple operators per owner.",
        "params": {
          "_approved": "True if the operator is approved, false to revoke approval",
          "_operator": "Address to add to the set of authorized operators"
        }
      },
      "supportsInterface(bytes4)": {
        "details": "checks if interfaceId supports IERC721 or IERC165"
      },
      "transferFrom(address,address,uint256)": {
        "details": "Throws unless `msg.sender` is the current owner, an authorized  operator, or the approved address for this NFT. Throws if `_from` is  not the current owner. Throws if `_to` is the zero address. Throws if  `_tokenId` is not a valid NFT.",
        "params": {
          "_from": "The current owner of the NFT",
          "_to": "The new owner",
          "_tokenId": "The NFT to transfer"
        }
      }
    }
  },
  "userdoc": {
    "methods": {
      "approve(address,uint256)": {
        "notice": "Change or reaffirm the approved address for an NFT"
      },
      "getApproved(uint256)": {
        "notice": "Get the approved address for a single NFT"
      },
      "isApprovedForAll(address,address)": {
        "notice": "Query if an address is an authorized operator for another address"
      },
      "safeTransferFrom(address,address,uint256)": {
        "notice": "Transfers the ownership of an NFT from one address to another address"
      },
      "safeTransferFrom(address,address,uint256,bytes)": {
        "notice": "Transfers the ownership of an NFT from one address to another address"
      },
      "setApprovalForAll(address,bool)": {
        "notice": "Enable or disable approval for a third party (\"operator\") to manage  all of `msg.sender`'s assets"
      },
      "transferFrom(address,address,uint256)": {
        "notice": "Transfer ownership of an NFT -- THE CALLER IS RESPONSIBLE  TO CONFIRM THAT `_to` IS CAPABLE OF RECEIVING NFTS OR ELSE  THEY MAY BE PERMANENTLY LOST"
      }
    }
  }
}