{
  "contractName": "PandaMarketPlace",
  "abi": [
    {
      "anonymous": false,
      "inputs": [
        {
          "indexed": false,
          "internalType": "string",
          "name": "TxType",
          "type": "string"
        },
        {
          "indexed": false,
          "internalType": "address",
          "name": "owner",
          "type": "address"
        },
        {
          "indexed": false,
          "internalType": "uint256",
          "name": "tokenId",
          "type": "uint256"
        }
      ],
      "name": "MarketTransaction",
      "type": "event"
    },
    {
      "constant": true,
      "inputs": [],
      "name": "owner",
      "outputs": [
        {
          "internalType": "address",
          "name": "",
          "type": "address"
        }
      ],
      "payable": false,
      "stateMutability": "view",
      "type": "function"
    },
    {
      "constant": false,
      "inputs": [
        {
          "internalType": "address",
          "name": "_pandaContractAddress",
          "type": "address"
        }
      ],
      "name": "initialize",
      "outputs": [],
      "payable": false,
      "stateMutability": "nonpayable",
      "type": "function"
    },
    {
      "constant": false,
      "inputs": [
        {
          "internalType": "address",
          "name": "_pandaContractAddress",
          "type": "address"
        }
      ],
      "name": "setPandaContract",
      "outputs": [],
      "payable": false,
      "stateMutability": "nonpayable",
      "type": "function"
    },
    {
      "constant": true,
      "inputs": [
        {
          "internalType": "uint256",
          "name": "_tokenId",
          "type": "uint256"
        }
      ],
      "name": "getOffer",
      "outputs": [
        {
          "internalType": "address",
          "name": "seller",
          "type": "address"
        },
        {
          "internalType": "uint256",
          "name": "price",
          "type": "uint256"
        },
        {
          "internalType": "uint256",
          "name": "index",
          "type": "uint256"
        },
        {
          "internalType": "uint256",
          "name": "tokenId",
          "type": "uint256"
        },
        {
          "internalType": "bool",
          "name": "active",
          "type": "bool"
        }
      ],
      "payable": false,
      "stateMutability": "view",
      "type": "function"
    },
    {
      "constant": true,
      "inputs": [],
      "name": "getAllTokenOnSale",
      "outputs": [
        {
          "internalType": "uint256[]",
          "name": "listOfOffers",
          "type": "uint256[]"
        }
      ],
      "payable": false,
      "stateMutability": "view",
      "type": "function"
    },
    {
      "constant": false,
      "inputs": [
        {
          "internalType": "uint256",
          "name": "_price",
          "type": "uint256"
        },
        {
          "internalType": "uint256",
          "name": "_tokenId",
          "type": "uint256"
        }
      ],
      "name": "setOffer",
      "outputs": [],
      "payable": false,
      "stateMutability": "nonpayable",
      "type": "function"
    },
    {
      "constant": false,
      "inputs": [
        {
          "internalType": "uint256",
          "name": "_tokenId",
          "type": "uint256"
        }
      ],
      "name": "removeOffer",
      "outputs": [],
      "payable": false,
      "stateMutability": "nonpayable",
      "type": "function"
    },
    {
      "constant": false,
      "inputs": [
        {
          "internalType": "uint256",
          "name": "_tokenId",
          "type": "uint256"
        }
      ],
      "name": "buyPanda",
      "outputs": [],
      "payable": true,
      "stateMutability": "payable",
      "type": "function"
    }
  ],
  "bytecode": "0x6080604052600060365533603360006101000a81548173ffffffffffffffffffffffffffffffffffffffff021916908373ffffffffffffffffffffffffffffffffffffffff160217905550611554806100596000396000f3fe60806040526004361061007b5760003560e01c806395a0f9c71161004e57806395a0f9c714610223578063a96ea6491461025e578063c4d66de81461028c578063e897bd9c146102dd5761007b565b80634579268a1461008057806349b3709f1461011b5780638da5cb5b14610187578063941b055b146101de575b600080fd5b34801561008c57600080fd5b506100b9600480360360208110156100a357600080fd5b810190808035906020019092919050505061032e565b604051808673ffffffffffffffffffffffffffffffffffffffff1673ffffffffffffffffffffffffffffffffffffffff168152602001858152602001848152602001838152602001821515151581526020019550505050505060405180910390f35b34801561012757600080fd5b506101306104b6565b6040518080602001828103825283818151815260200191508051906020019060200280838360005b83811015610173578082015181840152602081019050610158565b505050509050019250505060405180910390f35b34801561019357600080fd5b5061019c61054e565b604051808273ffffffffffffffffffffffffffffffffffffffff1673ffffffffffffffffffffffffffffffffffffffff16815260200191505060405180910390f35b3480156101ea57600080fd5b506102216004803603604081101561020157600080fd5b810190808035906020019092919080359060200190929190505050610574565b005b34801561022f57600080fd5b5061025c6004803603602081101561024657600080fd5b8101908080359060200190929190505050610c35565b005b61028a6004803603602081101561027457600080fd5b8101908080359060200190929190505050610e25565b005b34801561029857600080fd5b506102db600480360360208110156102af57600080fd5b81019080803573ffffffffffffffffffffffffffffffffffffffff16906020019092919050505061122a565b005b3480156102e957600080fd5b5061032c6004803603602081101561030057600080fd5b81019080803573ffffffffffffffffffffffffffffffffffffffff169060200190929190505050611333565b005b60008060008060008060376000888152602001908152602001600020600301541180156103825750600115156037600088815260200190815260200160002060040160009054906101000a900460ff161515145b6103f4576040517f08c379a000000000000000000000000000000000000000000000000000000000815260040180806020018281038252601f8152602001807f4e6f20616374697665206f6666657220666f722074686520746f6b656e49440081525060200191505060405180910390fd5b6037600083815260200190815260200160002060000160009054906101000a900473ffffffffffffffffffffffffffffffffffffffff1694506037600083815260200190815260200160002060010154935060376000838152602001908152602001600020600201549250603760008381526020019081526020016000206003015491506037600083815260200190815260200160002060040160009054906101000a900460ff16905084848484849450945094509450945091939590929450565b606060006035805490501180156104cf57506000603654115b610541576040517f08c379a00000000000000000000000000000000000000000000000000000000081526004018080602001828103825260098152602001807f4e6f204f6666657273000000000000000000000000000000000000000000000081525060200191505060405180910390fd5b610549611377565b905090565b603360009054906101000a900473ffffffffffffffffffffffffffffffffffffffff1681565b3373ffffffffffffffffffffffffffffffffffffffff16603460009054906101000a900473ffffffffffffffffffffffffffffffffffffffff1673ffffffffffffffffffffffffffffffffffffffff16636352211e836040518263ffffffff1660e01b81526004018082815260200191505060206040518083038186803b1580156105fe57600080fd5b505afa158015610612573d6000803e3d6000fd5b505050506040513d602081101561062857600080fd5b810190808051906020019092919050505073ffffffffffffffffffffffffffffffffffffffff16146106c2576040517f08c379a000000000000000000000000000000000000000000000000000000000815260040180806020018281038252601a8152602001807f4e6f7420746865206f776e6572206f662074686520746f6b656e00000000000081525060200191505060405180910390fd5b600015156037600083815260200190815260200160002060040160009054906101000a900460ff1615151461075f576040517f08c379a00000000000000000000000000000000000000000000000000000000081526004018080602001828103825260168152602001807f416c726561647920616e206f666665722065786973740000000000000000000081525060200191505060405180910390fd5b603460009054906101000a900473ffffffffffffffffffffffffffffffffffffffff1673ffffffffffffffffffffffffffffffffffffffff1663e985e9c533306040518363ffffffff1660e01b8152600401808373ffffffffffffffffffffffffffffffffffffffff1673ffffffffffffffffffffffffffffffffffffffff1681526020018273ffffffffffffffffffffffffffffffffffffffff1673ffffffffffffffffffffffffffffffffffffffff1681526020019250505060206040518083038186803b15801561083257600080fd5b505afa158015610846573d6000803e3d6000fd5b505050506040513d602081101561085c57600080fd5b81019080805190602001909291905050506108df576040517f08c379a000000000000000000000000000000000000000000000000000000000815260040180806020018281038252601f8152602001807f4e6f7420616e206f70657261746f7220666f722074686520746f6b656e49640081525060200191505060405180910390fd5b80603760008381526020019081526020016000206003015414156109d557600060376000838152602001908152602001600020600201549050336035828154811061092657fe5b906000526020600020906005020160000160006101000a81548173ffffffffffffffffffffffffffffffffffffffff021916908373ffffffffffffffffffffffffffffffffffffffff160217905550826035828154811061098357fe5b9060005260206000209060050201600101819055506001603582815481106109a757fe5b906000526020600020906005020160040160006101000a81548160ff02191690831515021790555050610b7b565b6109dd611446565b6040518060a001604052803373ffffffffffffffffffffffffffffffffffffffff1681526020018481526020016001603580549050038152602001838152602001600115158152509050806037600084815260200190815260200160002060008201518160000160006101000a81548173ffffffffffffffffffffffffffffffffffffffff021916908373ffffffffffffffffffffffffffffffffffffffff16021790555060208201518160010155604082015181600201556060820151816003015560808201518160040160006101000a81548160ff0219169083151502179055509050506035819080600181540180825580915050906001820390600052602060002090600502016000909192909190915060008201518160000160006101000a81548173ffffffffffffffffffffffffffffffffffffffff021916908373ffffffffffffffffffffffffffffffffffffffff16021790555060208201518160010155604082015181600201556060820151816003015560808201518160040160006101000a81548160ff021916908315150217905550505050505b6036600081548092919060010191905055507fd99e4fad9ad6313b1feb588fa8e605e3a9873172f2024330c35dd2b4041a4386338260405180806020018473ffffffffffffffffffffffffffffffffffffffff1673ffffffffffffffffffffffffffffffffffffffff1681526020018381526020018281038252600c8152602001807f437265617465206f666665720000000000000000000000000000000000000000815250602001935050505060405180910390a15050565b3373ffffffffffffffffffffffffffffffffffffffff166037600083815260200190815260200160002060000160009054906101000a900473ffffffffffffffffffffffffffffffffffffffff1673ffffffffffffffffffffffffffffffffffffffff1614610cef576040517f08c379a000000000000000000000000000000000000000000000000000000000815260040180806020018281038252602d81526020018061148e602d913960400191505060405180910390fd5b60006037600083815260200190815260200160002060040160006101000a81548160ff02191690831515021790555060006035603760008481526020019081526020016000206002015481548110610d4357fe5b906000526020600020906005020160040160006101000a81548160ff021916908315150217905550603660008154809291906001900391905055507fd99e4fad9ad6313b1feb588fa8e605e3a9873172f2024330c35dd2b4041a4386338260405180806020018473ffffffffffffffffffffffffffffffffffffffff1673ffffffffffffffffffffffffffffffffffffffff1681526020018381526020018281038252600c8152602001807f52656d6f7665206f666665720000000000000000000000000000000000000000815250602001935050505060405180910390a150565b610e2d611446565b603760008381526020019081526020016000206040518060a00160405290816000820160009054906101000a900473ffffffffffffffffffffffffffffffffffffffff1673ffffffffffffffffffffffffffffffffffffffff1673ffffffffffffffffffffffffffffffffffffffff1681526020016001820154815260200160028201548152602001600382015481526020016004820160009054906101000a900460ff161515151581525050905034603760008481526020019081526020016000206001015414610f4a576040517f08c379a00000000000000000000000000000000000000000000000000000000081526004018080602001828103825260378152602001806114bb6037913960400191505060405180910390fd5b600115156037600084815260200190815260200160002060040160009054906101000a900460ff16151514610f7e57600080fd5b60006037600084815260200190815260200160002060040160006101000a81548160ff02191690831515021790555060006035603760008581526020019081526020016000206002015481548110610fd257fe5b906000526020600020906005020160040160006101000a81548160ff02191690831515021790555060008160200151111561105757806000015173ffffffffffffffffffffffffffffffffffffffff166108fc82602001519081150290604051600060405180830381858888f19350505050158015611055573d6000803e3d6000fd5b505b603460009054906101000a900473ffffffffffffffffffffffffffffffffffffffff1673ffffffffffffffffffffffffffffffffffffffff166342842e0e6037600085815260200190815260200160002060000160009054906101000a900473ffffffffffffffffffffffffffffffffffffffff1633856040518463ffffffff1660e01b8152600401808473ffffffffffffffffffffffffffffffffffffffff1673ffffffffffffffffffffffffffffffffffffffff1681526020018373ffffffffffffffffffffffffffffffffffffffff1673ffffffffffffffffffffffffffffffffffffffff1681526020018281526020019350505050600060405180830381600087803b15801561116a57600080fd5b505af115801561117e573d6000803e3d6000fd5b505050507fd99e4fad9ad6313b1feb588fa8e605e3a9873172f2024330c35dd2b4041a4386338360405180806020018473ffffffffffffffffffffffffffffffffffffffff1673ffffffffffffffffffffffffffffffffffffffff168152602001838152602001828103825260038152602001807f4275790000000000000000000000000000000000000000000000000000000000815250602001935050505060405180910390a15050565b600060019054906101000a900460ff1680611249575061124861142f565b5b8061126057506000809054906101000a900460ff16155b6112b5576040517f08c379a000000000000000000000000000000000000000000000000000000000815260040180806020018281038252602e8152602001806114f2602e913960400191505060405180910390fd5b60008060019054906101000a900460ff161590508015611305576001600060016101000a81548160ff02191690831515021790555060016000806101000a81548160ff0219169083151502179055505b61130e82611333565b801561132f5760008060016101000a81548160ff0219169083151502179055505b5050565b80603460006101000a81548173ffffffffffffffffffffffffffffffffffffffff021916908373ffffffffffffffffffffffffffffffffffffffff16021790555050565b606060008090506000809050600091505b6035805490508210801561139d575060365481105b156114275760011515603583815481106113b357fe5b906000526020600020906005020160040160009054906101000a900460ff161515141561141a57603582815481106113e757fe5b90600052602060002090600502016003015483828151811061140557fe5b60200260200101818152505080806001019150505b8180600101925050611388565b829250505090565b6000803090506000813b9050600081149250505090565b6040518060a00160405280600073ffffffffffffffffffffffffffffffffffffffff168152602001600081526020016000815260200160008152602001600015158152509056fe4f6e6c792073656c6c6572206f662074686520746f6b656e2063616e2072656d6f766520746865206f666665725472616e73616374696f6e2076616c756520646f6573206e6f74206d6174636820746865207072696365206f662074686520746f6b656e436f6e747261637420696e7374616e63652068617320616c7265616479206265656e20696e697469616c697a6564a265627a7a72315820fcd784a95c051c3f1bcd3c29f6cce40208926fee4d0ffadfe1a793b50584d7ed64736f6c634300050c0032",
  "source": "pragma solidity ^0.5.12;\n\nimport \"./IPandaMarketPlace.sol\";\nimport \"./PandaMarketPlaceStorage.sol\";\n\ncontract PandaMarketPlace is Initializable,IPandaMarketPlace, Ownable,PandaMarketPlaceStorage {\n   \n\n    function initialize(address _pandaContractAddress) public  initializer{\n        //Ownable.initialize();\n        setPandaContract(_pandaContractAddress);        \n    }\n\n    /***************************************************\n    Events\n     **************************************************/\n    event MarketTransaction(string TxType, address owner, uint256 tokenId);\n\n    /**\n    * Set the current PandaContract address and initialize the instance of PandaContract.\n    * Requirement: Only the contract owner can call.\n     */\n    function setPandaContract(address _pandaContractAddress)  public  {\n        _pandaContract =  PandaContract(_pandaContractAddress) ;\n    }\n\n    /**\n    * Get the details about a offer for _tokenId. Throws an error if there is no active offer for _tokenId.\n     */\n    function getOffer(uint256 _tokenId) external view returns ( address seller, uint256 price, uint256 index, uint256 tokenId, bool active){\n        \n        require (tokenIdToOffer[_tokenId].tokenId > 0 && tokenIdToOffer[_tokenId].active == true,\"No active offer for the tokenID\");\n        \n        seller  = tokenIdToOffer[tokenId].seller;\n        price   = tokenIdToOffer[tokenId].price;\n        index   = tokenIdToOffer[tokenId].index;\n        tokenId = tokenIdToOffer[tokenId].tokenId;\n        active  = tokenIdToOffer[tokenId].active;\n\n        return (seller,price,index,tokenId,active);\n    }\n\n    /**\n    * Get all tokenId's that are currently for sale. Returns an empty error if none exist.\n     */\n    function getAllTokenOnSale() external view  returns(uint256[] memory listOfOffers){\n        require(Offers.length > 0 && _activeOfferCount > 0,\"No Offers\");\n        return _getAllActiveTokens();\n    }\n\n    function _getAllActiveTokens() internal view  returns(uint256[] memory listOfOffers){\n        uint256 i = 0;\n        uint256 index=0;\n        \n        for ( i=0 ; i< Offers.length && index < _activeOfferCount  ; i++){\n            \n            if(Offers[i].active == true){\n                listOfOffers[index]=Offers[i].tokenId;\n                index++;\n            }           \n        }\n\n        return listOfOffers;\n    }\n\n    /**\n    * Creates a new offer for _tokenId for the price _price.\n    * Emits the MarketTransaction event with txType \"Create offer\"\n    * Requirement: Only the owner of _tokenId can create an offer.\n    * Requirement: There can only be one active offer for a token at a time.\n    * Requirement: Marketplace contract (this) needs to be an approved operator when the offer is created.\n     */\n    function setOffer(uint256 _price, uint256 _tokenId) external{\n        require(_pandaContract.ownerOf(_tokenId) == msg.sender,\"Not the owner of the token\");\n        require(tokenIdToOffer[_tokenId].active==false,\"Already an offer exist\");\n        require(_pandaContract.isApprovedForAll(msg.sender,address(this)),\"Not an operator for the tokenId\");\n\n        if(tokenIdToOffer[_tokenId].tokenId==_tokenId){\n            uint256 index = tokenIdToOffer[_tokenId].index;\n\n            Offers[index].seller =  msg.sender;\n            Offers[index].price= _price;\n            Offers[index].active= true;\n        }else{\n             Offer memory newOffer = Offer({\n                seller: msg.sender,\n                price: _price,\n                index: Offers.length-1,\n                tokenId: _tokenId,\n                active: true\n            });\n\n            tokenIdToOffer[_tokenId] = newOffer;\n            Offers.push(newOffer);            \n        }\n\n        _activeOfferCount++;\n\n        emit MarketTransaction(\"Create offer\", msg.sender,  _tokenId);\n    }\n\n    /**\n    * Removes an existing offer.\n    * Emits the MarketTransaction event with txType \"Remove offer\"\n    * Requirement: Only the seller of _tokenId can remove an offer.\n     */\n    function removeOffer(uint256 _tokenId) external{\n        require(tokenIdToOffer[_tokenId].seller == msg.sender,\"Only seller of the token can remove the offer\");\n\n        tokenIdToOffer[_tokenId].active = false;\n        Offers[tokenIdToOffer[_tokenId].index].active =  false;\n        _activeOfferCount--;\n\n        emit MarketTransaction(\"Remove offer\", msg.sender,  _tokenId);\n    }\n\n    /**\n    * Executes the purchase of _tokenId.\n    * Sends the funds to the seller and transfers the token using transferFrom in PandaContract.\n    * Emits the MarketTransaction event with txType \"Buy\".\n    * Requirement: The msg.value needs to equal the price of _tokenId\n    * Requirement: There must be an active offer for _tokenId\n     */\n    function buyPanda(uint256 _tokenId) external payable{\n        Offer memory offer = tokenIdToOffer[_tokenId];\n        require(tokenIdToOffer[_tokenId].price == msg.value,\"Transaction value does not match the price of the token\");\n        require(tokenIdToOffer[_tokenId].active == true);\n\n        // Important: remove offer before paying, to avoid reentry attack\n        tokenIdToOffer[_tokenId].active=false;\n        Offers[tokenIdToOffer[_tokenId].index].active = false;\n\n        //transfer funds to the seller\n        if(offer.price>0){\n            offer.seller.transfer(offer.price);\n        }\n\n        //Transfer ownership of the token\n        _pandaContract.safeTransferFrom(tokenIdToOffer[_tokenId].seller,msg.sender, _tokenId);\n\n\n        emit MarketTransaction(\"Buy\", msg.sender,  _tokenId);\n    }\n}",
  "sourcePath": "/home/ismael/Documents/Projects/GIT/CryptoKitties-clone/contracts/PandaMarketPlace.sol",
  "compiler": {
    "name": "solc",
    "version": "0.5.12+commit.7709ece9.Emscripten.clang"
  },
  "schemaVersion": "3.3.2",
  "updatedAt": "2020-12-09T12:51:09.240Z",
  "networkType": "ethereum",
  "devdoc": {
    "methods": {}
  },
  "userdoc": {
    "methods": {
      "buyPanda(uint256)": {
        "notice": "Executes the purchase of _tokenId. Sends the funds to the seller and transfers the token using transferFrom in PandaContract. Emits the MarketTransaction event with txType \"Buy\". Requirement: The msg.value needs to equal the price of _tokenId Requirement: There must be an active offer for _tokenId"
      },
      "getAllTokenOnSale()": {
        "notice": "Get all tokenId's that are currently for sale. Returns an empty error if none exist."
      },
      "getOffer(uint256)": {
        "notice": "Get the details about a offer for _tokenId. Throws an error if there is no active offer for _tokenId."
      },
      "removeOffer(uint256)": {
        "notice": "Removes an existing offer. Emits the MarketTransaction event with txType \"Remove offer\" Requirement: Only the seller of _tokenId can remove an offer."
      },
      "setOffer(uint256,uint256)": {
        "notice": "Creates a new offer for _tokenId for the price _price. Emits the MarketTransaction event with txType \"Create offer\" Requirement: Only the owner of _tokenId can create an offer. Requirement: There can only be one active offer for a token at a time. Requirement: Marketplace contract (this) needs to be an approved operator when the offer is created."
      },
      "setPandaContract(address)": {
        "notice": "Set the current PandaContract address and initialize the instance of PandaContract. Requirement: Only the contract owner can call."
      }
    }
  }
}