{
  "contractName": "PandaProxy",
  "abi": [
    {
      "inputs": [
        {
          "internalType": "address",
          "name": "_currentAddress",
          "type": "address"
        },
        {
          "internalType": "address",
          "name": "_pandaContractAddress",
          "type": "address"
        }
      ],
      "payable": false,
      "stateMutability": "nonpayable",
      "type": "constructor"
    },
    {
      "anonymous": false,
      "inputs": [
        {
          "indexed": true,
          "internalType": "address",
          "name": "owner",
          "type": "address"
        },
        {
          "indexed": true,
          "internalType": "address",
          "name": "approved",
          "type": "address"
        },
        {
          "indexed": true,
          "internalType": "uint256",
          "name": "PandaId",
          "type": "uint256"
        }
      ],
      "name": "Approval",
      "type": "event"
    },
    {
      "anonymous": false,
      "inputs": [
        {
          "indexed": true,
          "internalType": "address",
          "name": "owner",
          "type": "address"
        },
        {
          "indexed": true,
          "internalType": "address",
          "name": "operator",
          "type": "address"
        },
        {
          "indexed": false,
          "internalType": "bool",
          "name": "approved",
          "type": "bool"
        }
      ],
      "name": "ApprovalForAll",
      "type": "event"
    },
    {
      "anonymous": false,
      "inputs": [
        {
          "indexed": false,
          "internalType": "address",
          "name": "_owner",
          "type": "address"
        },
        {
          "indexed": false,
          "internalType": "uint256",
          "name": "PandaId",
          "type": "uint256"
        },
        {
          "indexed": false,
          "internalType": "uint32",
          "name": "mumId",
          "type": "uint32"
        },
        {
          "indexed": false,
          "internalType": "uint32",
          "name": "dadId",
          "type": "uint32"
        },
        {
          "indexed": false,
          "internalType": "uint256",
          "name": "genes",
          "type": "uint256"
        },
        {
          "indexed": false,
          "internalType": "uint16",
          "name": "generation",
          "type": "uint16"
        }
      ],
      "name": "Birth",
      "type": "event"
    },
    {
      "anonymous": false,
      "inputs": [
        {
          "indexed": true,
          "internalType": "address",
          "name": "from",
          "type": "address"
        },
        {
          "indexed": true,
          "internalType": "address",
          "name": "to",
          "type": "address"
        },
        {
          "indexed": true,
          "internalType": "uint256",
          "name": "tokenId",
          "type": "uint256"
        }
      ],
      "name": "Transfer",
      "type": "event"
    },
    {
      "payable": true,
      "stateMutability": "payable",
      "type": "fallback"
    },
    {
      "constant": true,
      "inputs": [
        {
          "internalType": "address",
          "name": "PandaOwnerAddress",
          "type": "address"
        }
      ],
      "name": "_pandasOfOwner",
      "outputs": [
        {
          "internalType": "uint256[]",
          "name": "",
          "type": "uint256[]"
        }
      ],
      "payable": false,
      "stateMutability": "view",
      "type": "function"
    },
    {
      "constant": false,
      "inputs": [
        {
          "internalType": "address",
          "name": "_to",
          "type": "address"
        },
        {
          "internalType": "uint256",
          "name": "_tokenId",
          "type": "uint256"
        }
      ],
      "name": "approve",
      "outputs": [],
      "payable": false,
      "stateMutability": "nonpayable",
      "type": "function"
    },
    {
      "constant": true,
      "inputs": [
        {
          "internalType": "address",
          "name": "owner",
          "type": "address"
        }
      ],
      "name": "balanceOf",
      "outputs": [
        {
          "internalType": "uint256",
          "name": "balance",
          "type": "uint256"
        }
      ],
      "payable": false,
      "stateMutability": "view",
      "type": "function"
    },
    {
      "constant": false,
      "inputs": [
        {
          "internalType": "uint32",
          "name": "_dadId",
          "type": "uint32"
        },
        {
          "internalType": "uint32",
          "name": "_mumId",
          "type": "uint32"
        }
      ],
      "name": "breed",
      "outputs": [
        {
          "internalType": "uint256",
          "name": "",
          "type": "uint256"
        }
      ],
      "payable": false,
      "stateMutability": "nonpayable",
      "type": "function"
    },
    {
      "constant": false,
      "inputs": [
        {
          "internalType": "uint256",
          "name": "_genes",
          "type": "uint256"
        }
      ],
      "name": "createPandaGen0",
      "outputs": [
        {
          "internalType": "uint256",
          "name": "",
          "type": "uint256"
        }
      ],
      "payable": false,
      "stateMutability": "nonpayable",
      "type": "function"
    },
    {
      "constant": true,
      "inputs": [
        {
          "internalType": "uint256",
          "name": "_tokenId",
          "type": "uint256"
        }
      ],
      "name": "getApproved",
      "outputs": [
        {
          "internalType": "address",
          "name": "",
          "type": "address"
        }
      ],
      "payable": false,
      "stateMutability": "view",
      "type": "function"
    },
    {
      "constant": true,
      "inputs": [
        {
          "internalType": "uint256",
          "name": "tokenId",
          "type": "uint256"
        }
      ],
      "name": "getPanda",
      "outputs": [
        {
          "internalType": "uint256",
          "name": "genes",
          "type": "uint256"
        },
        {
          "internalType": "uint64",
          "name": "birthTime",
          "type": "uint64"
        },
        {
          "internalType": "uint32",
          "name": "mumId",
          "type": "uint32"
        },
        {
          "internalType": "uint32",
          "name": "dadId",
          "type": "uint32"
        },
        {
          "internalType": "uint16",
          "name": "generation",
          "type": "uint16"
        }
      ],
      "payable": false,
      "stateMutability": "view",
      "type": "function"
    },
    {
      "constant": false,
      "inputs": [
        {
          "internalType": "string",
          "name": "_tName",
          "type": "string"
        },
        {
          "internalType": "string",
          "name": "_tSymbol",
          "type": "string"
        }
      ],
      "name": "initialize",
      "outputs": [],
      "payable": false,
      "stateMutability": "nonpayable",
      "type": "function"
    },
    {
      "constant": false,
      "inputs": [],
      "name": "initialize",
      "outputs": [],
      "payable": false,
      "stateMutability": "nonpayable",
      "type": "function"
    },
    {
      "constant": true,
      "inputs": [
        {
          "internalType": "address",
          "name": "_owner",
          "type": "address"
        },
        {
          "internalType": "address",
          "name": "_operator",
          "type": "address"
        }
      ],
      "name": "isApprovedForAll",
      "outputs": [
        {
          "internalType": "bool",
          "name": "",
          "type": "bool"
        }
      ],
      "payable": false,
      "stateMutability": "view",
      "type": "function"
    },
    {
      "constant": true,
      "inputs": [],
      "name": "name",
      "outputs": [
        {
          "internalType": "string",
          "name": "tokenName",
          "type": "string"
        }
      ],
      "payable": false,
      "stateMutability": "view",
      "type": "function"
    },
    {
      "constant": true,
      "inputs": [],
      "name": "owner",
      "outputs": [
        {
          "internalType": "address",
          "name": "",
          "type": "address"
        }
      ],
      "payable": false,
      "stateMutability": "view",
      "type": "function"
    },
    {
      "constant": true,
      "inputs": [
        {
          "internalType": "uint256",
          "name": "_tokenId",
          "type": "uint256"
        }
      ],
      "name": "ownerOf",
      "outputs": [
        {
          "internalType": "address",
          "name": "owner",
          "type": "address"
        }
      ],
      "payable": false,
      "stateMutability": "view",
      "type": "function"
    },
    {
      "constant": false,
      "inputs": [
        {
          "internalType": "address",
          "name": "_from",
          "type": "address"
        },
        {
          "internalType": "address",
          "name": "_to",
          "type": "address"
        },
        {
          "internalType": "uint256",
          "name": "_tokenId",
          "type": "uint256"
        }
      ],
      "name": "safeTransferFrom",
      "outputs": [],
      "payable": false,
      "stateMutability": "nonpayable",
      "type": "function"
    },
    {
      "constant": false,
      "inputs": [
        {
          "internalType": "address",
          "name": "_from",
          "type": "address"
        },
        {
          "internalType": "address",
          "name": "_to",
          "type": "address"
        },
        {
          "internalType": "uint256",
          "name": "_tokenId",
          "type": "uint256"
        },
        {
          "internalType": "bytes",
          "name": "data",
          "type": "bytes"
        }
      ],
      "name": "safeTransferFrom",
      "outputs": [],
      "payable": false,
      "stateMutability": "nonpayable",
      "type": "function"
    },
    {
      "constant": false,
      "inputs": [
        {
          "internalType": "address",
          "name": "_operator",
          "type": "address"
        },
        {
          "internalType": "bool",
          "name": "_approved",
          "type": "bool"
        }
      ],
      "name": "setApprovalForAll",
      "outputs": [],
      "payable": false,
      "stateMutability": "nonpayable",
      "type": "function"
    },
    {
      "constant": true,
      "inputs": [
        {
          "internalType": "bytes4",
          "name": "interfaceId",
          "type": "bytes4"
        }
      ],
      "name": "supportsInterface",
      "outputs": [
        {
          "internalType": "bool",
          "name": "",
          "type": "bool"
        }
      ],
      "payable": false,
      "stateMutability": "pure",
      "type": "function"
    },
    {
      "constant": true,
      "inputs": [],
      "name": "symbol",
      "outputs": [
        {
          "internalType": "string",
          "name": "tokenSymbol",
          "type": "string"
        }
      ],
      "payable": false,
      "stateMutability": "view",
      "type": "function"
    },
    {
      "constant": true,
      "inputs": [],
      "name": "totalSupply",
      "outputs": [
        {
          "internalType": "uint256",
          "name": "total",
          "type": "uint256"
        }
      ],
      "payable": false,
      "stateMutability": "view",
      "type": "function"
    },
    {
      "constant": false,
      "inputs": [
        {
          "internalType": "address",
          "name": "_to",
          "type": "address"
        },
        {
          "internalType": "uint256",
          "name": "_tokenId",
          "type": "uint256"
        }
      ],
      "name": "transfer",
      "outputs": [],
      "payable": false,
      "stateMutability": "nonpayable",
      "type": "function"
    },
    {
      "constant": false,
      "inputs": [
        {
          "internalType": "address",
          "name": "_from",
          "type": "address"
        },
        {
          "internalType": "address",
          "name": "_to",
          "type": "address"
        },
        {
          "internalType": "uint256",
          "name": "_tokenId",
          "type": "uint256"
        }
      ],
      "name": "transferFrom",
      "outputs": [],
      "payable": false,
      "stateMutability": "nonpayable",
      "type": "function"
    },
    {
      "constant": false,
      "inputs": [
        {
          "internalType": "address",
          "name": "_newAddress",
          "type": "address"
        }
      ],
      "name": "upgrade",
      "outputs": [],
      "payable": false,
      "stateMutability": "nonpayable",
      "type": "function"
    }
  ],
  "bytecode": "0x6080604052600a603c60006101000a81548160ff021916908360ff1602179055506000603e553480156200003257600080fd5b506040516200322138038062003221833981810160405260408110156200005857600080fd5b81019080805190602001909291908051906020019092919050505081604060006101000a81548173ffffffffffffffffffffffffffffffffffffffff021916908373ffffffffffffffffffffffffffffffffffffffff16021790555080603c60016101000a81548173ffffffffffffffffffffffffffffffffffffffff021916908373ffffffffffffffffffffffffffffffffffffffff1602179055506200010a6200011260201b620023d11760201c565b505062000277565b600060019054906101000a900460ff16806200013a5750620001396200026060201b60201c565b5b806200015257506000809054906101000a900460ff16155b620001a9576040517f08c379a000000000000000000000000000000000000000000000000000000000815260040180806020018281038252602e815260200180620031f3602e913960400191505060405180910390fd5b60008060019054906101000a900460ff161590508015620001fa576001600060016101000a81548160ff02191690831515021790555060016000806101000a81548160ff0219169083151502179055505b33603360006101000a81548173ffffffffffffffffffffffffffffffffffffffff021916908373ffffffffffffffffffffffffffffffffffffffff16021790555080156200025d5760008060016101000a81548160ff0219169083151502179055505b50565b6000803090506000813b9050600081149250505090565b612f6c80620002876000396000f3fe6080604052600436106101355760003560e01c80634cd88b76116100ab57806395d89b411161006f57806395d89b41146109c9578063a22cb46514610a59578063a9059cbb14610ab6578063b88d4fde14610b11578063d967c62114610c23578063e985e9c514610c7257610135565b80634cd88b761461071c5780636352211e1461087b57806370a08231146108f65780638129fc1c1461095b5780638da5cb5b1461097257610135565b80630b8ab884116100fd5780630b8ab884146104515780631327fbe5146104f757806318160ddd1461059657806323b872dd146105c157806324ab5e081461063c57806342842e0e146106a157610135565b806301ffc9a71461022857806306fdde031461029a578063081812fc1461032a5780630900f010146103a5578063095ea7b3146103f6575b6000604060009054906101000a900473ffffffffffffffffffffffffffffffffffffffff169050600073ffffffffffffffffffffffffffffffffffffffff16604060009054906101000a900473ffffffffffffffffffffffffffffffffffffffff1673ffffffffffffffffffffffffffffffffffffffff1614156101b857600080fd5b60606000368080601f016020809104026020016040519081016040528093929190818152602001838380828437600081840152601f19601f820116905080830192505050505050509050600080825160208401855af43d604051816000823e8260008114610224578282f35b8282fd5b34801561023457600080fd5b506102806004803603602081101561024b57600080fd5b8101908080357bffffffffffffffffffffffffffffffffffffffffffffffffffffffff19169060200190929190505050610cfb565b604051808215151515815260200191505060405180910390f35b3480156102a657600080fd5b506102af610d9b565b6040518080602001828103825283818151815260200191508051906020019080838360005b838110156102ef5780820151818401526020810190506102d4565b50505050905090810190601f16801561031c5780820380516001836020036101000a031916815260200191505b509250505060405180910390f35b34801561033657600080fd5b506103636004803603602081101561034d57600080fd5b8101908080359060200190929190505050610e3d565b604051808273ffffffffffffffffffffffffffffffffffffffff1673ffffffffffffffffffffffffffffffffffffffff16815260200191505060405180910390f35b3480156103b157600080fd5b506103f4600480360360208110156103c857600080fd5b81019080803573ffffffffffffffffffffffffffffffffffffffff169060200190929190505050610e82565b005b34801561040257600080fd5b5061044f6004803603604081101561041957600080fd5b81019080803573ffffffffffffffffffffffffffffffffffffffff16906020019092919080359060200190929190505050610f20565b005b34801561045d57600080fd5b506104a06004803603602081101561047457600080fd5b81019080803573ffffffffffffffffffffffffffffffffffffffff1690602001909291905050506110f9565b6040518080602001828103825283818151815260200191508051906020019060200280838360005b838110156104e35780820151818401526020810190506104c8565b505050509050019250505060405180910390f35b34801561050357600080fd5b506105306004803603602081101561051a57600080fd5b8101908080359060200190929190505050611241565b604051808681526020018567ffffffffffffffff1667ffffffffffffffff1681526020018463ffffffff1663ffffffff1681526020018363ffffffff1663ffffffff1681526020018261ffff1661ffff1681526020019550505050505060405180910390f35b3480156105a257600080fd5b506105ab611359565b6040518082815260200191505060405180910390f35b3480156105cd57600080fd5b5061063a600480360360608110156105e457600080fd5b81019080803573ffffffffffffffffffffffffffffffffffffffff169060200190929190803573ffffffffffffffffffffffffffffffffffffffff16906020019092919080359060200190929190505050611366565b005b34801561064857600080fd5b5061068b6004803603604081101561065f57600080fd5b81019080803563ffffffff169060200190929190803563ffffffff1690602001909291905050506115d3565b6040518082815260200191505060405180910390f35b3480156106ad57600080fd5b5061071a600480360360608110156106c457600080fd5b81019080803573ffffffffffffffffffffffffffffffffffffffff169060200190929190803573ffffffffffffffffffffffffffffffffffffffff169060200190929190803590602001909291905050506116c9565b005b34801561072857600080fd5b506108796004803603604081101561073f57600080fd5b810190808035906020019064010000000081111561075c57600080fd5b82018360208201111561076e57600080fd5b8035906020019184600183028401116401000000008311171561079057600080fd5b91908080601f016020809104026020016040519081016040528093929190818152602001838380828437600081840152601f19601f820116905080830192505050505050509192919290803590602001906401000000008111156107f357600080fd5b82018360208201111561080557600080fd5b8035906020019184600183028401116401000000008311171561082757600080fd5b91908080601f016020809104026020016040519081016040528093929190818152602001838380828437600081840152601f19601f8201169050808301925050505050505091929192905050506116e9565b005b34801561088757600080fd5b506108b46004803603602081101561089e57600080fd5b8101908080359060200190929190505050611820565b604051808273ffffffffffffffffffffffffffffffffffffffff1673ffffffffffffffffffffffffffffffffffffffff16815260200191505060405180910390f35b34801561090257600080fd5b506109456004803603602081101561091957600080fd5b81019080803573ffffffffffffffffffffffffffffffffffffffff16906020019092919050505061185d565b6040518082815260200191505060405180910390f35b34801561096757600080fd5b506109706118a6565b005b34801561097e57600080fd5b50610987611a35565b604051808273ffffffffffffffffffffffffffffffffffffffff1673ffffffffffffffffffffffffffffffffffffffff16815260200191505060405180910390f35b3480156109d557600080fd5b506109de611a5b565b6040518080602001828103825283818151815260200191508051906020019080838360005b83811015610a1e578082015181840152602081019050610a03565b50505050905090810190601f168015610a4b5780820380516001836020036101000a031916815260200191505b509250505060405180910390f35b348015610a6557600080fd5b50610ab460048036036040811015610a7c57600080fd5b81019080803573ffffffffffffffffffffffffffffffffffffffff169060200190929190803515159060200190929190505050611afd565b005b348015610ac257600080fd5b50610b0f60048036036040811015610ad957600080fd5b81019080803573ffffffffffffffffffffffffffffffffffffffff16906020019092919080359060200190929190505050611cd2565b005b348015610b1d57600080fd5b50610c2160048036036080811015610b3457600080fd5b81019080803573ffffffffffffffffffffffffffffffffffffffff169060200190929190803573ffffffffffffffffffffffffffffffffffffffff1690602001909291908035906020019092919080359060200190640100000000811115610b9b57600080fd5b820183602082011115610bad57600080fd5b80359060200191846001830284011164010000000083111715610bcf57600080fd5b91908080601f016020809104026020016040519081016040528093929190818152602001838380828437600081840152601f19601f820116905080830192505050505050509192919290505050611de1565b005b348015610c2f57600080fd5b50610c5c60048036036020811015610c4657600080fd5b8101908080359060200190929190505050611e08565b6040518082815260200191505060405180910390f35b348015610c7e57600080fd5b50610ce160048036036040811015610c9557600080fd5b81019080803573ffffffffffffffffffffffffffffffffffffffff169060200190929190803573ffffffffffffffffffffffffffffffffffffffff169060200190929190505050611f4a565b604051808215151515815260200191505060405180910390f35b60006380ac58cd60e01b7bffffffffffffffffffffffffffffffffffffffffffffffffffffffff1916827bffffffffffffffffffffffffffffffffffffffffffffffffffffffff19161480610d9457506301ffc9a760e01b7bffffffffffffffffffffffffffffffffffffffffffffffffffffffff1916827bffffffffffffffffffffffffffffffffffffffffffffffffffffffff1916145b9050919050565b6060603a8054600181600116156101000203166002900480601f016020809104026020016040519081016040528092919081815260200182805460018160011615610100020316600290048015610e335780601f10610e0857610100808354040283529160200191610e33565b820191906000526020600020905b815481529060010190602001808311610e1657829003601f168201915b5050505050905090565b600080610e48611359565b11610e5257600080fd5b60008210158015610e695750610e66611359565b82105b610e7257600080fd5b610e7b82611fde565b9050919050565b603360009054906101000a900473ffffffffffffffffffffffffffffffffffffffff1673ffffffffffffffffffffffffffffffffffffffff163373ffffffffffffffffffffffffffffffffffffffff1614610edc57600080fd5b80604060006101000a81548173ffffffffffffffffffffffffffffffffffffffff021916908373ffffffffffffffffffffffffffffffffffffffff16021790555050565b600073ffffffffffffffffffffffffffffffffffffffff163373ffffffffffffffffffffffffffffffffffffffff161415610f5a57600080fd5b3373ffffffffffffffffffffffffffffffffffffffff166037600083815260200190815260200160002060009054906101000a900473ffffffffffffffffffffffffffffffffffffffff1673ffffffffffffffffffffffffffffffffffffffff161480611087575060011515603960006037600085815260200190815260200160002060009054906101000a900473ffffffffffffffffffffffffffffffffffffffff1673ffffffffffffffffffffffffffffffffffffffff1673ffffffffffffffffffffffffffffffffffffffff16815260200190815260200160002060003373ffffffffffffffffffffffffffffffffffffffff1673ffffffffffffffffffffffffffffffffffffffff16815260200190815260200160002060009054906101000a900460ff161515145b61109057600080fd5b61109a828261201b565b808273ffffffffffffffffffffffffffffffffffffffff163373ffffffffffffffffffffffffffffffffffffffff167f8c5be1e5ebec7d5bd14f71427d1e84f3dd0314c0f7b2291e5b200ac8c7c3b92560405160405180910390a45050565b606060006111068361185d565b9050600081141561114a5760006040519080825280602002602001820160405280156111415781602001602082028038833980820191505090505b5091505061123c565b60608160405190808252806020026020018201604052801561117b5781602001602082028038833980820191505090505b5090506000611188611359565b905060008090506000600190505b828111611233578673ffffffffffffffffffffffffffffffffffffffff166037600083815260200190815260200160002060009054906101000a900473ffffffffffffffffffffffffffffffffffffffff1673ffffffffffffffffffffffffffffffffffffffff161415611226578084838151811061121157fe5b60200260200101818152505081806001019250505b8080600101915050611196565b83955050505050505b919050565b6000806000806000856034805490501161125a57600080fd5b6034868154811061126757fe5b90600052602060002090600202016000015494506034868154811061128857fe5b906000526020600020906002020160010160009054906101000a900467ffffffffffffffff169350603486815481106112bd57fe5b906000526020600020906002020160010160089054906101000a900463ffffffff169250603486815481106112ee57fe5b9060005260206000209060020201600101600c9054906101000a900463ffffffff1691506034868154811061131f57fe5b906000526020600020906002020160010160109054906101000a900461ffff16905084848484849450945094509450945091939590929450565b6000603480549050905090565b600073ffffffffffffffffffffffffffffffffffffffff168273ffffffffffffffffffffffffffffffffffffffff1614156113a057600080fd5b3373ffffffffffffffffffffffffffffffffffffffff166037600083815260200190815260200160002060009054906101000a900473ffffffffffffffffffffffffffffffffffffffff1673ffffffffffffffffffffffffffffffffffffffff16148061146b57503373ffffffffffffffffffffffffffffffffffffffff166038600083815260200190815260200160002060009054906101000a900473ffffffffffffffffffffffffffffffffffffffff1673ffffffffffffffffffffffffffffffffffffffff16145b8061152f5750603960006037600084815260200190815260200160002060009054906101000a900473ffffffffffffffffffffffffffffffffffffffff1673ffffffffffffffffffffffffffffffffffffffff1673ffffffffffffffffffffffffffffffffffffffff16815260200190815260200160002060003373ffffffffffffffffffffffffffffffffffffffff1673ffffffffffffffffffffffffffffffffffffffff16815260200190815260200160002060009054906101000a900460ff165b61153857600080fd5b6037600082815260200190815260200160002060009054906101000a900473ffffffffffffffffffffffffffffffffffffffff1673ffffffffffffffffffffffffffffffffffffffff168373ffffffffffffffffffffffffffffffffffffffff16146115a357600080fd5b600081101580156115ba57506115b7611359565b81105b6115c357600080fd5b6115ce838383612071565b505050565b60003373ffffffffffffffffffffffffffffffffffffffff16603760008563ffffffff16815260200190815260200160002060009054906101000a900473ffffffffffffffffffffffffffffffffffffffff1673ffffffffffffffffffffffffffffffffffffffff161480156116ad57503373ffffffffffffffffffffffffffffffffffffffff16603760008463ffffffff16815260200190815260200160002060009054906101000a900473ffffffffffffffffffffffffffffffffffffffff1673ffffffffffffffffffffffffffffffffffffffff16145b6116b657600080fd5b6116c1338484612295565b905092915050565b6116e483838360405180602001604052806000815250611de1565b505050565b600060019054906101000a900460ff168061170857506117076123ba565b5b8061171f57506000809054906101000a900460ff16155b611774576040517f08c379a000000000000000000000000000000000000000000000000000000000815260040180806020018281038252602e815260200180612ee5602e913960400191505060405180910390fd5b60008060019054906101000a900460ff1615905080156117c4576001600060016101000a81548160ff02191690831515021790555060016000806101000a81548160ff0219169083151502179055505b6117cc6123d1565b82603a90805190602001906117e2929190612da4565b5081603b90805190602001906117f9929190612da4565b50801561181b5760008060016101000a81548160ff0219169083151502179055505b505050565b60006037600083815260200190815260200160002060009054906101000a900473ffffffffffffffffffffffffffffffffffffffff169050919050565b6000603660008373ffffffffffffffffffffffffffffffffffffffff1673ffffffffffffffffffffffffffffffffffffffff168152602001908152602001600020549050919050565b600060019054906101000a900460ff16806118c557506118c46123ba565b5b806118dc57506000809054906101000a900460ff16155b611931576040517f08c379a000000000000000000000000000000000000000000000000000000000815260040180806020018281038252602e815260200180612ee5602e913960400191505060405180910390fd5b60008060019054906101000a900460ff161590508015611981576001600060016101000a81548160ff02191690831515021790555060016000806101000a81548160ff0219169083151502179055505b6119f56040518060400160405280600b81526020017f43727970746f50616e64610000000000000000000000000000000000000000008152506040518060400160405280600281526020017f43500000000000000000000000000000000000000000000000000000000000008152506116e9565b6000603560006101000a81548160ff021916908360ff1602179055508015611a325760008060016101000a81548160ff0219169083151502179055505b50565b603360009054906101000a900473ffffffffffffffffffffffffffffffffffffffff1681565b6060603b8054600181600116156101000203166002900480601f016020809104026020016040519081016040528092919081815260200182805460018160011615610100020316600290048015611af35780601f10611ac857610100808354040283529160200191611af3565b820191906000526020600020905b815481529060010190602001808311611ad657829003601f168201915b5050505050905090565b600073ffffffffffffffffffffffffffffffffffffffff163373ffffffffffffffffffffffffffffffffffffffff161415611b3757600080fd5b801515603960003373ffffffffffffffffffffffffffffffffffffffff1673ffffffffffffffffffffffffffffffffffffffff16815260200190815260200160002060008473ffffffffffffffffffffffffffffffffffffffff1673ffffffffffffffffffffffffffffffffffffffff16815260200190815260200160002060009054906101000a900460ff1615151415611bd157600080fd5b80603960003373ffffffffffffffffffffffffffffffffffffffff1673ffffffffffffffffffffffffffffffffffffffff16815260200190815260200160002060008473ffffffffffffffffffffffffffffffffffffffff1673ffffffffffffffffffffffffffffffffffffffff16815260200190815260200160002060006101000a81548160ff0219169083151502179055508173ffffffffffffffffffffffffffffffffffffffff163373ffffffffffffffffffffffffffffffffffffffff167f17307eab39ab6107e8899845ad3d59bd9653f200f220920489ca2b5937696c3183604051808215151515815260200191505060405180910390a35050565b600073ffffffffffffffffffffffffffffffffffffffff168273ffffffffffffffffffffffffffffffffffffffff161415611d0c57600080fd5b603360009054906101000a900473ffffffffffffffffffffffffffffffffffffffff1673ffffffffffffffffffffffffffffffffffffffff168273ffffffffffffffffffffffffffffffffffffffff161415611d6757600080fd5b3373ffffffffffffffffffffffffffffffffffffffff166037600083815260200190815260200160002060009054906101000a900473ffffffffffffffffffffffffffffffffffffffff1673ffffffffffffffffffffffffffffffffffffffff1614611dd257600080fd5b611ddd338383612071565b5050565b611ded33858585612511565b611df657600080fd5b611e0284848484612770565b50505050565b6000603360009054906101000a900473ffffffffffffffffffffffffffffffffffffffff1673ffffffffffffffffffffffffffffffffffffffff163373ffffffffffffffffffffffffffffffffffffffff1614611e6457600080fd5b603c60009054906101000a900460ff1660ff16603560009054906101000a900460ff1660ff1610611ee0576040517f08c379a0000000000000000000000000000000000000000000000000000000008152600401808060200182810382526025815260200180612f136025913960400191505060405180910390fd5b6035600081819054906101000a900460ff168092919060010191906101000a81548160ff021916908360ff16021790555050611f43600080846000603360009054906101000a900473ffffffffffffffffffffffffffffffffffffffff16612796565b9050919050565b6000603960008473ffffffffffffffffffffffffffffffffffffffff1673ffffffffffffffffffffffffffffffffffffffff16815260200190815260200160002060008373ffffffffffffffffffffffffffffffffffffffff1673ffffffffffffffffffffffffffffffffffffffff16815260200190815260200160002060009054906101000a900460ff16905092915050565b60006038600083815260200190815260200160002060009054906101000a900473ffffffffffffffffffffffffffffffffffffffff169050919050565b816038600083815260200190815260200160002060006101000a81548173ffffffffffffffffffffffffffffffffffffffff021916908373ffffffffffffffffffffffffffffffffffffffff1602179055505050565b603660008373ffffffffffffffffffffffffffffffffffffffff1673ffffffffffffffffffffffffffffffffffffffff16815260200190815260200160002060008154809291906001019190505550816037600083815260200190815260200160002060006101000a81548173ffffffffffffffffffffffffffffffffffffffff021916908373ffffffffffffffffffffffffffffffffffffffff160217905550600073ffffffffffffffffffffffffffffffffffffffff168373ffffffffffffffffffffffffffffffffffffffff16146121cd57603660008473ffffffffffffffffffffffffffffffffffffffff1673ffffffffffffffffffffffffffffffffffffffff16815260200190815260200160002060008154809291906001900391905055506038600082815260200190815260200160002060006101000a81549073ffffffffffffffffffffffffffffffffffffffff02191690555b8173ffffffffffffffffffffffffffffffffffffffff166037600083815260200190815260200160002060009054906101000a900473ffffffffffffffffffffffffffffffffffffffff1673ffffffffffffffffffffffffffffffffffffffff161461223557fe5b808273ffffffffffffffffffffffffffffffffffffffff168473ffffffffffffffffffffffffffffffffffffffff167fddf252ad1be2c89b69c2b068fc378daa952ba7f163c4a11628f55a4df523b3ef60405160405180910390a4505050565b60008060348463ffffffff16815481106122ab57fe5b9060005260206000209060020201600001549050600060348463ffffffff16815481106122d457fe5b906000526020600020906002020160000154905060006122f48383612989565b9050600060348763ffffffff168154811061230b57fe5b906000526020600020906002020160010160109054906101000a900461ffff169050600060348763ffffffff168154811061234257fe5b906000526020600020906002020160010160109054906101000a900461ffff16905060008161ffff168361ffff1614156123815760018301905061239e565b8161ffff168361ffff1610156123995781905061239d565b8290505b5b6123ab888a86848e612796565b96505050505050509392505050565b6000803090506000813b9050600081149250505090565b600060019054906101000a900460ff16806123f057506123ef6123ba565b5b8061240757506000809054906101000a900460ff16155b61245c576040517f08c379a000000000000000000000000000000000000000000000000000000000815260040180806020018281038252602e815260200180612ee5602e913960400191505060405180910390fd5b60008060019054906101000a900460ff1615905080156124ac576001600060016101000a81548160ff02191690831515021790555060016000806101000a81548160ff0219169083151502179055505b33603360006101000a81548173ffffffffffffffffffffffffffffffffffffffff021916908373ffffffffffffffffffffffffffffffffffffffff160217905550801561250e5760008060016101000a81548160ff0219169083151502179055505b50565b60008073ffffffffffffffffffffffffffffffffffffffff168373ffffffffffffffffffffffffffffffffffffffff16141561254c57600080fd5b6037600083815260200190815260200160002060009054906101000a900473ffffffffffffffffffffffffffffffffffffffff1673ffffffffffffffffffffffffffffffffffffffff168473ffffffffffffffffffffffffffffffffffffffff16146125b757600080fd5b600082101580156125ce57506125cb611359565b82105b6125d757600080fd5b8473ffffffffffffffffffffffffffffffffffffffff166037600084815260200190815260200160002060009054906101000a900473ffffffffffffffffffffffffffffffffffffffff1673ffffffffffffffffffffffffffffffffffffffff1614806126a257508473ffffffffffffffffffffffffffffffffffffffff166038600084815260200190815260200160002060009054906101000a900473ffffffffffffffffffffffffffffffffffffffff1673ffffffffffffffffffffffffffffffffffffffff16145b806127665750603960006037600085815260200190815260200160002060009054906101000a900473ffffffffffffffffffffffffffffffffffffffff1673ffffffffffffffffffffffffffffffffffffffff1673ffffffffffffffffffffffffffffffffffffffff16815260200190815260200160002060008673ffffffffffffffffffffffffffffffffffffffff1673ffffffffffffffffffffffffffffffffffffffff16815260200190815260200160002060009054906101000a900460ff165b9050949350505050565b61277b848484612071565b61278784848484612ba7565b61279057600080fd5b50505050565b60006127a0612e24565b6040518060a001604052808681526020014267ffffffffffffffff1681526020018863ffffffff1681526020018763ffffffff1681526020018561ffff16815250905060006001603483908060018154018082558091505090600182039060005260206000209060020201600090919290919091506000820151816000015560208201518160010160006101000a81548167ffffffffffffffff021916908367ffffffffffffffff16021790555060408201518160010160086101000a81548163ffffffff021916908363ffffffff160217905550606082015181600101600c6101000a81548163ffffffff021916908363ffffffff16021790555060808201518160010160106101000a81548161ffff021916908361ffff16021790555050500390506128d060008583612071565b7fe311e436405c2f9357d626ad758a4cf5bcd7b808f30b9cbe08179b038534023c84828a8a8a8a604051808773ffffffffffffffffffffffffffffffffffffffff1673ffffffffffffffffffffffffffffffffffffffff1681526020018681526020018563ffffffff1663ffffffff1681526020018463ffffffff1663ffffffff1681526020018381526020018261ffff1661ffff168152602001965050505050505060405180910390a1809250505095945050505050565b6000612993612e6d565b600060ff428161299f57fe5b0690506000600842816129ae57fe5b0690506000606442816129bd57fe5b069050600060079050600060019050600060038560ff161115806129f5575060058560ff16101580156129f4575060068560ff1611155b5b15612a265760628460ff161115612a0f5760629350612a21565b600a8460ff161015612a2057600a93505b5b612a94565b60048560ff161415612a5e57602c8460ff161115612a4757602c9350612a59565b600b8460ff161015612a5857600b93505b5b612a93565b60078560ff161415612a925760458460ff161115612a7f5760459350612a91565b600b8460ff161015612a9057600b93505b5b5b5b5b600191505b60808211612b58578460ff168360ff161415612ad0578360ff16878460ff1660088110612ac257fe5b602002018181525050612b2a565b6000828760ff161614612b055760648981612ae757fe5b06878460ff1660088110612af757fe5b602002018181525050612b29565b60648a81612b0f57fe5b06878460ff1660088110612b1f57fe5b6020020181815250505b5b60648981612b3457fe5b04985060648a81612b4157fe5b049950828060019003935050600282029150612a99565b600091505b6008821015612b9757868260088110612b7257fe5b60200201518101905060078214612b8a576064810290505b8180600101925050612b5d565b8097505050505050505092915050565b6000612bb284612d8b565b612bbf5760019050612d83565b60008473ffffffffffffffffffffffffffffffffffffffff1663150b7a02338887876040518563ffffffff1660e01b8152600401808573ffffffffffffffffffffffffffffffffffffffff1673ffffffffffffffffffffffffffffffffffffffff1681526020018473ffffffffffffffffffffffffffffffffffffffff1673ffffffffffffffffffffffffffffffffffffffff16815260200183815260200180602001828103825283818151815260200191508051906020019080838360005b83811015612c9a578082015181840152602081019050612c7f565b50505050905090810190601f168015612cc75780820380516001836020036101000a031916815260200191505b5095505050505050602060405180830381600087803b158015612ce957600080fd5b505af1158015612cfd573d6000803e3d6000fd5b505050506040513d6020811015612d1357600080fd5b810190808051906020019092919050505090506040518080612eb6602f9139602f01905060405180910390207bffffffffffffffffffffffffffffffffffffffffffffffffffffffff1916817bffffffffffffffffffffffffffffffffffffffffffffffffffffffff1916149150505b949350505050565b600080823b905060008163ffffffff1611915050919050565b828054600181600116156101000203166002900490600052602060002090601f016020900481019282601f10612de557805160ff1916838001178555612e13565b82800160010185558215612e13579182015b82811115612e12578251825591602001919060010190612df7565b5b509050612e209190612e90565b5090565b6040518060a0016040528060008152602001600067ffffffffffffffff168152602001600063ffffffff168152602001600063ffffffff168152602001600061ffff1681525090565b604051806101000160405280600890602082028038833980820191505090505090565b612eb291905b80821115612eae576000816000905550600101612e96565b5090565b9056fe6f6e455243373231526563656976656428616464726573732c616464726573732c75696e743235362c627974657329436f6e747261637420696e7374616e63652068617320616c7265616479206265656e20696e697469616c697a656447656e2030204c696d69742072656163686564202831302070616e646173206c696d697429a265627a7a7231582089b4bbd8be0ec30d3d9a28b5e6b690621fd26e2f29a3c3218ffe822c33dcd7d964736f6c634300050c0032436f6e747261637420696e7374616e63652068617320616c7265616479206265656e20696e697469616c697a6564",
  "source": "pragma solidity ^0.5.12;\nimport \"./PandaMarketPlaceStorage.sol\";\nimport \"./Ownable.sol\";\n\ncontract PandaProxy is Ownable , PandaMarketPlaceStorage{\n\n  address currentAddress;\n\n  constructor(address _currentAddress,address _pandaContractAddress) public {\n    currentAddress = _currentAddress;\n    _pandaContract =  PandaContract(_pandaContractAddress);\n    Ownable.initialize();\n  }\n  function upgrade(address _newAddress) public onlyOwner {\n    currentAddress = _newAddress;\n  }\n\n  //FALLBACK FUNCTION.\n  function () payable external {\n    address implementation = currentAddress;\n    require(currentAddress != address(0));\n    bytes memory data = msg.data;\n\n    //DELEGATECALL EVERY FUNCTION CALL\n    assembly {\n      let result := delegatecall(gas, implementation, add(data, 0x20), mload(data), 0, 0)\n      let size := returndatasize\n      let ptr := mload(0x40)\n      returndatacopy(ptr, 0, size)\n      switch result\n      case 0 {revert(ptr, size)}\n      default {return(ptr, size)}\n    }\n  }\n}",
  "sourcePath": "/home/ismael/Documents/Projects/GIT/CryptoKitties-clone/contracts/PandaMarketPlaceProxy.sol",
  "compiler": {
    "name": "solc",
    "version": "0.5.12+commit.7709ece9.Emscripten.clang"
  },
  "schemaVersion": "3.3.2",
  "updatedAt": "2020-12-07T13:06:47.608Z",
  "devdoc": {
    "methods": {
      "approve(address,uint256)": {
        "details": "The zero address indicates there is no approved address.  Throws unless `msg.sender` is the current NFT owner, or an authorized  operator of the current owner.",
        "params": {
          "_to": "The new approved NFT controller",
          "_tokenId": "The NFT to approve"
        }
      },
      "balanceOf(address)": {
        "details": "Returns the number of tokens in ``owner``'s account."
      },
      "breed(uint32,uint32)": {
        "details": "Throws unless `msg.sender` is the current owner of both NFT",
        "params": {
          "_dadId": "The Dad NFT Id",
          "_mumId": "The Mum NFT Id"
        }
      },
      "getApproved(uint256)": {
        "details": "Throws if `_tokenId` is not a valid NFT.",
        "params": {
          "_tokenId": "The NFT to find the approved address for"
        },
        "return": "The approved address for this NFT, or the zero address if there is none"
      },
      "isApprovedForAll(address,address)": {
        "params": {
          "_operator": "The address that acts on behalf of the owner",
          "_owner": "The address that owns the NFTs"
        },
        "return": "True if `_operator` is an approved operator for `_owner`, false otherwise"
      },
      "ownerOf(uint256)": {
        "details": "Returns the owner of the `tokenId` token.     * Requirements:     * - `tokenId` must exist."
      },
      "safeTransferFrom(address,address,uint256)": {
        "details": "This works identically to the other function with an extra data parameter,  except this function just sets data to \"\".",
        "params": {
          "_from": "The current owner of the NFT",
          "_to": "The new owner",
          "_tokenId": "The NFT to transfer"
        }
      },
      "safeTransferFrom(address,address,uint256,bytes)": {
        "details": "Throws unless `msg.sender` is the current owner, an authorized  operator, or the approved address for this NFT. Throws if `_from` is  not the current owner. Throws if `_to` is the zero address. Throws if  `_tokenId` is not a valid NFT. When transfer is complete, this function  checks if `_to` is a smart contract (code size > 0). If so, it calls  `onERC721Received` on `_to` and throws if the return value is not  `bytes4(keccak256(\"onERC721Received(address,address,uint256,bytes)\"))`.",
        "params": {
          "_from": "The current owner of the NFT",
          "_to": "The new owner",
          "_tokenId": "The NFT to transfer",
          "data": "Additional data with no specified format, sent in call to `_to`"
        }
      },
      "setApprovalForAll(address,bool)": {
        "details": "Emits the ApprovalForAll event. The contract MUST allow  multiple operators per owner.",
        "params": {
          "_approved": "True if the operator is approved, false to revoke approval",
          "_operator": "Address to add to the set of authorized operators"
        }
      },
      "supportsInterface(bytes4)": {
        "details": "checks if interfaceId supports IERC721 or IERC165"
      },
      "transferFrom(address,address,uint256)": {
        "details": "Throws unless `msg.sender` is the current owner, an authorized  operator, or the approved address for this NFT. Throws if `_from` is  not the current owner. Throws if `_to` is the zero address. Throws if  `_tokenId` is not a valid NFT.",
        "params": {
          "_from": "The current owner of the NFT",
          "_to": "The new owner",
          "_tokenId": "The NFT to transfer"
        }
      }
    }
  },
  "userdoc": {
    "methods": {
      "approve(address,uint256)": {
        "notice": "Change or reaffirm the approved address for an NFT"
      },
      "getApproved(uint256)": {
        "notice": "Get the approved address for a single NFT"
      },
      "isApprovedForAll(address,address)": {
        "notice": "Query if an address is an authorized operator for another address"
      },
      "safeTransferFrom(address,address,uint256)": {
        "notice": "Transfers the ownership of an NFT from one address to another address"
      },
      "safeTransferFrom(address,address,uint256,bytes)": {
        "notice": "Transfers the ownership of an NFT from one address to another address"
      },
      "setApprovalForAll(address,bool)": {
        "notice": "Enable or disable approval for a third party (\"operator\") to manage  all of `msg.sender`'s assets"
      },
      "transferFrom(address,address,uint256)": {
        "notice": "Transfer ownership of an NFT -- THE CALLER IS RESPONSIBLE  TO CONFIRM THAT `_to` IS CAPABLE OF RECEIVING NFTS OR ELSE  THEY MAY BE PERMANENTLY LOST"
      }
    }
  }
}