{
  "contractName": "PandaContract",
  "abi": [
    {
      "inputs": [],
      "payable": false,
      "stateMutability": "nonpayable",
      "type": "constructor"
    },
    {
      "anonymous": false,
      "inputs": [
        {
          "indexed": true,
          "internalType": "address",
          "name": "owner",
          "type": "address"
        },
        {
          "indexed": true,
          "internalType": "address",
          "name": "approved",
          "type": "address"
        },
        {
          "indexed": true,
          "internalType": "uint256",
          "name": "tokenId",
          "type": "uint256"
        }
      ],
      "name": "Approval",
      "type": "event"
    },
    {
      "anonymous": false,
      "inputs": [
        {
          "indexed": true,
          "internalType": "address",
          "name": "from",
          "type": "address"
        },
        {
          "indexed": true,
          "internalType": "address",
          "name": "to",
          "type": "address"
        },
        {
          "indexed": true,
          "internalType": "uint256",
          "name": "tokenId",
          "type": "uint256"
        }
      ],
      "name": "Transfer",
      "type": "event"
    },
    {
      "constant": true,
      "inputs": [
        {
          "internalType": "address",
          "name": "owner",
          "type": "address"
        }
      ],
      "name": "balanceOf",
      "outputs": [
        {
          "internalType": "uint256",
          "name": "balance",
          "type": "uint256"
        }
      ],
      "payable": false,
      "stateMutability": "view",
      "type": "function"
    },
    {
      "constant": true,
      "inputs": [],
      "name": "totalSupply",
      "outputs": [
        {
          "internalType": "uint256",
          "name": "total",
          "type": "uint256"
        }
      ],
      "payable": false,
      "stateMutability": "view",
      "type": "function"
    },
    {
      "constant": true,
      "inputs": [],
      "name": "name",
      "outputs": [
        {
          "internalType": "string",
          "name": "tokenName",
          "type": "string"
        }
      ],
      "payable": false,
      "stateMutability": "view",
      "type": "function"
    },
    {
      "constant": true,
      "inputs": [],
      "name": "symbol",
      "outputs": [
        {
          "internalType": "string",
          "name": "tokenSymbol",
          "type": "string"
        }
      ],
      "payable": false,
      "stateMutability": "view",
      "type": "function"
    },
    {
      "constant": true,
      "inputs": [
        {
          "internalType": "uint256",
          "name": "_tokenId",
          "type": "uint256"
        }
      ],
      "name": "ownerOf",
      "outputs": [
        {
          "internalType": "address",
          "name": "owner",
          "type": "address"
        }
      ],
      "payable": false,
      "stateMutability": "view",
      "type": "function"
    },
    {
      "constant": false,
      "inputs": [
        {
          "internalType": "address",
          "name": "_to",
          "type": "address"
        },
        {
          "internalType": "uint256",
          "name": "_tokenId",
          "type": "uint256"
        }
      ],
      "name": "transfer",
      "outputs": [],
      "payable": false,
      "stateMutability": "nonpayable",
      "type": "function"
    }
  ],
  "bytecode": "0x608060405234801561001057600080fd5b5033600360006101000a81548173ffffffffffffffffffffffffffffffffffffffff021916908373ffffffffffffffffffffffffffffffffffffffff1602179055506040518060400160405280600b81526020017f43727970746f50616e64610000000000000000000000000000000000000000008152506005908051906020019061009d9291906100ef565b506040518060400160405280600281526020017f4350000000000000000000000000000000000000000000000000000000000000815250600690805190602001906100e99291906100ef565b50610194565b828054600181600116156101000203166002900490600052602060002090601f016020900481019282601f1061013057805160ff191683800117855561015e565b8280016001018555821561015e579182015b8281111561015d578251825591602001919060010190610142565b5b50905061016b919061016f565b5090565b61019191905b8082111561018d576000816000905550600101610175565b5090565b90565b610840806101a36000396000f3fe608060405234801561001057600080fd5b50600436106100625760003560e01c806306fdde031461006757806318160ddd146100ea5780636352211e1461010857806370a082311461017657806395d89b41146101ce578063a9059cbb14610251575b600080fd5b61006f61029f565b6040518080602001828103825283818151815260200191508051906020019080838360005b838110156100af578082015181840152602081019050610094565b50505050905090810190601f1680156100dc5780820380516001836020036101000a031916815260200191505b509250505060405180910390f35b6100f2610341565b6040518082815260200191505060405180910390f35b6101346004803603602081101561011e57600080fd5b810190808035906020019092919050505061034b565b604051808273ffffffffffffffffffffffffffffffffffffffff1673ffffffffffffffffffffffffffffffffffffffff16815260200191505060405180910390f35b6101b86004803603602081101561018c57600080fd5b81019080803573ffffffffffffffffffffffffffffffffffffffff16906020019092919050505061039d565b6040518082815260200191505060405180910390f35b6101d66103e6565b6040518080602001828103825283818151815260200191508051906020019080838360005b838110156102165780820151818401526020810190506101fb565b50505050905090810190601f1680156102435780820380516001836020036101000a031916815260200191505b509250505060405180910390f35b61029d6004803603604081101561026757600080fd5b81019080803573ffffffffffffffffffffffffffffffffffffffff16906020019092919080359060200190929190505050610488565b005b606060058054600181600116156101000203166002900480601f0160208091040260200160405190810160405280929190818152602001828054600181600116156101000203166002900480156103375780601f1061030c57610100808354040283529160200191610337565b820191906000526020600020905b81548152906001019060200180831161031a57829003601f168201915b5050505050905090565b6000600454905090565b6000816002805490501161035e57600080fd5b6002828154811061036b57fe5b9060005260206000200160009054906101000a900473ffffffffffffffffffffffffffffffffffffffff169050919050565b6000600160008373ffffffffffffffffffffffffffffffffffffffff1673ffffffffffffffffffffffffffffffffffffffff168152602001908152602001600020549050919050565b606060068054600181600116156101000203166002900480601f01602080910402602001604051908101604052809291908181526020018280546001816001161561010002031660029004801561047e5780601f106104535761010080835404028352916020019161047e565b820191906000526020600020905b81548152906001019060200180831161046157829003601f168201915b5050505050905090565b600073ffffffffffffffffffffffffffffffffffffffff168273ffffffffffffffffffffffffffffffffffffffff1614156104c257600080fd5b600360009054906101000a900473ffffffffffffffffffffffffffffffffffffffff1673ffffffffffffffffffffffffffffffffffffffff168273ffffffffffffffffffffffffffffffffffffffff16141561051d57600080fd5b3373ffffffffffffffffffffffffffffffffffffffff166002828154811061054157fe5b9060005260206000200160009054906101000a900473ffffffffffffffffffffffffffffffffffffffff1673ffffffffffffffffffffffffffffffffffffffff161461058c57600080fd5b6000600160008473ffffffffffffffffffffffffffffffffffffffff1673ffffffffffffffffffffffffffffffffffffffff16815260200190815260200160002054905060018101600160008573ffffffffffffffffffffffffffffffffffffffff1673ffffffffffffffffffffffffffffffffffffffff16815260200190815260200160002081905550826002838154811061062557fe5b9060005260206000200160006101000a81548173ffffffffffffffffffffffffffffffffffffffff021916908373ffffffffffffffffffffffffffffffffffffffff16021790555060018060003373ffffffffffffffffffffffffffffffffffffffff1673ffffffffffffffffffffffffffffffffffffffff1681526020019081526020016000205403600160003373ffffffffffffffffffffffffffffffffffffffff1673ffffffffffffffffffffffffffffffffffffffff168152602001908152602001600020819055508273ffffffffffffffffffffffffffffffffffffffff166002838154811061071657fe5b9060005260206000200160009054906101000a900473ffffffffffffffffffffffffffffffffffffffff1673ffffffffffffffffffffffffffffffffffffffff161480156107a5575060018101600160008573ffffffffffffffffffffffffffffffffffffffff1673ffffffffffffffffffffffffffffffffffffffff16815260200190815260200160002054145b6107ab57fe5b818373ffffffffffffffffffffffffffffffffffffffff163373ffffffffffffffffffffffffffffffffffffffff167fddf252ad1be2c89b69c2b068fc378daa952ba7f163c4a11628f55a4df523b3ef60405160405180910390a450505056fea265627a7a723158203279a510568dc6acdbc155203eb0ecfb682d0e5902f7dfaca975341676a7bfc764736f6c634300050c0032",
  "source": "pragma solidity ^0.5.12;\n\nimport \"./IERC721.sol\";\n//import './Safemath.sol';\n\ncontract PandaContract is IERC721{\n\n    //using SafeMath for uint256;\n\n    struct Panda{\n        uint256 genes;\n        uint64 birthTime;\n        uint32 mumId;\n        uint32 dadId;\n        uint16 generation;\n    }\n\n    Panda[] pandas;\n\n    //private variables\n    mapping (address => uint256) private _OwnerAnimalCount;\n    address[]  private _PandaOwner;\n    address ContractAddress;\n    uint256 private _TotalSupply;\n    string  private _TokenName;\n    string private _TokenSymbol;\n    \n    constructor() public{\n        ContractAddress = msg.sender;\n        _TokenName= \"CryptoPanda\";\n        _TokenSymbol = \"CP\";\n    }\n\n    /**\n     * @dev Emitted when `tokenId` token is transfered from `from` to `to`.\n     */\n    event Transfer(address indexed from, address indexed to, uint256 indexed tokenId);\n\n    /**\n     * @dev Emitted when `owner` enables `approved` to manage the `tokenId` token.\n     */\n    event Approval(address indexed owner, address indexed approved, uint256 indexed tokenId);\n\n    /**\n     * @dev Returns the number of tokens in ``owner``'s account.\n     */\n    function balanceOf(address owner) external view returns (uint256 balance){\n        return _OwnerAnimalCount[owner];\n    }\n\n    /*\n     * @dev Returns the total number of tokens in circulation.\n     */\n    function totalSupply() external view returns (uint256 total){\n        return _TotalSupply;\n    }\n\n    /*\n     * @dev Returns the name of the token.\n     */\n    function name() external view returns (string memory tokenName){\n        return _TokenName;\n    }\n\n    /*\n     * @dev Returns the symbol of the token.\n     */\n    function symbol() external view returns (string memory tokenSymbol){\n        return _TokenSymbol;\n    }\n\n    /**\n     * @dev Returns the owner of the `tokenId` token.\n     *\n     * Requirements:\n     *\n     * - `tokenId` must exist.\n     */\n    function ownerOf(uint256 _tokenId) external view returns (address owner){\n        require(_PandaOwner.length > _tokenId);\n        return _PandaOwner[_tokenId];\n    }\n\n\n     /* @dev Transfers `tokenId` token from `msg.sender` to `to`.\n     *\n     *\n     * Requirements:\n     *\n     * - `to` cannot be the zero address.\n     * - `to` can not be the contract address.\n     * - `tokenId` token must be owned by `msg.sender`.\n     *\n     * Emits a {Transfer} event.\n     */\n    function transfer(address _to, uint256 _tokenId) external{\n        require( _to != address(0));\n        require( _to != ContractAddress);\n        require(_PandaOwner[_tokenId] == msg.sender);\n\n        uint256 toAnimalCount = _OwnerAnimalCount[_to];\n        _OwnerAnimalCount[_to] = toAnimalCount +1;\n        _PandaOwner[_tokenId]=_to;\n        _OwnerAnimalCount[msg.sender]= _OwnerAnimalCount[msg.sender]-1;\n\n        assert(_PandaOwner[_tokenId]==_to && _OwnerAnimalCount[_to] == toAnimalCount+1);\n\n        emit Transfer(msg.sender, _to,  _tokenId);\n    }\n}\n\n",
  "sourcePath": "/home/ismael/Documents/Blockchain Bootcamp/GIT/CryptoKitties-clone/contracts/PandaContract.sol",
  "compiler": {
    "name": "solc",
    "version": "0.5.12+commit.7709ece9.Emscripten.clang"
  },
  "schemaVersion": "3.2.0",
  "updatedAt": "2020-09-21T13:53:46.930Z",
  "networkType": "ethereum",
  "devdoc": {
    "methods": {
      "balanceOf(address)": {
        "details": "Returns the number of tokens in ``owner``'s account."
      },
      "ownerOf(uint256)": {
        "details": "Returns the owner of the `tokenId` token.     * Requirements:     * - `tokenId` must exist."
      }
    }
  },
  "userdoc": {
    "methods": {}
  }
}