{
  "contractName": "PandaContract",
  "abi": [
    {
      "inputs": [],
      "payable": false,
      "stateMutability": "nonpayable",
      "type": "constructor"
    },
    {
      "anonymous": false,
      "inputs": [
        {
          "indexed": true,
          "internalType": "address",
          "name": "owner",
          "type": "address"
        },
        {
          "indexed": true,
          "internalType": "address",
          "name": "approved",
          "type": "address"
        },
        {
          "indexed": true,
          "internalType": "uint256",
          "name": "tokenId",
          "type": "uint256"
        }
      ],
      "name": "Approval",
      "type": "event"
    },
    {
      "anonymous": false,
      "inputs": [
        {
          "indexed": false,
          "internalType": "address",
          "name": "_owner",
          "type": "address"
        },
        {
          "indexed": false,
          "internalType": "uint256",
          "name": "PandaId",
          "type": "uint256"
        },
        {
          "indexed": false,
          "internalType": "uint256",
          "name": "mumId",
          "type": "uint256"
        },
        {
          "indexed": false,
          "internalType": "uint256",
          "name": "dadId",
          "type": "uint256"
        },
        {
          "indexed": false,
          "internalType": "uint256",
          "name": "genes",
          "type": "uint256"
        }
      ],
      "name": "Birth",
      "type": "event"
    },
    {
      "anonymous": false,
      "inputs": [
        {
          "indexed": true,
          "internalType": "address",
          "name": "from",
          "type": "address"
        },
        {
          "indexed": true,
          "internalType": "address",
          "name": "to",
          "type": "address"
        },
        {
          "indexed": true,
          "internalType": "uint256",
          "name": "tokenId",
          "type": "uint256"
        }
      ],
      "name": "Transfer",
      "type": "event"
    },
    {
      "constant": true,
      "inputs": [],
      "name": "CREATION_GEN_LIMIT",
      "outputs": [
        {
          "internalType": "uint8",
          "name": "",
          "type": "uint8"
        }
      ],
      "payable": false,
      "stateMutability": "view",
      "type": "function"
    },
    {
      "constant": true,
      "inputs": [],
      "name": "owner",
      "outputs": [
        {
          "internalType": "address",
          "name": "",
          "type": "address"
        }
      ],
      "payable": false,
      "stateMutability": "view",
      "type": "function"
    },
    {
      "constant": false,
      "inputs": [
        {
          "internalType": "uint256",
          "name": "_genes",
          "type": "uint256"
        }
      ],
      "name": "createPandaGen0",
      "outputs": [
        {
          "internalType": "uint256",
          "name": "",
          "type": "uint256"
        }
      ],
      "payable": false,
      "stateMutability": "nonpayable",
      "type": "function"
    },
    {
      "constant": true,
      "inputs": [
        {
          "internalType": "address",
          "name": "PandaOwnerAddress",
          "type": "address"
        }
      ],
      "name": "getPandaArray",
      "outputs": [
        {
          "internalType": "uint256[]",
          "name": "",
          "type": "uint256[]"
        }
      ],
      "payable": false,
      "stateMutability": "view",
      "type": "function"
    },
    {
      "constant": true,
      "inputs": [
        {
          "internalType": "uint256",
          "name": "tokenId",
          "type": "uint256"
        }
      ],
      "name": "getPanda",
      "outputs": [
        {
          "internalType": "uint256",
          "name": "genes",
          "type": "uint256"
        },
        {
          "internalType": "uint64",
          "name": "birthTime",
          "type": "uint64"
        },
        {
          "internalType": "uint32",
          "name": "mumId",
          "type": "uint32"
        },
        {
          "internalType": "uint32",
          "name": "dadId",
          "type": "uint32"
        },
        {
          "internalType": "uint16",
          "name": "generation",
          "type": "uint16"
        }
      ],
      "payable": false,
      "stateMutability": "view",
      "type": "function"
    },
    {
      "constant": true,
      "inputs": [
        {
          "internalType": "address",
          "name": "owner",
          "type": "address"
        }
      ],
      "name": "balanceOf",
      "outputs": [
        {
          "internalType": "uint256",
          "name": "balance",
          "type": "uint256"
        }
      ],
      "payable": false,
      "stateMutability": "view",
      "type": "function"
    },
    {
      "constant": true,
      "inputs": [],
      "name": "totalSupply",
      "outputs": [
        {
          "internalType": "uint256",
          "name": "total",
          "type": "uint256"
        }
      ],
      "payable": false,
      "stateMutability": "view",
      "type": "function"
    },
    {
      "constant": true,
      "inputs": [],
      "name": "name",
      "outputs": [
        {
          "internalType": "string",
          "name": "tokenName",
          "type": "string"
        }
      ],
      "payable": false,
      "stateMutability": "view",
      "type": "function"
    },
    {
      "constant": true,
      "inputs": [],
      "name": "symbol",
      "outputs": [
        {
          "internalType": "string",
          "name": "tokenSymbol",
          "type": "string"
        }
      ],
      "payable": false,
      "stateMutability": "view",
      "type": "function"
    },
    {
      "constant": true,
      "inputs": [
        {
          "internalType": "uint256",
          "name": "_tokenId",
          "type": "uint256"
        }
      ],
      "name": "ownerOf",
      "outputs": [
        {
          "internalType": "address",
          "name": "owner",
          "type": "address"
        }
      ],
      "payable": false,
      "stateMutability": "view",
      "type": "function"
    },
    {
      "constant": false,
      "inputs": [
        {
          "internalType": "address",
          "name": "_to",
          "type": "address"
        },
        {
          "internalType": "uint256",
          "name": "_tokenId",
          "type": "uint256"
        }
      ],
      "name": "transfer",
      "outputs": [],
      "payable": false,
      "stateMutability": "nonpayable",
      "type": "function"
    }
  ],
  "bytecode": "0x60806040526000600660006101000a81548160ff021916908360ff16021790555034801561002c57600080fd5b50336000806101000a81548173ffffffffffffffffffffffffffffffffffffffff021916908373ffffffffffffffffffffffffffffffffffffffff1602179055506040518060400160405280600b81526020017f43727970746f50616e6461000000000000000000000000000000000000000000815250600490805190602001906100b892919061010a565b506040518060400160405280600281526020017f43500000000000000000000000000000000000000000000000000000000000008152506005908051906020019061010492919061010a565b506101af565b828054600181600116156101000203166002900490600052602060002090601f016020900481019282601f1061014b57805160ff1916838001178555610179565b82800160010185558215610179579182015b8281111561017857825182559160200191906001019061015d565b5b509050610186919061018a565b5090565b6101ac91905b808211156101a8576000816000905550600101610190565b5090565b90565b610f3680620001bf6000396000f3fe608060405234801561001057600080fd5b50600436106100a95760003560e01c806370a082311161007157806370a08231146102e85780638da5cb5b1461034057806395d89b411461038a578063a9059cbb1461040d578063aefbc31f1461045b578063d967c6211461047f576100a9565b806306fdde03146100ae5780631327fbe51461013157806318160ddd146101c357806352cf4a2e146101e15780636352211e1461027a575b600080fd5b6100b66104c1565b6040518080602001828103825283818151815260200191508051906020019080838360005b838110156100f65780820151818401526020810190506100db565b50505050905090810190601f1680156101235780820380516001836020036101000a031916815260200191505b509250505060405180910390f35b61015d6004803603602081101561014757600080fd5b8101908080359060200190929190505050610563565b604051808681526020018567ffffffffffffffff1667ffffffffffffffff1681526020018463ffffffff1663ffffffff1681526020018363ffffffff1663ffffffff1681526020018261ffff1661ffff1681526020019550505050505060405180910390f35b6101cb61067b565b6040518082815260200191505060405180910390f35b610223600480360360208110156101f757600080fd5b81019080803573ffffffffffffffffffffffffffffffffffffffff169060200190929190505050610688565b6040518080602001828103825283818151815260200191508051906020019060200280838360005b8381101561026657808201518184015260208101905061024b565b505050509050019250505060405180910390f35b6102a66004803603602081101561029057600080fd5b81019080803590602001909291905050506106fa565b604051808273ffffffffffffffffffffffffffffffffffffffff1673ffffffffffffffffffffffffffffffffffffffff16815260200191505060405180910390f35b61032a600480360360208110156102fe57600080fd5b81019080803573ffffffffffffffffffffffffffffffffffffffff169060200190929190505050610737565b6040518082815260200191505060405180910390f35b610348610780565b604051808273ffffffffffffffffffffffffffffffffffffffff1673ffffffffffffffffffffffffffffffffffffffff16815260200191505060405180910390f35b6103926107a5565b6040518080602001828103825283818151815260200191508051906020019080838360005b838110156103d25780820151818401526020810190506103b7565b50505050905090810190601f1680156103ff5780820380516001836020036101000a031916815260200191505b509250505060405180910390f35b6104596004803603604081101561042357600080fd5b81019080803573ffffffffffffffffffffffffffffffffffffffff16906020019092919080359060200190929190505050610847565b005b610463610955565b604051808260ff1660ff16815260200191505060405180910390f35b6104ab6004803603602081101561049557600080fd5b810190808035906020019092919050505061095a565b6040518082815260200191505060405180910390f35b606060048054600181600116156101000203166002900480601f0160208091040260200160405190810160405280929190818152602001828054600181600116156101000203166002900480156105595780601f1061052e57610100808354040283529160200191610559565b820191906000526020600020905b81548152906001019060200180831161053c57829003601f168201915b5050505050905090565b6000806000806000856001805490501161057c57600080fd5b6001868154811061058957fe5b9060005260206000209060020201600001549450600186815481106105aa57fe5b906000526020600020906002020160010160009054906101000a900467ffffffffffffffff169350600186815481106105df57fe5b906000526020600020906002020160010160089054906101000a900463ffffffff1692506001868154811061061057fe5b9060005260206000209060020201600101600c9054906101000a900463ffffffff1691506001868154811061064157fe5b906000526020600020906002020160010160109054906101000a900461ffff16905084848484849450945094509450945091939590929450565b6000600180549050905090565b6060806000600260008573ffffffffffffffffffffffffffffffffffffffff1673ffffffffffffffffffffffffffffffffffffffff16815260200190815260200160002054905060008090506017836000815181106106e357fe5b602002602001018181525050829350505050919050565b60006003600083815260200190815260200160002060009054906101000a900473ffffffffffffffffffffffffffffffffffffffff169050919050565b6000600260008373ffffffffffffffffffffffffffffffffffffffff1673ffffffffffffffffffffffffffffffffffffffff168152602001908152602001600020549050919050565b6000809054906101000a900473ffffffffffffffffffffffffffffffffffffffff1681565b606060058054600181600116156101000203166002900480601f01602080910402602001604051908101604052809291908181526020018280546001816001161561010002031660029004801561083d5780601f106108125761010080835404028352916020019161083d565b820191906000526020600020905b81548152906001019060200180831161082057829003601f168201915b5050505050905090565b600073ffffffffffffffffffffffffffffffffffffffff168273ffffffffffffffffffffffffffffffffffffffff16141561088157600080fd5b6000809054906101000a900473ffffffffffffffffffffffffffffffffffffffff1673ffffffffffffffffffffffffffffffffffffffff168273ffffffffffffffffffffffffffffffffffffffff1614156108db57600080fd5b3373ffffffffffffffffffffffffffffffffffffffff166003600083815260200190815260200160002060009054906101000a900473ffffffffffffffffffffffffffffffffffffffff1673ffffffffffffffffffffffffffffffffffffffff161461094657600080fd5b610951338383610a40565b5050565b600081565b60008060009054906101000a900473ffffffffffffffffffffffffffffffffffffffff1673ffffffffffffffffffffffffffffffffffffffff163373ffffffffffffffffffffffffffffffffffffffff16146109b557600080fd5b600060ff16600660009054906101000a900460ff1660ff16106109d757600080fd5b6006600081819054906101000a900460ff168092919060010191906101000a81548160ff021916908360ff16021790555050610a396000808460008060009054906101000a900473ffffffffffffffffffffffffffffffffffffffff16610cee565b9050919050565b6000600260008473ffffffffffffffffffffffffffffffffffffffff1673ffffffffffffffffffffffffffffffffffffffff16815260200190815260200160002054905060018101600260008573ffffffffffffffffffffffffffffffffffffffff1673ffffffffffffffffffffffffffffffffffffffff16815260200190815260200160002081905550826003600084815260200190815260200160002060006101000a81548173ffffffffffffffffffffffffffffffffffffffff021916908373ffffffffffffffffffffffffffffffffffffffff160217905550600073ffffffffffffffffffffffffffffffffffffffff168473ffffffffffffffffffffffffffffffffffffffff1614610bd8576001600260008673ffffffffffffffffffffffffffffffffffffffff1673ffffffffffffffffffffffffffffffffffffffff1681526020019081526020016000205403600260008673ffffffffffffffffffffffffffffffffffffffff1673ffffffffffffffffffffffffffffffffffffffff168152602001908152602001600020819055505b8273ffffffffffffffffffffffffffffffffffffffff166003600084815260200190815260200160002060009054906101000a900473ffffffffffffffffffffffffffffffffffffffff1673ffffffffffffffffffffffffffffffffffffffff16148015610c87575060018101600260008573ffffffffffffffffffffffffffffffffffffffff1673ffffffffffffffffffffffffffffffffffffffff16815260200190815260200160002054145b610c8d57fe5b818373ffffffffffffffffffffffffffffffffffffffff168573ffffffffffffffffffffffffffffffffffffffff167fddf252ad1be2c89b69c2b068fc378daa952ba7f163c4a11628f55a4df523b3ef60405160405180910390a450505050565b6000610cf8610eb8565b6040518060a001604052808681526020014267ffffffffffffffff1681526020018863ffffffff1681526020018763ffffffff1681526020018561ffff168152509050600060018083908060018154018082558091505090600182039060005260206000209060020201600090919290919091506000820151816000015560208201518160010160006101000a81548167ffffffffffffffff021916908367ffffffffffffffff16021790555060408201518160010160086101000a81548163ffffffff021916908363ffffffff160217905550606082015181600101600c6101000a81548163ffffffff021916908363ffffffff16021790555060808201518160010160106101000a81548161ffff021916908361ffff1602179055505050039050610e2760008583610a40565b7f0a5311bd2a6608f08a180df2ee7c5946819a649b204b554bb8e39825b2c50ad584828a8a8a604051808673ffffffffffffffffffffffffffffffffffffffff1673ffffffffffffffffffffffffffffffffffffffff1681526020018581526020018481526020018381526020018281526020019550505050505060405180910390a1809250505095945050505050565b6040518060a0016040528060008152602001600067ffffffffffffffff168152602001600063ffffffff168152602001600063ffffffff168152602001600061ffff168152509056fea265627a7a723158209c34501e9389cdec96fd3db73c38b4b4a7d29a0f5f945fcfd4a4db231d54412264736f6c634300050c0032",
  "source": "pragma solidity ^0.5.12;\n\nimport \"./IERC721.sol\";\nimport \"./Ownable.sol\";\n//import './Safemath.sol';\n\ncontract PandaContract is IERC721, Ownable{\n\n    //using SafeMath for uint256;\n\n    uint8 public constant CREATION_GEN_LIMIT = 0 ;\n\n    struct Panda{\n        uint256 genes;\n        uint64 birthTime;\n        uint32 mumId;\n        uint32 dadId;\n        uint16 generation;\n    }\n\n    Panda[] pandas;\n\n    event Transfer(address indexed from, address indexed to, uint256 indexed tokenId);\n    event Approval(address indexed owner, address indexed approved, uint256 indexed tokenId);\n    event Birth(address _owner,uint256 PandaId, uint256 mumId, uint256 dadId, uint256 genes); \n\n    //private variables\n    mapping (address => uint256) private _OwnerAnimalCount;\n    mapping(uint256 => address) private _PandaOwner;\n    string  private _TokenName;\n    string private _TokenSymbol;\n    \n    constructor() public{\n        _TokenName= \"CryptoPanda\";\n        _TokenSymbol = \"CP\";\n    }\n\n    uint8 gen0Counter= 0;\n\n    function createPandaGen0(uint256 _genes) public onlyOwner returns (uint256) {\n        require( gen0Counter < CREATION_GEN_LIMIT);\n        gen0Counter++;\n        return _CreatePanda(0,0,_genes,0,owner);\n    }\n\n    function _CreatePanda(uint256 _mumId,uint256 _dadId,uint256 _genes,uint256 _generation,address _owner) private returns (uint256){\n        Panda memory _panda = Panda({\n            genes: _genes,\n            birthTime:uint64(now),\n            mumId:uint32(_mumId),\n            dadId:uint32(_dadId),\n            generation:uint16(_generation)\n        });\n\n        uint256 newPandaId = pandas.push(_panda)-1;\n\n        _transfer(address(0), _owner, newPandaId);\n\n        emit Birth(_owner, newPandaId, _mumId, _dadId, _genes);\n\n        return newPandaId;\n    }\n\n    function getPandaArray (address PandaOwnerAddress) public view returns (uint256[] memory ){\n        uint256[] memory _pandaArray;\n        uint256 numberOfPandasOwned = _OwnerAnimalCount[PandaOwnerAddress];\n        uint256 pandasFoundCount=0;\n\n        // for(uint256 i=0; i< pandas.length || pandasFoundCount == numberOfPandasOwned; i++){\n        //   if(_PandaOwner[i]==msg.sender){\n        //     _pandaArray[pandasFoundCount]=i;\n        //     pandasFoundCount++;\n        //   }\n        // }\n        _pandaArray[0]=23;\n        return _pandaArray;\n    }\n\n    function getPanda(uint256 tokenId) public view returns(uint256 genes,uint64 birthTime,uint32 mumId,uint32 dadId,uint16 generation) \n    {\n        require(pandas.length > tokenId);\n\n        genes       =pandas[tokenId].genes;\n        birthTime   =pandas[tokenId].birthTime;\n        mumId       =pandas[tokenId].mumId;\n        dadId       =pandas[tokenId].dadId;\n        generation  =pandas[tokenId].generation;\n\n        return (genes,birthTime,mumId,dadId,generation);\n    }\n\n    \n\n    /**\n     * @dev Returns the number of tokens in ``owner``'s account.\n     */\n    function balanceOf(address owner) external view returns (uint256 balance){\n        return _OwnerAnimalCount[owner];\n    }\n\n    /*\n     * @dev Returns the total number of tokens in circulation.\n     */\n    function totalSupply() external view returns (uint256 total){\n        return pandas.length;\n    }\n\n    /*\n     * @dev Returns the name of the token.\n     */\n    function name() external view returns (string memory tokenName){\n        return _TokenName;\n    }\n\n    /*\n     * @dev Returns the symbol of the token.\n     */\n    function symbol() external view returns (string memory tokenSymbol){\n        return _TokenSymbol;\n    }\n\n    /**\n     * @dev Returns the owner of the `tokenId` token.\n     *\n     * Requirements:\n     *\n     * - `tokenId` must exist.\n     */\n    function ownerOf(uint256 _tokenId) external view returns (address owner){\n        return _PandaOwner[_tokenId];\n    }\n\n\n     /* @dev Transfers `tokenId` token from `msg.sender` to `to`.\n     *\n     *\n     * Requirements:\n     *\n     * - `to` cannot be the zero address.\n     * - `to` can not be the contract address.\n     * - `tokenId` token must be owned by `msg.sender`.\n     *\n     * Emits a {Transfer} event.\n     */\n    function transfer(address _to, uint256 _tokenId) external{\n        require( _to != address(0));\n        require( _to != owner);\n        require(_PandaOwner[_tokenId] == msg.sender);\n\n        _transfer(msg.sender,_to,_tokenId);\n    }\n\n    function _transfer(address _from,address _to, uint256 _tokenId) internal {\n        uint256 toAnimalCount = _OwnerAnimalCount[_to];\n        _OwnerAnimalCount[_to] = toAnimalCount +1;\n        _PandaOwner[_tokenId]=_to;\n\n        if(_from != address(0) ){\n            _OwnerAnimalCount[_from]= _OwnerAnimalCount[_from]-1;\n        }\n\n        assert(_PandaOwner[_tokenId]==_to && _OwnerAnimalCount[_to] == toAnimalCount+1);\n\n        emit Transfer(_from, _to,  _tokenId);\n    }\n}\n\n",
  "sourcePath": "/home/ismael/Documents/Blockchain Bootcamp/GIT/CryptoKitties-clone/contracts/PandaContract.sol",
  "compiler": {
    "name": "solc",
    "version": "0.5.12+commit.7709ece9.Emscripten.clang"
  },
  "schemaVersion": "3.2.0",
  "updatedAt": "2020-09-24T13:55:42.198Z",
  "networkType": "ethereum",
  "devdoc": {
    "methods": {
      "balanceOf(address)": {
        "details": "Returns the number of tokens in ``owner``'s account."
      },
      "ownerOf(uint256)": {
        "details": "Returns the owner of the `tokenId` token.     * Requirements:     * - `tokenId` must exist."
      }
    }
  },
  "userdoc": {
    "methods": {}
  }
}